{
  "contractName": "CollectCoin",
  "abi": [
    {
      "inputs": [
        {
          "internalType": "uint256",
          "name": "_totalSupply",
          "type": "uint256"
        },
        {
          "internalType": "address",
          "name": "receiver",
          "type": "address"
        }
      ],
      "stateMutability": "nonpayable",
      "type": "constructor"
    },
    {
      "anonymous": false,
      "inputs": [
        {
          "indexed": true,
          "internalType": "address",
          "name": "owner",
          "type": "address"
        },
        {
          "indexed": true,
          "internalType": "address",
          "name": "spender",
          "type": "address"
        },
        {
          "indexed": false,
          "internalType": "uint256",
          "name": "value",
          "type": "uint256"
        }
      ],
      "name": "Approval",
      "type": "event"
    },
    {
      "anonymous": false,
      "inputs": [
        {
          "indexed": true,
          "internalType": "address",
          "name": "from",
          "type": "address"
        },
        {
          "indexed": true,
          "internalType": "address",
          "name": "to",
          "type": "address"
        },
        {
          "indexed": false,
          "internalType": "uint256",
          "name": "value",
          "type": "uint256"
        }
      ],
      "name": "Transfer",
      "type": "event"
    },
    {
      "inputs": [
        {
          "internalType": "address",
          "name": "owner",
          "type": "address"
        },
        {
          "internalType": "address",
          "name": "spender",
          "type": "address"
        }
      ],
      "name": "allowance",
      "outputs": [
        {
          "internalType": "uint256",
          "name": "",
          "type": "uint256"
        }
      ],
      "stateMutability": "view",
      "type": "function"
    },
    {
      "inputs": [
        {
          "internalType": "address",
          "name": "spender",
          "type": "address"
        },
        {
          "internalType": "uint256",
          "name": "amount",
          "type": "uint256"
        }
      ],
      "name": "approve",
      "outputs": [
        {
          "internalType": "bool",
          "name": "",
          "type": "bool"
        }
      ],
      "stateMutability": "nonpayable",
      "type": "function"
    },
    {
      "inputs": [
        {
          "internalType": "address",
          "name": "account",
          "type": "address"
        }
      ],
      "name": "balanceOf",
      "outputs": [
        {
          "internalType": "uint256",
          "name": "",
          "type": "uint256"
        }
      ],
      "stateMutability": "view",
      "type": "function"
    },
    {
      "inputs": [],
      "name": "decimals",
      "outputs": [
        {
          "internalType": "uint8",
          "name": "",
          "type": "uint8"
        }
      ],
      "stateMutability": "view",
      "type": "function"
    },
    {
      "inputs": [
        {
          "internalType": "address",
          "name": "spender",
          "type": "address"
        },
        {
          "internalType": "uint256",
          "name": "subtractedValue",
          "type": "uint256"
        }
      ],
      "name": "decreaseAllowance",
      "outputs": [
        {
          "internalType": "bool",
          "name": "",
          "type": "bool"
        }
      ],
      "stateMutability": "nonpayable",
      "type": "function"
    },
    {
      "inputs": [
        {
          "internalType": "address",
          "name": "spender",
          "type": "address"
        },
        {
          "internalType": "uint256",
          "name": "addedValue",
          "type": "uint256"
        }
      ],
      "name": "increaseAllowance",
      "outputs": [
        {
          "internalType": "bool",
          "name": "",
          "type": "bool"
        }
      ],
      "stateMutability": "nonpayable",
      "type": "function"
    },
    {
      "inputs": [],
      "name": "name",
      "outputs": [
        {
          "internalType": "string",
          "name": "",
          "type": "string"
        }
      ],
      "stateMutability": "view",
      "type": "function"
    },
    {
      "inputs": [],
      "name": "symbol",
      "outputs": [
        {
          "internalType": "string",
          "name": "",
          "type": "string"
        }
      ],
      "stateMutability": "view",
      "type": "function"
    },
    {
      "inputs": [],
      "name": "totalSupply",
      "outputs": [
        {
          "internalType": "uint256",
          "name": "",
          "type": "uint256"
        }
      ],
      "stateMutability": "view",
      "type": "function"
    },
    {
      "inputs": [
        {
          "internalType": "address",
          "name": "recipient",
          "type": "address"
        },
        {
          "internalType": "uint256",
          "name": "amount",
          "type": "uint256"
        }
      ],
      "name": "transfer",
      "outputs": [
        {
          "internalType": "bool",
          "name": "",
          "type": "bool"
        }
      ],
      "stateMutability": "nonpayable",
      "type": "function"
    },
    {
      "inputs": [
        {
          "internalType": "address",
          "name": "sender",
          "type": "address"
        },
        {
          "internalType": "address",
          "name": "recipient",
          "type": "address"
        },
        {
          "internalType": "uint256",
          "name": "amount",
          "type": "uint256"
        }
      ],
      "name": "transferFrom",
      "outputs": [
        {
          "internalType": "bool",
          "name": "",
          "type": "bool"
        }
      ],
      "stateMutability": "nonpayable",
      "type": "function"
    },
    {
      "inputs": [
        {
          "internalType": "address",
          "name": "account",
          "type": "address"
        },
        {
          "internalType": "uint256",
          "name": "amount",
          "type": "uint256"
        }
      ],
      "name": "burn",
      "outputs": [],
      "stateMutability": "nonpayable",
      "type": "function"
    }
  ],
  "bytecode": "0x60806040523480156200001157600080fd5b5060405162001efb38038062001efb83398181016040528101906200003791906200036f565b6040518060400160405280600b81526020017f436f6c6c656374436f696e0000000000000000000000000000000000000000008152506040518060400160405280600481526020017f434c4354000000000000000000000000000000000000000000000000000000008152508160039080519060200190620000bb92919062000291565b508060049080519060200190620000d492919062000291565b5050506200011681620000ec6200011e60201b60201c565b60ff16600a620000fd9190620004f6565b846200010a919062000633565b6200012760201b60201c565b5050620007d5565b60006012905090565b600073ffffffffffffffffffffffffffffffffffffffff168273ffffffffffffffffffffffffffffffffffffffff1614156200019a576040517f08c379a00000000000000000000000000000000000000000000000000000000081526004016200019190620003ee565b60405180910390fd5b620001ae600083836200028c60201b60201c565b8060026000828254620001c291906200043e565b92505081905550806000808473ffffffffffffffffffffffffffffffffffffffff1673ffffffffffffffffffffffffffffffffffffffff16815260200190815260200160002060008282546200021991906200043e565b925050819055508173ffffffffffffffffffffffffffffffffffffffff16600073ffffffffffffffffffffffffffffffffffffffff167fddf252ad1be2c89b69c2b068fc378daa952ba7f163c4a11628f55a4df523b3ef8360405162000280919062000410565b60405180910390a35050565b505050565b8280546200029f90620006d2565b90600052602060002090601f016020900481019282620002c357600085556200030f565b82601f10620002de57805160ff19168380011785556200030f565b828001600101855582156200030f579182015b828111156200030e578251825591602001919060010190620002f1565b5b5090506200031e919062000322565b5090565b5b808211156200033d57600081600090555060010162000323565b5090565b6000815190506200035281620007a1565b92915050565b6000815190506200036981620007bb565b92915050565b6000806040838503121562000389576200038862000766565b5b6000620003998582860162000358565b9250506020620003ac8582860162000341565b9150509250929050565b6000620003c5601f836200042d565b9150620003d28262000778565b602082019050919050565b620003e881620006c8565b82525050565b600060208201905081810360008301526200040981620003b6565b9050919050565b6000602082019050620004276000830184620003dd565b92915050565b600082825260208201905092915050565b60006200044b82620006c8565b91506200045883620006c8565b9250827fffffffffffffffffffffffffffffffffffffffffffffffffffffffffffffffff0382111562000490576200048f62000708565b5b828201905092915050565b6000808291508390505b6001851115620004ed57808604811115620004c557620004c462000708565b5b6001851615620004d55780820291505b8081029050620004e5856200076b565b9450620004a5565b94509492505050565b60006200050382620006c8565b91506200051083620006c8565b92506200053f7fffffffffffffffffffffffffffffffffffffffffffffffffffffffffffffffff848462000547565b905092915050565b6000826200055957600190506200062c565b816200056957600090506200062c565b81600181146200058257600281146200058d57620005c3565b60019150506200062c565b60ff841115620005a257620005a162000708565b5b8360020a915084821115620005bc57620005bb62000708565b5b506200062c565b5060208310610133831016604e8410600b8410161715620005fd5782820a905083811115620005f757620005f662000708565b5b6200062c565b6200060c84848460016200049b565b9250905081840481111562000626576200062562000708565b5b81810290505b9392505050565b60006200064082620006c8565b91506200064d83620006c8565b9250817fffffffffffffffffffffffffffffffffffffffffffffffffffffffffffffffff048311821515161562000689576200068862000708565b5b828202905092915050565b6000620006a182620006a8565b9050919050565b600073ffffffffffffffffffffffffffffffffffffffff82169050919050565b6000819050919050565b60006002820490506001821680620006eb57607f821691505b6020821081141562000702576200070162000737565b5b50919050565b7f4e487b7100000000000000000000000000000000000000000000000000000000600052601160045260246000fd5b7f4e487b7100000000000000000000000000000000000000000000000000000000600052602260045260246000fd5b600080fd5b60008160011c9050919050565b7f45524332303a206d696e7420746f20746865207a65726f206164647265737300600082015250565b620007ac8162000694565b8114620007b857600080fd5b50565b620007c681620006c8565b8114620007d257600080fd5b50565b61171680620007e56000396000f3fe608060405234801561001057600080fd5b50600436106100b45760003560e01c806370a082311161007157806370a08231146101a357806395d89b41146101d35780639dc29fac146101f1578063a457c2d71461020d578063a9059cbb1461023d578063dd62ed3e1461026d576100b4565b806306fdde03146100b9578063095ea7b3146100d757806318160ddd1461010757806323b872dd14610125578063313ce567146101555780633950935114610173575b600080fd5b6100c161029d565b6040516100ce919061109f565b60405180910390f35b6100f160048036038101906100ec9190610ea3565b61032f565b6040516100fe9190611084565b60405180910390f35b61010f61034d565b60405161011c91906111e1565b60405180910390f35b61013f600480360381019061013a9190610e50565b610357565b60405161014c9190611084565b60405180910390f35b61015d610458565b60405161016a91906111fc565b60405180910390f35b61018d60048036038101906101889190610ea3565b610461565b60405161019a9190611084565b60405180910390f35b6101bd60048036038101906101b89190610de3565b61050d565b6040516101ca91906111e1565b60405180910390f35b6101db610555565b6040516101e8919061109f565b60405180910390f35b61020b60048036038101906102069190610ea3565b6105e7565b005b61022760048036038101906102229190610ea3565b6105f5565b6040516102349190611084565b60405180910390f35b61025760048036038101906102529190610ea3565b6106e9565b6040516102649190611084565b60405180910390f35b61028760048036038101906102829190610e10565b610707565b60405161029491906111e1565b60405180910390f35b6060600380546102ac90611345565b80601f01602080910402602001604051908101604052809291908181526020018280546102d890611345565b80156103255780601f106102fa57610100808354040283529160200191610325565b820191906000526020600020905b81548152906001019060200180831161030857829003601f168201915b5050505050905090565b600061034361033c61078e565b8484610796565b6001905092915050565b6000600254905090565b6000610364848484610961565b6000600160008673ffffffffffffffffffffffffffffffffffffffff1673ffffffffffffffffffffffffffffffffffffffff16815260200190815260200160002060006103af61078e565b73ffffffffffffffffffffffffffffffffffffffff1673ffffffffffffffffffffffffffffffffffffffff1681526020019081526020016000205490508281101561042f576040517f08c379a000000000000000000000000000000000000000000000000000000000815260040161042690611141565b60405180910390fd5b61044c8561043b61078e565b85846104479190611289565b610796565b60019150509392505050565b60006012905090565b600061050361046e61078e565b84846001600061047c61078e565b73ffffffffffffffffffffffffffffffffffffffff1673ffffffffffffffffffffffffffffffffffffffff16815260200190815260200160002060008873ffffffffffffffffffffffffffffffffffffffff1673ffffffffffffffffffffffffffffffffffffffff168152602001908152602001600020546104fe9190611233565b610796565b6001905092915050565b60008060008373ffffffffffffffffffffffffffffffffffffffff1673ffffffffffffffffffffffffffffffffffffffff168152602001908152602001600020549050919050565b60606004805461056490611345565b80601f016020809104026020016040519081016040528092919081815260200182805461059090611345565b80156105dd5780601f106105b2576101008083540402835291602001916105dd565b820191906000526020600020905b8154815290600101906020018083116105c057829003601f168201915b5050505050905090565b6105f18282610be0565b5050565b6000806001600061060461078e565b73ffffffffffffffffffffffffffffffffffffffff1673ffffffffffffffffffffffffffffffffffffffff16815260200190815260200160002060008573ffffffffffffffffffffffffffffffffffffffff1673ffffffffffffffffffffffffffffffffffffffff168152602001908152602001600020549050828110156106c1576040517f08c379a00000000000000000000000000000000000000000000000000000000081526004016106b8906111c1565b60405180910390fd5b6106de6106cc61078e565b8585846106d99190611289565b610796565b600191505092915050565b60006106fd6106f661078e565b8484610961565b6001905092915050565b6000600160008473ffffffffffffffffffffffffffffffffffffffff1673ffffffffffffffffffffffffffffffffffffffff16815260200190815260200160002060008373ffffffffffffffffffffffffffffffffffffffff1673ffffffffffffffffffffffffffffffffffffffff16815260200190815260200160002054905092915050565b600033905090565b600073ffffffffffffffffffffffffffffffffffffffff168373ffffffffffffffffffffffffffffffffffffffff161415610806576040517f08c379a00000000000000000000000000000000000000000000000000000000081526004016107fd906111a1565b60405180910390fd5b600073ffffffffffffffffffffffffffffffffffffffff168273ffffffffffffffffffffffffffffffffffffffff161415610876576040517f08c379a000000000000000000000000000000000000000000000000000000000815260040161086d90611101565b60405180910390fd5b80600160008573ffffffffffffffffffffffffffffffffffffffff1673ffffffffffffffffffffffffffffffffffffffff16815260200190815260200160002060008473ffffffffffffffffffffffffffffffffffffffff1673ffffffffffffffffffffffffffffffffffffffff168152602001908152602001600020819055508173ffffffffffffffffffffffffffffffffffffffff168373ffffffffffffffffffffffffffffffffffffffff167f8c5be1e5ebec7d5bd14f71427d1e84f3dd0314c0f7b2291e5b200ac8c7c3b9258360405161095491906111e1565b60405180910390a3505050565b600073ffffffffffffffffffffffffffffffffffffffff168373ffffffffffffffffffffffffffffffffffffffff1614156109d1576040517f08c379a00000000000000000000000000000000000000000000000000000000081526004016109c890611181565b60405180910390fd5b600073ffffffffffffffffffffffffffffffffffffffff168273ffffffffffffffffffffffffffffffffffffffff161415610a41576040517f08c379a0000000000000000000000000000000000000000000000000000000008152600401610a38906110c1565b60405180910390fd5b610a4c838383610db4565b60008060008573ffffffffffffffffffffffffffffffffffffffff1673ffffffffffffffffffffffffffffffffffffffff16815260200190815260200160002054905081811015610ad2576040517f08c379a0000000000000000000000000000000000000000000000000000000008152600401610ac990611121565b60405180910390fd5b8181610ade9190611289565b6000808673ffffffffffffffffffffffffffffffffffffffff1673ffffffffffffffffffffffffffffffffffffffff16815260200190815260200160002081905550816000808573ffffffffffffffffffffffffffffffffffffffff1673ffffffffffffffffffffffffffffffffffffffff1681526020019081526020016000206000828254610b6e9190611233565b925050819055508273ffffffffffffffffffffffffffffffffffffffff168473ffffffffffffffffffffffffffffffffffffffff167fddf252ad1be2c89b69c2b068fc378daa952ba7f163c4a11628f55a4df523b3ef84604051610bd291906111e1565b60405180910390a350505050565b600073ffffffffffffffffffffffffffffffffffffffff168273ffffffffffffffffffffffffffffffffffffffff161415610c50576040517f08c379a0000000000000000000000000000000000000000000000000000000008152600401610c4790611161565b60405180910390fd5b610c5c82600083610db4565b60008060008473ffffffffffffffffffffffffffffffffffffffff1673ffffffffffffffffffffffffffffffffffffffff16815260200190815260200160002054905081811015610ce2576040517f08c379a0000000000000000000000000000000000000000000000000000000008152600401610cd9906110e1565b60405180910390fd5b8181610cee9190611289565b6000808573ffffffffffffffffffffffffffffffffffffffff1673ffffffffffffffffffffffffffffffffffffffff168152602001908152602001600020819055508160026000828254610d429190611289565b92505081905550600073ffffffffffffffffffffffffffffffffffffffff168373ffffffffffffffffffffffffffffffffffffffff167fddf252ad1be2c89b69c2b068fc378daa952ba7f163c4a11628f55a4df523b3ef84604051610da791906111e1565b60405180910390a3505050565b505050565b600081359050610dc8816116b2565b92915050565b600081359050610ddd816116c9565b92915050565b600060208284031215610df957610df86113d5565b5b6000610e0784828501610db9565b91505092915050565b60008060408385031215610e2757610e266113d5565b5b6000610e3585828601610db9565b9250506020610e4685828601610db9565b9150509250929050565b600080600060608486031215610e6957610e686113d5565b5b6000610e7786828701610db9565b9350506020610e8886828701610db9565b9250506040610e9986828701610dce565b9150509250925092565b60008060408385031215610eba57610eb96113d5565b5b6000610ec885828601610db9565b9250506020610ed985828601610dce565b9150509250929050565b610eec816112cf565b82525050565b6000610efd82611217565b610f078185611222565b9350610f17818560208601611312565b610f20816113da565b840191505092915050565b6000610f38602383611222565b9150610f43826113eb565b604082019050919050565b6000610f5b602283611222565b9150610f668261143a565b604082019050919050565b6000610f7e602283611222565b9150610f8982611489565b604082019050919050565b6000610fa1602683611222565b9150610fac826114d8565b604082019050919050565b6000610fc4602883611222565b9150610fcf82611527565b604082019050919050565b6000610fe7602183611222565b9150610ff282611576565b604082019050919050565b600061100a602583611222565b9150611015826115c5565b604082019050919050565b600061102d602483611222565b915061103882611614565b604082019050919050565b6000611050602583611222565b915061105b82611663565b604082019050919050565b61106f816112fb565b82525050565b61107e81611305565b82525050565b60006020820190506110996000830184610ee3565b92915050565b600060208201905081810360008301526110b98184610ef2565b905092915050565b600060208201905081810360008301526110da81610f2b565b9050919050565b600060208201905081810360008301526110fa81610f4e565b9050919050565b6000602082019050818103600083015261111a81610f71565b9050919050565b6000602082019050818103600083015261113a81610f94565b9050919050565b6000602082019050818103600083015261115a81610fb7565b9050919050565b6000602082019050818103600083015261117a81610fda565b9050919050565b6000602082019050818103600083015261119a81610ffd565b9050919050565b600060208201905081810360008301526111ba81611020565b9050919050565b600060208201905081810360008301526111da81611043565b9050919050565b60006020820190506111f66000830184611066565b92915050565b60006020820190506112116000830184611075565b92915050565b600081519050919050565b600082825260208201905092915050565b600061123e826112fb565b9150611249836112fb565b9250827fffffffffffffffffffffffffffffffffffffffffffffffffffffffffffffffff0382111561127e5761127d611377565b5b828201905092915050565b6000611294826112fb565b915061129f836112fb565b9250828210156112b2576112b1611377565b5b828203905092915050565b60006112c8826112db565b9050919050565b60008115159050919050565b600073ffffffffffffffffffffffffffffffffffffffff82169050919050565b6000819050919050565b600060ff82169050919050565b60005b83811015611330578082015181840152602081019050611315565b8381111561133f576000848401525b50505050565b6000600282049050600182168061135d57607f821691505b60208210811415611371576113706113a6565b5b50919050565b7f4e487b7100000000000000000000000000000000000000000000000000000000600052601160045260246000fd5b7f4e487b7100000000000000000000000000000000000000000000000000000000600052602260045260246000fd5b600080fd5b6000601f19601f8301169050919050565b7f45524332303a207472616e7366657220746f20746865207a65726f206164647260008201527f6573730000000000000000000000000000000000000000000000000000000000602082015250565b7f45524332303a206275726e20616d6f756e7420657863656564732062616c616e60008201527f6365000000000000000000000000000000000000000000000000000000000000602082015250565b7f45524332303a20617070726f766520746f20746865207a65726f20616464726560008201527f7373000000000000000000000000000000000000000000000000000000000000602082015250565b7f45524332303a207472616e7366657220616d6f756e742065786365656473206260008201527f616c616e63650000000000000000000000000000000000000000000000000000602082015250565b7f45524332303a207472616e7366657220616d6f756e742065786365656473206160008201527f6c6c6f77616e6365000000000000000000000000000000000000000000000000602082015250565b7f45524332303a206275726e2066726f6d20746865207a65726f2061646472657360008201527f7300000000000000000000000000000000000000000000000000000000000000602082015250565b7f45524332303a207472616e736665722066726f6d20746865207a65726f20616460008201527f6472657373000000000000000000000000000000000000000000000000000000602082015250565b7f45524332303a20617070726f76652066726f6d20746865207a65726f2061646460008201527f7265737300000000000000000000000000000000000000000000000000000000602082015250565b7f45524332303a2064656372656173656420616c6c6f77616e63652062656c6f7760008201527f207a65726f000000000000000000000000000000000000000000000000000000602082015250565b6116bb816112bd565b81146116c657600080fd5b50565b6116d2816112fb565b81146116dd57600080fd5b5056fea264697066735822122092dc841129b30139ce250e7f4acb687aeb6cf276148221dff64edbf377806d6064736f6c63430008060033",
  "immutableReferences": {},
  "source": "// SPDX-License-Identifier: UNLICENSED\npragma solidity ^0.8.6;\n\nimport \"@openzeppelin/contracts/utils/math/SafeMath.sol\";\n\nimport \"@openzeppelin/contracts/token/ERC20/ERC20.sol\";\n\ncontract CollectCoin is ERC20 {\n    using SafeMath for uint256;\n\n    constructor(uint256 _totalSupply, address receiver)\n        ERC20(\"CollectCoin\", \"CLCT\")\n    {\n        _mint(\n            receiver,\n            _totalSupply * (10**uint256(decimals()))\n        );\n    }\n\n    /**\n     * @dev Destroys `amount` tokens from `account`, reducing the\n     * total supply.\n     *\n     * Emits a {Transfer} event with `to` set to the zero address.\n     *\n     * Requirements:\n     *\n     * - `account` cannot be the zero address.\n     * - `account` must have at least `amount` tokens.\n     */\n    function burn(address account, uint256 amount) public {\n        _burn(account, amount);\n    }\n}",
  "sourcePath": "/share/contracts/CollectCoin.sol",
  "compiler": {
    "name": "solc",
    "version": "0.8.6+commit.11564f7e.Emscripten.clang"
  },
  "schemaVersion": "3.4.3",
  "updatedAt": "2021-10-15T12:39:30.229Z",
  "devdoc": {
    "kind": "dev",
    "methods": {
      "allowance(address,address)": {
        "details": "See {IERC20-allowance}."
      },
      "approve(address,uint256)": {
        "details": "See {IERC20-approve}. Requirements: - `spender` cannot be the zero address."
      },
      "balanceOf(address)": {
        "details": "See {IERC20-balanceOf}."
      },
      "burn(address,uint256)": {
        "details": "Destroys `amount` tokens from `account`, reducing the total supply. Emits a {Transfer} event with `to` set to the zero address. Requirements: - `account` cannot be the zero address. - `account` must have at least `amount` tokens."
      },
      "decimals()": {
        "details": "Returns the number of decimals used to get its user representation. For example, if `decimals` equals `2`, a balance of `505` tokens should be displayed to a user as `5,05` (`505 / 10 ** 2`). Tokens usually opt for a value of 18, imitating the relationship between Ether and Wei. This is the value {ERC20} uses, unless this function is overridden; NOTE: This information is only used for _display_ purposes: it in no way affects any of the arithmetic of the contract, including {IERC20-balanceOf} and {IERC20-transfer}."
      },
      "decreaseAllowance(address,uint256)": {
        "details": "Atomically decreases the allowance granted to `spender` by the caller. This is an alternative to {approve} that can be used as a mitigation for problems described in {IERC20-approve}. Emits an {Approval} event indicating the updated allowance. Requirements: - `spender` cannot be the zero address. - `spender` must have allowance for the caller of at least `subtractedValue`."
      },
      "increaseAllowance(address,uint256)": {
        "details": "Atomically increases the allowance granted to `spender` by the caller. This is an alternative to {approve} that can be used as a mitigation for problems described in {IERC20-approve}. Emits an {Approval} event indicating the updated allowance. Requirements: - `spender` cannot be the zero address."
      },
      "name()": {
        "details": "Returns the name of the token."
      },
      "symbol()": {
        "details": "Returns the symbol of the token, usually a shorter version of the name."
      },
      "totalSupply()": {
        "details": "See {IERC20-totalSupply}."
      },
      "transfer(address,uint256)": {
        "details": "See {IERC20-transfer}. Requirements: - `recipient` cannot be the zero address. - the caller must have a balance of at least `amount`."
      },
      "transferFrom(address,address,uint256)": {
        "details": "See {IERC20-transferFrom}. Emits an {Approval} event indicating the updated allowance. This is not required by the EIP. See the note at the beginning of {ERC20}. Requirements: - `sender` and `recipient` cannot be the zero address. - `sender` must have a balance of at least `amount`. - the caller must have allowance for ``sender``'s tokens of at least `amount`."
      }
    },
    "version": 1
  },
  "userdoc": {
    "kind": "user",
    "methods": {},
    "version": 1
  }
}