{
  "contractName": "CollectCoinIco",
  "abi": [
    {
      "inputs": [
        {
          "internalType": "address",
          "name": "_token",
          "type": "address"
        },
        {
          "internalType": "contract IPricingStrategy",
          "name": "_pricingStrategy",
          "type": "address"
        },
        {
          "internalType": "address payable",
          "name": "_multisigWallet",
          "type": "address"
        },
        {
          "internalType": "uint256",
          "name": "_start",
          "type": "uint256"
        },
        {
          "internalType": "uint256",
          "name": "_end",
          "type": "uint256"
        },
        {
          "internalType": "uint256",
          "name": "_minimumFundingGoal",
          "type": "uint256"
        },
        {
          "internalType": "uint256",
          "name": "_maxSellableTokens",
          "type": "uint256"
        },
        {
          "internalType": "uint256",
          "name": "_tokenInvestorCap",
          "type": "uint256"
        },
        {
          "internalType": "uint256",
          "name": "_walletUnlockPeriod",
          "type": "uint256"
        },
        {
          "internalType": "uint256",
          "name": "_walletUnlockPercentage",
          "type": "uint256"
        }
      ],
      "stateMutability": "nonpayable",
      "type": "constructor"
    },
    {
      "anonymous": false,
      "inputs": [
        {
          "indexed": false,
          "internalType": "address",
          "name": "investor",
          "type": "address"
        },
        {
          "indexed": false,
          "internalType": "uint256",
          "name": "weiAmount",
          "type": "uint256"
        },
        {
          "indexed": false,
          "internalType": "uint256",
          "name": "tokenAmount",
          "type": "uint256"
        },
        {
          "indexed": false,
          "internalType": "uint128",
          "name": "customerId",
          "type": "uint128"
        }
      ],
      "name": "Invested",
      "type": "event"
    },
    {
      "anonymous": false,
      "inputs": [
        {
          "indexed": true,
          "internalType": "address",
          "name": "previousOwner",
          "type": "address"
        },
        {
          "indexed": true,
          "internalType": "address",
          "name": "newOwner",
          "type": "address"
        }
      ],
      "name": "OwnershipTransferred",
      "type": "event"
    },
    {
      "anonymous": false,
      "inputs": [
        {
          "indexed": true,
          "internalType": "address",
          "name": "refundee",
          "type": "address"
        },
        {
          "indexed": false,
          "internalType": "uint256",
          "name": "weiAmount",
          "type": "uint256"
        }
      ],
      "name": "Withdrawn",
      "type": "event"
    },
    {
      "stateMutability": "payable",
      "type": "fallback"
    },
    {
      "inputs": [],
      "name": "endsAt",
      "outputs": [
        {
          "internalType": "uint256",
          "name": "",
          "type": "uint256"
        }
      ],
      "stateMutability": "view",
      "type": "function"
    },
    {
      "inputs": [],
      "name": "finalized",
      "outputs": [
        {
          "internalType": "bool",
          "name": "",
          "type": "bool"
        }
      ],
      "stateMutability": "view",
      "type": "function"
    },
    {
      "inputs": [],
      "name": "halt",
      "outputs": [],
      "stateMutability": "nonpayable",
      "type": "function"
    },
    {
      "inputs": [],
      "name": "halted",
      "outputs": [
        {
          "internalType": "bool",
          "name": "",
          "type": "bool"
        }
      ],
      "stateMutability": "view",
      "type": "function"
    },
    {
      "inputs": [
        {
          "internalType": "address",
          "name": "",
          "type": "address"
        }
      ],
      "name": "investedAmountOf",
      "outputs": [
        {
          "internalType": "uint256",
          "name": "",
          "type": "uint256"
        }
      ],
      "stateMutability": "view",
      "type": "function"
    },
    {
      "inputs": [],
      "name": "investorCount",
      "outputs": [
        {
          "internalType": "uint256",
          "name": "",
          "type": "uint256"
        }
      ],
      "stateMutability": "view",
      "type": "function"
    },
    {
      "inputs": [
        {
          "internalType": "address",
          "name": "",
          "type": "address"
        }
      ],
      "name": "investors",
      "outputs": [
        {
          "internalType": "address payable",
          "name": "",
          "type": "address"
        }
      ],
      "stateMutability": "view",
      "type": "function"
    },
    {
      "inputs": [],
      "name": "loadedRefund",
      "outputs": [
        {
          "internalType": "uint256",
          "name": "",
          "type": "uint256"
        }
      ],
      "stateMutability": "view",
      "type": "function"
    },
    {
      "inputs": [],
      "name": "maximumSellableTokens",
      "outputs": [
        {
          "internalType": "uint256",
          "name": "",
          "type": "uint256"
        }
      ],
      "stateMutability": "view",
      "type": "function"
    },
    {
      "inputs": [],
      "name": "minimumFundingGoal",
      "outputs": [
        {
          "internalType": "uint256",
          "name": "",
          "type": "uint256"
        }
      ],
      "stateMutability": "view",
      "type": "function"
    },
    {
      "inputs": [],
      "name": "multisigWallet",
      "outputs": [
        {
          "internalType": "address payable",
          "name": "",
          "type": "address"
        }
      ],
      "stateMutability": "view",
      "type": "function"
    },
    {
      "inputs": [],
      "name": "owner",
      "outputs": [
        {
          "internalType": "address",
          "name": "",
          "type": "address"
        }
      ],
      "stateMutability": "view",
      "type": "function"
    },
    {
      "inputs": [],
      "name": "pricingStrategy",
      "outputs": [
        {
          "internalType": "contract IPricingStrategy",
          "name": "",
          "type": "address"
        }
      ],
      "stateMutability": "view",
      "type": "function"
    },
    {
      "inputs": [],
      "name": "renounceOwnership",
      "outputs": [],
      "stateMutability": "nonpayable",
      "type": "function"
    },
    {
      "inputs": [],
      "name": "startsAt",
      "outputs": [
        {
          "internalType": "uint256",
          "name": "",
          "type": "uint256"
        }
      ],
      "stateMutability": "view",
      "type": "function"
    },
    {
      "inputs": [],
      "name": "timeLockedWallet",
      "outputs": [
        {
          "internalType": "address",
          "name": "",
          "type": "address"
        }
      ],
      "stateMutability": "view",
      "type": "function"
    },
    {
      "inputs": [],
      "name": "token",
      "outputs": [
        {
          "internalType": "contract CollectCoin",
          "name": "",
          "type": "address"
        }
      ],
      "stateMutability": "view",
      "type": "function"
    },
    {
      "inputs": [
        {
          "internalType": "address",
          "name": "",
          "type": "address"
        }
      ],
      "name": "tokenAmountOf",
      "outputs": [
        {
          "internalType": "uint256",
          "name": "",
          "type": "uint256"
        }
      ],
      "stateMutability": "view",
      "type": "function"
    },
    {
      "inputs": [],
      "name": "tokenInvestorCap",
      "outputs": [
        {
          "internalType": "uint256",
          "name": "",
          "type": "uint256"
        }
      ],
      "stateMutability": "view",
      "type": "function"
    },
    {
      "inputs": [],
      "name": "tokenOwner",
      "outputs": [
        {
          "internalType": "address",
          "name": "",
          "type": "address"
        }
      ],
      "stateMutability": "view",
      "type": "function"
    },
    {
      "inputs": [],
      "name": "tokensSold",
      "outputs": [
        {
          "internalType": "uint256",
          "name": "",
          "type": "uint256"
        }
      ],
      "stateMutability": "view",
      "type": "function"
    },
    {
      "inputs": [
        {
          "internalType": "address",
          "name": "newOwner",
          "type": "address"
        }
      ],
      "name": "transferOwnership",
      "outputs": [],
      "stateMutability": "nonpayable",
      "type": "function"
    },
    {
      "inputs": [],
      "name": "unhalt",
      "outputs": [],
      "stateMutability": "nonpayable",
      "type": "function"
    },
    {
      "inputs": [],
      "name": "weiRaised",
      "outputs": [
        {
          "internalType": "uint256",
          "name": "",
          "type": "uint256"
        }
      ],
      "stateMutability": "view",
      "type": "function"
    },
    {
      "stateMutability": "payable",
      "type": "receive"
    },
    {
      "inputs": [
        {
          "internalType": "uint256",
          "name": "_startsAt",
          "type": "uint256"
        }
      ],
      "name": "setStartsAt",
      "outputs": [],
      "stateMutability": "nonpayable",
      "type": "function"
    },
    {
      "inputs": [
        {
          "internalType": "uint256",
          "name": "_endsAt",
          "type": "uint256"
        }
      ],
      "name": "setEndsAt",
      "outputs": [],
      "stateMutability": "nonpayable",
      "type": "function"
    },
    {
      "inputs": [],
      "name": "availableInvestment",
      "outputs": [
        {
          "internalType": "uint256",
          "name": "",
          "type": "uint256"
        }
      ],
      "stateMutability": "view",
      "type": "function"
    },
    {
      "inputs": [
        {
          "internalType": "uint256",
          "name": "_walletLockDate",
          "type": "uint256"
        }
      ],
      "name": "finalize",
      "outputs": [],
      "stateMutability": "nonpayable",
      "type": "function"
    },
    {
      "inputs": [
        {
          "internalType": "contract TimeLockedWalletFactory",
          "name": "addr",
          "type": "address"
        }
      ],
      "name": "setWalletFactory",
      "outputs": [],
      "stateMutability": "nonpayable",
      "type": "function"
    },
    {
      "inputs": [
        {
          "internalType": "address",
          "name": "_tokenOwner",
          "type": "address"
        }
      ],
      "name": "setTokenOwner",
      "outputs": [],
      "stateMutability": "nonpayable",
      "type": "function"
    },
    {
      "inputs": [],
      "name": "getState",
      "outputs": [
        {
          "internalType": "enum ICollectCoinIco.State",
          "name": "",
          "type": "uint8"
        }
      ],
      "stateMutability": "view",
      "type": "function"
    },
    {
      "inputs": [],
      "name": "isFull",
      "outputs": [
        {
          "internalType": "bool",
          "name": "",
          "type": "bool"
        }
      ],
      "stateMutability": "view",
      "type": "function"
    },
    {
      "inputs": [],
      "name": "isMinimumGoalReached",
      "outputs": [
        {
          "internalType": "bool",
          "name": "reached",
          "type": "bool"
        }
      ],
      "stateMutability": "view",
      "type": "function"
    },
    {
      "inputs": [
        {
          "internalType": "address payable",
          "name": "_beneficiary",
          "type": "address"
        }
      ],
      "name": "buyTokens",
      "outputs": [],
      "stateMutability": "payable",
      "type": "function"
    },
    {
      "inputs": [
        {
          "internalType": "address payable",
          "name": "refundee",
          "type": "address"
        }
      ],
      "name": "claimRefund",
      "outputs": [],
      "stateMutability": "nonpayable",
      "type": "function"
    }
  ],
  "bytecode": "0x608060405260006008556000600e556000600f5560006010553480156200002557600080fd5b506040516200322a3803806200322a83398181016040528101906200004b919062000335565b60006200005d620002d160201b60201c565b9050806000806101000a81548173ffffffffffffffffffffffffffffffffffffffff021916908373ffffffffffffffffffffffffffffffffffffffff1602179055508073ffffffffffffffffffffffffffffffffffffffff16600073ffffffffffffffffffffffffffffffffffffffff167f8be0079c531659141344cd1fd0a4f28419497f9722a3daafe3b4186f6b6457e060405160405180910390a35089600160006101000a81548173ffffffffffffffffffffffffffffffffffffffff021916908373ffffffffffffffffffffffffffffffffffffffff16021790555088600260006101000a81548173ffffffffffffffffffffffffffffffffffffffff021916908373ffffffffffffffffffffffffffffffffffffffff1602179055508260078190555087600460006101000a81548173ffffffffffffffffffffffffffffffffffffffff021916908373ffffffffffffffffffffffffffffffffffffffff160217905550600073ffffffffffffffffffffffffffffffffffffffff16600460009054906101000a900473ffffffffffffffffffffffffffffffffffffffff1673ffffffffffffffffffffffffffffffffffffffff1614156200022257600080fd5b60008714156200023157600080fd5b8660098190555060008614156200024757600080fd5b85600a81905550600a54600954106200025f57600080fd5b81600b8190555080600c8190555084841015620002b3576040517f08c379a0000000000000000000000000000000000000000000000000000000008152600401620002aa9062000452565b60405180910390fd5b846006819055508360058190555050505050505050505050620005a7565b600033905090565b600081519050620002ea816200053f565b92915050565b600081519050620003018162000559565b92915050565b600081519050620003188162000573565b92915050565b6000815190506200032f816200058d565b92915050565b6000806000806000806000806000806101408b8d0312156200035c576200035b620004eb565b5b60006200036c8d828e01620002d9565b9a505060206200037f8d828e0162000307565b9950506040620003928d828e01620002f0565b9850506060620003a58d828e016200031e565b9750506080620003b88d828e016200031e565b96505060a0620003cb8d828e016200031e565b95505060c0620003de8d828e016200031e565b94505060e0620003f18d828e016200031e565b935050610100620004058d828e016200031e565b925050610120620004198d828e016200031e565b9150509295989b9194979a5092959850565b60006200043a603b8362000474565b91506200044782620004f0565b604082019050919050565b600060208201905081810360008301526200046d816200042b565b9050919050565b600082825260208201905092915050565b60006200049282620004c1565b9050919050565b6000620004a682620004c1565b9050919050565b6000620004ba8262000485565b9050919050565b600073ffffffffffffffffffffffffffffffffffffffff82169050919050565b6000819050919050565b600080fd5b7f4d6178696d756d2073656c6c61626c6520746f6b656e73206973206c6f77657260008201527f207468616e206d696e696d756d2066756e64696e6720676f616c2e0000000000602082015250565b6200054a8162000485565b81146200055657600080fd5b50565b620005648162000499565b81146200057057600080fd5b50565b6200057e81620004ad565b81146200058a57600080fd5b50565b6200059881620004e1565b8114620005a457600080fd5b50565b612c7380620005b76000396000f3fe6080604052600436106102085760003560e01c80638da5cb5b11610118578063bf5fc2ee116100a0578063d0f6e53e1161006f578063d0f6e53e14610715578063d7e64c0014610740578063ec8ac4d81461076b578063f2fde38b14610787578063fc0c546a146107b057610218565b8063bf5fc2ee14610681578063bffa55d5146106aa578063c361f7d0146106d3578063cb3e64fd146106fe57610218565b8063a3e67610116100e7578063a3e67610146105aa578063af468682146105d5578063b3f05b9714610600578063b9b8af0b1461062b578063babd3d9a1461065657610218565b80638da5cb5b146104ec5780639075becf1461051757806397b150ca14610542578063a3aadd621461057f57610218565b8063518ab2a81161019b578063715018a61161016a578063715018a61461042b57806378b99c2414610442578063797d94371461046d5780637c2e08a3146104985780637ebf879c146104c357610218565b8063518ab2a8146103835780635ed7ca5b146103ae5780636e50eb3f146103c55780636f7bc9be146103ee57610218565b806318e02bd9116101d757806318e02bd9146102c75780631aae3460146102f05780633ad075ea1461032d5780634042b66f1461035857610218565b806305261aea1461021d5780630a09284a1461024657806313f4e977146102715780631865c57d1461029c57610218565b3661021857610216336107db565b005b600080fd5b34801561022957600080fd5b50610244600480360381019061023f9190612195565b610809565b005b34801561025257600080fd5b5061025b610b62565b604051610268919061268a565b60405180910390f35b34801561027d57600080fd5b50610286610b68565b604051610293919061268a565b60405180910390f35b3480156102a857600080fd5b506102b1610b6e565b6040516102be919061252f565b60405180910390f35b3480156102d357600080fd5b506102ee60048036038101906102e991906120b4565b610d85565b005b3480156102fc57600080fd5b50610317600480360381019061031291906120b4565b610f3a565b604051610324919061268a565b60405180910390f35b34801561033957600080fd5b50610342610f52565b60405161034f919061268a565b60405180910390f35b34801561036457600080fd5b5061036d610f58565b60405161037a919061268a565b60405180910390f35b34801561038f57600080fd5b50610398610f5e565b6040516103a5919061268a565b60405180910390f35b3480156103ba57600080fd5b506103c3610f64565b005b3480156103d157600080fd5b506103ec60048036038101906103e79190612195565b610ffd565b005b3480156103fa57600080fd5b50610415600480360381019061041091906120b4565b611083565b604051610422919061242b565b60405180910390f35b34801561043757600080fd5b506104406110b6565b005b34801561044e57600080fd5b506104576111f0565b6040516104649190612514565b60405180910390f35b34801561047957600080fd5b50610482611216565b60405161048f919061268a565b60405180910390f35b3480156104a457600080fd5b506104ad61121c565b6040516104ba91906124de565b60405180910390f35b3480156104cf57600080fd5b506104ea60048036038101906104e59190612168565b61122b565b005b3480156104f857600080fd5b506105016112eb565b60405161050e9190612410565b60405180910390f35b34801561052357600080fd5b5061052c611314565b604051610539919061242b565b60405180910390f35b34801561054e57600080fd5b50610569600480360381019061056491906120b4565b61133a565b604051610576919061268a565b60405180910390f35b34801561058b57600080fd5b50610594611352565b6040516105a19190612410565b60405180910390f35b3480156105b657600080fd5b506105bf611378565b6040516105cc9190612410565b60405180910390f35b3480156105e157600080fd5b506105ea61139e565b6040516105f7919061268a565b60405180910390f35b34801561060c57600080fd5b506106156113a4565b60405161062291906124de565b60405180910390f35b34801561063757600080fd5b506106406113b7565b60405161064d91906124de565b60405180910390f35b34801561066257600080fd5b5061066b6113ca565b60405161067891906124de565b60405180910390f35b34801561068d57600080fd5b506106a860048036038101906106a39190612195565b6113d9565b005b3480156106b657600080fd5b506106d160048036038101906106cc919061210e565b61145f565b005b3480156106df57600080fd5b506106e8611731565b6040516106f5919061268a565b60405180910390f35b34801561070a57600080fd5b50610713611785565b005b34801561072157600080fd5b5061072a611836565b604051610737919061268a565b60405180910390f35b34801561074c57600080fd5b5061075561183c565b604051610762919061268a565b60405180910390f35b6107856004803603810190610780919061210e565b6107db565b005b34801561079357600080fd5b506107ae60048036038101906107a991906120b4565b611842565b005b3480156107bc57600080fd5b506107c56119eb565b6040516107d291906124f9565b60405180910390f35b60003490506107ea8282611a11565b60006107f582611a5d565b905061080383600083611bbb565b50505050565b600380600681111561081e5761081d612939565b5b610826610b6e565b600681111561083857610837612939565b5b1461084257600080fd5b61084a611fee565b73ffffffffffffffffffffffffffffffffffffffff166108686112eb565b73ffffffffffffffffffffffffffffffffffffffff16146108be576040517f08c379a00000000000000000000000000000000000000000000000000000000081526004016108b59061260a565b60405180910390fd5b600060149054906101000a900460ff16156108d857600080fd5b600d60009054906101000a900460ff1615610928576040517f08c379a000000000000000000000000000000000000000000000000000000000815260040161091f9061262a565b60405180910390fd5b61093061121c565b61096f576040517f08c379a0000000000000000000000000000000000000000000000000000000008152600401610966906125aa565b60405180910390fd5b600080831161097e5742610980565b825b9050428110156109c5576040517f08c379a00000000000000000000000000000000000000000000000000000000081526004016109bc906125ca565b60405180910390fd5b600360009054906101000a900473ffffffffffffffffffffffffffffffffffffffff1673ffffffffffffffffffffffffffffffffffffffff1663c63340db601260009054906101000a900473ffffffffffffffffffffffffffffffffffffffff163084600b54600c546040518663ffffffff1660e01b8152600401610a4e95949392919061248b565b602060405180830381600087803b158015610a6857600080fd5b505af1158015610a7c573d6000803e3d6000fd5b505050506040513d601f19601f82011682018060405250810190610aa091906120e1565b601160006101000a81548173ffffffffffffffffffffffffffffffffffffffff021916908373ffffffffffffffffffffffffffffffffffffffff1602179055506001600d60006101000a81548160ff021916908315150217905550600460009054906101000a900473ffffffffffffffffffffffffffffffffffffffff1673ffffffffffffffffffffffffffffffffffffffff166108fc600f549081150290604051600060405180830381858888f19350505050610b5d57600080fd5b505050565b600a5481565b60065481565b6000600d60009054906101000a900460ff1615610b8e5760059050610d82565b600073ffffffffffffffffffffffffffffffffffffffff16600360009054906101000a900473ffffffffffffffffffffffffffffffffffffffff1673ffffffffffffffffffffffffffffffffffffffff161415610bee5760019050610d82565b600073ffffffffffffffffffffffffffffffffffffffff16601260009054906101000a900473ffffffffffffffffffffffffffffffffffffffff1673ffffffffffffffffffffffffffffffffffffffff161415610c4e5760019050610d82565b600260009054906101000a900473ffffffffffffffffffffffffffffffffffffffff1673ffffffffffffffffffffffffffffffffffffffff166382771c8e6040518163ffffffff1660e01b815260040160206040518083038186803b158015610cb657600080fd5b505afa158015610cca573d6000803e3d6000fd5b505050506040513d601f19601f82011682018060405250810190610cee919061213b565b610cfb5760019050610d82565b600954421015610d0e5760019050610d82565b600a544211158015610d255750610d236113ca565b155b15610d335760029050610d82565b610d3b61121c565b15610d495760039050610d82565b610d5161121c565b158015610d6057506000600f54115b8015610d6f5750600f54601054105b15610d7d5760069050610d82565b600490505b90565b610d8d611fee565b73ffffffffffffffffffffffffffffffffffffffff16610dab6112eb565b73ffffffffffffffffffffffffffffffffffffffff1614610e01576040517f08c379a0000000000000000000000000000000000000000000000000000000008152600401610df89061260a565b60405180910390fd5b6000600160009054906101000a900473ffffffffffffffffffffffffffffffffffffffff1673ffffffffffffffffffffffffffffffffffffffff166370a08231836040518263ffffffff1660e01b8152600401610e5e9190612410565b60206040518083038186803b158015610e7657600080fd5b505afa158015610e8a573d6000803e3d6000fd5b505050506040513d601f19601f82011682018060405250810190610eae91906121c2565b9050600554811015610ef5576040517f08c379a0000000000000000000000000000000000000000000000000000000008152600401610eec906125ea565b60405180910390fd5b81601260006101000a81548173ffffffffffffffffffffffffffffffffffffffff021916908373ffffffffffffffffffffffffffffffffffffffff1602179055505050565b60146020528060005260406000206000915090505481565b60055481565b600f5481565b600e5481565b610f6c611fee565b73ffffffffffffffffffffffffffffffffffffffff16610f8a6112eb565b73ffffffffffffffffffffffffffffffffffffffff1614610fe0576040517f08c379a0000000000000000000000000000000000000000000000000000000008152600401610fd79061260a565b60405180910390fd5b6001600060146101000a81548160ff021916908315150217905550565b611005611fee565b73ffffffffffffffffffffffffffffffffffffffff166110236112eb565b73ffffffffffffffffffffffffffffffffffffffff1614611079576040517f08c379a00000000000000000000000000000000000000000000000000000000081526004016110709061260a565b60405180910390fd5b80600a8190555050565b60136020528060005260406000206000915054906101000a900473ffffffffffffffffffffffffffffffffffffffff1681565b6110be611fee565b73ffffffffffffffffffffffffffffffffffffffff166110dc6112eb565b73ffffffffffffffffffffffffffffffffffffffff1614611132576040517f08c379a00000000000000000000000000000000000000000000000000000000081526004016111299061260a565b60405180910390fd5b600073ffffffffffffffffffffffffffffffffffffffff1660008054906101000a900473ffffffffffffffffffffffffffffffffffffffff1673ffffffffffffffffffffffffffffffffffffffff167f8be0079c531659141344cd1fd0a4f28419497f9722a3daafe3b4186f6b6457e060405160405180910390a360008060006101000a81548173ffffffffffffffffffffffffffffffffffffffff021916908373ffffffffffffffffffffffffffffffffffffffff160217905550565b600260009054906101000a900473ffffffffffffffffffffffffffffffffffffffff1681565b60105481565b6000600654600e541015905090565b611233611fee565b73ffffffffffffffffffffffffffffffffffffffff166112516112eb565b73ffffffffffffffffffffffffffffffffffffffff16146112a7576040517f08c379a000000000000000000000000000000000000000000000000000000000815260040161129e9061260a565b60405180910390fd5b80600360006101000a81548173ffffffffffffffffffffffffffffffffffffffff021916908373ffffffffffffffffffffffffffffffffffffffff16021790555050565b60008060009054906101000a900473ffffffffffffffffffffffffffffffffffffffff16905090565b600460009054906101000a900473ffffffffffffffffffffffffffffffffffffffff1681565b60156020528060005260406000206000915090505481565b601160009054906101000a900473ffffffffffffffffffffffffffffffffffffffff1681565b601260009054906101000a900473ffffffffffffffffffffffffffffffffffffffff1681565b60095481565b600d60009054906101000a900460ff1681565b600060149054906101000a900460ff1681565b6000600554600e541015905090565b6113e1611fee565b73ffffffffffffffffffffffffffffffffffffffff166113ff6112eb565b73ffffffffffffffffffffffffffffffffffffffff1614611455576040517f08c379a000000000000000000000000000000000000000000000000000000000815260040161144c9061260a565b60405180910390fd5b8060098190555050565b600680600681111561147457611473612939565b5b61147c610b6e565b600681111561148e5761148d612939565b5b1461149857600080fd5b6000601360008473ffffffffffffffffffffffffffffffffffffffff1673ffffffffffffffffffffffffffffffffffffffff16815260200190815260200160002060009054906101000a900473ffffffffffffffffffffffffffffffffffffffff169050600073ffffffffffffffffffffffffffffffffffffffff168173ffffffffffffffffffffffffffffffffffffffff16141561156c576040517f08c379a00000000000000000000000000000000000000000000000000000000081526004016115639061264a565b60405180910390fd5b6000601460008373ffffffffffffffffffffffffffffffffffffffff1673ffffffffffffffffffffffffffffffffffffffff168152602001908152602001600020549050600081116115f3576040517f08c379a00000000000000000000000000000000000000000000000000000000081526004016115ea9061266a565b60405180910390fd5b6000601460008473ffffffffffffffffffffffffffffffffffffffff1673ffffffffffffffffffffffffffffffffffffffff168152602001908152602001600020819055506000601560008473ffffffffffffffffffffffffffffffffffffffff1673ffffffffffffffffffffffffffffffffffffffff16815260200190815260200160002081905550806010600082825461168f91906126ed565b925050819055508173ffffffffffffffffffffffffffffffffffffffff166108fc829081150290604051600060405180830381858888f193505050501580156116dc573d6000803e3d6000fd5b508173ffffffffffffffffffffffffffffffffffffffff167f7084f5476618d8e60b11ef0d7d3f06914655adb8793e28ff7f018d4c76d505d582604051611723919061268a565b60405180910390a250505050565b6000601560003373ffffffffffffffffffffffffffffffffffffffff1673ffffffffffffffffffffffffffffffffffffffff168152602001908152602001600020546007546117809190612743565b905090565b61178d611fee565b73ffffffffffffffffffffffffffffffffffffffff166117ab6112eb565b73ffffffffffffffffffffffffffffffffffffffff1614611801576040517f08c379a00000000000000000000000000000000000000000000000000000000081526004016117f89061260a565b60405180910390fd5b600060149054906101000a900460ff1661181a57600080fd5b60008060146101000a81548160ff021916908315150217905550565b60075481565b60085481565b61184a611fee565b73ffffffffffffffffffffffffffffffffffffffff166118686112eb565b73ffffffffffffffffffffffffffffffffffffffff16146118be576040517f08c379a00000000000000000000000000000000000000000000000000000000081526004016118b59061260a565b60405180910390fd5b600073ffffffffffffffffffffffffffffffffffffffff168173ffffffffffffffffffffffffffffffffffffffff16141561192e576040517f08c379a00000000000000000000000000000000000000000000000000000000081526004016119259061258a565b60405180910390fd5b8073ffffffffffffffffffffffffffffffffffffffff1660008054906101000a900473ffffffffffffffffffffffffffffffffffffffff1673ffffffffffffffffffffffffffffffffffffffff167f8be0079c531659141344cd1fd0a4f28419497f9722a3daafe3b4186f6b6457e060405160405180910390a3806000806101000a81548173ffffffffffffffffffffffffffffffffffffffff021916908373ffffffffffffffffffffffffffffffffffffffff16021790555050565b600160009054906101000a900473ffffffffffffffffffffffffffffffffffffffff1681565b600073ffffffffffffffffffffffffffffffffffffffff168273ffffffffffffffffffffffffffffffffffffffff161415611a4b57600080fd5b6000811415611a5957600080fd5b5050565b600080600260009054906101000a900473ffffffffffffffffffffffffffffffffffffffff1673ffffffffffffffffffffffffffffffffffffffff1663a7c4abdb84600e54600160009054906101000a900473ffffffffffffffffffffffffffffffffffffffff1673ffffffffffffffffffffffffffffffffffffffff1663313ce5676040518163ffffffff1660e01b815260040160206040518083038186803b158015611b0a57600080fd5b505afa158015611b1e573d6000803e3d6000fd5b505050506040513d601f19601f82011682018060405250810190611b4291906121ef565b6040518463ffffffff1660e01b8152600401611b60939291906126a5565b60206040518083038186803b158015611b7857600080fd5b505afa158015611b8c573d6000803e3d6000fd5b505050506040513d601f19601f82011682018060405250810190611bb091906121c2565b905080915050919050565b60008060149054906101000a900460ff1615611bd657600080fd5b6002806006811115611beb57611bea612939565b5b611bf3610b6e565b6006811115611c0557611c04612939565b5b14611c0f57600080fd5b60026006811115611c2357611c22612939565b5b611c2b610b6e565b6006811115611c3d57611c3c612939565b5b1480611c74575060036006811115611c5857611c57612939565b5b611c60610b6e565b6006811115611c7257611c71612939565b5b145b611cb3576040517f08c379a0000000000000000000000000000000000000000000000000000000008152600401611caa9061254a565b60405180910390fd5b60003490506000841415611cc657600080fd5b60075484601560008973ffffffffffffffffffffffffffffffffffffffff1673ffffffffffffffffffffffffffffffffffffffff16815260200190815260200160002054611d1491906126ed565b1115611d1f57600080fd5b6000601460008873ffffffffffffffffffffffffffffffffffffffff1673ffffffffffffffffffffffffffffffffffffffff168152602001908152602001600020541415611dfe5760086000815480929190611d7a906128c1565b919050555085601360008873ffffffffffffffffffffffffffffffffffffffff1673ffffffffffffffffffffffffffffffffffffffff16815260200190815260200160002060006101000a81548173ffffffffffffffffffffffffffffffffffffffff021916908373ffffffffffffffffffffffffffffffffffffffff1602179055505b611e5081601460008973ffffffffffffffffffffffffffffffffffffffff1673ffffffffffffffffffffffffffffffffffffffff16815260200190815260200160002054611ff690919063ffffffff16565b601460008873ffffffffffffffffffffffffffffffffffffffff1673ffffffffffffffffffffffffffffffffffffffff16815260200190815260200160002081905550611ee584601560008973ffffffffffffffffffffffffffffffffffffffff1673ffffffffffffffffffffffffffffffffffffffff16815260200190815260200160002054611ff690919063ffffffff16565b601560008873ffffffffffffffffffffffffffffffffffffffff1673ffffffffffffffffffffffffffffffffffffffff16815260200190815260200160002081905550611f3d81600f54611ff690919063ffffffff16565b600f81905550611f5884600e54611ff690919063ffffffff16565b600e81905550600554600e541115611fa5576040517f08c379a0000000000000000000000000000000000000000000000000000000008152600401611f9c9061256a565b60405180910390fd5b7f0396f60aaad038749091d273dc13aaabc63db6e2271c7bad442d5cf25cc4335086828688604051611fda9493929190612446565b60405180910390a183925050509392505050565b600033905090565b6000818361200491906126ed565b905092915050565b60008135905061201b81612bb3565b92915050565b60008151905061203081612bb3565b92915050565b60008135905061204581612bca565b92915050565b60008151905061205a81612be1565b92915050565b60008135905061206f81612bf8565b92915050565b60008135905061208481612c0f565b92915050565b60008151905061209981612c0f565b92915050565b6000815190506120ae81612c26565b92915050565b6000602082840312156120ca576120c9612968565b5b60006120d88482850161200c565b91505092915050565b6000602082840312156120f7576120f6612968565b5b600061210584828501612021565b91505092915050565b60006020828403121561212457612123612968565b5b600061213284828501612036565b91505092915050565b60006020828403121561215157612150612968565b5b600061215f8482850161204b565b91505092915050565b60006020828403121561217e5761217d612968565b5b600061218c84828501612060565b91505092915050565b6000602082840312156121ab576121aa612968565b5b60006121b984828501612075565b91505092915050565b6000602082840312156121d8576121d7612968565b5b60006121e68482850161208a565b91505092915050565b60006020828403121561220557612204612968565b5b60006122138482850161209f565b91505092915050565b6122258161281f565b82525050565b61223481612789565b82525050565b61224381612777565b82525050565b6122528161279b565b82525050565b61226181612831565b82525050565b61227081612855565b82525050565b61227f81612879565b82525050565b60006122926029836126dc565b915061229d8261296d565b604082019050919050565b60006122b56031836126dc565b91506122c0826129bc565b604082019050919050565b60006122d86026836126dc565b91506122e382612a0b565b604082019050919050565b60006122fb6010836126dc565b915061230682612a5a565b602082019050919050565b600061231e601e836126dc565b915061232982612a83565b602082019050919050565b60006123416022836126dc565b915061234c82612aac565b604082019050919050565b60006123646020836126dc565b915061236f82612afb565b602082019050919050565b60006123876011836126dc565b915061239282612b24565b602082019050919050565b60006123aa600f836126dc565b91506123b582612b4d565b602082019050919050565b60006123cd6013836126dc565b91506123d882612b76565b602082019050919050565b6123ec816127cc565b82525050565b6123fb81612808565b82525050565b61240a816128af565b82525050565b6000602082019050612425600083018461223a565b92915050565b6000602082019050612440600083018461222b565b92915050565b600060808201905061245b600083018761221c565b61246860208301866123f2565b61247560408301856123f2565b61248260608301846123e3565b95945050505050565b600060a0820190506124a0600083018861223a565b6124ad602083018761223a565b6124ba60408301866123f2565b6124c760608301856123f2565b6124d460808301846123f2565b9695505050505050565b60006020820190506124f36000830184612249565b92915050565b600060208201905061250e6000830184612258565b92915050565b60006020820190506125296000830184612267565b92915050565b60006020820190506125446000830184612276565b92915050565b6000602082019050818103600083015261256381612285565b9050919050565b60006020820190508181036000830152612583816122a8565b9050919050565b600060208201905081810360008301526125a3816122cb565b9050919050565b600060208201905081810360008301526125c3816122ee565b9050919050565b600060208201905081810360008301526125e381612311565b9050919050565b6000602082019050818103600083015261260381612334565b9050919050565b6000602082019050818103600083015261262381612357565b9050919050565b600060208201905081810360008301526126438161237a565b9050919050565b600060208201905081810360008301526126638161239d565b9050919050565b60006020820190508181036000830152612683816123c0565b9050919050565b600060208201905061269f60008301846123f2565b92915050565b60006060820190506126ba60008301866123f2565b6126c760208301856123f2565b6126d46040830184612401565b949350505050565b600082825260208201905092915050565b60006126f882612808565b915061270383612808565b9250827fffffffffffffffffffffffffffffffffffffffffffffffffffffffffffffffff038211156127385761273761290a565b5b828201905092915050565b600061274e82612808565b915061275983612808565b92508282101561276c5761276b61290a565b5b828203905092915050565b6000612782826127e8565b9050919050565b6000612794826127e8565b9050919050565b60008115159050919050565b60006127b282612789565b9050919050565b60008190506127c782612b9f565b919050565b60006fffffffffffffffffffffffffffffffff82169050919050565b600073ffffffffffffffffffffffffffffffffffffffff82169050919050565b6000819050919050565b600060ff82169050919050565b600061282a8261288b565b9050919050565b600061283c82612843565b9050919050565b600061284e826127e8565b9050919050565b600061286082612867565b9050919050565b6000612872826127e8565b9050919050565b6000612884826127b9565b9050919050565b60006128968261289d565b9050919050565b60006128a8826127e8565b9050919050565b60006128ba82612812565b9050919050565b60006128cc82612808565b91507fffffffffffffffffffffffffffffffffffffffffffffffffffffffffffffffff8214156128ff576128fe61290a565b5b600182019050919050565b7f4e487b7100000000000000000000000000000000000000000000000000000000600052601160045260246000fd5b7f4e487b7100000000000000000000000000000000000000000000000000000000600052602160045260246000fd5b600080fd5b7f436f6e7472616374206e6f7420696e2046756e64696e67206f7220537563636560008201527f73732073746174652e0000000000000000000000000000000000000000000000602082015250565b7f52657175657374656420746f6b656e20616d6f756e742065786365656473207260008201527f656d61696e696e67206361706163697479000000000000000000000000000000602082015250565b7f4f776e61626c653a206e6577206f776e657220697320746865207a65726f206160008201527f6464726573730000000000000000000000000000000000000000000000000000602082015250565b7f676f616c206e6f74207265616368656400000000000000000000000000000000600082015250565b7f4c6f636b446174652063616e6e6f7420626520696e2074686520706173740000600082015250565b7f546f6b656e206f776e657220686173206e6f7420656e6f75676820746f6b656e60008201527f7321000000000000000000000000000000000000000000000000000000000000602082015250565b7f4f776e61626c653a2063616c6c6572206973206e6f7420746865206f776e6572600082015250565b7f616c72656164792066696e616c697a6564000000000000000000000000000000600082015250565b7f4e6f7420616e20496e766573746f720000000000000000000000000000000000600082015250565b7f4e6f20726566756e6420617661696c61626c6500000000000000000000000000600082015250565b60078110612bb057612baf612939565b5b50565b612bbc81612777565b8114612bc757600080fd5b50565b612bd381612789565b8114612bde57600080fd5b50565b612bea8161279b565b8114612bf557600080fd5b50565b612c01816127a7565b8114612c0c57600080fd5b50565b612c1881612808565b8114612c2357600080fd5b50565b612c2f81612812565b8114612c3a57600080fd5b5056fea2646970667358221220f359df16211b302d2e68815a31c9166dad832e58a89b2687f1bf6960710f0b7064736f6c63430008060033",
  "immutableReferences": {},
  "source": "// SPDX-License-Identifier: UNLICENSED\npragma solidity ^0.8.0;\n\nimport \"@openzeppelin/contracts/utils/math/SafeMath.sol\";\n\nimport \"./ICollectCoinIco.sol\";\nimport \"./TimeLockedWalletFactory.sol\";\nimport \"./CollectCoin.sol\";\nimport \"./Haltable.sol\";\nimport \"./IPricingStrategy.sol\";\n\ncontract CollectCoinIco is Haltable, ICollectCoinIco  {\n\n    using SafeMath for uint256;\n\n    /* The token we are selling */\n    CollectCoin public token;\n\n    // How we are going to price our offering\n    IPricingStrategy public pricingStrategy;\n\n    TimeLockedWalletFactory walletFactory;\n\n    // tokens will be transfered from this address\n    address payable public multisigWallet;\n\n    /* Maximum amount of tokens this crowdsale can sell. */\n    uint public maximumSellableTokens;\n\n    /* if the funding goal is not reached, investors may withdraw their funds */\n    uint public minimumFundingGoal;\n\n    /* the maximum one person is allowed to invest in CLCT */\n    uint256 public tokenInvestorCap;\n\n    /* How many distinct addresses have invested */\n    uint public investorCount = 0;\n\n    /* the UNIX timestamp start date of the ico */\n    uint public startsAt;\n\n    /* the UNIX timestamp end date of the ico */\n    uint public endsAt;\n\n    uint256 walletUnlockPeriod; \n    uint256 walletUnlockPercentage;\n\n    /* Has this crowdsale been finalized */\n    bool public finalized;\n\n    /* the number of tokens already sold through this contract*/\n    uint public tokensSold = 0;\n\n    /* How many wei of funding we have raised */\n    uint public weiRaised = 0;\n\n    /* How much wei we have returned back to the contract after a failed crowdfund. */\n    uint public loadedRefund = 0;\n\n    address public timeLockedWallet;\n\n    address public tokenOwner;\n\n    // A new investment was made\n    event Invested(address investor, uint weiAmount, uint tokenAmount, uint128 customerId);\n\n    // A refund has been processed\n    event Withdrawn(address indexed refundee, uint256 weiAmount);\n\n    /* List of all investors */\n    mapping (address => address payable) public investors;\n\n    /** How much ETH each address has invested to this crowdsale */\n    mapping (address => uint256) public investedAmountOf;\n\n    /** How much tokens this crowdsale has credited for each investor address */\n    mapping (address => uint256) public override tokenAmountOf;\n\n    /** Modified allowing execution only if the crowdsale is currently running.  */\n    modifier inState(State state) {\n        if(getState() != state) revert();\n        _;\n    }\n\n    /**@dev Create a new ICO contract instance\n     * @param _token The ERC-20 token contract address\n     * @param _pricingStrategy The Pricing strategy contract address which determines the price for a specific amount of wei or tokens\n     * @param _multisigWallet The address of the account that receives the wei of the investors\n     * @param _start The time this contracts accepts funding\n     * @param _end The time the token sale ends. This is also when success or failure is determined.\n     * @param _minimumFundingGoal The min amount of tokens required to be sold for the sale to succeed, aka soft cap\n     * @param _maxSellableTokens The max amount of tokens to be sold in this sale \n     * @param _walletUnlockPeriod The length of a lock period in seconds \n     * @param _walletUnlockPercentage The percentage being unlocked with each period, number between 1 and 100\n     */\n    constructor(address _token, \n                IPricingStrategy _pricingStrategy,\n                address payable _multisigWallet, \n                uint _start, uint _end, \n                uint _minimumFundingGoal, uint _maxSellableTokens, uint256 _tokenInvestorCap,\n                uint256 _walletUnlockPeriod, uint256 _walletUnlockPercentage) \n    {\n        token = CollectCoin(_token);\n        pricingStrategy = _pricingStrategy;\n\n        tokenInvestorCap = _tokenInvestorCap;\n        \n        multisigWallet = _multisigWallet;\n        if(multisigWallet == address(0)) {\n            revert();\n        }\n\n        if(_start == 0) {\n            revert();\n        }\n\n        startsAt = _start;\n\n        if(_end == 0) {\n            revert();\n        }\n\n        endsAt = _end;\n\n        // Don't mess the dates\n        if(startsAt >= endsAt) {\n            revert();\n        }\n\n        walletUnlockPeriod = _walletUnlockPeriod;\n        walletUnlockPercentage = _walletUnlockPercentage;\n\n        require(_maxSellableTokens >= _minimumFundingGoal, \"Maximum sellable tokens is lower than minimum funding goal.\");\n\n        // Minimum funding goal can be zero\n        minimumFundingGoal = _minimumFundingGoal;\n        maximumSellableTokens = _maxSellableTokens;\n    }\n\n    /**\n    * @dev Make an investment.\n    *\n    * Crowdsale must be running for one to invest.\n    * We must have not pressed the emergency brake.\n    *\n    * @param receiver The Ethereum address who receives the tokens\n    * @param customerId (optional) UUID v4 to track the successful payments on the server side'\n    * @param tokenAmount Amount of tokens which be credited to receiver\n    *\n    * @return tokensBought How mony tokens were bought\n    */\n    function buyTokens(address payable receiver, uint128 customerId, uint256 tokenAmount) stopInEmergency inState(State.Funding) internal returns(uint tokensBought) \n    {\n        require(getState() == State.Funding || getState() == State.Success, \"Contract not in Funding or Success state.\");\n\n        uint weiAmount = msg.value;\n\n        // Dust transaction\n        require(tokenAmount != 0);\n\n        // don't allow investment to exceed the investor cap\n        require(tokenAmountOf[receiver] + tokenAmount <= tokenInvestorCap);\n\n        if(investedAmountOf[receiver] == 0) {\n            // A new investor\n            investorCount++;\n            investors[receiver] = receiver;\n        }\n\n        // Update investor\n        investedAmountOf[receiver] = investedAmountOf[receiver].add(weiAmount);\n        tokenAmountOf[receiver] = tokenAmountOf[receiver].add(tokenAmount);\n\n        // Update totals\n        weiRaised = weiRaised.add(weiAmount);\n        tokensSold = tokensSold.add(tokenAmount);\n\n        // Check that we did not bust the cap\n        require(tokensSold <= maximumSellableTokens, \"Requested token amount exceeds remaining capacity\");\n\n        // Tell us invest was success\n        emit Invested(receiver, weiAmount, tokenAmount, customerId);\n\n        return tokenAmount;\n    }\n\n    function setStartsAt(uint256 _startsAt) public onlyOwner {\n        startsAt = _startsAt;\n    }\n\n    function setEndsAt(uint256 _endsAt) public onlyOwner {\n        endsAt = _endsAt;\n    }\n\n    function availableInvestment() public view returns(uint256)\n    {\n        return tokenInvestorCap - tokenAmountOf[msg.sender];\n    }\n\n    /**\n    * Finalize a succcesful crowdsale.\n    *\n    * The owner can triggre a call the contract that provides post-crowdsale actions, like releasing the tokens.\n    * @param _walletLockDate The time from when the locking calculations for the investor's time locked tokens begin to count\n    */\n    function finalize(uint256 _walletLockDate) public override inState(State.Success) onlyOwner stopInEmergency {\n\n        require(!finalized, \"already finalized\");\n        require(isMinimumGoalReached(), \"goal not reached\");\n        \n        uint256 walletLockDate = _walletLockDate > 0 ? _walletLockDate : block.timestamp;\n        require(walletLockDate >= block.timestamp, \"LockDate cannot be in the past\");\n\n        timeLockedWallet = walletFactory.newPeriodicTimeLockedMonoWallet(tokenOwner, address(this), walletLockDate, walletUnlockPeriod, walletUnlockPercentage);\n\n        finalized = true;\n\n        // Pocket the money, or fail the transaction if we for some reason cannot send the money to our multisig\n        if(!multisigWallet.send(weiRaised)) revert();\n    }\n\n    function setWalletFactory(TimeLockedWalletFactory addr) public override onlyOwner {\n        walletFactory = addr;\n    }\n\n    function setTokenOwner(address _tokenOwner) public override onlyOwner {\n\n        uint balance = token.balanceOf(_tokenOwner);\n\n        require(balance >= maximumSellableTokens, \"Token owner has not enough tokens!\");\n        \n        tokenOwner = _tokenOwner;\n    }\n    \n    /**\n    * state machine management.\n    *\n    * We make it a function and do not assign the result to a variable, so there is no chance of the variable being stale.\n    */\n    function getState() public override virtual view returns (State) {\n        if(finalized) return State.Finalized;\n        else if (address(walletFactory) == address(0)) return State.Preparing;\n        else if (tokenOwner == address(0)) return State.Preparing;\n        else if (!pricingStrategy.isSane()) return State.Preparing;\n        else if (block.timestamp < startsAt) return State.Preparing;\n        else if (block.timestamp <= endsAt && !isFull()) return State.Funding;\n        else if (isMinimumGoalReached()) return State.Success;\n        else if (!isMinimumGoalReached() && weiRaised > 0 && loadedRefund < weiRaised) return State.Refunding;\n        else return State.Failure;\n    }\n\n     /**\n    * Check if the current crowdsale is full and we can no longer sell any tokens.\n    */\n    function isFull() public override view returns (bool) {\n        return tokensSold >= maximumSellableTokens;\n    }\n\n    /**\n    * @return reached == true if the crowdsale has raised enough money to be a successful.\n    */\n    function isMinimumGoalReached() public override view returns (bool reached) {\n        return tokensSold >= minimumFundingGoal;\n    }\n\n\n    // -----------------------------------------\n    // Crowdsale external interface\n    // -----------------------------------------\n\n    fallback () external payable {\n        revert();\n    }\n\n    /**\n    * @dev low level token purchase ***DO NOT OVERRIDE***\n    * @param _beneficiary Address performing the token purchase\n    */\n    function buyTokens(address payable _beneficiary) public override virtual payable {\n\n        uint256 weiAmount = msg.value;\n        _preValidatePurchase(_beneficiary, weiAmount);\n\n        // calculate token amount to be created\n        uint256 tokens = _getTokenAmount(weiAmount);\n\n        buyTokens(_beneficiary, 0, tokens);\n    }\n\n    receive () external payable {\n        buyTokens(payable(msg.sender));\n    }\n\n    /**\n     * @dev Investors can claim refunds here if crowdsale is unsuccessful.\n     * @param refundee Whose refund will be claimed.\n     */\n    function claimRefund(address payable refundee) inState(State.Refunding) public {\n        \n        address payable refundAddress = investors[refundee];\n        require(refundAddress != address(0), \"Not an Investor\");\n\n        uint256 payment = investedAmountOf[refundAddress];\n        require(payment > 0, \"No refund available\");\n\n        investedAmountOf[refundAddress] = 0;\n        tokenAmountOf[refundAddress] = 0;\n\n        loadedRefund += payment;\n        \n        refundAddress.transfer(payment);\n\n        emit Withdrawn(refundAddress, payment);\n    }\n\n\n    // -----------------------------------------\n    // Internal interface (extensible)\n    // -----------------------------------------\n\n    /**\n    * @dev Validation of an incoming purchase. Use require statements to revert state when conditions are not met. Use super to concatenate validations.\n    * @param _beneficiary Address performing the token purchase\n    * @param _weiAmount Value in wei involved in the purchase\n    */\n    function _preValidatePurchase(address _beneficiary, uint256 _weiAmount) internal pure {\n        require(_beneficiary != address(0));\n        require(_weiAmount != 0);\n    }\n\n    /**\n    * @dev Override to extend the way in which ether is converted to tokens.\n    * @param _weiAmount Value in wei to be converted into tokens\n    * @return Number of tokens that can be purchased with the specified _weiAmount\n    */\n    function _getTokenAmount(uint256 _weiAmount) internal view returns (uint256) {\n        uint256 tokenAmount = pricingStrategy.calculateTokenAmount(_weiAmount, tokensSold, token.decimals());\n        return tokenAmount;\n    }\n}",
  "sourcePath": "/home/eule/Projects/ico-contracts/ethereum/ico/contracts/CollectCoinIco.sol",
  "compiler": {
    "name": "solc",
    "version": "0.8.6+commit.11564f7e.Emscripten.clang"
  },
  "schemaVersion": "3.4.1",
  "updatedAt": "2021-10-15T09:48:04.731Z",
  "devdoc": {
    "kind": "dev",
    "methods": {
      "buyTokens(address)": {
        "details": "low level token purchase ***DO NOT OVERRIDE***",
        "params": {
          "_beneficiary": "Address performing the token purchase"
        }
      },
      "claimRefund(address)": {
        "details": "Investors can claim refunds here if crowdsale is unsuccessful.",
        "params": {
          "refundee": "Whose refund will be claimed."
        }
      },
      "constructor": {
        "details": "Create a new ICO contract instance",
        "params": {
          "_end": "The time the token sale ends. This is also when success or failure is determined.",
          "_maxSellableTokens": "The max amount of tokens to be sold in this sale ",
          "_minimumFundingGoal": "The min amount of tokens required to be sold for the sale to succeed, aka soft cap",
          "_multisigWallet": "The address of the account that receives the wei of the investors",
          "_pricingStrategy": "The Pricing strategy contract address which determines the price for a specific amount of wei or tokens",
          "_start": "The time this contracts accepts funding",
          "_token": "The ERC-20 token contract address",
          "_walletUnlockPercentage": "The percentage being unlocked with each period, number between 1 and 100",
          "_walletUnlockPeriod": "The length of a lock period in seconds "
        }
      },
      "finalize(uint256)": {
        "params": {
          "_walletLockDate": "The time from when the locking calculations for the investor's time locked tokens begin to count"
        }
      },
      "isMinimumGoalReached()": {
        "returns": {
          "reached": "== true if the crowdsale has raised enough money to be a successful."
        }
      },
      "owner()": {
        "details": "Returns the address of the current owner."
      },
      "renounceOwnership()": {
        "details": "Leaves the contract without owner. It will not be possible to call `onlyOwner` functions anymore. Can only be called by the current owner. NOTE: Renouncing ownership will leave the contract without an owner, thereby removing any functionality that is only available to the owner."
      },
      "transferOwnership(address)": {
        "details": "Transfers ownership of the contract to a new account (`newOwner`). Can only be called by the current owner."
      }
    },
    "version": 1
  },
  "userdoc": {
    "kind": "user",
    "methods": {
      "finalize(uint256)": {
        "notice": "Finalize a succcesful crowdsale. The owner can triggre a call the contract that provides post-crowdsale actions, like releasing the tokens."
      },
      "getState()": {
        "notice": "state machine management. We make it a function and do not assign the result to a variable, so there is no chance of the variable being stale."
      },
      "investedAmountOf(address)": {
        "notice": "How much ETH each address has invested to this crowdsale "
      },
      "isFull()": {
        "notice": "Check if the current crowdsale is full and we can no longer sell any tokens."
      },
      "setWalletFactory(address)": {
        "notice": "Allow to (re)set finalize agent. Design choice: no state restrictions on setting this, so that we can fix fat finger mistakes."
      },
      "tokenAmountOf(address)": {
        "notice": "How much tokens this crowdsale has credited for each investor address "
      }
    },
    "version": 1
  }
}