{
  "contractName": "CollectCoinIcoMock",
  "abi": [
    {
      "inputs": [
        {
          "internalType": "uint256",
          "name": "_investorCount",
          "type": "uint256"
        },
        {
          "internalType": "address",
          "name": "_token",
          "type": "address"
        },
        {
          "internalType": "contract IPricingStrategy",
          "name": "_pricingStrategy",
          "type": "address"
        },
        {
          "internalType": "address payable",
          "name": "_multisigWallet",
          "type": "address"
        },
        {
          "internalType": "uint256",
          "name": "_start",
          "type": "uint256"
        },
        {
          "internalType": "uint256",
          "name": "_end",
          "type": "uint256"
        },
        {
          "internalType": "uint256",
          "name": "_minimumFundingGoal",
          "type": "uint256"
        },
        {
          "internalType": "uint256",
          "name": "_maxSellableTokens",
          "type": "uint256"
        },
        {
          "internalType": "uint256",
          "name": "_tokenInvestorCap",
          "type": "uint256"
        },
        {
          "internalType": "uint256",
          "name": "_walletUnlockPeriod",
          "type": "uint256"
        },
        {
          "internalType": "uint256",
          "name": "_walletUnlockPercentage",
          "type": "uint256"
        }
      ],
      "stateMutability": "nonpayable",
      "type": "constructor"
    },
    {
      "anonymous": false,
      "inputs": [
        {
          "indexed": false,
          "internalType": "address",
          "name": "investor",
          "type": "address"
        },
        {
          "indexed": false,
          "internalType": "uint256",
          "name": "weiAmount",
          "type": "uint256"
        },
        {
          "indexed": false,
          "internalType": "uint256",
          "name": "tokenAmount",
          "type": "uint256"
        },
        {
          "indexed": false,
          "internalType": "uint128",
          "name": "customerId",
          "type": "uint128"
        }
      ],
      "name": "Invested",
      "type": "event"
    },
    {
      "anonymous": false,
      "inputs": [
        {
          "indexed": true,
          "internalType": "address",
          "name": "previousOwner",
          "type": "address"
        },
        {
          "indexed": true,
          "internalType": "address",
          "name": "newOwner",
          "type": "address"
        }
      ],
      "name": "OwnershipTransferred",
      "type": "event"
    },
    {
      "anonymous": false,
      "inputs": [
        {
          "indexed": true,
          "internalType": "address",
          "name": "refundee",
          "type": "address"
        },
        {
          "indexed": false,
          "internalType": "uint256",
          "name": "weiAmount",
          "type": "uint256"
        }
      ],
      "name": "Withdrawn",
      "type": "event"
    },
    {
      "stateMutability": "payable",
      "type": "fallback"
    },
    {
      "inputs": [],
      "name": "availableInvestment",
      "outputs": [
        {
          "internalType": "uint256",
          "name": "",
          "type": "uint256"
        }
      ],
      "stateMutability": "view",
      "type": "function"
    },
    {
      "inputs": [
        {
          "internalType": "address",
          "name": "_beneficiary",
          "type": "address"
        }
      ],
      "name": "buyTokens",
      "outputs": [],
      "stateMutability": "payable",
      "type": "function"
    },
    {
      "inputs": [
        {
          "internalType": "address payable",
          "name": "refundee",
          "type": "address"
        }
      ],
      "name": "claimRefund",
      "outputs": [],
      "stateMutability": "nonpayable",
      "type": "function"
    },
    {
      "inputs": [],
      "name": "endsAt",
      "outputs": [
        {
          "internalType": "uint256",
          "name": "",
          "type": "uint256"
        }
      ],
      "stateMutability": "view",
      "type": "function"
    },
    {
      "inputs": [
        {
          "internalType": "uint256",
          "name": "_walletLockDate",
          "type": "uint256"
        }
      ],
      "name": "finalize",
      "outputs": [],
      "stateMutability": "nonpayable",
      "type": "function"
    },
    {
      "inputs": [],
      "name": "finalized",
      "outputs": [
        {
          "internalType": "bool",
          "name": "",
          "type": "bool"
        }
      ],
      "stateMutability": "view",
      "type": "function"
    },
    {
      "inputs": [],
      "name": "halt",
      "outputs": [],
      "stateMutability": "nonpayable",
      "type": "function"
    },
    {
      "inputs": [],
      "name": "halted",
      "outputs": [
        {
          "internalType": "bool",
          "name": "",
          "type": "bool"
        }
      ],
      "stateMutability": "view",
      "type": "function"
    },
    {
      "inputs": [
        {
          "internalType": "address",
          "name": "",
          "type": "address"
        }
      ],
      "name": "investedAmountOf",
      "outputs": [
        {
          "internalType": "uint256",
          "name": "",
          "type": "uint256"
        }
      ],
      "stateMutability": "view",
      "type": "function"
    },
    {
      "inputs": [],
      "name": "investorCount",
      "outputs": [
        {
          "internalType": "uint256",
          "name": "",
          "type": "uint256"
        }
      ],
      "stateMutability": "view",
      "type": "function"
    },
    {
      "inputs": [
        {
          "internalType": "uint256",
          "name": "",
          "type": "uint256"
        }
      ],
      "name": "investors",
      "outputs": [
        {
          "internalType": "address",
          "name": "",
          "type": "address"
        }
      ],
      "stateMutability": "view",
      "type": "function"
    },
    {
      "inputs": [],
      "name": "isFull",
      "outputs": [
        {
          "internalType": "bool",
          "name": "",
          "type": "bool"
        }
      ],
      "stateMutability": "view",
      "type": "function"
    },
    {
      "inputs": [],
      "name": "isMinimumGoalReached",
      "outputs": [
        {
          "internalType": "bool",
          "name": "reached",
          "type": "bool"
        }
      ],
      "stateMutability": "view",
      "type": "function"
    },
    {
      "inputs": [],
      "name": "loadedRefund",
      "outputs": [
        {
          "internalType": "uint256",
          "name": "",
          "type": "uint256"
        }
      ],
      "stateMutability": "view",
      "type": "function"
    },
    {
      "inputs": [],
      "name": "maximumSellableTokens",
      "outputs": [
        {
          "internalType": "uint256",
          "name": "",
          "type": "uint256"
        }
      ],
      "stateMutability": "view",
      "type": "function"
    },
    {
      "inputs": [],
      "name": "minimumFundingGoal",
      "outputs": [
        {
          "internalType": "uint256",
          "name": "",
          "type": "uint256"
        }
      ],
      "stateMutability": "view",
      "type": "function"
    },
    {
      "inputs": [],
      "name": "multisigWallet",
      "outputs": [
        {
          "internalType": "address payable",
          "name": "",
          "type": "address"
        }
      ],
      "stateMutability": "view",
      "type": "function"
    },
    {
      "inputs": [],
      "name": "owner",
      "outputs": [
        {
          "internalType": "address",
          "name": "",
          "type": "address"
        }
      ],
      "stateMutability": "view",
      "type": "function"
    },
    {
      "inputs": [],
      "name": "pricingStrategy",
      "outputs": [
        {
          "internalType": "contract IPricingStrategy",
          "name": "",
          "type": "address"
        }
      ],
      "stateMutability": "view",
      "type": "function"
    },
    {
      "inputs": [],
      "name": "renounceOwnership",
      "outputs": [],
      "stateMutability": "nonpayable",
      "type": "function"
    },
    {
      "inputs": [
        {
          "internalType": "uint256",
          "name": "_endsAt",
          "type": "uint256"
        }
      ],
      "name": "setEndsAt",
      "outputs": [],
      "stateMutability": "nonpayable",
      "type": "function"
    },
    {
      "inputs": [
        {
          "internalType": "uint256",
          "name": "_startsAt",
          "type": "uint256"
        }
      ],
      "name": "setStartsAt",
      "outputs": [],
      "stateMutability": "nonpayable",
      "type": "function"
    },
    {
      "inputs": [
        {
          "internalType": "address",
          "name": "_tokenOwner",
          "type": "address"
        }
      ],
      "name": "setTokenOwner",
      "outputs": [],
      "stateMutability": "nonpayable",
      "type": "function"
    },
    {
      "inputs": [
        {
          "internalType": "contract TimeLockedWalletFactory",
          "name": "addr",
          "type": "address"
        }
      ],
      "name": "setWalletFactory",
      "outputs": [],
      "stateMutability": "nonpayable",
      "type": "function"
    },
    {
      "inputs": [],
      "name": "startsAt",
      "outputs": [
        {
          "internalType": "uint256",
          "name": "",
          "type": "uint256"
        }
      ],
      "stateMutability": "view",
      "type": "function"
    },
    {
      "inputs": [],
      "name": "timeLockedWallet",
      "outputs": [
        {
          "internalType": "address",
          "name": "",
          "type": "address"
        }
      ],
      "stateMutability": "view",
      "type": "function"
    },
    {
      "inputs": [],
      "name": "token",
      "outputs": [
        {
          "internalType": "contract CollectCoin",
          "name": "",
          "type": "address"
        }
      ],
      "stateMutability": "view",
      "type": "function"
    },
    {
      "inputs": [
        {
          "internalType": "address",
          "name": "",
          "type": "address"
        }
      ],
      "name": "tokenAmountOf",
      "outputs": [
        {
          "internalType": "uint256",
          "name": "",
          "type": "uint256"
        }
      ],
      "stateMutability": "view",
      "type": "function"
    },
    {
      "inputs": [],
      "name": "tokenInvestorCap",
      "outputs": [
        {
          "internalType": "uint256",
          "name": "",
          "type": "uint256"
        }
      ],
      "stateMutability": "view",
      "type": "function"
    },
    {
      "inputs": [],
      "name": "tokenOwner",
      "outputs": [
        {
          "internalType": "address",
          "name": "",
          "type": "address"
        }
      ],
      "stateMutability": "view",
      "type": "function"
    },
    {
      "inputs": [],
      "name": "tokensSold",
      "outputs": [
        {
          "internalType": "uint256",
          "name": "",
          "type": "uint256"
        }
      ],
      "stateMutability": "view",
      "type": "function"
    },
    {
      "inputs": [
        {
          "internalType": "address",
          "name": "newOwner",
          "type": "address"
        }
      ],
      "name": "transferOwnership",
      "outputs": [],
      "stateMutability": "nonpayable",
      "type": "function"
    },
    {
      "inputs": [],
      "name": "unhalt",
      "outputs": [],
      "stateMutability": "nonpayable",
      "type": "function"
    },
    {
      "inputs": [],
      "name": "weiRaised",
      "outputs": [
        {
          "internalType": "uint256",
          "name": "",
          "type": "uint256"
        }
      ],
      "stateMutability": "view",
      "type": "function"
    },
    {
      "stateMutability": "payable",
      "type": "receive"
    },
    {
      "inputs": [
        {
          "internalType": "enum ICollectCoinIco.State",
          "name": "_state",
          "type": "uint8"
        }
      ],
      "name": "setState",
      "outputs": [],
      "stateMutability": "nonpayable",
      "type": "function"
    },
    {
      "inputs": [
        {
          "internalType": "uint256",
          "name": "count",
          "type": "uint256"
        }
      ],
      "name": "addInvestors",
      "outputs": [],
      "stateMutability": "nonpayable",
      "type": "function"
    },
    {
      "inputs": [
        {
          "internalType": "uint256",
          "name": "count",
          "type": "uint256"
        }
      ],
      "name": "removeInvestors",
      "outputs": [],
      "stateMutability": "nonpayable",
      "type": "function"
    },
    {
      "inputs": [],
      "name": "getAllInvestors",
      "outputs": [
        {
          "internalType": "address[]",
          "name": "",
          "type": "address[]"
        }
      ],
      "stateMutability": "view",
      "type": "function"
    },
    {
      "inputs": [],
      "name": "getState",
      "outputs": [
        {
          "internalType": "enum ICollectCoinIco.State",
          "name": "",
          "type": "uint8"
        }
      ],
      "stateMutability": "view",
      "type": "function"
    }
  ],
  "bytecode": "0x608060405260006008556000600f55600060105560006011553480156200002557600080fd5b50604051620033e9380380620033e983398181016040528101906200004b919062000494565b8989898989898989898962000075620000696200029560201b60201c565b6200029d60201b60201c565b89600160006101000a81548173ffffffffffffffffffffffffffffffffffffffff021916908373ffffffffffffffffffffffffffffffffffffffff16021790555088600260006101000a81548173ffffffffffffffffffffffffffffffffffffffff021916908373ffffffffffffffffffffffffffffffffffffffff1602179055508260078190555087600460006101000a81548173ffffffffffffffffffffffffffffffffffffffff021916908373ffffffffffffffffffffffffffffffffffffffff160217905550600073ffffffffffffffffffffffffffffffffffffffff16600460009054906101000a900473ffffffffffffffffffffffffffffffffffffffff1673ffffffffffffffffffffffffffffffffffffffff1614156200019c57600080fd5b6000871415620001ab57600080fd5b86600a819055506000861415620001c157600080fd5b85600b81905550600b54600a5410620001d957600080fd5b81600c8190555080600d81905550848410156200022d576040517f08c379a00000000000000000000000000000000000000000000000000000000081526004016200022490620005c8565b60405180910390fd5b846006819055508360058190555050505050505050505050620002568b6200036160201b60201c565b6002601760006101000a81548160ff021916908360068111156200027f576200027e620006de565b5b02179055505050505050505050505050620007c9565b600033905090565b60008060009054906101000a900473ffffffffffffffffffffffffffffffffffffffff169050816000806101000a81548173ffffffffffffffffffffffffffffffffffffffff021916908373ffffffffffffffffffffffffffffffffffffffff1602179055508173ffffffffffffffffffffffffffffffffffffffff168173ffffffffffffffffffffffffffffffffffffffff167f8be0079c531659141344cd1fd0a4f28419497f9722a3daafe3b4186f6b6457e060405160405180910390a35050565b600080600090505b82811015620003eb576016829080600181540180825580915050600190039060005260206000200160009091909190916101000a81548173ffffffffffffffffffffffffffffffffffffffff021916908373ffffffffffffffffffffffffffffffffffffffff1602179055508080620003e29062000661565b91505062000369565b6305f5e100601560008473ffffffffffffffffffffffffffffffffffffffff1673ffffffffffffffffffffffffffffffffffffffff16815260200190815260200160002081905550505050565b600081519050620004498162000761565b92915050565b60008151905062000460816200077b565b92915050565b600081519050620004778162000795565b92915050565b6000815190506200048e81620007af565b92915050565b60008060008060008060008060008060006101608c8e031215620004bd57620004bc6200070d565b5b6000620004cd8e828f016200047d565b9b50506020620004e08e828f0162000438565b9a50506040620004f38e828f0162000466565b9950506060620005068e828f016200044f565b9850506080620005198e828f016200047d565b97505060a06200052c8e828f016200047d565b96505060c06200053f8e828f016200047d565b95505060e0620005528e828f016200047d565b945050610100620005668e828f016200047d565b9350506101206200057a8e828f016200047d565b9250506101406200058e8e828f016200047d565b9150509295989b509295989b9093969950565b6000620005b0603b83620005ea565b9150620005bd8262000712565b604082019050919050565b60006020820190508181036000830152620005e381620005a1565b9050919050565b600082825260208201905092915050565b6000620006088262000637565b9050919050565b60006200061c8262000637565b9050919050565b60006200063082620005fb565b9050919050565b600073ffffffffffffffffffffffffffffffffffffffff82169050919050565b6000819050919050565b60006200066e8262000657565b91507fffffffffffffffffffffffffffffffffffffffffffffffffffffffffffffffff821415620006a457620006a3620006af565b5b600182019050919050565b7f4e487b7100000000000000000000000000000000000000000000000000000000600052601160045260246000fd5b7f4e487b7100000000000000000000000000000000000000000000000000000000600052602160045260246000fd5b600080fd5b7f4d6178696d756d2073656c6c61626c6520746f6b656e73206973206c6f77657260008201527f207468616e206d696e696d756d2066756e64696e6720676f616c2e0000000000602082015250565b6200076c81620005fb565b81146200077857600080fd5b50565b62000786816200060f565b81146200079257600080fd5b50565b620007a08162000623565b8114620007ac57600080fd5b50565b620007ba8162000657565b8114620007c657600080fd5b50565b612c1080620007d96000396000f3fe6080604052600436106102345760003560e01c80637ebf879c1161012e578063bf5fc2ee116100ab578063d0f6e53e1161006f578063d0f6e53e146107e7578063d7e64c0014610812578063ec8ac4d81461083d578063f2fde38b14610859578063fc0c546a1461088257610244565b8063bf5fc2ee14610728578063bffa55d514610751578063c361f7d01461077a578063cb3e64fd146107a5578063d0a2f2c4146107bc57610244565b8063a3e67610116100f2578063a3e6761014610651578063af4686821461067c578063b3f05b97146106a7578063b9b8af0b146106d2578063babd3d9a146106fd57610244565b80637ebf879c1461056a5780638da5cb5b146105935780639075becf146105be57806397b150ca146105e9578063a3aadd621461062657610244565b80634042b66f116101bc5780636e50eb3f116101805780636e50eb3f146104a9578063715018a6146104d257806378b99c24146104e9578063797d9437146105145780637c2e08a31461053f57610244565b80634042b66f146103ea578063518ab2a81461041557806356de96db146104405780635ed7ca5b14610469578063649f342e1461048057610244565b806318e02bd91161020357806318e02bd9146102f35780631992d1ad1461031c5780631aae3460146103455780633ad075ea146103825780633feb5f2b146103ad57610244565b806305261aea146102495780630a09284a1461027257806313f4e9771461029d5780631865c57d146102c857610244565b3661024457610242336108ad565b005b600080fd5b34801561025557600080fd5b50610270600480360381019061026b91906120bf565b6108db565b005b34801561027e57600080fd5b50610287610c34565b6040516102949190612609565b60405180910390f35b3480156102a957600080fd5b506102b2610c3a565b6040516102bf9190612609565b60405180910390f35b3480156102d457600080fd5b506102dd610c40565b6040516102ea91906124ce565b60405180910390f35b3480156102ff57600080fd5b5061031a60048036038101906103159190611fde565b610c57565b005b34801561032857600080fd5b50610343600480360381019061033e91906120bf565b610e0c565b005b34801561035157600080fd5b5061036c60048036038101906103679190611fde565b610e80565b6040516103799190612609565b60405180910390f35b34801561038e57600080fd5b50610397610e98565b6040516103a49190612609565b60405180910390f35b3480156103b957600080fd5b506103d460048036038101906103cf91906120bf565b610e9e565b6040516103e1919061238d565b60405180910390f35b3480156103f657600080fd5b506103ff610edd565b60405161040c9190612609565b60405180910390f35b34801561042157600080fd5b5061042a610ee3565b6040516104379190612609565b60405180910390f35b34801561044c57600080fd5b5061046760048036038101906104629190612092565b610ee9565b005b34801561047557600080fd5b5061047e610f16565b005b34801561048c57600080fd5b506104a760048036038101906104a291906120bf565b610faf565b005b3480156104b557600080fd5b506104d060048036038101906104cb91906120bf565b610fbb565b005b3480156104de57600080fd5b506104e7611041565b005b3480156104f557600080fd5b506104fe6110c9565b60405161050b91906124b3565b60405180910390f35b34801561052057600080fd5b506105296110ef565b6040516105369190612609565b60405180910390f35b34801561054b57600080fd5b506105546110f5565b604051610561919061247d565b60405180910390f35b34801561057657600080fd5b50610591600480360381019061058c9190612065565b611104565b005b34801561059f57600080fd5b506105a86111c4565b6040516105b5919061238d565b60405180910390f35b3480156105ca57600080fd5b506105d36111ed565b6040516105e091906123a8565b60405180910390f35b3480156105f557600080fd5b50610610600480360381019061060b9190611fde565b611213565b60405161061d9190612609565b60405180910390f35b34801561063257600080fd5b5061063b61122b565b604051610648919061238d565b60405180910390f35b34801561065d57600080fd5b50610666611251565b604051610673919061238d565b60405180910390f35b34801561068857600080fd5b50610691611277565b60405161069e9190612609565b60405180910390f35b3480156106b357600080fd5b506106bc61127d565b6040516106c9919061247d565b60405180910390f35b3480156106de57600080fd5b506106e7611290565b6040516106f4919061247d565b60405180910390f35b34801561070957600080fd5b506107126112a3565b60405161071f919061247d565b60405180910390f35b34801561073457600080fd5b5061074f600480360381019061074a91906120bf565b6112b2565b005b34801561075d57600080fd5b5061077860048036038101906107739190612038565b611338565b005b34801561078657600080fd5b5061078f611535565b60405161079c9190612609565b60405180910390f35b3480156107b157600080fd5b506107ba611589565b005b3480156107c857600080fd5b506107d161163a565b6040516107de919061245b565b60405180910390f35b3480156107f357600080fd5b506107fc6116c8565b6040516108099190612609565b60405180910390f35b34801561081e57600080fd5b506108276116ce565b6040516108349190612609565b60405180910390f35b61085760048036038101906108529190611fde565b6108ad565b005b34801561086557600080fd5b50610880600480360381019061087b9190611fde565b6116d4565b005b34801561088e57600080fd5b506108976117cc565b6040516108a49190612498565b60405180910390f35b60003490506108bc82826117f2565b60006108c78261183e565b90506108d5836000836119a3565b50505050565b60038060068111156108f0576108ef6128d7565b5b6108f8610c40565b600681111561090a576109096128d7565b5b1461091457600080fd5b61091c611d81565b73ffffffffffffffffffffffffffffffffffffffff1661093a6111c4565b73ffffffffffffffffffffffffffffffffffffffff1614610990576040517f08c379a0000000000000000000000000000000000000000000000000000000008152600401610987906125a9565b60405180910390fd5b600060149054906101000a900460ff16156109aa57600080fd5b600e60009054906101000a900460ff16156109fa576040517f08c379a00000000000000000000000000000000000000000000000000000000081526004016109f1906125c9565b60405180910390fd5b610a026110f5565b610a41576040517f08c379a0000000000000000000000000000000000000000000000000000000008152600401610a3890612549565b60405180910390fd5b6000808311610a505742610a52565b825b905042811015610a97576040517f08c379a0000000000000000000000000000000000000000000000000000000008152600401610a8e90612569565b60405180910390fd5b600360009054906101000a900473ffffffffffffffffffffffffffffffffffffffff1673ffffffffffffffffffffffffffffffffffffffff1663c63340db601360009054906101000a900473ffffffffffffffffffffffffffffffffffffffff163084600c54600d546040518663ffffffff1660e01b8152600401610b209594939291906123c3565b602060405180830381600087803b158015610b3a57600080fd5b505af1158015610b4e573d6000803e3d6000fd5b505050506040513d601f19601f82011682018060405250810190610b72919061200b565b601260006101000a81548173ffffffffffffffffffffffffffffffffffffffff021916908373ffffffffffffffffffffffffffffffffffffffff160217905550600460009054906101000a900473ffffffffffffffffffffffffffffffffffffffff1673ffffffffffffffffffffffffffffffffffffffff166108fc6010549081150290604051600060405180830381858888f19350505050610c1457600080fd5b6001600e60006101000a81548160ff021916908315150217905550505050565b600b5481565b60065481565b6000601760009054906101000a900460ff16905090565b610c5f611d81565b73ffffffffffffffffffffffffffffffffffffffff16610c7d6111c4565b73ffffffffffffffffffffffffffffffffffffffff1614610cd3576040517f08c379a0000000000000000000000000000000000000000000000000000000008152600401610cca906125a9565b60405180910390fd5b6000600160009054906101000a900473ffffffffffffffffffffffffffffffffffffffff1673ffffffffffffffffffffffffffffffffffffffff166370a08231836040518263ffffffff1660e01b8152600401610d30919061238d565b60206040518083038186803b158015610d4857600080fd5b505afa158015610d5c573d6000803e3d6000fd5b505050506040513d601f19601f82011682018060405250810190610d8091906120ec565b9050600554811015610dc7576040517f08c379a0000000000000000000000000000000000000000000000000000000008152600401610dbe90612589565b60405180910390fd5b81601360006101000a81548173ffffffffffffffffffffffffffffffffffffffff021916908373ffffffffffffffffffffffffffffffffffffffff1602179055505050565b60005b81811015610e7c5760166001601680549050610e2b9190612717565b81548110610e3c57610e3b612906565b5b9060005260206000200160006101000a81549073ffffffffffffffffffffffffffffffffffffffff02191690558080610e749061285f565b915050610e0f565b5050565b60146020528060005260406000206000915090505481565b60055481565b60098181548110610eae57600080fd5b906000526020600020016000915054906101000a900473ffffffffffffffffffffffffffffffffffffffff1681565b60105481565b600f5481565b80601760006101000a81548160ff02191690836006811115610f0e57610f0d6128d7565b5b021790555050565b610f1e611d81565b73ffffffffffffffffffffffffffffffffffffffff16610f3c6111c4565b73ffffffffffffffffffffffffffffffffffffffff1614610f92576040517f08c379a0000000000000000000000000000000000000000000000000000000008152600401610f89906125a9565b60405180910390fd5b6001600060146101000a81548160ff021916908315150217905550565b610fb881611d89565b50565b610fc3611d81565b73ffffffffffffffffffffffffffffffffffffffff16610fe16111c4565b73ffffffffffffffffffffffffffffffffffffffff1614611037576040517f08c379a000000000000000000000000000000000000000000000000000000000815260040161102e906125a9565b60405180910390fd5b80600b8190555050565b611049611d81565b73ffffffffffffffffffffffffffffffffffffffff166110676111c4565b73ffffffffffffffffffffffffffffffffffffffff16146110bd576040517f08c379a00000000000000000000000000000000000000000000000000000000081526004016110b4906125a9565b60405180910390fd5b6110c76000611e5c565b565b600260009054906101000a900473ffffffffffffffffffffffffffffffffffffffff1681565b60115481565b6000600654600f541015905090565b61110c611d81565b73ffffffffffffffffffffffffffffffffffffffff1661112a6111c4565b73ffffffffffffffffffffffffffffffffffffffff1614611180576040517f08c379a0000000000000000000000000000000000000000000000000000000008152600401611177906125a9565b60405180910390fd5b80600360006101000a81548173ffffffffffffffffffffffffffffffffffffffff021916908373ffffffffffffffffffffffffffffffffffffffff16021790555050565b60008060009054906101000a900473ffffffffffffffffffffffffffffffffffffffff16905090565b600460009054906101000a900473ffffffffffffffffffffffffffffffffffffffff1681565b60156020528060005260406000206000915090505481565b601260009054906101000a900473ffffffffffffffffffffffffffffffffffffffff1681565b601360009054906101000a900473ffffffffffffffffffffffffffffffffffffffff1681565b600a5481565b600e60009054906101000a900460ff1681565b600060149054906101000a900460ff1681565b6000600554600f541015905090565b6112ba611d81565b73ffffffffffffffffffffffffffffffffffffffff166112d86111c4565b73ffffffffffffffffffffffffffffffffffffffff161461132e576040517f08c379a0000000000000000000000000000000000000000000000000000000008152600401611325906125a9565b60405180910390fd5b80600a8190555050565b600680600681111561134d5761134c6128d7565b5b611355610c40565b6006811115611367576113666128d7565b5b1461137157600080fd5b6000601460008473ffffffffffffffffffffffffffffffffffffffff1673ffffffffffffffffffffffffffffffffffffffff168152602001908152602001600020549050600081116113f8576040517f08c379a00000000000000000000000000000000000000000000000000000000081526004016113ef906125e9565b60405180910390fd5b6000601460008573ffffffffffffffffffffffffffffffffffffffff1673ffffffffffffffffffffffffffffffffffffffff168152602001908152602001600020819055506000601560008573ffffffffffffffffffffffffffffffffffffffff1673ffffffffffffffffffffffffffffffffffffffff16815260200190815260200160002081905550806011600082825461149491906126c1565b925050819055508273ffffffffffffffffffffffffffffffffffffffff166108fc829081150290604051600060405180830381858888f193505050501580156114e1573d6000803e3d6000fd5b508273ffffffffffffffffffffffffffffffffffffffff167f7084f5476618d8e60b11ef0d7d3f06914655adb8793e28ff7f018d4c76d505d5826040516115289190612609565b60405180910390a2505050565b6000601560003373ffffffffffffffffffffffffffffffffffffffff1673ffffffffffffffffffffffffffffffffffffffff168152602001908152602001600020546007546115849190612717565b905090565b611591611d81565b73ffffffffffffffffffffffffffffffffffffffff166115af6111c4565b73ffffffffffffffffffffffffffffffffffffffff1614611605576040517f08c379a00000000000000000000000000000000000000000000000000000000081526004016115fc906125a9565b60405180910390fd5b600060149054906101000a900460ff1661161e57600080fd5b60008060146101000a81548160ff021916908315150217905550565b606060168054806020026020016040519081016040528092919081815260200182805480156116be57602002820191906000526020600020905b8160009054906101000a900473ffffffffffffffffffffffffffffffffffffffff1673ffffffffffffffffffffffffffffffffffffffff1681526020019060010190808311611674575b5050505050905090565b60075481565b60085481565b6116dc611d81565b73ffffffffffffffffffffffffffffffffffffffff166116fa6111c4565b73ffffffffffffffffffffffffffffffffffffffff1614611750576040517f08c379a0000000000000000000000000000000000000000000000000000000008152600401611747906125a9565b60405180910390fd5b600073ffffffffffffffffffffffffffffffffffffffff168173ffffffffffffffffffffffffffffffffffffffff1614156117c0576040517f08c379a00000000000000000000000000000000000000000000000000000000081526004016117b790612529565b60405180910390fd5b6117c981611e5c565b50565b600160009054906101000a900473ffffffffffffffffffffffffffffffffffffffff1681565b600073ffffffffffffffffffffffffffffffffffffffff168273ffffffffffffffffffffffffffffffffffffffff16141561182c57600080fd5b600081141561183a57600080fd5b5050565b600080600260009054906101000a900473ffffffffffffffffffffffffffffffffffffffff1673ffffffffffffffffffffffffffffffffffffffff166338c3a56584601054600f546000600160009054906101000a900473ffffffffffffffffffffffffffffffffffffffff1673ffffffffffffffffffffffffffffffffffffffff1663313ce5676040518163ffffffff1660e01b815260040160206040518083038186803b1580156118f057600080fd5b505afa158015611904573d6000803e3d6000fd5b505050506040513d601f19601f820116820180604052508101906119289190612119565b6040518663ffffffff1660e01b8152600401611948959493929190612624565b60206040518083038186803b15801561196057600080fd5b505afa158015611974573d6000803e3d6000fd5b505050506040513d601f19601f8201168201806040525081019061199891906120ec565b905080915050919050565b60008060149054906101000a900460ff16156119be57600080fd5b600260068111156119d2576119d16128d7565b5b6119da610c40565b60068111156119ec576119eb6128d7565b5b1480611a23575060036006811115611a0757611a066128d7565b5b611a0f610c40565b6006811115611a2157611a206128d7565b5b145b611a62576040517f08c379a0000000000000000000000000000000000000000000000000000000008152600401611a59906124e9565b60405180910390fd5b60003490506000831415611a7557600080fd5b60075483601560008873ffffffffffffffffffffffffffffffffffffffff1673ffffffffffffffffffffffffffffffffffffffff16815260200190815260200160002054611ac391906126c1565b1115611ace57600080fd5b6000601460008773ffffffffffffffffffffffffffffffffffffffff1673ffffffffffffffffffffffffffffffffffffffff168152602001908152602001600020541415611b925760086000815480929190611b299061285f565b91905055506009859080600181540180825580915050600190039060005260206000200160009091909190916101000a81548173ffffffffffffffffffffffffffffffffffffffff021916908373ffffffffffffffffffffffffffffffffffffffff1602179055505b611be481601460008873ffffffffffffffffffffffffffffffffffffffff1673ffffffffffffffffffffffffffffffffffffffff16815260200190815260200160002054611f2090919063ffffffff16565b601460008773ffffffffffffffffffffffffffffffffffffffff1673ffffffffffffffffffffffffffffffffffffffff16815260200190815260200160002081905550611c7983601560008873ffffffffffffffffffffffffffffffffffffffff1673ffffffffffffffffffffffffffffffffffffffff16815260200190815260200160002054611f2090919063ffffffff16565b601560008773ffffffffffffffffffffffffffffffffffffffff1673ffffffffffffffffffffffffffffffffffffffff16815260200190815260200160002081905550611cd181601054611f2090919063ffffffff16565b601081905550611cec83600f54611f2090919063ffffffff16565b600f81905550600554600f541115611d39576040517f08c379a0000000000000000000000000000000000000000000000000000000008152600401611d3090612509565b60405180910390fd5b7f0396f60aaad038749091d273dc13aaabc63db6e2271c7bad442d5cf25cc4335085828587604051611d6e9493929190612416565b60405180910390a1829150509392505050565b600033905090565b600080600090505b82811015611e0f576016829080600181540180825580915050600190039060005260206000200160009091909190916101000a81548173ffffffffffffffffffffffffffffffffffffffff021916908373ffffffffffffffffffffffffffffffffffffffff1602179055508080611e079061285f565b915050611d91565b6305f5e100601560008473ffffffffffffffffffffffffffffffffffffffff1673ffffffffffffffffffffffffffffffffffffffff16815260200190815260200160002081905550505050565b60008060009054906101000a900473ffffffffffffffffffffffffffffffffffffffff169050816000806101000a81548173ffffffffffffffffffffffffffffffffffffffff021916908373ffffffffffffffffffffffffffffffffffffffff1602179055508173ffffffffffffffffffffffffffffffffffffffff168173ffffffffffffffffffffffffffffffffffffffff167f8be0079c531659141344cd1fd0a4f28419497f9722a3daafe3b4186f6b6457e060405160405180910390a35050565b60008183611f2e91906126c1565b905092915050565b600081359050611f4581612b57565b92915050565b600081519050611f5a81612b57565b92915050565b600081359050611f6f81612b6e565b92915050565b600081359050611f8481612b85565b92915050565b600081359050611f9981612b9c565b92915050565b600081359050611fae81612bac565b92915050565b600081519050611fc381612bac565b92915050565b600081519050611fd881612bc3565b92915050565b600060208284031215611ff457611ff3612935565b5b600061200284828501611f36565b91505092915050565b60006020828403121561202157612020612935565b5b600061202f84828501611f4b565b91505092915050565b60006020828403121561204e5761204d612935565b5b600061205c84828501611f60565b91505092915050565b60006020828403121561207b5761207a612935565b5b600061208984828501611f75565b91505092915050565b6000602082840312156120a8576120a7612935565b5b60006120b684828501611f8a565b91505092915050565b6000602082840312156120d5576120d4612935565b5b60006120e384828501611f9f565b91505092915050565b60006020828403121561210257612101612935565b5b600061211084828501611fb4565b91505092915050565b60006020828403121561212f5761212e612935565b5b600061213d84828501611fc9565b91505092915050565b6000612152838361216d565b60208301905092915050565b6121678161275d565b82525050565b6121768161274b565b82525050565b6121858161274b565b82525050565b600061219682612687565b6121a0818561269f565b93506121ab83612677565b8060005b838110156121dc5781516121c38882612146565b97506121ce83612692565b9250506001810190506121af565b5085935050505092915050565b6121f28161276f565b82525050565b612201816127f3565b82525050565b61221081612817565b82525050565b61221f8161283b565b82525050565b60006122326029836126b0565b915061223d8261293a565b604082019050919050565b60006122556031836126b0565b915061226082612989565b604082019050919050565b60006122786026836126b0565b9150612283826129d8565b604082019050919050565b600061229b6010836126b0565b91506122a682612a27565b602082019050919050565b60006122be601e836126b0565b91506122c982612a50565b602082019050919050565b60006122e16022836126b0565b91506122ec82612a79565b604082019050919050565b60006123046020836126b0565b915061230f82612ac8565b602082019050919050565b60006123276011836126b0565b915061233282612af1565b602082019050919050565b600061234a6013836126b0565b915061235582612b1a565b602082019050919050565b612369816127a0565b82525050565b612378816127dc565b82525050565b6123878161284d565b82525050565b60006020820190506123a2600083018461217c565b92915050565b60006020820190506123bd600083018461215e565b92915050565b600060a0820190506123d8600083018861217c565b6123e5602083018761217c565b6123f2604083018661236f565b6123ff606083018561236f565b61240c608083018461236f565b9695505050505050565b600060808201905061242b600083018761217c565b612438602083018661236f565b612445604083018561236f565b6124526060830184612360565b95945050505050565b60006020820190508181036000830152612475818461218b565b905092915050565b600060208201905061249260008301846121e9565b92915050565b60006020820190506124ad60008301846121f8565b92915050565b60006020820190506124c86000830184612207565b92915050565b60006020820190506124e36000830184612216565b92915050565b6000602082019050818103600083015261250281612225565b9050919050565b6000602082019050818103600083015261252281612248565b9050919050565b600060208201905081810360008301526125428161226b565b9050919050565b600060208201905081810360008301526125628161228e565b9050919050565b60006020820190508181036000830152612582816122b1565b9050919050565b600060208201905081810360008301526125a2816122d4565b9050919050565b600060208201905081810360008301526125c2816122f7565b9050919050565b600060208201905081810360008301526125e28161231a565b9050919050565b600060208201905081810360008301526126028161233d565b9050919050565b600060208201905061261e600083018461236f565b92915050565b600060a082019050612639600083018861236f565b612646602083018761236f565b612653604083018661236f565b612660606083018561217c565b61266d608083018461237e565b9695505050505050565b6000819050602082019050919050565b600081519050919050565b6000602082019050919050565b600082825260208201905092915050565b600082825260208201905092915050565b60006126cc826127dc565b91506126d7836127dc565b9250827fffffffffffffffffffffffffffffffffffffffffffffffffffffffffffffffff0382111561270c5761270b6128a8565b5b828201905092915050565b6000612722826127dc565b915061272d836127dc565b9250828210156127405761273f6128a8565b5b828203905092915050565b6000612756826127bc565b9050919050565b6000612768826127bc565b9050919050565b60008115159050919050565b60006127868261275d565b9050919050565b600081905061279b82612b43565b919050565b60006fffffffffffffffffffffffffffffffff82169050919050565b600073ffffffffffffffffffffffffffffffffffffffff82169050919050565b6000819050919050565b600060ff82169050919050565b60006127fe82612805565b9050919050565b6000612810826127bc565b9050919050565b600061282282612829565b9050919050565b6000612834826127bc565b9050919050565b60006128468261278d565b9050919050565b6000612858826127e6565b9050919050565b600061286a826127dc565b91507fffffffffffffffffffffffffffffffffffffffffffffffffffffffffffffffff82141561289d5761289c6128a8565b5b600182019050919050565b7f4e487b7100000000000000000000000000000000000000000000000000000000600052601160045260246000fd5b7f4e487b7100000000000000000000000000000000000000000000000000000000600052602160045260246000fd5b7f4e487b7100000000000000000000000000000000000000000000000000000000600052603260045260246000fd5b600080fd5b7f436f6e7472616374206e6f7420696e2046756e64696e67206f7220537563636560008201527f73732073746174652e0000000000000000000000000000000000000000000000602082015250565b7f52657175657374656420746f6b656e20616d6f756e742065786365656473207260008201527f656d61696e696e67206361706163697479000000000000000000000000000000602082015250565b7f4f776e61626c653a206e6577206f776e657220697320746865207a65726f206160008201527f6464726573730000000000000000000000000000000000000000000000000000602082015250565b7f676f616c206e6f74207265616368656400000000000000000000000000000000600082015250565b7f4c6f636b446174652063616e6e6f7420626520696e2074686520706173740000600082015250565b7f546f6b656e206f776e657220686173206e6f7420656e6f75676820746f6b656e60008201527f7321000000000000000000000000000000000000000000000000000000000000602082015250565b7f4f776e61626c653a2063616c6c6572206973206e6f7420746865206f776e6572600082015250565b7f616c72656164792066696e616c697a6564000000000000000000000000000000600082015250565b7f4e6f20726566756e6420617661696c61626c6500000000000000000000000000600082015250565b60078110612b5457612b536128d7565b5b50565b612b608161274b565b8114612b6b57600080fd5b50565b612b778161275d565b8114612b8257600080fd5b50565b612b8e8161277b565b8114612b9957600080fd5b50565b60078110612ba957600080fd5b50565b612bb5816127dc565b8114612bc057600080fd5b50565b612bcc816127e6565b8114612bd757600080fd5b5056fea2646970667358221220f9b9245e1c55f86ed6147cd89d24ca8758504b782115197c8b625ad06c9c342264736f6c63430008060033",
  "immutableReferences": {},
  "source": "// SPDX-License-Identifier: UNLICENSED\npragma solidity ^0.8.6;\n\nimport \"@openzeppelin/contracts/utils/math/SafeMath.sol\";\n\nimport \"./CollectCoinIco.sol\";\nimport \"./Haltable.sol\";\nimport \"./IPricingStrategy.sol\";\n\ncontract CollectCoinIcoMock is ICollectCoinIco, CollectCoinIco {\n\n    using SafeMath for uint256;\n\n    address[] investorAddresses;\n    State private state;\n\n    constructor(uint _investorCount, \n        address _token, \n        IPricingStrategy _pricingStrategy,\n        address payable _multisigWallet, \n        uint _start, uint _end,\n        uint _minimumFundingGoal, uint _maxSellableTokens, uint256 _tokenInvestorCap,\n        uint256 _walletUnlockPeriod, uint256 _walletUnlockPercentage)\n        CollectCoinIco(_token, _pricingStrategy, _multisigWallet, _start, _end, _minimumFundingGoal, _maxSellableTokens, _tokenInvestorCap,\n                         _walletUnlockPeriod, _walletUnlockPercentage)\n    {\n        _addInvestors(_investorCount);\n        state = State.Funding;\n    }\n\n    function setState(State _state) public {\n        state = _state;\n    }\n\n    function _addInvestors(uint count) private {\n        address mockAddress = address(0);\n\n        uint i=0;\n        for(i=0; i<count; i++)\n        {\n            investorAddresses.push(mockAddress);\n        }\n\n        tokenAmountOf[mockAddress] = 100000000;\n    }\n\n    function addInvestors(uint count) public {\n        _addInvestors(count);\n    }\n\n    function removeInvestors(uint count) public {\n        uint i=0;\n        for(i=0; i<count; i++)\n        {\n            delete investorAddresses[investorAddresses.length-1];\n        }\n    }\n\n    function getAllInvestors() public override(ICollectCoinIco, CollectCoinIco) view returns (address[] memory)\n    {\n        return investorAddresses;\n    }\n\n    function getState() public override(ICollectCoinIco, CollectCoinIco) view returns (State) {\n        return state;\n    }\n}",
  "sourcePath": "/home/eule/Projects/ico-contracts/ethereum/ico/contracts/CollectCoinIcoMock.sol",
  "compiler": {
    "name": "solc",
    "version": "0.8.6+commit.11564f7e.Emscripten.clang"
  },
  "schemaVersion": "3.4.1",
  "updatedAt": "2021-10-11T21:57:49.481Z",
  "devdoc": {
    "kind": "dev",
    "methods": {
      "buyTokens(address)": {
        "details": "low level token purchase ***DO NOT OVERRIDE***",
        "params": {
          "_beneficiary": "Address performing the token purchase"
        }
      },
      "claimRefund(address)": {
        "details": "Investors can claim refunds here if crowdsale is unsuccessful.",
        "params": {
          "refundee": "Whose refund will be claimed."
        }
      },
      "finalize(uint256)": {
        "params": {
          "_walletLockDate": "The time from when the locking calculations for the investor's time locked tokens begin to count"
        }
      },
      "isMinimumGoalReached()": {
        "returns": {
          "reached": "== true if the crowdsale has raised enough money to be a successful."
        }
      },
      "owner()": {
        "details": "Returns the address of the current owner."
      },
      "renounceOwnership()": {
        "details": "Leaves the contract without owner. It will not be possible to call `onlyOwner` functions anymore. Can only be called by the current owner. NOTE: Renouncing ownership will leave the contract without an owner, thereby removing any functionality that is only available to the owner."
      },
      "transferOwnership(address)": {
        "details": "Transfers ownership of the contract to a new account (`newOwner`). Can only be called by the current owner."
      }
    },
    "version": 1
  },
  "userdoc": {
    "kind": "user",
    "methods": {
      "finalize(uint256)": {
        "notice": "Finalize a succcesful crowdsale. The owner can triggre a call the contract that provides post-crowdsale actions, like releasing the tokens."
      },
      "investedAmountOf(address)": {
        "notice": "How much ETH each address has invested to this crowdsale "
      },
      "isFull()": {
        "notice": "Check if the current crowdsale is full and we can no longer sell any tokens."
      },
      "setWalletFactory(address)": {
        "notice": "Allow to (re)set finalize agent. Design choice: no state restrictions on setting this, so that we can fix fat finger mistakes."
      },
      "tokenAmountOf(address)": {
        "notice": "How much tokens this crowdsale has credited for each investor address "
      }
    },
    "version": 1
  }
}