{
  "contractName": "CollectCoinIcoMock",
  "abi": [
    {
      "inputs": [
        {
          "internalType": "uint256",
          "name": "_investorCount",
          "type": "uint256"
        },
        {
          "internalType": "address",
          "name": "_token",
          "type": "address"
        },
        {
          "internalType": "contract IPricingStrategy",
          "name": "_pricingStrategy",
          "type": "address"
        },
        {
          "internalType": "address payable",
          "name": "_multisigWallet",
          "type": "address"
        },
        {
          "internalType": "uint256",
          "name": "_start",
          "type": "uint256"
        },
        {
          "internalType": "uint256",
          "name": "_end",
          "type": "uint256"
        },
        {
          "internalType": "uint256",
          "name": "_minimumFundingGoal",
          "type": "uint256"
        },
        {
          "internalType": "uint256",
          "name": "_maxSellableTokens",
          "type": "uint256"
        },
        {
          "internalType": "uint256",
          "name": "_tokenInvestorCap",
          "type": "uint256"
        },
        {
          "internalType": "uint256",
          "name": "_walletUnlockPeriod",
          "type": "uint256"
        },
        {
          "internalType": "uint256",
          "name": "_walletUnlockPercentage",
          "type": "uint256"
        }
      ],
      "stateMutability": "nonpayable",
      "type": "constructor"
    },
    {
      "anonymous": false,
      "inputs": [
        {
          "indexed": false,
          "internalType": "address",
          "name": "investor",
          "type": "address"
        },
        {
          "indexed": false,
          "internalType": "uint256",
          "name": "weiAmount",
          "type": "uint256"
        },
        {
          "indexed": false,
          "internalType": "uint256",
          "name": "tokenAmount",
          "type": "uint256"
        },
        {
          "indexed": false,
          "internalType": "uint128",
          "name": "customerId",
          "type": "uint128"
        }
      ],
      "name": "Invested",
      "type": "event"
    },
    {
      "anonymous": false,
      "inputs": [
        {
          "indexed": true,
          "internalType": "address",
          "name": "previousOwner",
          "type": "address"
        },
        {
          "indexed": true,
          "internalType": "address",
          "name": "newOwner",
          "type": "address"
        }
      ],
      "name": "OwnershipTransferred",
      "type": "event"
    },
    {
      "anonymous": false,
      "inputs": [
        {
          "indexed": true,
          "internalType": "address",
          "name": "refundee",
          "type": "address"
        },
        {
          "indexed": false,
          "internalType": "uint256",
          "name": "weiAmount",
          "type": "uint256"
        }
      ],
      "name": "Withdrawn",
      "type": "event"
    },
    {
      "stateMutability": "payable",
      "type": "fallback"
    },
    {
      "inputs": [],
      "name": "availableInvestment",
      "outputs": [
        {
          "internalType": "uint256",
          "name": "",
          "type": "uint256"
        }
      ],
      "stateMutability": "view",
      "type": "function"
    },
    {
      "inputs": [
        {
          "internalType": "address payable",
          "name": "_beneficiary",
          "type": "address"
        }
      ],
      "name": "buyTokens",
      "outputs": [],
      "stateMutability": "payable",
      "type": "function"
    },
    {
      "inputs": [
        {
          "internalType": "address payable",
          "name": "refundee",
          "type": "address"
        }
      ],
      "name": "claimRefund",
      "outputs": [],
      "stateMutability": "nonpayable",
      "type": "function"
    },
    {
      "inputs": [],
      "name": "endsAt",
      "outputs": [
        {
          "internalType": "uint256",
          "name": "",
          "type": "uint256"
        }
      ],
      "stateMutability": "view",
      "type": "function"
    },
    {
      "inputs": [
        {
          "internalType": "uint256",
          "name": "_walletLockDate",
          "type": "uint256"
        }
      ],
      "name": "finalize",
      "outputs": [],
      "stateMutability": "nonpayable",
      "type": "function"
    },
    {
      "inputs": [],
      "name": "finalized",
      "outputs": [
        {
          "internalType": "bool",
          "name": "",
          "type": "bool"
        }
      ],
      "stateMutability": "view",
      "type": "function"
    },
    {
      "inputs": [],
      "name": "halt",
      "outputs": [],
      "stateMutability": "nonpayable",
      "type": "function"
    },
    {
      "inputs": [],
      "name": "halted",
      "outputs": [
        {
          "internalType": "bool",
          "name": "",
          "type": "bool"
        }
      ],
      "stateMutability": "view",
      "type": "function"
    },
    {
      "inputs": [
        {
          "internalType": "address",
          "name": "",
          "type": "address"
        }
      ],
      "name": "investedAmountOf",
      "outputs": [
        {
          "internalType": "uint256",
          "name": "",
          "type": "uint256"
        }
      ],
      "stateMutability": "view",
      "type": "function"
    },
    {
      "inputs": [],
      "name": "investorCount",
      "outputs": [
        {
          "internalType": "uint256",
          "name": "",
          "type": "uint256"
        }
      ],
      "stateMutability": "view",
      "type": "function"
    },
    {
      "inputs": [
        {
          "internalType": "address",
          "name": "",
          "type": "address"
        }
      ],
      "name": "investors",
      "outputs": [
        {
          "internalType": "address payable",
          "name": "",
          "type": "address"
        }
      ],
      "stateMutability": "view",
      "type": "function"
    },
    {
      "inputs": [],
      "name": "isFull",
      "outputs": [
        {
          "internalType": "bool",
          "name": "",
          "type": "bool"
        }
      ],
      "stateMutability": "view",
      "type": "function"
    },
    {
      "inputs": [],
      "name": "isMinimumGoalReached",
      "outputs": [
        {
          "internalType": "bool",
          "name": "reached",
          "type": "bool"
        }
      ],
      "stateMutability": "view",
      "type": "function"
    },
    {
      "inputs": [],
      "name": "loadedRefund",
      "outputs": [
        {
          "internalType": "uint256",
          "name": "",
          "type": "uint256"
        }
      ],
      "stateMutability": "view",
      "type": "function"
    },
    {
      "inputs": [],
      "name": "maximumSellableTokens",
      "outputs": [
        {
          "internalType": "uint256",
          "name": "",
          "type": "uint256"
        }
      ],
      "stateMutability": "view",
      "type": "function"
    },
    {
      "inputs": [],
      "name": "minimumFundingGoal",
      "outputs": [
        {
          "internalType": "uint256",
          "name": "",
          "type": "uint256"
        }
      ],
      "stateMutability": "view",
      "type": "function"
    },
    {
      "inputs": [],
      "name": "multisigWallet",
      "outputs": [
        {
          "internalType": "address payable",
          "name": "",
          "type": "address"
        }
      ],
      "stateMutability": "view",
      "type": "function"
    },
    {
      "inputs": [],
      "name": "owner",
      "outputs": [
        {
          "internalType": "address",
          "name": "",
          "type": "address"
        }
      ],
      "stateMutability": "view",
      "type": "function"
    },
    {
      "inputs": [],
      "name": "pricingStrategy",
      "outputs": [
        {
          "internalType": "contract IPricingStrategy",
          "name": "",
          "type": "address"
        }
      ],
      "stateMutability": "view",
      "type": "function"
    },
    {
      "inputs": [],
      "name": "renounceOwnership",
      "outputs": [],
      "stateMutability": "nonpayable",
      "type": "function"
    },
    {
      "inputs": [
        {
          "internalType": "uint256",
          "name": "_endsAt",
          "type": "uint256"
        }
      ],
      "name": "setEndsAt",
      "outputs": [],
      "stateMutability": "nonpayable",
      "type": "function"
    },
    {
      "inputs": [
        {
          "internalType": "uint256",
          "name": "_startsAt",
          "type": "uint256"
        }
      ],
      "name": "setStartsAt",
      "outputs": [],
      "stateMutability": "nonpayable",
      "type": "function"
    },
    {
      "inputs": [
        {
          "internalType": "address",
          "name": "_tokenOwner",
          "type": "address"
        }
      ],
      "name": "setTokenOwner",
      "outputs": [],
      "stateMutability": "nonpayable",
      "type": "function"
    },
    {
      "inputs": [
        {
          "internalType": "contract TimeLockedWalletFactory",
          "name": "addr",
          "type": "address"
        }
      ],
      "name": "setWalletFactory",
      "outputs": [],
      "stateMutability": "nonpayable",
      "type": "function"
    },
    {
      "inputs": [],
      "name": "startsAt",
      "outputs": [
        {
          "internalType": "uint256",
          "name": "",
          "type": "uint256"
        }
      ],
      "stateMutability": "view",
      "type": "function"
    },
    {
      "inputs": [],
      "name": "timeLockedWallet",
      "outputs": [
        {
          "internalType": "address",
          "name": "",
          "type": "address"
        }
      ],
      "stateMutability": "view",
      "type": "function"
    },
    {
      "inputs": [],
      "name": "token",
      "outputs": [
        {
          "internalType": "contract CollectCoin",
          "name": "",
          "type": "address"
        }
      ],
      "stateMutability": "view",
      "type": "function"
    },
    {
      "inputs": [
        {
          "internalType": "address",
          "name": "",
          "type": "address"
        }
      ],
      "name": "tokenAmountOf",
      "outputs": [
        {
          "internalType": "uint256",
          "name": "",
          "type": "uint256"
        }
      ],
      "stateMutability": "view",
      "type": "function"
    },
    {
      "inputs": [],
      "name": "tokenInvestorCap",
      "outputs": [
        {
          "internalType": "uint256",
          "name": "",
          "type": "uint256"
        }
      ],
      "stateMutability": "view",
      "type": "function"
    },
    {
      "inputs": [],
      "name": "tokenOwner",
      "outputs": [
        {
          "internalType": "address",
          "name": "",
          "type": "address"
        }
      ],
      "stateMutability": "view",
      "type": "function"
    },
    {
      "inputs": [],
      "name": "tokensSold",
      "outputs": [
        {
          "internalType": "uint256",
          "name": "",
          "type": "uint256"
        }
      ],
      "stateMutability": "view",
      "type": "function"
    },
    {
      "inputs": [
        {
          "internalType": "address",
          "name": "newOwner",
          "type": "address"
        }
      ],
      "name": "transferOwnership",
      "outputs": [],
      "stateMutability": "nonpayable",
      "type": "function"
    },
    {
      "inputs": [],
      "name": "unhalt",
      "outputs": [],
      "stateMutability": "nonpayable",
      "type": "function"
    },
    {
      "inputs": [],
      "name": "weiRaised",
      "outputs": [
        {
          "internalType": "uint256",
          "name": "",
          "type": "uint256"
        }
      ],
      "stateMutability": "view",
      "type": "function"
    },
    {
      "stateMutability": "payable",
      "type": "receive"
    },
    {
      "inputs": [
        {
          "internalType": "enum ICollectCoinIco.State",
          "name": "_state",
          "type": "uint8"
        }
      ],
      "name": "setState",
      "outputs": [],
      "stateMutability": "nonpayable",
      "type": "function"
    },
    {
      "inputs": [
        {
          "internalType": "uint256",
          "name": "count",
          "type": "uint256"
        }
      ],
      "name": "addInvestors",
      "outputs": [],
      "stateMutability": "nonpayable",
      "type": "function"
    },
    {
      "inputs": [
        {
          "internalType": "uint256",
          "name": "count",
          "type": "uint256"
        }
      ],
      "name": "removeInvestors",
      "outputs": [],
      "stateMutability": "nonpayable",
      "type": "function"
    },
    {
      "inputs": [],
      "name": "getState",
      "outputs": [
        {
          "internalType": "enum ICollectCoinIco.State",
          "name": "",
          "type": "uint8"
        }
      ],
      "stateMutability": "view",
      "type": "function"
    }
  ],
  "bytecode": "0x608060405260006008556000600e556000600f5560006010553480156200002557600080fd5b506040516200345c3803806200345c83398181016040528101906200004b919062000460565b898989898989898989896000620000676200032560201b60201c565b9050806000806101000a81548173ffffffffffffffffffffffffffffffffffffffff021916908373ffffffffffffffffffffffffffffffffffffffff1602179055508073ffffffffffffffffffffffffffffffffffffffff16600073ffffffffffffffffffffffffffffffffffffffff167f8be0079c531659141344cd1fd0a4f28419497f9722a3daafe3b4186f6b6457e060405160405180910390a35089600160006101000a81548173ffffffffffffffffffffffffffffffffffffffff021916908373ffffffffffffffffffffffffffffffffffffffff16021790555088600260006101000a81548173ffffffffffffffffffffffffffffffffffffffff021916908373ffffffffffffffffffffffffffffffffffffffff1602179055508260078190555087600460006101000a81548173ffffffffffffffffffffffffffffffffffffffff021916908373ffffffffffffffffffffffffffffffffffffffff160217905550600073ffffffffffffffffffffffffffffffffffffffff16600460009054906101000a900473ffffffffffffffffffffffffffffffffffffffff1673ffffffffffffffffffffffffffffffffffffffff1614156200022c57600080fd5b60008714156200023b57600080fd5b8660098190555060008614156200025157600080fd5b85600a81905550600a54600954106200026957600080fd5b81600b8190555080600c8190555084841015620002bd576040517f08c379a0000000000000000000000000000000000000000000000000000000008152600401620002b49062000594565b60405180910390fd5b846006819055508360058190555050505050505050505050620002e68b6200032d60201b60201c565b6002601760006101000a81548160ff021916908360068111156200030f576200030e620006aa565b5b0217905550505050505050505050505062000795565b600033905090565b600080600090505b82811015620003b7576016829080600181540180825580915050600190039060005260206000200160009091909190916101000a81548173ffffffffffffffffffffffffffffffffffffffff021916908373ffffffffffffffffffffffffffffffffffffffff1602179055508080620003ae906200062d565b91505062000335565b6305f5e100601560008473ffffffffffffffffffffffffffffffffffffffff1673ffffffffffffffffffffffffffffffffffffffff16815260200190815260200160002081905550505050565b60008151905062000415816200072d565b92915050565b6000815190506200042c8162000747565b92915050565b600081519050620004438162000761565b92915050565b6000815190506200045a816200077b565b92915050565b60008060008060008060008060008060006101608c8e031215620004895762000488620006d9565b5b6000620004998e828f0162000449565b9b50506020620004ac8e828f0162000404565b9a50506040620004bf8e828f0162000432565b9950506060620004d28e828f016200041b565b9850506080620004e58e828f0162000449565b97505060a0620004f88e828f0162000449565b96505060c06200050b8e828f0162000449565b95505060e06200051e8e828f0162000449565b945050610100620005328e828f0162000449565b935050610120620005468e828f0162000449565b9250506101406200055a8e828f0162000449565b9150509295989b509295989b9093969950565b60006200057c603b83620005b6565b91506200058982620006de565b604082019050919050565b60006020820190508181036000830152620005af816200056d565b9050919050565b600082825260208201905092915050565b6000620005d48262000603565b9050919050565b6000620005e88262000603565b9050919050565b6000620005fc82620005c7565b9050919050565b600073ffffffffffffffffffffffffffffffffffffffff82169050919050565b6000819050919050565b60006200063a8262000623565b91507fffffffffffffffffffffffffffffffffffffffffffffffffffffffffffffffff82141562000670576200066f6200067b565b5b600182019050919050565b7f4e487b7100000000000000000000000000000000000000000000000000000000600052601160045260246000fd5b7f4e487b7100000000000000000000000000000000000000000000000000000000600052602160045260246000fd5b600080fd5b7f4d6178696d756d2073656c6c61626c6520746f6b656e73206973206c6f77657260008201527f207468616e206d696e696d756d2066756e64696e6720676f616c2e0000000000602082015250565b6200073881620005c7565b81146200074457600080fd5b50565b6200075281620005db565b81146200075e57600080fd5b50565b6200076c81620005ef565b81146200077857600080fd5b50565b620007868162000623565b81146200079257600080fd5b50565b612cb780620007a56000396000f3fe6080604052600436106102295760003560e01c80637ebf879c11610123578063babd3d9a116100ab578063d0f6e53e1161006f578063d0f6e53e146107b1578063d7e64c00146107dc578063ec8ac4d814610807578063f2fde38b14610823578063fc0c546a1461084c57610239565b8063babd3d9a146106f2578063bf5fc2ee1461071d578063bffa55d514610746578063c361f7d01461076f578063cb3e64fd1461079a57610239565b8063a3aadd62116100f2578063a3aadd621461061b578063a3e6761014610646578063af46868214610671578063b3f05b971461069c578063b9b8af0b146106c757610239565b80637ebf879c1461055f5780638da5cb5b146105885780639075becf146105b357806397b150ca146105de57610239565b8063518ab2a8116101b15780636f7bc9be116101755780636f7bc9be1461048a578063715018a6146104c757806378b99c24146104de578063797d9437146105095780637c2e08a31461053457610239565b8063518ab2a8146103cd57806356de96db146103f85780635ed7ca5b14610421578063649f342e146104385780636e50eb3f1461046157610239565b806318e02bd9116101f857806318e02bd9146102e85780631992d1ad146103115780631aae34601461033a5780633ad075ea146103775780634042b66f146103a257610239565b806305261aea1461023e5780630a09284a1461026757806313f4e977146102925780631865c57d146102bd57610239565b366102395761023733610877565b005b600080fd5b34801561024a57600080fd5b50610265600480360381019061026091906121b1565b6108a5565b005b34801561027357600080fd5b5061027c610bfe565b60405161028991906126a6565b60405180910390f35b34801561029e57600080fd5b506102a7610c04565b6040516102b491906126a6565b60405180910390f35b3480156102c957600080fd5b506102d2610c0a565b6040516102df919061254b565b60405180910390f35b3480156102f457600080fd5b5061030f600480360381019061030a91906120d0565b610c21565b005b34801561031d57600080fd5b50610338600480360381019061033391906121b1565b610dd6565b005b34801561034657600080fd5b50610361600480360381019061035c91906120d0565b610e4a565b60405161036e91906126a6565b60405180910390f35b34801561038357600080fd5b5061038c610e62565b60405161039991906126a6565b60405180910390f35b3480156103ae57600080fd5b506103b7610e68565b6040516103c491906126a6565b60405180910390f35b3480156103d957600080fd5b506103e2610e6e565b6040516103ef91906126a6565b60405180910390f35b34801561040457600080fd5b5061041f600480360381019061041a9190612184565b610e74565b005b34801561042d57600080fd5b50610436610ea1565b005b34801561044457600080fd5b5061045f600480360381019061045a91906121b1565b610f3a565b005b34801561046d57600080fd5b50610488600480360381019061048391906121b1565b610f46565b005b34801561049657600080fd5b506104b160048036038101906104ac91906120d0565b610fcc565b6040516104be9190612447565b60405180910390f35b3480156104d357600080fd5b506104dc610fff565b005b3480156104ea57600080fd5b506104f3611139565b6040516105009190612530565b60405180910390f35b34801561051557600080fd5b5061051e61115f565b60405161052b91906126a6565b60405180910390f35b34801561054057600080fd5b50610549611165565b60405161055691906124fa565b60405180910390f35b34801561056b57600080fd5b5061058660048036038101906105819190612157565b611174565b005b34801561059457600080fd5b5061059d611234565b6040516105aa919061242c565b60405180910390f35b3480156105bf57600080fd5b506105c861125d565b6040516105d59190612447565b60405180910390f35b3480156105ea57600080fd5b50610605600480360381019061060091906120d0565b611283565b60405161061291906126a6565b60405180910390f35b34801561062757600080fd5b5061063061129b565b60405161063d919061242c565b60405180910390f35b34801561065257600080fd5b5061065b6112c1565b604051610668919061242c565b60405180910390f35b34801561067d57600080fd5b506106866112e7565b60405161069391906126a6565b60405180910390f35b3480156106a857600080fd5b506106b16112ed565b6040516106be91906124fa565b60405180910390f35b3480156106d357600080fd5b506106dc611300565b6040516106e991906124fa565b60405180910390f35b3480156106fe57600080fd5b50610707611313565b60405161071491906124fa565b60405180910390f35b34801561072957600080fd5b50610744600480360381019061073f91906121b1565b611322565b005b34801561075257600080fd5b5061076d6004803603810190610768919061212a565b6113a8565b005b34801561077b57600080fd5b5061078461167a565b60405161079191906126a6565b60405180910390f35b3480156107a657600080fd5b506107af6116ce565b005b3480156107bd57600080fd5b506107c661177f565b6040516107d391906126a6565b60405180910390f35b3480156107e857600080fd5b506107f1611785565b6040516107fe91906126a6565b60405180910390f35b610821600480360381019061081c919061212a565b610877565b005b34801561082f57600080fd5b5061084a600480360381019061084591906120d0565b61178b565b005b34801561085857600080fd5b50610861611934565b60405161086e9190612515565b60405180910390f35b6000349050610886828261195a565b6000610891826119a6565b905061089f83600083611b04565b50505050565b60038060068111156108ba576108b9612955565b5b6108c2610c0a565b60068111156108d4576108d3612955565b5b146108de57600080fd5b6108e6611f37565b73ffffffffffffffffffffffffffffffffffffffff16610904611234565b73ffffffffffffffffffffffffffffffffffffffff161461095a576040517f08c379a000000000000000000000000000000000000000000000000000000000815260040161095190612626565b60405180910390fd5b600060149054906101000a900460ff161561097457600080fd5b600d60009054906101000a900460ff16156109c4576040517f08c379a00000000000000000000000000000000000000000000000000000000081526004016109bb90612646565b60405180910390fd5b6109cc611165565b610a0b576040517f08c379a0000000000000000000000000000000000000000000000000000000008152600401610a02906125c6565b60405180910390fd5b6000808311610a1a5742610a1c565b825b905042811015610a61576040517f08c379a0000000000000000000000000000000000000000000000000000000008152600401610a58906125e6565b60405180910390fd5b600360009054906101000a900473ffffffffffffffffffffffffffffffffffffffff1673ffffffffffffffffffffffffffffffffffffffff1663c63340db601260009054906101000a900473ffffffffffffffffffffffffffffffffffffffff163084600b54600c546040518663ffffffff1660e01b8152600401610aea9594939291906124a7565b602060405180830381600087803b158015610b0457600080fd5b505af1158015610b18573d6000803e3d6000fd5b505050506040513d601f19601f82011682018060405250810190610b3c91906120fd565b601160006101000a81548173ffffffffffffffffffffffffffffffffffffffff021916908373ffffffffffffffffffffffffffffffffffffffff1602179055506001600d60006101000a81548160ff021916908315150217905550600460009054906101000a900473ffffffffffffffffffffffffffffffffffffffff1673ffffffffffffffffffffffffffffffffffffffff166108fc600f549081150290604051600060405180830381858888f19350505050610bf957600080fd5b505050565b600a5481565b60065481565b6000601760009054906101000a900460ff16905090565b610c29611f37565b73ffffffffffffffffffffffffffffffffffffffff16610c47611234565b73ffffffffffffffffffffffffffffffffffffffff1614610c9d576040517f08c379a0000000000000000000000000000000000000000000000000000000008152600401610c9490612626565b60405180910390fd5b6000600160009054906101000a900473ffffffffffffffffffffffffffffffffffffffff1673ffffffffffffffffffffffffffffffffffffffff166370a08231836040518263ffffffff1660e01b8152600401610cfa919061242c565b60206040518083038186803b158015610d1257600080fd5b505afa158015610d26573d6000803e3d6000fd5b505050506040513d601f19601f82011682018060405250810190610d4a91906121de565b9050600554811015610d91576040517f08c379a0000000000000000000000000000000000000000000000000000000008152600401610d8890612606565b60405180910390fd5b81601260006101000a81548173ffffffffffffffffffffffffffffffffffffffff021916908373ffffffffffffffffffffffffffffffffffffffff1602179055505050565b60005b81811015610e465760166001601680549050610df5919061275f565b81548110610e0657610e05612984565b5b9060005260206000200160006101000a81549073ffffffffffffffffffffffffffffffffffffffff02191690558080610e3e906128dd565b915050610dd9565b5050565b60146020528060005260406000206000915090505481565b60055481565b600f5481565b600e5481565b80601760006101000a81548160ff02191690836006811115610e9957610e98612955565b5b021790555050565b610ea9611f37565b73ffffffffffffffffffffffffffffffffffffffff16610ec7611234565b73ffffffffffffffffffffffffffffffffffffffff1614610f1d576040517f08c379a0000000000000000000000000000000000000000000000000000000008152600401610f1490612626565b60405180910390fd5b6001600060146101000a81548160ff021916908315150217905550565b610f4381611f3f565b50565b610f4e611f37565b73ffffffffffffffffffffffffffffffffffffffff16610f6c611234565b73ffffffffffffffffffffffffffffffffffffffff1614610fc2576040517f08c379a0000000000000000000000000000000000000000000000000000000008152600401610fb990612626565b60405180910390fd5b80600a8190555050565b60136020528060005260406000206000915054906101000a900473ffffffffffffffffffffffffffffffffffffffff1681565b611007611f37565b73ffffffffffffffffffffffffffffffffffffffff16611025611234565b73ffffffffffffffffffffffffffffffffffffffff161461107b576040517f08c379a000000000000000000000000000000000000000000000000000000000815260040161107290612626565b60405180910390fd5b600073ffffffffffffffffffffffffffffffffffffffff1660008054906101000a900473ffffffffffffffffffffffffffffffffffffffff1673ffffffffffffffffffffffffffffffffffffffff167f8be0079c531659141344cd1fd0a4f28419497f9722a3daafe3b4186f6b6457e060405160405180910390a360008060006101000a81548173ffffffffffffffffffffffffffffffffffffffff021916908373ffffffffffffffffffffffffffffffffffffffff160217905550565b600260009054906101000a900473ffffffffffffffffffffffffffffffffffffffff1681565b60105481565b6000600654600e541015905090565b61117c611f37565b73ffffffffffffffffffffffffffffffffffffffff1661119a611234565b73ffffffffffffffffffffffffffffffffffffffff16146111f0576040517f08c379a00000000000000000000000000000000000000000000000000000000081526004016111e790612626565b60405180910390fd5b80600360006101000a81548173ffffffffffffffffffffffffffffffffffffffff021916908373ffffffffffffffffffffffffffffffffffffffff16021790555050565b60008060009054906101000a900473ffffffffffffffffffffffffffffffffffffffff16905090565b600460009054906101000a900473ffffffffffffffffffffffffffffffffffffffff1681565b60156020528060005260406000206000915090505481565b601160009054906101000a900473ffffffffffffffffffffffffffffffffffffffff1681565b601260009054906101000a900473ffffffffffffffffffffffffffffffffffffffff1681565b60095481565b600d60009054906101000a900460ff1681565b600060149054906101000a900460ff1681565b6000600554600e541015905090565b61132a611f37565b73ffffffffffffffffffffffffffffffffffffffff16611348611234565b73ffffffffffffffffffffffffffffffffffffffff161461139e576040517f08c379a000000000000000000000000000000000000000000000000000000000815260040161139590612626565b60405180910390fd5b8060098190555050565b60068060068111156113bd576113bc612955565b5b6113c5610c0a565b60068111156113d7576113d6612955565b5b146113e157600080fd5b6000601360008473ffffffffffffffffffffffffffffffffffffffff1673ffffffffffffffffffffffffffffffffffffffff16815260200190815260200160002060009054906101000a900473ffffffffffffffffffffffffffffffffffffffff169050600073ffffffffffffffffffffffffffffffffffffffff168173ffffffffffffffffffffffffffffffffffffffff1614156114b5576040517f08c379a00000000000000000000000000000000000000000000000000000000081526004016114ac90612666565b60405180910390fd5b6000601460008373ffffffffffffffffffffffffffffffffffffffff1673ffffffffffffffffffffffffffffffffffffffff1681526020019081526020016000205490506000811161153c576040517f08c379a000000000000000000000000000000000000000000000000000000000815260040161153390612686565b60405180910390fd5b6000601460008473ffffffffffffffffffffffffffffffffffffffff1673ffffffffffffffffffffffffffffffffffffffff168152602001908152602001600020819055506000601560008473ffffffffffffffffffffffffffffffffffffffff1673ffffffffffffffffffffffffffffffffffffffff1681526020019081526020016000208190555080601060008282546115d89190612709565b925050819055508173ffffffffffffffffffffffffffffffffffffffff166108fc829081150290604051600060405180830381858888f19350505050158015611625573d6000803e3d6000fd5b508173ffffffffffffffffffffffffffffffffffffffff167f7084f5476618d8e60b11ef0d7d3f06914655adb8793e28ff7f018d4c76d505d58260405161166c91906126a6565b60405180910390a250505050565b6000601560003373ffffffffffffffffffffffffffffffffffffffff1673ffffffffffffffffffffffffffffffffffffffff168152602001908152602001600020546007546116c9919061275f565b905090565b6116d6611f37565b73ffffffffffffffffffffffffffffffffffffffff166116f4611234565b73ffffffffffffffffffffffffffffffffffffffff161461174a576040517f08c379a000000000000000000000000000000000000000000000000000000000815260040161174190612626565b60405180910390fd5b600060149054906101000a900460ff1661176357600080fd5b60008060146101000a81548160ff021916908315150217905550565b60075481565b60085481565b611793611f37565b73ffffffffffffffffffffffffffffffffffffffff166117b1611234565b73ffffffffffffffffffffffffffffffffffffffff1614611807576040517f08c379a00000000000000000000000000000000000000000000000000000000081526004016117fe90612626565b60405180910390fd5b600073ffffffffffffffffffffffffffffffffffffffff168173ffffffffffffffffffffffffffffffffffffffff161415611877576040517f08c379a000000000000000000000000000000000000000000000000000000000815260040161186e906125a6565b60405180910390fd5b8073ffffffffffffffffffffffffffffffffffffffff1660008054906101000a900473ffffffffffffffffffffffffffffffffffffffff1673ffffffffffffffffffffffffffffffffffffffff167f8be0079c531659141344cd1fd0a4f28419497f9722a3daafe3b4186f6b6457e060405160405180910390a3806000806101000a81548173ffffffffffffffffffffffffffffffffffffffff021916908373ffffffffffffffffffffffffffffffffffffffff16021790555050565b600160009054906101000a900473ffffffffffffffffffffffffffffffffffffffff1681565b600073ffffffffffffffffffffffffffffffffffffffff168273ffffffffffffffffffffffffffffffffffffffff16141561199457600080fd5b60008114156119a257600080fd5b5050565b600080600260009054906101000a900473ffffffffffffffffffffffffffffffffffffffff1673ffffffffffffffffffffffffffffffffffffffff1663a7c4abdb84600e54600160009054906101000a900473ffffffffffffffffffffffffffffffffffffffff1673ffffffffffffffffffffffffffffffffffffffff1663313ce5676040518163ffffffff1660e01b815260040160206040518083038186803b158015611a5357600080fd5b505afa158015611a67573d6000803e3d6000fd5b505050506040513d601f19601f82011682018060405250810190611a8b919061220b565b6040518463ffffffff1660e01b8152600401611aa9939291906126c1565b60206040518083038186803b158015611ac157600080fd5b505afa158015611ad5573d6000803e3d6000fd5b505050506040513d601f19601f82011682018060405250810190611af991906121de565b905080915050919050565b60008060149054906101000a900460ff1615611b1f57600080fd5b6002806006811115611b3457611b33612955565b5b611b3c610c0a565b6006811115611b4e57611b4d612955565b5b14611b5857600080fd5b60026006811115611b6c57611b6b612955565b5b611b74610c0a565b6006811115611b8657611b85612955565b5b1480611bbd575060036006811115611ba157611ba0612955565b5b611ba9610c0a565b6006811115611bbb57611bba612955565b5b145b611bfc576040517f08c379a0000000000000000000000000000000000000000000000000000000008152600401611bf390612566565b60405180910390fd5b60003490506000841415611c0f57600080fd5b60075484601560008973ffffffffffffffffffffffffffffffffffffffff1673ffffffffffffffffffffffffffffffffffffffff16815260200190815260200160002054611c5d9190612709565b1115611c6857600080fd5b6000601460008873ffffffffffffffffffffffffffffffffffffffff1673ffffffffffffffffffffffffffffffffffffffff168152602001908152602001600020541415611d475760086000815480929190611cc3906128dd565b919050555085601360008873ffffffffffffffffffffffffffffffffffffffff1673ffffffffffffffffffffffffffffffffffffffff16815260200190815260200160002060006101000a81548173ffffffffffffffffffffffffffffffffffffffff021916908373ffffffffffffffffffffffffffffffffffffffff1602179055505b611d9981601460008973ffffffffffffffffffffffffffffffffffffffff1673ffffffffffffffffffffffffffffffffffffffff1681526020019081526020016000205461201290919063ffffffff16565b601460008873ffffffffffffffffffffffffffffffffffffffff1673ffffffffffffffffffffffffffffffffffffffff16815260200190815260200160002081905550611e2e84601560008973ffffffffffffffffffffffffffffffffffffffff1673ffffffffffffffffffffffffffffffffffffffff1681526020019081526020016000205461201290919063ffffffff16565b601560008873ffffffffffffffffffffffffffffffffffffffff1673ffffffffffffffffffffffffffffffffffffffff16815260200190815260200160002081905550611e8681600f5461201290919063ffffffff16565b600f81905550611ea184600e5461201290919063ffffffff16565b600e81905550600554600e541115611eee576040517f08c379a0000000000000000000000000000000000000000000000000000000008152600401611ee590612586565b60405180910390fd5b7f0396f60aaad038749091d273dc13aaabc63db6e2271c7bad442d5cf25cc4335086828688604051611f239493929190612462565b60405180910390a183925050509392505050565b600033905090565b600080600090505b82811015611fc5576016829080600181540180825580915050600190039060005260206000200160009091909190916101000a81548173ffffffffffffffffffffffffffffffffffffffff021916908373ffffffffffffffffffffffffffffffffffffffff1602179055508080611fbd906128dd565b915050611f47565b6305f5e100601560008473ffffffffffffffffffffffffffffffffffffffff1673ffffffffffffffffffffffffffffffffffffffff16815260200190815260200160002081905550505050565b600081836120209190612709565b905092915050565b60008135905061203781612bfe565b92915050565b60008151905061204c81612bfe565b92915050565b60008135905061206181612c15565b92915050565b60008135905061207681612c2c565b92915050565b60008135905061208b81612c43565b92915050565b6000813590506120a081612c53565b92915050565b6000815190506120b581612c53565b92915050565b6000815190506120ca81612c6a565b92915050565b6000602082840312156120e6576120e56129b3565b5b60006120f484828501612028565b91505092915050565b600060208284031215612113576121126129b3565b5b60006121218482850161203d565b91505092915050565b6000602082840312156121405761213f6129b3565b5b600061214e84828501612052565b91505092915050565b60006020828403121561216d5761216c6129b3565b5b600061217b84828501612067565b91505092915050565b60006020828403121561219a576121996129b3565b5b60006121a88482850161207c565b91505092915050565b6000602082840312156121c7576121c66129b3565b5b60006121d584828501612091565b91505092915050565b6000602082840312156121f4576121f36129b3565b5b6000612202848285016120a6565b91505092915050565b600060208284031215612221576122206129b3565b5b600061222f848285016120bb565b91505092915050565b6122418161283b565b82525050565b612250816127a5565b82525050565b61225f81612793565b82525050565b61226e816127b7565b82525050565b61227d8161284d565b82525050565b61228c81612871565b82525050565b61229b81612895565b82525050565b60006122ae6029836126f8565b91506122b9826129b8565b604082019050919050565b60006122d16031836126f8565b91506122dc82612a07565b604082019050919050565b60006122f46026836126f8565b91506122ff82612a56565b604082019050919050565b60006123176010836126f8565b915061232282612aa5565b602082019050919050565b600061233a601e836126f8565b915061234582612ace565b602082019050919050565b600061235d6022836126f8565b915061236882612af7565b604082019050919050565b60006123806020836126f8565b915061238b82612b46565b602082019050919050565b60006123a36011836126f8565b91506123ae82612b6f565b602082019050919050565b60006123c6600f836126f8565b91506123d182612b98565b602082019050919050565b60006123e96013836126f8565b91506123f482612bc1565b602082019050919050565b612408816127e8565b82525050565b61241781612824565b82525050565b612426816128cb565b82525050565b60006020820190506124416000830184612256565b92915050565b600060208201905061245c6000830184612247565b92915050565b60006080820190506124776000830187612238565b612484602083018661240e565b612491604083018561240e565b61249e60608301846123ff565b95945050505050565b600060a0820190506124bc6000830188612256565b6124c96020830187612256565b6124d6604083018661240e565b6124e3606083018561240e565b6124f0608083018461240e565b9695505050505050565b600060208201905061250f6000830184612265565b92915050565b600060208201905061252a6000830184612274565b92915050565b60006020820190506125456000830184612283565b92915050565b60006020820190506125606000830184612292565b92915050565b6000602082019050818103600083015261257f816122a1565b9050919050565b6000602082019050818103600083015261259f816122c4565b9050919050565b600060208201905081810360008301526125bf816122e7565b9050919050565b600060208201905081810360008301526125df8161230a565b9050919050565b600060208201905081810360008301526125ff8161232d565b9050919050565b6000602082019050818103600083015261261f81612350565b9050919050565b6000602082019050818103600083015261263f81612373565b9050919050565b6000602082019050818103600083015261265f81612396565b9050919050565b6000602082019050818103600083015261267f816123b9565b9050919050565b6000602082019050818103600083015261269f816123dc565b9050919050565b60006020820190506126bb600083018461240e565b92915050565b60006060820190506126d6600083018661240e565b6126e3602083018561240e565b6126f0604083018461241d565b949350505050565b600082825260208201905092915050565b600061271482612824565b915061271f83612824565b9250827fffffffffffffffffffffffffffffffffffffffffffffffffffffffffffffffff0382111561275457612753612926565b5b828201905092915050565b600061276a82612824565b915061277583612824565b92508282101561278857612787612926565b5b828203905092915050565b600061279e82612804565b9050919050565b60006127b082612804565b9050919050565b60008115159050919050565b60006127ce826127a5565b9050919050565b60008190506127e382612bea565b919050565b60006fffffffffffffffffffffffffffffffff82169050919050565b600073ffffffffffffffffffffffffffffffffffffffff82169050919050565b6000819050919050565b600060ff82169050919050565b6000612846826128a7565b9050919050565b60006128588261285f565b9050919050565b600061286a82612804565b9050919050565b600061287c82612883565b9050919050565b600061288e82612804565b9050919050565b60006128a0826127d5565b9050919050565b60006128b2826128b9565b9050919050565b60006128c482612804565b9050919050565b60006128d68261282e565b9050919050565b60006128e882612824565b91507fffffffffffffffffffffffffffffffffffffffffffffffffffffffffffffffff82141561291b5761291a612926565b5b600182019050919050565b7f4e487b7100000000000000000000000000000000000000000000000000000000600052601160045260246000fd5b7f4e487b7100000000000000000000000000000000000000000000000000000000600052602160045260246000fd5b7f4e487b7100000000000000000000000000000000000000000000000000000000600052603260045260246000fd5b600080fd5b7f436f6e7472616374206e6f7420696e2046756e64696e67206f7220537563636560008201527f73732073746174652e0000000000000000000000000000000000000000000000602082015250565b7f52657175657374656420746f6b656e20616d6f756e742065786365656473207260008201527f656d61696e696e67206361706163697479000000000000000000000000000000602082015250565b7f4f776e61626c653a206e6577206f776e657220697320746865207a65726f206160008201527f6464726573730000000000000000000000000000000000000000000000000000602082015250565b7f676f616c206e6f74207265616368656400000000000000000000000000000000600082015250565b7f4c6f636b446174652063616e6e6f7420626520696e2074686520706173740000600082015250565b7f546f6b656e206f776e657220686173206e6f7420656e6f75676820746f6b656e60008201527f7321000000000000000000000000000000000000000000000000000000000000602082015250565b7f4f776e61626c653a2063616c6c6572206973206e6f7420746865206f776e6572600082015250565b7f616c72656164792066696e616c697a6564000000000000000000000000000000600082015250565b7f4e6f7420616e20496e766573746f720000000000000000000000000000000000600082015250565b7f4e6f20726566756e6420617661696c61626c6500000000000000000000000000600082015250565b60078110612bfb57612bfa612955565b5b50565b612c0781612793565b8114612c1257600080fd5b50565b612c1e816127a5565b8114612c2957600080fd5b50565b612c35816127c3565b8114612c4057600080fd5b50565b60078110612c5057600080fd5b50565b612c5c81612824565b8114612c6757600080fd5b50565b612c738161282e565b8114612c7e57600080fd5b5056fea2646970667358221220cf84314f4ae3e0c2280844b9d86772eb076e1f3ac0c70938bf8ab5b8bea6557864736f6c63430008060033",
  "immutableReferences": {},
  "source": "// SPDX-License-Identifier: UNLICENSED\npragma solidity ^0.8.6;\n\nimport \"@openzeppelin/contracts/utils/math/SafeMath.sol\";\n\nimport \"./CollectCoinIco.sol\";\nimport \"./Haltable.sol\";\nimport \"./IPricingStrategy.sol\";\n\ncontract CollectCoinIcoMock is ICollectCoinIco, CollectCoinIco {\n\n    using SafeMath for uint256;\n\n    address[] investorAddresses;\n    State private state;\n\n    constructor(uint _investorCount, \n        address _token, \n        IPricingStrategy _pricingStrategy,\n        address payable _multisigWallet, \n        uint _start, uint _end,\n        uint _minimumFundingGoal, uint _maxSellableTokens, uint256 _tokenInvestorCap,\n        uint256 _walletUnlockPeriod, uint256 _walletUnlockPercentage)\n        CollectCoinIco(_token, _pricingStrategy, _multisigWallet, _start, _end, _minimumFundingGoal, _maxSellableTokens, _tokenInvestorCap,\n                         _walletUnlockPeriod, _walletUnlockPercentage)\n    {\n        _addInvestors(_investorCount);\n        state = State.Funding;\n    }\n\n    function setState(State _state) public {\n        state = _state;\n    }\n\n    function _addInvestors(uint count) private {\n        address mockAddress = address(0);\n\n        uint i=0;\n        for(i=0; i<count; i++)\n        {\n            investorAddresses.push(mockAddress);\n        }\n\n        tokenAmountOf[mockAddress] = 100000000;\n    }\n\n    function addInvestors(uint count) public {\n        _addInvestors(count);\n    }\n\n    function removeInvestors(uint count) public {\n        uint i=0;\n        for(i=0; i<count; i++)\n        {\n            delete investorAddresses[investorAddresses.length-1];\n        }\n    }\n\n    function getState() public override(ICollectCoinIco, CollectCoinIco) view returns (State) {\n        return state;\n    }\n}",
  "sourcePath": "/home/eule/Projects/ico-contracts/ethereum/ico/contracts/CollectCoinIcoMock.sol",
  "compiler": {
    "name": "solc",
    "version": "0.8.6+commit.11564f7e.Emscripten.clang"
  },
  "schemaVersion": "3.4.1",
  "updatedAt": "2021-10-15T09:48:04.808Z",
  "devdoc": {
    "kind": "dev",
    "methods": {
      "buyTokens(address)": {
        "details": "low level token purchase ***DO NOT OVERRIDE***",
        "params": {
          "_beneficiary": "Address performing the token purchase"
        }
      },
      "claimRefund(address)": {
        "details": "Investors can claim refunds here if crowdsale is unsuccessful.",
        "params": {
          "refundee": "Whose refund will be claimed."
        }
      },
      "finalize(uint256)": {
        "params": {
          "_walletLockDate": "The time from when the locking calculations for the investor's time locked tokens begin to count"
        }
      },
      "isMinimumGoalReached()": {
        "returns": {
          "reached": "== true if the crowdsale has raised enough money to be a successful."
        }
      },
      "owner()": {
        "details": "Returns the address of the current owner."
      },
      "renounceOwnership()": {
        "details": "Leaves the contract without owner. It will not be possible to call `onlyOwner` functions anymore. Can only be called by the current owner. NOTE: Renouncing ownership will leave the contract without an owner, thereby removing any functionality that is only available to the owner."
      },
      "transferOwnership(address)": {
        "details": "Transfers ownership of the contract to a new account (`newOwner`). Can only be called by the current owner."
      }
    },
    "version": 1
  },
  "userdoc": {
    "kind": "user",
    "methods": {
      "finalize(uint256)": {
        "notice": "Finalize a succcesful crowdsale. The owner can triggre a call the contract that provides post-crowdsale actions, like releasing the tokens."
      },
      "investedAmountOf(address)": {
        "notice": "How much ETH each address has invested to this crowdsale "
      },
      "isFull()": {
        "notice": "Check if the current crowdsale is full and we can no longer sell any tokens."
      },
      "setWalletFactory(address)": {
        "notice": "Allow to (re)set finalize agent. Design choice: no state restrictions on setting this, so that we can fix fat finger mistakes."
      },
      "tokenAmountOf(address)": {
        "notice": "How much tokens this crowdsale has credited for each investor address "
      }
    },
    "version": 1
  }
}