{
  "contractName": "CollectCoinIco",
  "abi": [
    {
      "inputs": [
        {
          "internalType": "address",
          "name": "_token",
          "type": "address"
        },
        {
          "internalType": "contract IPricingStrategy",
          "name": "_pricingStrategy",
          "type": "address"
        },
        {
          "internalType": "address payable",
          "name": "_multisigWallet",
          "type": "address"
        },
        {
          "internalType": "uint256",
          "name": "_start",
          "type": "uint256"
        },
        {
          "internalType": "uint256",
          "name": "_end",
          "type": "uint256"
        },
        {
          "internalType": "uint256",
          "name": "_minimumFundingGoal",
          "type": "uint256"
        },
        {
          "internalType": "uint256",
          "name": "_maxSellableTokens",
          "type": "uint256"
        },
        {
          "internalType": "uint256",
          "name": "_tokenInvestorCap",
          "type": "uint256"
        },
        {
          "internalType": "uint256",
          "name": "_walletUnlockPeriod",
          "type": "uint256"
        },
        {
          "internalType": "uint256",
          "name": "_walletUnlockPercentage",
          "type": "uint256"
        }
      ],
      "stateMutability": "nonpayable",
      "type": "constructor"
    },
    {
      "anonymous": false,
      "inputs": [
        {
          "indexed": false,
          "internalType": "address",
          "name": "investor",
          "type": "address"
        },
        {
          "indexed": false,
          "internalType": "uint256",
          "name": "weiAmount",
          "type": "uint256"
        },
        {
          "indexed": false,
          "internalType": "uint256",
          "name": "tokenAmount",
          "type": "uint256"
        },
        {
          "indexed": false,
          "internalType": "uint128",
          "name": "customerId",
          "type": "uint128"
        }
      ],
      "name": "Invested",
      "type": "event"
    },
    {
      "anonymous": false,
      "inputs": [
        {
          "indexed": true,
          "internalType": "address",
          "name": "previousOwner",
          "type": "address"
        },
        {
          "indexed": true,
          "internalType": "address",
          "name": "newOwner",
          "type": "address"
        }
      ],
      "name": "OwnershipTransferred",
      "type": "event"
    },
    {
      "anonymous": false,
      "inputs": [
        {
          "indexed": true,
          "internalType": "address",
          "name": "refundee",
          "type": "address"
        },
        {
          "indexed": false,
          "internalType": "uint256",
          "name": "weiAmount",
          "type": "uint256"
        }
      ],
      "name": "Withdrawn",
      "type": "event"
    },
    {
      "stateMutability": "payable",
      "type": "fallback"
    },
    {
      "inputs": [],
      "name": "endsAt",
      "outputs": [
        {
          "internalType": "uint256",
          "name": "",
          "type": "uint256"
        }
      ],
      "stateMutability": "view",
      "type": "function"
    },
    {
      "inputs": [],
      "name": "finalized",
      "outputs": [
        {
          "internalType": "bool",
          "name": "",
          "type": "bool"
        }
      ],
      "stateMutability": "view",
      "type": "function"
    },
    {
      "inputs": [],
      "name": "halt",
      "outputs": [],
      "stateMutability": "nonpayable",
      "type": "function"
    },
    {
      "inputs": [],
      "name": "halted",
      "outputs": [
        {
          "internalType": "bool",
          "name": "",
          "type": "bool"
        }
      ],
      "stateMutability": "view",
      "type": "function"
    },
    {
      "inputs": [
        {
          "internalType": "address",
          "name": "",
          "type": "address"
        }
      ],
      "name": "investedAmountOf",
      "outputs": [
        {
          "internalType": "uint256",
          "name": "",
          "type": "uint256"
        }
      ],
      "stateMutability": "view",
      "type": "function"
    },
    {
      "inputs": [],
      "name": "investorCount",
      "outputs": [
        {
          "internalType": "uint256",
          "name": "",
          "type": "uint256"
        }
      ],
      "stateMutability": "view",
      "type": "function"
    },
    {
      "inputs": [
        {
          "internalType": "uint256",
          "name": "",
          "type": "uint256"
        }
      ],
      "name": "investors",
      "outputs": [
        {
          "internalType": "address",
          "name": "",
          "type": "address"
        }
      ],
      "stateMutability": "view",
      "type": "function"
    },
    {
      "inputs": [],
      "name": "loadedRefund",
      "outputs": [
        {
          "internalType": "uint256",
          "name": "",
          "type": "uint256"
        }
      ],
      "stateMutability": "view",
      "type": "function"
    },
    {
      "inputs": [],
      "name": "maximumSellableTokens",
      "outputs": [
        {
          "internalType": "uint256",
          "name": "",
          "type": "uint256"
        }
      ],
      "stateMutability": "view",
      "type": "function"
    },
    {
      "inputs": [],
      "name": "minimumFundingGoal",
      "outputs": [
        {
          "internalType": "uint256",
          "name": "",
          "type": "uint256"
        }
      ],
      "stateMutability": "view",
      "type": "function"
    },
    {
      "inputs": [],
      "name": "multisigWallet",
      "outputs": [
        {
          "internalType": "address payable",
          "name": "",
          "type": "address"
        }
      ],
      "stateMutability": "view",
      "type": "function"
    },
    {
      "inputs": [],
      "name": "owner",
      "outputs": [
        {
          "internalType": "address",
          "name": "",
          "type": "address"
        }
      ],
      "stateMutability": "view",
      "type": "function"
    },
    {
      "inputs": [],
      "name": "pricingStrategy",
      "outputs": [
        {
          "internalType": "contract IPricingStrategy",
          "name": "",
          "type": "address"
        }
      ],
      "stateMutability": "view",
      "type": "function"
    },
    {
      "inputs": [],
      "name": "renounceOwnership",
      "outputs": [],
      "stateMutability": "nonpayable",
      "type": "function"
    },
    {
      "inputs": [],
      "name": "startsAt",
      "outputs": [
        {
          "internalType": "uint256",
          "name": "",
          "type": "uint256"
        }
      ],
      "stateMutability": "view",
      "type": "function"
    },
    {
      "inputs": [],
      "name": "timeLockedWallet",
      "outputs": [
        {
          "internalType": "address",
          "name": "",
          "type": "address"
        }
      ],
      "stateMutability": "view",
      "type": "function"
    },
    {
      "inputs": [],
      "name": "token",
      "outputs": [
        {
          "internalType": "contract CollectCoin",
          "name": "",
          "type": "address"
        }
      ],
      "stateMutability": "view",
      "type": "function"
    },
    {
      "inputs": [
        {
          "internalType": "address",
          "name": "",
          "type": "address"
        }
      ],
      "name": "tokenAmountOf",
      "outputs": [
        {
          "internalType": "uint256",
          "name": "",
          "type": "uint256"
        }
      ],
      "stateMutability": "view",
      "type": "function"
    },
    {
      "inputs": [],
      "name": "tokenInvestorCap",
      "outputs": [
        {
          "internalType": "uint256",
          "name": "",
          "type": "uint256"
        }
      ],
      "stateMutability": "view",
      "type": "function"
    },
    {
      "inputs": [],
      "name": "tokenOwner",
      "outputs": [
        {
          "internalType": "address",
          "name": "",
          "type": "address"
        }
      ],
      "stateMutability": "view",
      "type": "function"
    },
    {
      "inputs": [],
      "name": "tokensSold",
      "outputs": [
        {
          "internalType": "uint256",
          "name": "",
          "type": "uint256"
        }
      ],
      "stateMutability": "view",
      "type": "function"
    },
    {
      "inputs": [
        {
          "internalType": "address",
          "name": "newOwner",
          "type": "address"
        }
      ],
      "name": "transferOwnership",
      "outputs": [],
      "stateMutability": "nonpayable",
      "type": "function"
    },
    {
      "inputs": [],
      "name": "unhalt",
      "outputs": [],
      "stateMutability": "nonpayable",
      "type": "function"
    },
    {
      "inputs": [],
      "name": "weiRaised",
      "outputs": [
        {
          "internalType": "uint256",
          "name": "",
          "type": "uint256"
        }
      ],
      "stateMutability": "view",
      "type": "function"
    },
    {
      "stateMutability": "payable",
      "type": "receive"
    },
    {
      "inputs": [
        {
          "internalType": "uint256",
          "name": "_startsAt",
          "type": "uint256"
        }
      ],
      "name": "setStartsAt",
      "outputs": [],
      "stateMutability": "nonpayable",
      "type": "function"
    },
    {
      "inputs": [
        {
          "internalType": "uint256",
          "name": "_endsAt",
          "type": "uint256"
        }
      ],
      "name": "setEndsAt",
      "outputs": [],
      "stateMutability": "nonpayable",
      "type": "function"
    },
    {
      "inputs": [],
      "name": "availableInvestment",
      "outputs": [
        {
          "internalType": "uint256",
          "name": "",
          "type": "uint256"
        }
      ],
      "stateMutability": "view",
      "type": "function"
    },
    {
      "inputs": [
        {
          "internalType": "uint256",
          "name": "_walletLockDate",
          "type": "uint256"
        }
      ],
      "name": "finalize",
      "outputs": [],
      "stateMutability": "nonpayable",
      "type": "function"
    },
    {
      "inputs": [
        {
          "internalType": "contract TimeLockedWalletFactory",
          "name": "addr",
          "type": "address"
        }
      ],
      "name": "setWalletFactory",
      "outputs": [],
      "stateMutability": "nonpayable",
      "type": "function"
    },
    {
      "inputs": [
        {
          "internalType": "address",
          "name": "_tokenOwner",
          "type": "address"
        }
      ],
      "name": "setTokenOwner",
      "outputs": [],
      "stateMutability": "nonpayable",
      "type": "function"
    },
    {
      "inputs": [],
      "name": "getState",
      "outputs": [
        {
          "internalType": "enum ICollectCoinIco.State",
          "name": "",
          "type": "uint8"
        }
      ],
      "stateMutability": "view",
      "type": "function"
    },
    {
      "inputs": [],
      "name": "isFull",
      "outputs": [
        {
          "internalType": "bool",
          "name": "",
          "type": "bool"
        }
      ],
      "stateMutability": "view",
      "type": "function"
    },
    {
      "inputs": [],
      "name": "isMinimumGoalReached",
      "outputs": [
        {
          "internalType": "bool",
          "name": "reached",
          "type": "bool"
        }
      ],
      "stateMutability": "view",
      "type": "function"
    },
    {
      "inputs": [],
      "name": "getAllInvestors",
      "outputs": [
        {
          "internalType": "address[]",
          "name": "",
          "type": "address[]"
        }
      ],
      "stateMutability": "view",
      "type": "function"
    },
    {
      "inputs": [
        {
          "internalType": "address",
          "name": "_beneficiary",
          "type": "address"
        }
      ],
      "name": "buyTokens",
      "outputs": [],
      "stateMutability": "payable",
      "type": "function"
    },
    {
      "inputs": [
        {
          "internalType": "address payable",
          "name": "refundee",
          "type": "address"
        }
      ],
      "name": "claimRefund",
      "outputs": [],
      "stateMutability": "nonpayable",
      "type": "function"
    }
  ],
  "bytecode": "0x608060405260006008556000600f55600060105560006011553480156200002557600080fd5b50604051620031ff380380620031ff83398181016040528101906200004b919062000335565b60006200005d620002d160201b60201c565b9050806000806101000a81548173ffffffffffffffffffffffffffffffffffffffff021916908373ffffffffffffffffffffffffffffffffffffffff1602179055508073ffffffffffffffffffffffffffffffffffffffff16600073ffffffffffffffffffffffffffffffffffffffff167f8be0079c531659141344cd1fd0a4f28419497f9722a3daafe3b4186f6b6457e060405160405180910390a35089600160006101000a81548173ffffffffffffffffffffffffffffffffffffffff021916908373ffffffffffffffffffffffffffffffffffffffff16021790555088600260006101000a81548173ffffffffffffffffffffffffffffffffffffffff021916908373ffffffffffffffffffffffffffffffffffffffff1602179055508260078190555087600460006101000a81548173ffffffffffffffffffffffffffffffffffffffff021916908373ffffffffffffffffffffffffffffffffffffffff160217905550600073ffffffffffffffffffffffffffffffffffffffff16600460009054906101000a900473ffffffffffffffffffffffffffffffffffffffff1673ffffffffffffffffffffffffffffffffffffffff1614156200022257600080fd5b60008714156200023157600080fd5b86600a8190555060008614156200024757600080fd5b85600b81905550600b54600a54106200025f57600080fd5b81600c8190555080600d8190555084841015620002b3576040517f08c379a0000000000000000000000000000000000000000000000000000000008152600401620002aa9062000452565b60405180910390fd5b846006819055508360058190555050505050505050505050620005a7565b600033905090565b600081519050620002ea816200053f565b92915050565b600081519050620003018162000559565b92915050565b600081519050620003188162000573565b92915050565b6000815190506200032f816200058d565b92915050565b6000806000806000806000806000806101408b8d0312156200035c576200035b620004eb565b5b60006200036c8d828e01620002d9565b9a505060206200037f8d828e0162000307565b9950506040620003928d828e01620002f0565b9850506060620003a58d828e016200031e565b9750506080620003b88d828e016200031e565b96505060a0620003cb8d828e016200031e565b95505060c0620003de8d828e016200031e565b94505060e0620003f18d828e016200031e565b935050610100620004058d828e016200031e565b925050610120620004198d828e016200031e565b9150509295989b9194979a5092959850565b60006200043a603b8362000474565b91506200044782620004f0565b604082019050919050565b600060208201905081810360008301526200046d816200042b565b9050919050565b600082825260208201905092915050565b60006200049282620004c1565b9050919050565b6000620004a682620004c1565b9050919050565b6000620004ba8262000485565b9050919050565b600073ffffffffffffffffffffffffffffffffffffffff82169050919050565b6000819050919050565b600080fd5b7f4d6178696d756d2073656c6c61626c6520746f6b656e73206973206c6f77657260008201527f207468616e206d696e696d756d2066756e64696e6720676f616c2e0000000000602082015250565b6200054a8162000485565b81146200055657600080fd5b50565b620005648162000499565b81146200057057600080fd5b50565b6200057e81620004ad565b81146200058a57600080fd5b50565b6200059881620004e1565b8114620005a457600080fd5b50565b612c4880620005b76000396000f3fe6080604052600436106102135760003560e01c80639075becf11610118578063bffa55d5116100a0578063d0f6e53e1161006f578063d0f6e53e1461074b578063d7e64c0014610776578063ec8ac4d8146107a1578063f2fde38b146107bd578063fc0c546a146107e657610223565b8063bffa55d5146106b5578063c361f7d0146106de578063cb3e64fd14610709578063d0a2f2c41461072057610223565b8063af468682116100e7578063af468682146105e0578063b3f05b971461060b578063b9b8af0b14610636578063babd3d9a14610661578063bf5fc2ee1461068c57610223565b80639075becf1461052257806397b150ca1461054d578063a3aadd621461058a578063a3e67610146105b557610223565b8063518ab2a81161019b57806378b99c241161016a57806378b99c241461044d578063797d9437146104785780637c2e08a3146104a35780637ebf879c146104ce5780638da5cb5b146104f757610223565b8063518ab2a8146103cb5780635ed7ca5b146103f65780636e50eb3f1461040d578063715018a61461043657610223565b806318e02bd9116101e257806318e02bd9146102d25780631aae3460146102fb5780633ad075ea146103385780633feb5f2b146103635780634042b66f146103a057610223565b806305261aea146102285780630a09284a1461025157806313f4e9771461027c5780631865c57d146102a757610223565b366102235761022133610811565b005b600080fd5b34801561023457600080fd5b5061024f600480360381019061024a919061213b565b61083f565b005b34801561025d57600080fd5b50610266610b98565b6040516102739190612685565b60405180910390f35b34801561028857600080fd5b50610291610b9e565b60405161029e9190612685565b60405180910390f35b3480156102b357600080fd5b506102bc610ba4565b6040516102c9919061254a565b60405180910390f35b3480156102de57600080fd5b506102f960048036038101906102f4919061205a565b610dbb565b005b34801561030757600080fd5b50610322600480360381019061031d919061205a565b610f70565b60405161032f9190612685565b60405180910390f35b34801561034457600080fd5b5061034d610f88565b60405161035a9190612685565b60405180910390f35b34801561036f57600080fd5b5061038a6004803603810190610385919061213b565b610f8e565b6040516103979190612409565b60405180910390f35b3480156103ac57600080fd5b506103b5610fcd565b6040516103c29190612685565b60405180910390f35b3480156103d757600080fd5b506103e0610fd3565b6040516103ed9190612685565b60405180910390f35b34801561040257600080fd5b5061040b610fd9565b005b34801561041957600080fd5b50610434600480360381019061042f919061213b565b611072565b005b34801561044257600080fd5b5061044b6110f8565b005b34801561045957600080fd5b50610462611232565b60405161046f919061252f565b60405180910390f35b34801561048457600080fd5b5061048d611258565b60405161049a9190612685565b60405180910390f35b3480156104af57600080fd5b506104b861125e565b6040516104c591906124f9565b60405180910390f35b3480156104da57600080fd5b506104f560048036038101906104f0919061210e565b61126d565b005b34801561050357600080fd5b5061050c61132d565b6040516105199190612409565b60405180910390f35b34801561052e57600080fd5b50610537611356565b6040516105449190612424565b60405180910390f35b34801561055957600080fd5b50610574600480360381019061056f919061205a565b61137c565b6040516105819190612685565b60405180910390f35b34801561059657600080fd5b5061059f611394565b6040516105ac9190612409565b60405180910390f35b3480156105c157600080fd5b506105ca6113ba565b6040516105d79190612409565b60405180910390f35b3480156105ec57600080fd5b506105f56113e0565b6040516106029190612685565b60405180910390f35b34801561061757600080fd5b506106206113e6565b60405161062d91906124f9565b60405180910390f35b34801561064257600080fd5b5061064b6113f9565b60405161065891906124f9565b60405180910390f35b34801561066d57600080fd5b5061067661140c565b60405161068391906124f9565b60405180910390f35b34801561069857600080fd5b506106b360048036038101906106ae919061213b565b61141b565b005b3480156106c157600080fd5b506106dc60048036038101906106d791906120b4565b6114a1565b005b3480156106ea57600080fd5b506106f361169e565b6040516107009190612685565b60405180910390f35b34801561071557600080fd5b5061071e6116f2565b005b34801561072c57600080fd5b506107356117a3565b60405161074291906124d7565b60405180910390f35b34801561075757600080fd5b50610760611831565b60405161076d9190612685565b60405180910390f35b34801561078257600080fd5b5061078b611837565b6040516107989190612685565b60405180910390f35b6107bb60048036038101906107b6919061205a565b610811565b005b3480156107c957600080fd5b506107e460048036038101906107df919061205a565b61183d565b005b3480156107f257600080fd5b506107fb6119e6565b6040516108089190612514565b60405180910390f35b60003490506108208282611a0c565b600061082b82611a58565b905061083983600083611bb6565b50505050565b600380600681111561085457610853612937565b5b61085c610ba4565b600681111561086e5761086d612937565b5b1461087857600080fd5b610880611f94565b73ffffffffffffffffffffffffffffffffffffffff1661089e61132d565b73ffffffffffffffffffffffffffffffffffffffff16146108f4576040517f08c379a00000000000000000000000000000000000000000000000000000000081526004016108eb90612625565b60405180910390fd5b600060149054906101000a900460ff161561090e57600080fd5b600e60009054906101000a900460ff161561095e576040517f08c379a000000000000000000000000000000000000000000000000000000000815260040161095590612645565b60405180910390fd5b61096661125e565b6109a5576040517f08c379a000000000000000000000000000000000000000000000000000000000815260040161099c906125c5565b60405180910390fd5b60008083116109b457426109b6565b825b9050428110156109fb576040517f08c379a00000000000000000000000000000000000000000000000000000000081526004016109f2906125e5565b60405180910390fd5b600360009054906101000a900473ffffffffffffffffffffffffffffffffffffffff1673ffffffffffffffffffffffffffffffffffffffff1663c63340db601360009054906101000a900473ffffffffffffffffffffffffffffffffffffffff163084600c54600d546040518663ffffffff1660e01b8152600401610a8495949392919061243f565b602060405180830381600087803b158015610a9e57600080fd5b505af1158015610ab2573d6000803e3d6000fd5b505050506040513d601f19601f82011682018060405250810190610ad69190612087565b601260006101000a81548173ffffffffffffffffffffffffffffffffffffffff021916908373ffffffffffffffffffffffffffffffffffffffff160217905550600460009054906101000a900473ffffffffffffffffffffffffffffffffffffffff1673ffffffffffffffffffffffffffffffffffffffff166108fc6010549081150290604051600060405180830381858888f19350505050610b7857600080fd5b6001600e60006101000a81548160ff021916908315150217905550505050565b600b5481565b60065481565b6000600e60009054906101000a900460ff1615610bc45760059050610db8565b600073ffffffffffffffffffffffffffffffffffffffff16600360009054906101000a900473ffffffffffffffffffffffffffffffffffffffff1673ffffffffffffffffffffffffffffffffffffffff161415610c245760019050610db8565b600073ffffffffffffffffffffffffffffffffffffffff16601360009054906101000a900473ffffffffffffffffffffffffffffffffffffffff1673ffffffffffffffffffffffffffffffffffffffff161415610c845760019050610db8565b600260009054906101000a900473ffffffffffffffffffffffffffffffffffffffff1673ffffffffffffffffffffffffffffffffffffffff166382771c8e6040518163ffffffff1660e01b815260040160206040518083038186803b158015610cec57600080fd5b505afa158015610d00573d6000803e3d6000fd5b505050506040513d601f19601f82011682018060405250810190610d2491906120e1565b610d315760019050610db8565b600a54421015610d445760019050610db8565b600b544211158015610d5b5750610d5961140c565b155b15610d695760029050610db8565b610d7161125e565b15610d7f5760039050610db8565b610d8761125e565b158015610d9657506000601054115b8015610da55750601054601154105b15610db35760069050610db8565b600490505b90565b610dc3611f94565b73ffffffffffffffffffffffffffffffffffffffff16610de161132d565b73ffffffffffffffffffffffffffffffffffffffff1614610e37576040517f08c379a0000000000000000000000000000000000000000000000000000000008152600401610e2e90612625565b60405180910390fd5b6000600160009054906101000a900473ffffffffffffffffffffffffffffffffffffffff1673ffffffffffffffffffffffffffffffffffffffff166370a08231836040518263ffffffff1660e01b8152600401610e949190612409565b60206040518083038186803b158015610eac57600080fd5b505afa158015610ec0573d6000803e3d6000fd5b505050506040513d601f19601f82011682018060405250810190610ee49190612168565b9050600554811015610f2b576040517f08c379a0000000000000000000000000000000000000000000000000000000008152600401610f2290612605565b60405180910390fd5b81601360006101000a81548173ffffffffffffffffffffffffffffffffffffffff021916908373ffffffffffffffffffffffffffffffffffffffff1602179055505050565b60146020528060005260406000206000915090505481565b60055481565b60098181548110610f9e57600080fd5b906000526020600020016000915054906101000a900473ffffffffffffffffffffffffffffffffffffffff1681565b60105481565b600f5481565b610fe1611f94565b73ffffffffffffffffffffffffffffffffffffffff16610fff61132d565b73ffffffffffffffffffffffffffffffffffffffff1614611055576040517f08c379a000000000000000000000000000000000000000000000000000000000815260040161104c90612625565b60405180910390fd5b6001600060146101000a81548160ff021916908315150217905550565b61107a611f94565b73ffffffffffffffffffffffffffffffffffffffff1661109861132d565b73ffffffffffffffffffffffffffffffffffffffff16146110ee576040517f08c379a00000000000000000000000000000000000000000000000000000000081526004016110e590612625565b60405180910390fd5b80600b8190555050565b611100611f94565b73ffffffffffffffffffffffffffffffffffffffff1661111e61132d565b73ffffffffffffffffffffffffffffffffffffffff1614611174576040517f08c379a000000000000000000000000000000000000000000000000000000000815260040161116b90612625565b60405180910390fd5b600073ffffffffffffffffffffffffffffffffffffffff1660008054906101000a900473ffffffffffffffffffffffffffffffffffffffff1673ffffffffffffffffffffffffffffffffffffffff167f8be0079c531659141344cd1fd0a4f28419497f9722a3daafe3b4186f6b6457e060405160405180910390a360008060006101000a81548173ffffffffffffffffffffffffffffffffffffffff021916908373ffffffffffffffffffffffffffffffffffffffff160217905550565b600260009054906101000a900473ffffffffffffffffffffffffffffffffffffffff1681565b60115481565b6000600654600f541015905090565b611275611f94565b73ffffffffffffffffffffffffffffffffffffffff1661129361132d565b73ffffffffffffffffffffffffffffffffffffffff16146112e9576040517f08c379a00000000000000000000000000000000000000000000000000000000081526004016112e090612625565b60405180910390fd5b80600360006101000a81548173ffffffffffffffffffffffffffffffffffffffff021916908373ffffffffffffffffffffffffffffffffffffffff16021790555050565b60008060009054906101000a900473ffffffffffffffffffffffffffffffffffffffff16905090565b600460009054906101000a900473ffffffffffffffffffffffffffffffffffffffff1681565b60156020528060005260406000206000915090505481565b601260009054906101000a900473ffffffffffffffffffffffffffffffffffffffff1681565b601360009054906101000a900473ffffffffffffffffffffffffffffffffffffffff1681565b600a5481565b600e60009054906101000a900460ff1681565b600060149054906101000a900460ff1681565b6000600554600f541015905090565b611423611f94565b73ffffffffffffffffffffffffffffffffffffffff1661144161132d565b73ffffffffffffffffffffffffffffffffffffffff1614611497576040517f08c379a000000000000000000000000000000000000000000000000000000000815260040161148e90612625565b60405180910390fd5b80600a8190555050565b60068060068111156114b6576114b5612937565b5b6114be610ba4565b60068111156114d0576114cf612937565b5b146114da57600080fd5b6000601460008473ffffffffffffffffffffffffffffffffffffffff1673ffffffffffffffffffffffffffffffffffffffff16815260200190815260200160002054905060008111611561576040517f08c379a000000000000000000000000000000000000000000000000000000000815260040161155890612665565b60405180910390fd5b6000601460008573ffffffffffffffffffffffffffffffffffffffff1673ffffffffffffffffffffffffffffffffffffffff168152602001908152602001600020819055506000601560008573ffffffffffffffffffffffffffffffffffffffff1673ffffffffffffffffffffffffffffffffffffffff1681526020019081526020016000208190555080601160008282546115fd9190612721565b925050819055508273ffffffffffffffffffffffffffffffffffffffff166108fc829081150290604051600060405180830381858888f1935050505015801561164a573d6000803e3d6000fd5b508273ffffffffffffffffffffffffffffffffffffffff167f7084f5476618d8e60b11ef0d7d3f06914655adb8793e28ff7f018d4c76d505d5826040516116919190612685565b60405180910390a2505050565b6000601560003373ffffffffffffffffffffffffffffffffffffffff1673ffffffffffffffffffffffffffffffffffffffff168152602001908152602001600020546007546116ed9190612777565b905090565b6116fa611f94565b73ffffffffffffffffffffffffffffffffffffffff1661171861132d565b73ffffffffffffffffffffffffffffffffffffffff161461176e576040517f08c379a000000000000000000000000000000000000000000000000000000000815260040161176590612625565b60405180910390fd5b600060149054906101000a900460ff1661178757600080fd5b60008060146101000a81548160ff021916908315150217905550565b6060600980548060200260200160405190810160405280929190818152602001828054801561182757602002820191906000526020600020905b8160009054906101000a900473ffffffffffffffffffffffffffffffffffffffff1673ffffffffffffffffffffffffffffffffffffffff16815260200190600101908083116117dd575b5050505050905090565b60075481565b60085481565b611845611f94565b73ffffffffffffffffffffffffffffffffffffffff1661186361132d565b73ffffffffffffffffffffffffffffffffffffffff16146118b9576040517f08c379a00000000000000000000000000000000000000000000000000000000081526004016118b090612625565b60405180910390fd5b600073ffffffffffffffffffffffffffffffffffffffff168173ffffffffffffffffffffffffffffffffffffffff161415611929576040517f08c379a0000000000000000000000000000000000000000000000000000000008152600401611920906125a5565b60405180910390fd5b8073ffffffffffffffffffffffffffffffffffffffff1660008054906101000a900473ffffffffffffffffffffffffffffffffffffffff1673ffffffffffffffffffffffffffffffffffffffff167f8be0079c531659141344cd1fd0a4f28419497f9722a3daafe3b4186f6b6457e060405160405180910390a3806000806101000a81548173ffffffffffffffffffffffffffffffffffffffff021916908373ffffffffffffffffffffffffffffffffffffffff16021790555050565b600160009054906101000a900473ffffffffffffffffffffffffffffffffffffffff1681565b600073ffffffffffffffffffffffffffffffffffffffff168273ffffffffffffffffffffffffffffffffffffffff161415611a4657600080fd5b6000811415611a5457600080fd5b5050565b600080600260009054906101000a900473ffffffffffffffffffffffffffffffffffffffff1673ffffffffffffffffffffffffffffffffffffffff1663a7c4abdb84600f54600160009054906101000a900473ffffffffffffffffffffffffffffffffffffffff1673ffffffffffffffffffffffffffffffffffffffff1663313ce5676040518163ffffffff1660e01b815260040160206040518083038186803b158015611b0557600080fd5b505afa158015611b19573d6000803e3d6000fd5b505050506040513d601f19601f82011682018060405250810190611b3d9190612195565b6040518463ffffffff1660e01b8152600401611b5b939291906126a0565b60206040518083038186803b158015611b7357600080fd5b505afa158015611b87573d6000803e3d6000fd5b505050506040513d601f19601f82011682018060405250810190611bab9190612168565b905080915050919050565b60008060149054906101000a900460ff1615611bd157600080fd5b60026006811115611be557611be4612937565b5b611bed610ba4565b6006811115611bff57611bfe612937565b5b1480611c36575060036006811115611c1a57611c19612937565b5b611c22610ba4565b6006811115611c3457611c33612937565b5b145b611c75576040517f08c379a0000000000000000000000000000000000000000000000000000000008152600401611c6c90612565565b60405180910390fd5b60003490506000831415611c8857600080fd5b60075483601560008873ffffffffffffffffffffffffffffffffffffffff1673ffffffffffffffffffffffffffffffffffffffff16815260200190815260200160002054611cd69190612721565b1115611ce157600080fd5b6000601460008773ffffffffffffffffffffffffffffffffffffffff1673ffffffffffffffffffffffffffffffffffffffff168152602001908152602001600020541415611da55760086000815480929190611d3c906128bf565b91905055506009859080600181540180825580915050600190039060005260206000200160009091909190916101000a81548173ffffffffffffffffffffffffffffffffffffffff021916908373ffffffffffffffffffffffffffffffffffffffff1602179055505b611df781601460008873ffffffffffffffffffffffffffffffffffffffff1673ffffffffffffffffffffffffffffffffffffffff16815260200190815260200160002054611f9c90919063ffffffff16565b601460008773ffffffffffffffffffffffffffffffffffffffff1673ffffffffffffffffffffffffffffffffffffffff16815260200190815260200160002081905550611e8c83601560008873ffffffffffffffffffffffffffffffffffffffff1673ffffffffffffffffffffffffffffffffffffffff16815260200190815260200160002054611f9c90919063ffffffff16565b601560008773ffffffffffffffffffffffffffffffffffffffff1673ffffffffffffffffffffffffffffffffffffffff16815260200190815260200160002081905550611ee481601054611f9c90919063ffffffff16565b601081905550611eff83600f54611f9c90919063ffffffff16565b600f81905550600554600f541115611f4c576040517f08c379a0000000000000000000000000000000000000000000000000000000008152600401611f4390612585565b60405180910390fd5b7f0396f60aaad038749091d273dc13aaabc63db6e2271c7bad442d5cf25cc4335085828587604051611f819493929190612492565b60405180910390a1829150509392505050565b600033905090565b60008183611faa9190612721565b905092915050565b600081359050611fc181612b88565b92915050565b600081519050611fd681612b88565b92915050565b600081359050611feb81612b9f565b92915050565b60008151905061200081612bb6565b92915050565b60008135905061201581612bcd565b92915050565b60008135905061202a81612be4565b92915050565b60008151905061203f81612be4565b92915050565b60008151905061205481612bfb565b92915050565b6000602082840312156120705761206f612966565b5b600061207e84828501611fb2565b91505092915050565b60006020828403121561209d5761209c612966565b5b60006120ab84828501611fc7565b91505092915050565b6000602082840312156120ca576120c9612966565b5b60006120d884828501611fdc565b91505092915050565b6000602082840312156120f7576120f6612966565b5b600061210584828501611ff1565b91505092915050565b60006020828403121561212457612123612966565b5b600061213284828501612006565b91505092915050565b60006020828403121561215157612150612966565b5b600061215f8482850161201b565b91505092915050565b60006020828403121561217e5761217d612966565b5b600061218c84828501612030565b91505092915050565b6000602082840312156121ab576121aa612966565b5b60006121b984828501612045565b91505092915050565b60006121ce83836121e9565b60208301905092915050565b6121e3816127bd565b82525050565b6121f2816127ab565b82525050565b612201816127ab565b82525050565b6000612212826126e7565b61221c81856126ff565b9350612227836126d7565b8060005b8381101561225857815161223f88826121c2565b975061224a836126f2565b92505060018101905061222b565b5085935050505092915050565b61226e816127cf565b82525050565b61227d81612853565b82525050565b61228c81612877565b82525050565b61229b8161289b565b82525050565b60006122ae602983612710565b91506122b98261296b565b604082019050919050565b60006122d1603183612710565b91506122dc826129ba565b604082019050919050565b60006122f4602683612710565b91506122ff82612a09565b604082019050919050565b6000612317601083612710565b915061232282612a58565b602082019050919050565b600061233a601e83612710565b915061234582612a81565b602082019050919050565b600061235d602283612710565b915061236882612aaa565b604082019050919050565b6000612380602083612710565b915061238b82612af9565b602082019050919050565b60006123a3601183612710565b91506123ae82612b22565b602082019050919050565b60006123c6601383612710565b91506123d182612b4b565b602082019050919050565b6123e581612800565b82525050565b6123f48161283c565b82525050565b612403816128ad565b82525050565b600060208201905061241e60008301846121f8565b92915050565b600060208201905061243960008301846121da565b92915050565b600060a08201905061245460008301886121f8565b61246160208301876121f8565b61246e60408301866123eb565b61247b60608301856123eb565b61248860808301846123eb565b9695505050505050565b60006080820190506124a760008301876121f8565b6124b460208301866123eb565b6124c160408301856123eb565b6124ce60608301846123dc565b95945050505050565b600060208201905081810360008301526124f18184612207565b905092915050565b600060208201905061250e6000830184612265565b92915050565b60006020820190506125296000830184612274565b92915050565b60006020820190506125446000830184612283565b92915050565b600060208201905061255f6000830184612292565b92915050565b6000602082019050818103600083015261257e816122a1565b9050919050565b6000602082019050818103600083015261259e816122c4565b9050919050565b600060208201905081810360008301526125be816122e7565b9050919050565b600060208201905081810360008301526125de8161230a565b9050919050565b600060208201905081810360008301526125fe8161232d565b9050919050565b6000602082019050818103600083015261261e81612350565b9050919050565b6000602082019050818103600083015261263e81612373565b9050919050565b6000602082019050818103600083015261265e81612396565b9050919050565b6000602082019050818103600083015261267e816123b9565b9050919050565b600060208201905061269a60008301846123eb565b92915050565b60006060820190506126b560008301866123eb565b6126c260208301856123eb565b6126cf60408301846123fa565b949350505050565b6000819050602082019050919050565b600081519050919050565b6000602082019050919050565b600082825260208201905092915050565b600082825260208201905092915050565b600061272c8261283c565b91506127378361283c565b9250827fffffffffffffffffffffffffffffffffffffffffffffffffffffffffffffffff0382111561276c5761276b612908565b5b828201905092915050565b60006127828261283c565b915061278d8361283c565b9250828210156127a05761279f612908565b5b828203905092915050565b60006127b68261281c565b9050919050565b60006127c88261281c565b9050919050565b60008115159050919050565b60006127e6826127bd565b9050919050565b60008190506127fb82612b74565b919050565b60006fffffffffffffffffffffffffffffffff82169050919050565b600073ffffffffffffffffffffffffffffffffffffffff82169050919050565b6000819050919050565b600060ff82169050919050565b600061285e82612865565b9050919050565b60006128708261281c565b9050919050565b600061288282612889565b9050919050565b60006128948261281c565b9050919050565b60006128a6826127ed565b9050919050565b60006128b882612846565b9050919050565b60006128ca8261283c565b91507fffffffffffffffffffffffffffffffffffffffffffffffffffffffffffffffff8214156128fd576128fc612908565b5b600182019050919050565b7f4e487b7100000000000000000000000000000000000000000000000000000000600052601160045260246000fd5b7f4e487b7100000000000000000000000000000000000000000000000000000000600052602160045260246000fd5b600080fd5b7f436f6e7472616374206e6f7420696e2046756e64696e67206f7220537563636560008201527f73732073746174652e0000000000000000000000000000000000000000000000602082015250565b7f52657175657374656420746f6b656e20616d6f756e742065786365656473207260008201527f656d61696e696e67206361706163697479000000000000000000000000000000602082015250565b7f4f776e61626c653a206e6577206f776e657220697320746865207a65726f206160008201527f6464726573730000000000000000000000000000000000000000000000000000602082015250565b7f676f616c206e6f74207265616368656400000000000000000000000000000000600082015250565b7f4c6f636b446174652063616e6e6f7420626520696e2074686520706173740000600082015250565b7f546f6b656e206f776e657220686173206e6f7420656e6f75676820746f6b656e60008201527f7321000000000000000000000000000000000000000000000000000000000000602082015250565b7f4f776e61626c653a2063616c6c6572206973206e6f7420746865206f776e6572600082015250565b7f616c72656164792066696e616c697a6564000000000000000000000000000000600082015250565b7f4e6f20726566756e6420617661696c61626c6500000000000000000000000000600082015250565b60078110612b8557612b84612937565b5b50565b612b91816127ab565b8114612b9c57600080fd5b50565b612ba8816127bd565b8114612bb357600080fd5b50565b612bbf816127cf565b8114612bca57600080fd5b50565b612bd6816127db565b8114612be157600080fd5b50565b612bed8161283c565b8114612bf857600080fd5b50565b612c0481612846565b8114612c0f57600080fd5b5056fea264697066735822122007646177a07b6bec270688c2a3b9b21efae47859c7ccf31a78384c75bdcb4af964736f6c63430008060033",
  "immutableReferences": {},
  "source": "// SPDX-License-Identifier: UNLICENSED\npragma solidity ^0.8.6;\n\nimport \"@openzeppelin/contracts/utils/math/SafeMath.sol\";\n\nimport \"./ICollectCoinIco.sol\";\nimport \"./TimeLockedWalletFactory.sol\";\nimport \"./CollectCoin.sol\";\nimport \"./Haltable.sol\";\nimport \"./IPricingStrategy.sol\";\n\ncontract CollectCoinIco is Haltable, ICollectCoinIco  {\n\n    using SafeMath for uint256;\n\n    /* The token we are selling */\n    CollectCoin public token;\n\n    // How we are going to price our offering\n    IPricingStrategy public pricingStrategy;\n\n    TimeLockedWalletFactory walletFactory;\n\n    // tokens will be transfered from this address\n    address payable public multisigWallet;\n\n    /* Maximum amount of tokens this crowdsale can sell. */\n    uint public maximumSellableTokens;\n\n    /* if the funding goal is not reached, investors may withdraw their funds */\n    uint public minimumFundingGoal;\n\n    /* the maximum one person is allowed to invest in CLCT */\n    uint256 public tokenInvestorCap;\n\n    /* How many distinct addresses have invested */\n    uint public investorCount = 0;\n\n    /* List of all investors */\n    address[] public investors;\n\n    /* the UNIX timestamp start date of the ico */\n    uint public startsAt;\n\n    /* the UNIX timestamp end date of the ico */\n    uint public endsAt;\n\n    uint256 walletUnlockPeriod; \n    uint256 walletUnlockPercentage;\n\n    /* Has this crowdsale been finalized */\n    bool public finalized;\n\n    /* the number of tokens already sold through this contract*/\n    uint public tokensSold = 0;\n\n    /* How many wei of funding we have raised */\n    uint public weiRaised = 0;\n\n    /* How much wei we have returned back to the contract after a failed crowdfund. */\n    uint public loadedRefund = 0;\n\n    address public timeLockedWallet;\n\n    address public tokenOwner;\n\n    // A new investment was made\n    event Invested(address investor, uint weiAmount, uint tokenAmount, uint128 customerId);\n\n    // A refund has been processed\n    event Withdrawn(address indexed refundee, uint256 weiAmount);\n\n    /** How much ETH each address has invested to this crowdsale */\n    mapping (address => uint256) public investedAmountOf;\n\n    /** How much tokens this crowdsale has credited for each investor address */\n    mapping (address => uint256) public override tokenAmountOf;\n\n    /** Modified allowing execution only if the crowdsale is currently running.  */\n    modifier inState(State state) {\n        if(getState() != state) revert();\n        _;\n    }\n\n    /**@dev Create a new ICO contract instance\n     * @param _token The ERC-20 token contract address\n     * @param _pricingStrategy The Pricing strategy contract address which determines the price for a specific amount of wei or tokens\n     * @param _multisigWallet The address of the account that receives the wei of the investors\n     * @param _start The time this contracts accepts funding\n     * @param _end The time the token sale ends. This is also when success or failure is determined.\n     * @param _minimumFundingGoal The min amount of tokens required to be sold for the sale to succeed, aka soft cap\n     * @param _maxSellableTokens The max amount of tokens to be sold in this sale \n     * @param _walletUnlockPeriod The length of a lock period in seconds \n     * @param _walletUnlockPercentage The percentage being unlocked with each period, number between 1 and 100\n     */\n    constructor(address _token, \n                IPricingStrategy _pricingStrategy,\n                address payable _multisigWallet, \n                uint _start, uint _end, \n                uint _minimumFundingGoal, uint _maxSellableTokens, uint256 _tokenInvestorCap,\n                uint256 _walletUnlockPeriod, uint256 _walletUnlockPercentage) \n    {\n        token = CollectCoin(_token);\n        pricingStrategy = _pricingStrategy;\n\n        tokenInvestorCap = _tokenInvestorCap;\n        \n        multisigWallet = _multisigWallet;\n        if(multisigWallet == address(0)) {\n            revert();\n        }\n\n        if(_start == 0) {\n            revert();\n        }\n\n        startsAt = _start;\n\n        if(_end == 0) {\n            revert();\n        }\n\n        endsAt = _end;\n\n        // Don't mess the dates\n        if(startsAt >= endsAt) {\n            revert();\n        }\n\n        walletUnlockPeriod = _walletUnlockPeriod;\n        walletUnlockPercentage = _walletUnlockPercentage;\n\n        require(_maxSellableTokens >= _minimumFundingGoal, \"Maximum sellable tokens is lower than minimum funding goal.\");\n\n        // Minimum funding goal can be zero\n        minimumFundingGoal = _minimumFundingGoal;\n        maximumSellableTokens = _maxSellableTokens;\n    }\n\n    /**\n    * @dev Make an investment.\n    *\n    * Crowdsale must be running for one to invest.\n    * We must have not pressed the emergency brake.\n    *\n    * @param receiver The Ethereum address who receives the tokens\n    * @param customerId (optional) UUID v4 to track the successful payments on the server side'\n    * @param tokenAmount Amount of tokens which be credited to receiver\n    *\n    * @return tokensBought How mony tokens were bought\n    */\n    function buyTokens(address receiver, uint128 customerId, uint256 tokenAmount) stopInEmergency internal returns(uint tokensBought) \n    {\n        require(getState() == State.Funding || getState() == State.Success, \"Contract not in Funding or Success state.\");\n\n        uint weiAmount = msg.value;\n\n        // Dust transaction\n        require(tokenAmount != 0);\n\n        // don't allow investment to exceed the investor cap\n        require(tokenAmountOf[receiver] + tokenAmount <= tokenInvestorCap);\n\n        if(investedAmountOf[receiver] == 0) {\n            // A new investor\n            investorCount++;\n            investors.push(receiver);\n        }\n\n        // Update investor\n        investedAmountOf[receiver] = investedAmountOf[receiver].add(weiAmount);\n        tokenAmountOf[receiver] = tokenAmountOf[receiver].add(tokenAmount);\n\n        // Update totals\n        weiRaised = weiRaised.add(weiAmount);\n        tokensSold = tokensSold.add(tokenAmount);\n\n        // Check that we did not bust the cap\n        require(tokensSold <= maximumSellableTokens, \"Requested token amount exceeds remaining capacity\");\n\n        // Tell us invest was success\n        emit Invested(receiver, weiAmount, tokenAmount, customerId);\n\n        return tokenAmount;\n    }\n\n    function setStartsAt(uint256 _startsAt) public onlyOwner {\n        startsAt = _startsAt;\n    }\n\n    function setEndsAt(uint256 _endsAt) public onlyOwner {\n        endsAt = _endsAt;\n    }\n\n    function availableInvestment() public view returns(uint256)\n    {\n        return tokenInvestorCap - tokenAmountOf[msg.sender];\n    }\n\n    /**\n    * Finalize a succcesful crowdsale.\n    *\n    * The owner can triggre a call the contract that provides post-crowdsale actions, like releasing the tokens.\n    * @param _walletLockDate The time from when the locking calculations for the investor's time locked tokens begin to count\n    */\n    function finalize(uint256 _walletLockDate) public override inState(State.Success) onlyOwner stopInEmergency {\n\n        require(!finalized, \"already finalized\");\n        require(isMinimumGoalReached(), \"goal not reached\");\n        \n        uint256 walletLockDate = _walletLockDate > 0 ? _walletLockDate : block.timestamp;\n        require(walletLockDate >= block.timestamp, \"LockDate cannot be in the past\");\n\n        timeLockedWallet = walletFactory.newPeriodicTimeLockedMonoWallet(tokenOwner, address(this), walletLockDate, walletUnlockPeriod, walletUnlockPercentage);\n\n        // Pocket the money, or fail the transaction if we for some reason cannot send the money to our multisig\n        if(!multisigWallet.send(weiRaised)) revert();\n        \n        finalized = true;\n    }\n\n    function setWalletFactory(TimeLockedWalletFactory addr) public override onlyOwner {\n        walletFactory = addr;\n    }\n\n    function setTokenOwner(address _tokenOwner) public override onlyOwner {\n\n        uint balance = token.balanceOf(_tokenOwner);\n\n        require(balance >= maximumSellableTokens, \"Token owner has not enough tokens!\");\n        \n        tokenOwner = _tokenOwner;\n    }\n    \n    /**\n    * state machine management.\n    *\n    * We make it a function and do not assign the result to a variable, so there is no chance of the variable being stale.\n    */\n    function getState() public override virtual view returns (State) {\n        if(finalized) return State.Finalized;\n        else if (address(walletFactory) == address(0)) return State.Preparing;\n        else if (tokenOwner == address(0)) return State.Preparing;\n        else if (!pricingStrategy.isSane()) return State.Preparing;\n        else if (block.timestamp < startsAt) return State.Preparing;\n        else if (block.timestamp <= endsAt && !isFull()) return State.Funding;\n        else if (isMinimumGoalReached()) return State.Success;\n        else if (!isMinimumGoalReached() && weiRaised > 0 && loadedRefund < weiRaised) return State.Refunding;\n        else return State.Failure;\n    }\n\n     /**\n    * Check if the current crowdsale is full and we can no longer sell any tokens.\n    */\n    function isFull() public override view returns (bool) {\n        return tokensSold >= maximumSellableTokens;\n    }\n\n    /**\n    * @return reached == true if the crowdsale has raised enough money to be a successful.\n    */\n    function isMinimumGoalReached() public override view returns (bool reached) {\n        return tokensSold >= minimumFundingGoal;\n    }\n\n    function getAllInvestors() public override virtual view returns (address[] memory)\n    {\n        return investors;\n    }\n\n    // -----------------------------------------\n    // Crowdsale external interface\n    // -----------------------------------------\n\n    fallback () external payable {\n        revert();\n    }\n\n    /**\n    * @dev low level token purchase ***DO NOT OVERRIDE***\n    * @param _beneficiary Address performing the token purchase\n    */\n    function buyTokens(address _beneficiary) public override virtual payable {\n\n        uint256 weiAmount = msg.value;\n        _preValidatePurchase(_beneficiary, weiAmount);\n\n        // calculate token amount to be created\n        uint256 tokens = _getTokenAmount(weiAmount);\n\n        buyTokens(_beneficiary, 0, tokens);\n    }\n\n    receive () external payable {\n        buyTokens(msg.sender);\n    }\n\n    /**\n     * @dev Investors can claim refunds here if crowdsale is unsuccessful.\n     * @param refundee Whose refund will be claimed.\n     */\n    function claimRefund(address payable refundee) inState(State.Refunding) public {\n        \n        uint256 payment = investedAmountOf[refundee];\n        require(payment > 0, \"No refund available\");\n\n        investedAmountOf[refundee] = 0;\n        tokenAmountOf[refundee] = 0;\n\n        loadedRefund += payment;\n        \n        refundee.transfer(payment);\n\n        emit Withdrawn(refundee, payment);\n    }\n\n\n    // -----------------------------------------\n    // Internal interface (extensible)\n    // -----------------------------------------\n\n    /**\n    * @dev Validation of an incoming purchase. Use require statements to revert state when conditions are not met. Use super to concatenate validations.\n    * @param _beneficiary Address performing the token purchase\n    * @param _weiAmount Value in wei involved in the purchase\n    */\n    function _preValidatePurchase(address _beneficiary, uint256 _weiAmount) internal pure {\n        require(_beneficiary != address(0));\n        require(_weiAmount != 0);\n    }\n\n    /**\n    * @dev Override to extend the way in which ether is converted to tokens.\n    * @param _weiAmount Value in wei to be converted into tokens\n    * @return Number of tokens that can be purchased with the specified _weiAmount\n    */\n    function _getTokenAmount(uint256 _weiAmount) internal view returns (uint256) {\n        uint256 tokenAmount = pricingStrategy.calculateTokenAmount(_weiAmount, tokensSold, token.decimals());\n        return tokenAmount;\n    }\n}",
  "sourcePath": "/home/eule/Projects/ico-contracts/ethereum/ico/contracts/CollectCoinIco.sol",
  "compiler": {
    "name": "solc",
    "version": "0.8.6+commit.11564f7e.Emscripten.clang"
  },
  "schemaVersion": "3.4.1",
  "updatedAt": "2021-08-16T13:27:28.532Z",
  "devdoc": {
    "kind": "dev",
    "methods": {
      "buyTokens(address)": {
        "details": "low level token purchase ***DO NOT OVERRIDE***",
        "params": {
          "_beneficiary": "Address performing the token purchase"
        }
      },
      "claimRefund(address)": {
        "details": "Investors can claim refunds here if crowdsale is unsuccessful.",
        "params": {
          "refundee": "Whose refund will be claimed."
        }
      },
      "constructor": {
        "details": "Create a new ICO contract instance",
        "params": {
          "_end": "The time the token sale ends. This is also when success or failure is determined.",
          "_maxSellableTokens": "The max amount of tokens to be sold in this sale ",
          "_minimumFundingGoal": "The min amount of tokens required to be sold for the sale to succeed, aka soft cap",
          "_multisigWallet": "The address of the account that receives the wei of the investors",
          "_pricingStrategy": "The Pricing strategy contract address which determines the price for a specific amount of wei or tokens",
          "_start": "The time this contracts accepts funding",
          "_token": "The ERC-20 token contract address",
          "_walletUnlockPercentage": "The percentage being unlocked with each period, number between 1 and 100",
          "_walletUnlockPeriod": "The length of a lock period in seconds "
        }
      },
      "finalize(uint256)": {
        "params": {
          "_walletLockDate": "The time from when the locking calculations for the investor's time locked tokens begin to count"
        }
      },
      "isMinimumGoalReached()": {
        "returns": {
          "reached": "== true if the crowdsale has raised enough money to be a successful."
        }
      },
      "owner()": {
        "details": "Returns the address of the current owner."
      },
      "renounceOwnership()": {
        "details": "Leaves the contract without owner. It will not be possible to call `onlyOwner` functions anymore. Can only be called by the current owner. NOTE: Renouncing ownership will leave the contract without an owner, thereby removing any functionality that is only available to the owner."
      },
      "transferOwnership(address)": {
        "details": "Transfers ownership of the contract to a new account (`newOwner`). Can only be called by the current owner."
      }
    },
    "version": 1
  },
  "userdoc": {
    "kind": "user",
    "methods": {
      "finalize(uint256)": {
        "notice": "Finalize a succcesful crowdsale. The owner can triggre a call the contract that provides post-crowdsale actions, like releasing the tokens."
      },
      "getState()": {
        "notice": "state machine management. We make it a function and do not assign the result to a variable, so there is no chance of the variable being stale."
      },
      "investedAmountOf(address)": {
        "notice": "How much ETH each address has invested to this crowdsale "
      },
      "isFull()": {
        "notice": "Check if the current crowdsale is full and we can no longer sell any tokens."
      },
      "setWalletFactory(address)": {
        "notice": "Allow to (re)set finalize agent. Design choice: no state restrictions on setting this, so that we can fix fat finger mistakes."
      },
      "tokenAmountOf(address)": {
        "notice": "How much tokens this crowdsale has credited for each investor address "
      }
    },
    "version": 1
  }
}