{
  "contractName": "CollectCoinIcoMock",
  "abi": [
    {
      "inputs": [
        {
          "internalType": "uint256",
          "name": "_investorCount",
          "type": "uint256"
        },
        {
          "internalType": "address",
          "name": "_token",
          "type": "address"
        },
        {
          "internalType": "contract IPricingStrategy",
          "name": "_pricingStrategy",
          "type": "address"
        },
        {
          "internalType": "address payable",
          "name": "_multisigWallet",
          "type": "address"
        },
        {
          "internalType": "uint256",
          "name": "_start",
          "type": "uint256"
        },
        {
          "internalType": "uint256",
          "name": "_end",
          "type": "uint256"
        },
        {
          "internalType": "uint256",
          "name": "_minimumFundingGoal",
          "type": "uint256"
        },
        {
          "internalType": "uint256",
          "name": "_maxSellableTokens",
          "type": "uint256"
        },
        {
          "internalType": "uint256",
          "name": "_tokenInvestorCap",
          "type": "uint256"
        },
        {
          "internalType": "uint256",
          "name": "_walletUnlockPeriod",
          "type": "uint256"
        },
        {
          "internalType": "uint256",
          "name": "_walletUnlockPercentage",
          "type": "uint256"
        }
      ],
      "stateMutability": "nonpayable",
      "type": "constructor"
    },
    {
      "anonymous": false,
      "inputs": [
        {
          "indexed": false,
          "internalType": "address",
          "name": "investor",
          "type": "address"
        },
        {
          "indexed": false,
          "internalType": "uint256",
          "name": "weiAmount",
          "type": "uint256"
        },
        {
          "indexed": false,
          "internalType": "uint256",
          "name": "tokenAmount",
          "type": "uint256"
        },
        {
          "indexed": false,
          "internalType": "uint128",
          "name": "customerId",
          "type": "uint128"
        }
      ],
      "name": "Invested",
      "type": "event"
    },
    {
      "anonymous": false,
      "inputs": [
        {
          "indexed": true,
          "internalType": "address",
          "name": "previousOwner",
          "type": "address"
        },
        {
          "indexed": true,
          "internalType": "address",
          "name": "newOwner",
          "type": "address"
        }
      ],
      "name": "OwnershipTransferred",
      "type": "event"
    },
    {
      "anonymous": false,
      "inputs": [
        {
          "indexed": true,
          "internalType": "address",
          "name": "refundee",
          "type": "address"
        },
        {
          "indexed": false,
          "internalType": "uint256",
          "name": "weiAmount",
          "type": "uint256"
        }
      ],
      "name": "Withdrawn",
      "type": "event"
    },
    {
      "stateMutability": "payable",
      "type": "fallback"
    },
    {
      "inputs": [],
      "name": "availableInvestment",
      "outputs": [
        {
          "internalType": "uint256",
          "name": "",
          "type": "uint256"
        }
      ],
      "stateMutability": "view",
      "type": "function"
    },
    {
      "inputs": [
        {
          "internalType": "address",
          "name": "_beneficiary",
          "type": "address"
        }
      ],
      "name": "buyTokens",
      "outputs": [],
      "stateMutability": "payable",
      "type": "function"
    },
    {
      "inputs": [
        {
          "internalType": "address payable",
          "name": "refundee",
          "type": "address"
        }
      ],
      "name": "claimRefund",
      "outputs": [],
      "stateMutability": "nonpayable",
      "type": "function"
    },
    {
      "inputs": [],
      "name": "endsAt",
      "outputs": [
        {
          "internalType": "uint256",
          "name": "",
          "type": "uint256"
        }
      ],
      "stateMutability": "view",
      "type": "function"
    },
    {
      "inputs": [
        {
          "internalType": "uint256",
          "name": "_walletLockDate",
          "type": "uint256"
        }
      ],
      "name": "finalize",
      "outputs": [],
      "stateMutability": "nonpayable",
      "type": "function"
    },
    {
      "inputs": [],
      "name": "finalized",
      "outputs": [
        {
          "internalType": "bool",
          "name": "",
          "type": "bool"
        }
      ],
      "stateMutability": "view",
      "type": "function"
    },
    {
      "inputs": [],
      "name": "halt",
      "outputs": [],
      "stateMutability": "nonpayable",
      "type": "function"
    },
    {
      "inputs": [],
      "name": "halted",
      "outputs": [
        {
          "internalType": "bool",
          "name": "",
          "type": "bool"
        }
      ],
      "stateMutability": "view",
      "type": "function"
    },
    {
      "inputs": [
        {
          "internalType": "address",
          "name": "",
          "type": "address"
        }
      ],
      "name": "investedAmountOf",
      "outputs": [
        {
          "internalType": "uint256",
          "name": "",
          "type": "uint256"
        }
      ],
      "stateMutability": "view",
      "type": "function"
    },
    {
      "inputs": [],
      "name": "investorCount",
      "outputs": [
        {
          "internalType": "uint256",
          "name": "",
          "type": "uint256"
        }
      ],
      "stateMutability": "view",
      "type": "function"
    },
    {
      "inputs": [
        {
          "internalType": "uint256",
          "name": "",
          "type": "uint256"
        }
      ],
      "name": "investors",
      "outputs": [
        {
          "internalType": "address",
          "name": "",
          "type": "address"
        }
      ],
      "stateMutability": "view",
      "type": "function"
    },
    {
      "inputs": [],
      "name": "isFull",
      "outputs": [
        {
          "internalType": "bool",
          "name": "",
          "type": "bool"
        }
      ],
      "stateMutability": "view",
      "type": "function"
    },
    {
      "inputs": [],
      "name": "isMinimumGoalReached",
      "outputs": [
        {
          "internalType": "bool",
          "name": "reached",
          "type": "bool"
        }
      ],
      "stateMutability": "view",
      "type": "function"
    },
    {
      "inputs": [],
      "name": "loadedRefund",
      "outputs": [
        {
          "internalType": "uint256",
          "name": "",
          "type": "uint256"
        }
      ],
      "stateMutability": "view",
      "type": "function"
    },
    {
      "inputs": [],
      "name": "maximumSellableTokens",
      "outputs": [
        {
          "internalType": "uint256",
          "name": "",
          "type": "uint256"
        }
      ],
      "stateMutability": "view",
      "type": "function"
    },
    {
      "inputs": [],
      "name": "minimumFundingGoal",
      "outputs": [
        {
          "internalType": "uint256",
          "name": "",
          "type": "uint256"
        }
      ],
      "stateMutability": "view",
      "type": "function"
    },
    {
      "inputs": [],
      "name": "multisigWallet",
      "outputs": [
        {
          "internalType": "address payable",
          "name": "",
          "type": "address"
        }
      ],
      "stateMutability": "view",
      "type": "function"
    },
    {
      "inputs": [],
      "name": "owner",
      "outputs": [
        {
          "internalType": "address",
          "name": "",
          "type": "address"
        }
      ],
      "stateMutability": "view",
      "type": "function"
    },
    {
      "inputs": [],
      "name": "pricingStrategy",
      "outputs": [
        {
          "internalType": "contract IPricingStrategy",
          "name": "",
          "type": "address"
        }
      ],
      "stateMutability": "view",
      "type": "function"
    },
    {
      "inputs": [],
      "name": "renounceOwnership",
      "outputs": [],
      "stateMutability": "nonpayable",
      "type": "function"
    },
    {
      "inputs": [
        {
          "internalType": "uint256",
          "name": "_endsAt",
          "type": "uint256"
        }
      ],
      "name": "setEndsAt",
      "outputs": [],
      "stateMutability": "nonpayable",
      "type": "function"
    },
    {
      "inputs": [
        {
          "internalType": "uint256",
          "name": "_startsAt",
          "type": "uint256"
        }
      ],
      "name": "setStartsAt",
      "outputs": [],
      "stateMutability": "nonpayable",
      "type": "function"
    },
    {
      "inputs": [
        {
          "internalType": "address",
          "name": "_tokenOwner",
          "type": "address"
        }
      ],
      "name": "setTokenOwner",
      "outputs": [],
      "stateMutability": "nonpayable",
      "type": "function"
    },
    {
      "inputs": [
        {
          "internalType": "contract TimeLockedWalletFactory",
          "name": "addr",
          "type": "address"
        }
      ],
      "name": "setWalletFactory",
      "outputs": [],
      "stateMutability": "nonpayable",
      "type": "function"
    },
    {
      "inputs": [],
      "name": "startsAt",
      "outputs": [
        {
          "internalType": "uint256",
          "name": "",
          "type": "uint256"
        }
      ],
      "stateMutability": "view",
      "type": "function"
    },
    {
      "inputs": [],
      "name": "timeLockedWallet",
      "outputs": [
        {
          "internalType": "address",
          "name": "",
          "type": "address"
        }
      ],
      "stateMutability": "view",
      "type": "function"
    },
    {
      "inputs": [],
      "name": "token",
      "outputs": [
        {
          "internalType": "contract CollectCoin",
          "name": "",
          "type": "address"
        }
      ],
      "stateMutability": "view",
      "type": "function"
    },
    {
      "inputs": [
        {
          "internalType": "address",
          "name": "",
          "type": "address"
        }
      ],
      "name": "tokenAmountOf",
      "outputs": [
        {
          "internalType": "uint256",
          "name": "",
          "type": "uint256"
        }
      ],
      "stateMutability": "view",
      "type": "function"
    },
    {
      "inputs": [],
      "name": "tokenInvestorCap",
      "outputs": [
        {
          "internalType": "uint256",
          "name": "",
          "type": "uint256"
        }
      ],
      "stateMutability": "view",
      "type": "function"
    },
    {
      "inputs": [],
      "name": "tokenOwner",
      "outputs": [
        {
          "internalType": "address",
          "name": "",
          "type": "address"
        }
      ],
      "stateMutability": "view",
      "type": "function"
    },
    {
      "inputs": [],
      "name": "tokensSold",
      "outputs": [
        {
          "internalType": "uint256",
          "name": "",
          "type": "uint256"
        }
      ],
      "stateMutability": "view",
      "type": "function"
    },
    {
      "inputs": [
        {
          "internalType": "address",
          "name": "newOwner",
          "type": "address"
        }
      ],
      "name": "transferOwnership",
      "outputs": [],
      "stateMutability": "nonpayable",
      "type": "function"
    },
    {
      "inputs": [],
      "name": "unhalt",
      "outputs": [],
      "stateMutability": "nonpayable",
      "type": "function"
    },
    {
      "inputs": [],
      "name": "weiRaised",
      "outputs": [
        {
          "internalType": "uint256",
          "name": "",
          "type": "uint256"
        }
      ],
      "stateMutability": "view",
      "type": "function"
    },
    {
      "stateMutability": "payable",
      "type": "receive"
    },
    {
      "inputs": [
        {
          "internalType": "enum ICollectCoinIco.State",
          "name": "_state",
          "type": "uint8"
        }
      ],
      "name": "setState",
      "outputs": [],
      "stateMutability": "nonpayable",
      "type": "function"
    },
    {
      "inputs": [
        {
          "internalType": "uint256",
          "name": "count",
          "type": "uint256"
        }
      ],
      "name": "addInvestors",
      "outputs": [],
      "stateMutability": "nonpayable",
      "type": "function"
    },
    {
      "inputs": [
        {
          "internalType": "uint256",
          "name": "count",
          "type": "uint256"
        }
      ],
      "name": "removeInvestors",
      "outputs": [],
      "stateMutability": "nonpayable",
      "type": "function"
    },
    {
      "inputs": [],
      "name": "getAllInvestors",
      "outputs": [
        {
          "internalType": "address[]",
          "name": "",
          "type": "address[]"
        }
      ],
      "stateMutability": "view",
      "type": "function"
    },
    {
      "inputs": [],
      "name": "getState",
      "outputs": [
        {
          "internalType": "enum ICollectCoinIco.State",
          "name": "",
          "type": "uint8"
        }
      ],
      "stateMutability": "view",
      "type": "function"
    }
  ],
  "bytecode": "0x608060405260006008556000600f55600060105560006011553480156200002557600080fd5b506040516200346b3803806200346b83398181016040528101906200004b919062000460565b898989898989898989896000620000676200032560201b60201c565b9050806000806101000a81548173ffffffffffffffffffffffffffffffffffffffff021916908373ffffffffffffffffffffffffffffffffffffffff1602179055508073ffffffffffffffffffffffffffffffffffffffff16600073ffffffffffffffffffffffffffffffffffffffff167f8be0079c531659141344cd1fd0a4f28419497f9722a3daafe3b4186f6b6457e060405160405180910390a35089600160006101000a81548173ffffffffffffffffffffffffffffffffffffffff021916908373ffffffffffffffffffffffffffffffffffffffff16021790555088600260006101000a81548173ffffffffffffffffffffffffffffffffffffffff021916908373ffffffffffffffffffffffffffffffffffffffff1602179055508260078190555087600460006101000a81548173ffffffffffffffffffffffffffffffffffffffff021916908373ffffffffffffffffffffffffffffffffffffffff160217905550600073ffffffffffffffffffffffffffffffffffffffff16600460009054906101000a900473ffffffffffffffffffffffffffffffffffffffff1673ffffffffffffffffffffffffffffffffffffffff1614156200022c57600080fd5b60008714156200023b57600080fd5b86600a8190555060008614156200025157600080fd5b85600b81905550600b54600a54106200026957600080fd5b81600c8190555080600d8190555084841015620002bd576040517f08c379a0000000000000000000000000000000000000000000000000000000008152600401620002b49062000594565b60405180910390fd5b846006819055508360058190555050505050505050505050620002e68b6200032d60201b60201c565b6002601760006101000a81548160ff021916908360068111156200030f576200030e620006aa565b5b0217905550505050505050505050505062000795565b600033905090565b600080600090505b82811015620003b7576016829080600181540180825580915050600190039060005260206000200160009091909190916101000a81548173ffffffffffffffffffffffffffffffffffffffff021916908373ffffffffffffffffffffffffffffffffffffffff1602179055508080620003ae906200062d565b91505062000335565b6305f5e100601560008473ffffffffffffffffffffffffffffffffffffffff1673ffffffffffffffffffffffffffffffffffffffff16815260200190815260200160002081905550505050565b60008151905062000415816200072d565b92915050565b6000815190506200042c8162000747565b92915050565b600081519050620004438162000761565b92915050565b6000815190506200045a816200077b565b92915050565b60008060008060008060008060008060006101608c8e031215620004895762000488620006d9565b5b6000620004998e828f0162000449565b9b50506020620004ac8e828f0162000404565b9a50506040620004bf8e828f0162000432565b9950506060620004d28e828f016200041b565b9850506080620004e58e828f0162000449565b97505060a0620004f88e828f0162000449565b96505060c06200050b8e828f0162000449565b95505060e06200051e8e828f0162000449565b945050610100620005328e828f0162000449565b935050610120620005468e828f0162000449565b9250506101406200055a8e828f0162000449565b9150509295989b509295989b9093969950565b60006200057c603b83620005b6565b91506200058982620006de565b604082019050919050565b60006020820190508181036000830152620005af816200056d565b9050919050565b600082825260208201905092915050565b6000620005d48262000603565b9050919050565b6000620005e88262000603565b9050919050565b6000620005fc82620005c7565b9050919050565b600073ffffffffffffffffffffffffffffffffffffffff82169050919050565b6000819050919050565b60006200063a8262000623565b91507fffffffffffffffffffffffffffffffffffffffffffffffffffffffffffffffff82141562000670576200066f6200067b565b5b600182019050919050565b7f4e487b7100000000000000000000000000000000000000000000000000000000600052601160045260246000fd5b7f4e487b7100000000000000000000000000000000000000000000000000000000600052602160045260246000fd5b600080fd5b7f4d6178696d756d2073656c6c61626c6520746f6b656e73206973206c6f77657260008201527f207468616e206d696e696d756d2066756e64696e6720676f616c2e0000000000602082015250565b6200073881620005c7565b81146200074457600080fd5b50565b6200075281620005db565b81146200075e57600080fd5b50565b6200076c81620005ef565b81146200077857600080fd5b50565b620007868162000623565b81146200079257600080fd5b50565b612cc680620007a56000396000f3fe6080604052600436106102345760003560e01c80637ebf879c1161012e578063bf5fc2ee116100ab578063d0f6e53e1161006f578063d0f6e53e146107e7578063d7e64c0014610812578063ec8ac4d81461083d578063f2fde38b14610859578063fc0c546a1461088257610244565b8063bf5fc2ee14610728578063bffa55d514610751578063c361f7d01461077a578063cb3e64fd146107a5578063d0a2f2c4146107bc57610244565b8063a3e67610116100f2578063a3e6761014610651578063af4686821461067c578063b3f05b97146106a7578063b9b8af0b146106d2578063babd3d9a146106fd57610244565b80637ebf879c1461056a5780638da5cb5b146105935780639075becf146105be57806397b150ca146105e9578063a3aadd621461062657610244565b80634042b66f116101bc5780636e50eb3f116101805780636e50eb3f146104a9578063715018a6146104d257806378b99c24146104e9578063797d9437146105145780637c2e08a31461053f57610244565b80634042b66f146103ea578063518ab2a81461041557806356de96db146104405780635ed7ca5b14610469578063649f342e1461048057610244565b806318e02bd91161020357806318e02bd9146102f35780631992d1ad1461031c5780631aae3460146103455780633ad075ea146103825780633feb5f2b146103ad57610244565b806305261aea146102495780630a09284a1461027257806313f4e9771461029d5780631865c57d146102c857610244565b3661024457610242336108ad565b005b600080fd5b34801561025557600080fd5b50610270600480360381019061026b9190612191565b6108db565b005b34801561027e57600080fd5b50610287610c34565b60405161029491906126db565b60405180910390f35b3480156102a957600080fd5b506102b2610c3a565b6040516102bf91906126db565b60405180910390f35b3480156102d457600080fd5b506102dd610c40565b6040516102ea91906125a0565b60405180910390f35b3480156102ff57600080fd5b5061031a600480360381019061031591906120b0565b610c57565b005b34801561032857600080fd5b50610343600480360381019061033e9190612191565b610e0c565b005b34801561035157600080fd5b5061036c600480360381019061036791906120b0565b610e80565b60405161037991906126db565b60405180910390f35b34801561038e57600080fd5b50610397610e98565b6040516103a491906126db565b60405180910390f35b3480156103b957600080fd5b506103d460048036038101906103cf9190612191565b610e9e565b6040516103e1919061245f565b60405180910390f35b3480156103f657600080fd5b506103ff610edd565b60405161040c91906126db565b60405180910390f35b34801561042157600080fd5b5061042a610ee3565b60405161043791906126db565b60405180910390f35b34801561044c57600080fd5b5061046760048036038101906104629190612164565b610ee9565b005b34801561047557600080fd5b5061047e610f16565b005b34801561048c57600080fd5b506104a760048036038101906104a29190612191565b610faf565b005b3480156104b557600080fd5b506104d060048036038101906104cb9190612191565b610fbb565b005b3480156104de57600080fd5b506104e7611041565b005b3480156104f557600080fd5b506104fe61117b565b60405161050b9190612585565b60405180910390f35b34801561052057600080fd5b506105296111a1565b60405161053691906126db565b60405180910390f35b34801561054b57600080fd5b506105546111a7565b604051610561919061254f565b60405180910390f35b34801561057657600080fd5b50610591600480360381019061058c9190612137565b6111b6565b005b34801561059f57600080fd5b506105a8611276565b6040516105b5919061245f565b60405180910390f35b3480156105ca57600080fd5b506105d361129f565b6040516105e0919061247a565b60405180910390f35b3480156105f557600080fd5b50610610600480360381019061060b91906120b0565b6112c5565b60405161061d91906126db565b60405180910390f35b34801561063257600080fd5b5061063b6112dd565b604051610648919061245f565b60405180910390f35b34801561065d57600080fd5b50610666611303565b604051610673919061245f565b60405180910390f35b34801561068857600080fd5b50610691611329565b60405161069e91906126db565b60405180910390f35b3480156106b357600080fd5b506106bc61132f565b6040516106c9919061254f565b60405180910390f35b3480156106de57600080fd5b506106e7611342565b6040516106f4919061254f565b60405180910390f35b34801561070957600080fd5b50610712611355565b60405161071f919061254f565b60405180910390f35b34801561073457600080fd5b5061074f600480360381019061074a9190612191565b611364565b005b34801561075d57600080fd5b506107786004803603810190610773919061210a565b6113ea565b005b34801561078657600080fd5b5061078f6115e7565b60405161079c91906126db565b60405180910390f35b3480156107b157600080fd5b506107ba61163b565b005b3480156107c857600080fd5b506107d16116ec565b6040516107de919061252d565b60405180910390f35b3480156107f357600080fd5b506107fc61177a565b60405161080991906126db565b60405180910390f35b34801561081e57600080fd5b50610827611780565b60405161083491906126db565b60405180910390f35b610857600480360381019061085291906120b0565b6108ad565b005b34801561086557600080fd5b50610880600480360381019061087b91906120b0565b611786565b005b34801561088e57600080fd5b5061089761192f565b6040516108a4919061256a565b60405180910390f35b60003490506108bc8282611955565b60006108c7826119a1565b90506108d583600083611aff565b50505050565b60038060068111156108f0576108ef61298d565b5b6108f8610c40565b600681111561090a5761090961298d565b5b1461091457600080fd5b61091c611f17565b73ffffffffffffffffffffffffffffffffffffffff1661093a611276565b73ffffffffffffffffffffffffffffffffffffffff1614610990576040517f08c379a00000000000000000000000000000000000000000000000000000000081526004016109879061267b565b60405180910390fd5b600060149054906101000a900460ff16156109aa57600080fd5b600e60009054906101000a900460ff16156109fa576040517f08c379a00000000000000000000000000000000000000000000000000000000081526004016109f19061269b565b60405180910390fd5b610a026111a7565b610a41576040517f08c379a0000000000000000000000000000000000000000000000000000000008152600401610a389061261b565b60405180910390fd5b6000808311610a505742610a52565b825b905042811015610a97576040517f08c379a0000000000000000000000000000000000000000000000000000000008152600401610a8e9061263b565b60405180910390fd5b600360009054906101000a900473ffffffffffffffffffffffffffffffffffffffff1673ffffffffffffffffffffffffffffffffffffffff1663c63340db601360009054906101000a900473ffffffffffffffffffffffffffffffffffffffff163084600c54600d546040518663ffffffff1660e01b8152600401610b20959493929190612495565b602060405180830381600087803b158015610b3a57600080fd5b505af1158015610b4e573d6000803e3d6000fd5b505050506040513d601f19601f82011682018060405250810190610b7291906120dd565b601260006101000a81548173ffffffffffffffffffffffffffffffffffffffff021916908373ffffffffffffffffffffffffffffffffffffffff1602179055506001600e60006101000a81548160ff021916908315150217905550600460009054906101000a900473ffffffffffffffffffffffffffffffffffffffff1673ffffffffffffffffffffffffffffffffffffffff166108fc6010549081150290604051600060405180830381858888f19350505050610c2f57600080fd5b505050565b600b5481565b60065481565b6000601760009054906101000a900460ff16905090565b610c5f611f17565b73ffffffffffffffffffffffffffffffffffffffff16610c7d611276565b73ffffffffffffffffffffffffffffffffffffffff1614610cd3576040517f08c379a0000000000000000000000000000000000000000000000000000000008152600401610cca9061267b565b60405180910390fd5b6000600160009054906101000a900473ffffffffffffffffffffffffffffffffffffffff1673ffffffffffffffffffffffffffffffffffffffff166370a08231836040518263ffffffff1660e01b8152600401610d30919061245f565b60206040518083038186803b158015610d4857600080fd5b505afa158015610d5c573d6000803e3d6000fd5b505050506040513d601f19601f82011682018060405250810190610d8091906121be565b9050600554811015610dc7576040517f08c379a0000000000000000000000000000000000000000000000000000000008152600401610dbe9061265b565b60405180910390fd5b81601360006101000a81548173ffffffffffffffffffffffffffffffffffffffff021916908373ffffffffffffffffffffffffffffffffffffffff1602179055505050565b60005b81811015610e7c5760166001601680549050610e2b91906127cd565b81548110610e3c57610e3b6129bc565b5b9060005260206000200160006101000a81549073ffffffffffffffffffffffffffffffffffffffff02191690558080610e7490612915565b915050610e0f565b5050565b60146020528060005260406000206000915090505481565b60055481565b60098181548110610eae57600080fd5b906000526020600020016000915054906101000a900473ffffffffffffffffffffffffffffffffffffffff1681565b60105481565b600f5481565b80601760006101000a81548160ff02191690836006811115610f0e57610f0d61298d565b5b021790555050565b610f1e611f17565b73ffffffffffffffffffffffffffffffffffffffff16610f3c611276565b73ffffffffffffffffffffffffffffffffffffffff1614610f92576040517f08c379a0000000000000000000000000000000000000000000000000000000008152600401610f899061267b565b60405180910390fd5b6001600060146101000a81548160ff021916908315150217905550565b610fb881611f1f565b50565b610fc3611f17565b73ffffffffffffffffffffffffffffffffffffffff16610fe1611276565b73ffffffffffffffffffffffffffffffffffffffff1614611037576040517f08c379a000000000000000000000000000000000000000000000000000000000815260040161102e9061267b565b60405180910390fd5b80600b8190555050565b611049611f17565b73ffffffffffffffffffffffffffffffffffffffff16611067611276565b73ffffffffffffffffffffffffffffffffffffffff16146110bd576040517f08c379a00000000000000000000000000000000000000000000000000000000081526004016110b49061267b565b60405180910390fd5b600073ffffffffffffffffffffffffffffffffffffffff1660008054906101000a900473ffffffffffffffffffffffffffffffffffffffff1673ffffffffffffffffffffffffffffffffffffffff167f8be0079c531659141344cd1fd0a4f28419497f9722a3daafe3b4186f6b6457e060405160405180910390a360008060006101000a81548173ffffffffffffffffffffffffffffffffffffffff021916908373ffffffffffffffffffffffffffffffffffffffff160217905550565b600260009054906101000a900473ffffffffffffffffffffffffffffffffffffffff1681565b60115481565b6000600654600f541015905090565b6111be611f17565b73ffffffffffffffffffffffffffffffffffffffff166111dc611276565b73ffffffffffffffffffffffffffffffffffffffff1614611232576040517f08c379a00000000000000000000000000000000000000000000000000000000081526004016112299061267b565b60405180910390fd5b80600360006101000a81548173ffffffffffffffffffffffffffffffffffffffff021916908373ffffffffffffffffffffffffffffffffffffffff16021790555050565b60008060009054906101000a900473ffffffffffffffffffffffffffffffffffffffff16905090565b600460009054906101000a900473ffffffffffffffffffffffffffffffffffffffff1681565b60156020528060005260406000206000915090505481565b601260009054906101000a900473ffffffffffffffffffffffffffffffffffffffff1681565b601360009054906101000a900473ffffffffffffffffffffffffffffffffffffffff1681565b600a5481565b600e60009054906101000a900460ff1681565b600060149054906101000a900460ff1681565b6000600554600f541015905090565b61136c611f17565b73ffffffffffffffffffffffffffffffffffffffff1661138a611276565b73ffffffffffffffffffffffffffffffffffffffff16146113e0576040517f08c379a00000000000000000000000000000000000000000000000000000000081526004016113d79061267b565b60405180910390fd5b80600a8190555050565b60068060068111156113ff576113fe61298d565b5b611407610c40565b60068111156114195761141861298d565b5b1461142357600080fd5b6000601460008473ffffffffffffffffffffffffffffffffffffffff1673ffffffffffffffffffffffffffffffffffffffff168152602001908152602001600020549050600081116114aa576040517f08c379a00000000000000000000000000000000000000000000000000000000081526004016114a1906126bb565b60405180910390fd5b6000601460008573ffffffffffffffffffffffffffffffffffffffff1673ffffffffffffffffffffffffffffffffffffffff168152602001908152602001600020819055506000601560008573ffffffffffffffffffffffffffffffffffffffff1673ffffffffffffffffffffffffffffffffffffffff1681526020019081526020016000208190555080601160008282546115469190612777565b925050819055508273ffffffffffffffffffffffffffffffffffffffff166108fc829081150290604051600060405180830381858888f19350505050158015611593573d6000803e3d6000fd5b508273ffffffffffffffffffffffffffffffffffffffff167f7084f5476618d8e60b11ef0d7d3f06914655adb8793e28ff7f018d4c76d505d5826040516115da91906126db565b60405180910390a2505050565b6000601560003373ffffffffffffffffffffffffffffffffffffffff1673ffffffffffffffffffffffffffffffffffffffff1681526020019081526020016000205460075461163691906127cd565b905090565b611643611f17565b73ffffffffffffffffffffffffffffffffffffffff16611661611276565b73ffffffffffffffffffffffffffffffffffffffff16146116b7576040517f08c379a00000000000000000000000000000000000000000000000000000000081526004016116ae9061267b565b60405180910390fd5b600060149054906101000a900460ff166116d057600080fd5b60008060146101000a81548160ff021916908315150217905550565b6060601680548060200260200160405190810160405280929190818152602001828054801561177057602002820191906000526020600020905b8160009054906101000a900473ffffffffffffffffffffffffffffffffffffffff1673ffffffffffffffffffffffffffffffffffffffff1681526020019060010190808311611726575b5050505050905090565b60075481565b60085481565b61178e611f17565b73ffffffffffffffffffffffffffffffffffffffff166117ac611276565b73ffffffffffffffffffffffffffffffffffffffff1614611802576040517f08c379a00000000000000000000000000000000000000000000000000000000081526004016117f99061267b565b60405180910390fd5b600073ffffffffffffffffffffffffffffffffffffffff168173ffffffffffffffffffffffffffffffffffffffff161415611872576040517f08c379a0000000000000000000000000000000000000000000000000000000008152600401611869906125fb565b60405180910390fd5b8073ffffffffffffffffffffffffffffffffffffffff1660008054906101000a900473ffffffffffffffffffffffffffffffffffffffff1673ffffffffffffffffffffffffffffffffffffffff167f8be0079c531659141344cd1fd0a4f28419497f9722a3daafe3b4186f6b6457e060405160405180910390a3806000806101000a81548173ffffffffffffffffffffffffffffffffffffffff021916908373ffffffffffffffffffffffffffffffffffffffff16021790555050565b600160009054906101000a900473ffffffffffffffffffffffffffffffffffffffff1681565b600073ffffffffffffffffffffffffffffffffffffffff168273ffffffffffffffffffffffffffffffffffffffff16141561198f57600080fd5b600081141561199d57600080fd5b5050565b600080600260009054906101000a900473ffffffffffffffffffffffffffffffffffffffff1673ffffffffffffffffffffffffffffffffffffffff1663a7c4abdb84600f54600160009054906101000a900473ffffffffffffffffffffffffffffffffffffffff1673ffffffffffffffffffffffffffffffffffffffff1663313ce5676040518163ffffffff1660e01b815260040160206040518083038186803b158015611a4e57600080fd5b505afa158015611a62573d6000803e3d6000fd5b505050506040513d601f19601f82011682018060405250810190611a8691906121eb565b6040518463ffffffff1660e01b8152600401611aa4939291906126f6565b60206040518083038186803b158015611abc57600080fd5b505afa158015611ad0573d6000803e3d6000fd5b505050506040513d601f19601f82011682018060405250810190611af491906121be565b905080915050919050565b60008060149054906101000a900460ff1615611b1a57600080fd5b6002806006811115611b2f57611b2e61298d565b5b611b37610c40565b6006811115611b4957611b4861298d565b5b14611b5357600080fd5b60026006811115611b6757611b6661298d565b5b611b6f610c40565b6006811115611b8157611b8061298d565b5b1480611bb8575060036006811115611b9c57611b9b61298d565b5b611ba4610c40565b6006811115611bb657611bb561298d565b5b145b611bf7576040517f08c379a0000000000000000000000000000000000000000000000000000000008152600401611bee906125bb565b60405180910390fd5b60003490506000841415611c0a57600080fd5b60075484601560008973ffffffffffffffffffffffffffffffffffffffff1673ffffffffffffffffffffffffffffffffffffffff16815260200190815260200160002054611c589190612777565b1115611c6357600080fd5b6000601460008873ffffffffffffffffffffffffffffffffffffffff1673ffffffffffffffffffffffffffffffffffffffff168152602001908152602001600020541415611d275760086000815480929190611cbe90612915565b91905055506009869080600181540180825580915050600190039060005260206000200160009091909190916101000a81548173ffffffffffffffffffffffffffffffffffffffff021916908373ffffffffffffffffffffffffffffffffffffffff1602179055505b611d7981601460008973ffffffffffffffffffffffffffffffffffffffff1673ffffffffffffffffffffffffffffffffffffffff16815260200190815260200160002054611ff290919063ffffffff16565b601460008873ffffffffffffffffffffffffffffffffffffffff1673ffffffffffffffffffffffffffffffffffffffff16815260200190815260200160002081905550611e0e84601560008973ffffffffffffffffffffffffffffffffffffffff1673ffffffffffffffffffffffffffffffffffffffff16815260200190815260200160002054611ff290919063ffffffff16565b601560008873ffffffffffffffffffffffffffffffffffffffff1673ffffffffffffffffffffffffffffffffffffffff16815260200190815260200160002081905550611e6681601054611ff290919063ffffffff16565b601081905550611e8184600f54611ff290919063ffffffff16565b600f81905550600554600f541115611ece576040517f08c379a0000000000000000000000000000000000000000000000000000000008152600401611ec5906125db565b60405180910390fd5b7f0396f60aaad038749091d273dc13aaabc63db6e2271c7bad442d5cf25cc4335086828688604051611f0394939291906124e8565b60405180910390a183925050509392505050565b600033905090565b600080600090505b82811015611fa5576016829080600181540180825580915050600190039060005260206000200160009091909190916101000a81548173ffffffffffffffffffffffffffffffffffffffff021916908373ffffffffffffffffffffffffffffffffffffffff1602179055508080611f9d90612915565b915050611f27565b6305f5e100601560008473ffffffffffffffffffffffffffffffffffffffff1673ffffffffffffffffffffffffffffffffffffffff16815260200190815260200160002081905550505050565b600081836120009190612777565b905092915050565b60008135905061201781612c0d565b92915050565b60008151905061202c81612c0d565b92915050565b60008135905061204181612c24565b92915050565b60008135905061205681612c3b565b92915050565b60008135905061206b81612c52565b92915050565b60008135905061208081612c62565b92915050565b60008151905061209581612c62565b92915050565b6000815190506120aa81612c79565b92915050565b6000602082840312156120c6576120c56129eb565b5b60006120d484828501612008565b91505092915050565b6000602082840312156120f3576120f26129eb565b5b60006121018482850161201d565b91505092915050565b6000602082840312156121205761211f6129eb565b5b600061212e84828501612032565b91505092915050565b60006020828403121561214d5761214c6129eb565b5b600061215b84828501612047565b91505092915050565b60006020828403121561217a576121796129eb565b5b60006121888482850161205c565b91505092915050565b6000602082840312156121a7576121a66129eb565b5b60006121b584828501612071565b91505092915050565b6000602082840312156121d4576121d36129eb565b5b60006121e284828501612086565b91505092915050565b600060208284031215612201576122006129eb565b5b600061220f8482850161209b565b91505092915050565b6000612224838361223f565b60208301905092915050565b61223981612813565b82525050565b61224881612801565b82525050565b61225781612801565b82525050565b60006122688261273d565b6122728185612755565b935061227d8361272d565b8060005b838110156122ae5781516122958882612218565b97506122a083612748565b925050600181019050612281565b5085935050505092915050565b6122c481612825565b82525050565b6122d3816128a9565b82525050565b6122e2816128cd565b82525050565b6122f1816128f1565b82525050565b6000612304602983612766565b915061230f826129f0565b604082019050919050565b6000612327603183612766565b915061233282612a3f565b604082019050919050565b600061234a602683612766565b915061235582612a8e565b604082019050919050565b600061236d601083612766565b915061237882612add565b602082019050919050565b6000612390601e83612766565b915061239b82612b06565b602082019050919050565b60006123b3602283612766565b91506123be82612b2f565b604082019050919050565b60006123d6602083612766565b91506123e182612b7e565b602082019050919050565b60006123f9601183612766565b915061240482612ba7565b602082019050919050565b600061241c601383612766565b915061242782612bd0565b602082019050919050565b61243b81612856565b82525050565b61244a81612892565b82525050565b61245981612903565b82525050565b6000602082019050612474600083018461224e565b92915050565b600060208201905061248f6000830184612230565b92915050565b600060a0820190506124aa600083018861224e565b6124b7602083018761224e565b6124c46040830186612441565b6124d16060830185612441565b6124de6080830184612441565b9695505050505050565b60006080820190506124fd600083018761224e565b61250a6020830186612441565b6125176040830185612441565b6125246060830184612432565b95945050505050565b60006020820190508181036000830152612547818461225d565b905092915050565b600060208201905061256460008301846122bb565b92915050565b600060208201905061257f60008301846122ca565b92915050565b600060208201905061259a60008301846122d9565b92915050565b60006020820190506125b560008301846122e8565b92915050565b600060208201905081810360008301526125d4816122f7565b9050919050565b600060208201905081810360008301526125f48161231a565b9050919050565b600060208201905081810360008301526126148161233d565b9050919050565b6000602082019050818103600083015261263481612360565b9050919050565b6000602082019050818103600083015261265481612383565b9050919050565b60006020820190508181036000830152612674816123a6565b9050919050565b60006020820190508181036000830152612694816123c9565b9050919050565b600060208201905081810360008301526126b4816123ec565b9050919050565b600060208201905081810360008301526126d48161240f565b9050919050565b60006020820190506126f06000830184612441565b92915050565b600060608201905061270b6000830186612441565b6127186020830185612441565b6127256040830184612450565b949350505050565b6000819050602082019050919050565b600081519050919050565b6000602082019050919050565b600082825260208201905092915050565b600082825260208201905092915050565b600061278282612892565b915061278d83612892565b9250827fffffffffffffffffffffffffffffffffffffffffffffffffffffffffffffffff038211156127c2576127c161295e565b5b828201905092915050565b60006127d882612892565b91506127e383612892565b9250828210156127f6576127f561295e565b5b828203905092915050565b600061280c82612872565b9050919050565b600061281e82612872565b9050919050565b60008115159050919050565b600061283c82612813565b9050919050565b600081905061285182612bf9565b919050565b60006fffffffffffffffffffffffffffffffff82169050919050565b600073ffffffffffffffffffffffffffffffffffffffff82169050919050565b6000819050919050565b600060ff82169050919050565b60006128b4826128bb565b9050919050565b60006128c682612872565b9050919050565b60006128d8826128df565b9050919050565b60006128ea82612872565b9050919050565b60006128fc82612843565b9050919050565b600061290e8261289c565b9050919050565b600061292082612892565b91507fffffffffffffffffffffffffffffffffffffffffffffffffffffffffffffffff8214156129535761295261295e565b5b600182019050919050565b7f4e487b7100000000000000000000000000000000000000000000000000000000600052601160045260246000fd5b7f4e487b7100000000000000000000000000000000000000000000000000000000600052602160045260246000fd5b7f4e487b7100000000000000000000000000000000000000000000000000000000600052603260045260246000fd5b600080fd5b7f436f6e7472616374206e6f7420696e2046756e64696e67206f7220537563636560008201527f73732073746174652e0000000000000000000000000000000000000000000000602082015250565b7f52657175657374656420746f6b656e20616d6f756e742065786365656473207260008201527f656d61696e696e67206361706163697479000000000000000000000000000000602082015250565b7f4f776e61626c653a206e6577206f776e657220697320746865207a65726f206160008201527f6464726573730000000000000000000000000000000000000000000000000000602082015250565b7f676f616c206e6f74207265616368656400000000000000000000000000000000600082015250565b7f4c6f636b446174652063616e6e6f7420626520696e2074686520706173740000600082015250565b7f546f6b656e206f776e657220686173206e6f7420656e6f75676820746f6b656e60008201527f7321000000000000000000000000000000000000000000000000000000000000602082015250565b7f4f776e61626c653a2063616c6c6572206973206e6f7420746865206f776e6572600082015250565b7f616c72656164792066696e616c697a6564000000000000000000000000000000600082015250565b7f4e6f20726566756e6420617661696c61626c6500000000000000000000000000600082015250565b60078110612c0a57612c0961298d565b5b50565b612c1681612801565b8114612c2157600080fd5b50565b612c2d81612813565b8114612c3857600080fd5b50565b612c4481612831565b8114612c4f57600080fd5b50565b60078110612c5f57600080fd5b50565b612c6b81612892565b8114612c7657600080fd5b50565b612c828161289c565b8114612c8d57600080fd5b5056fea26469706673582212204ff777caa85d9209277f326775172bc580d0b363233e86a6a3643e48d046523764736f6c63430008060033",
  "immutableReferences": {},
  "source": "// SPDX-License-Identifier: UNLICENSED\npragma solidity ^0.8.6;\n\nimport \"@openzeppelin/contracts/utils/math/SafeMath.sol\";\n\nimport \"./CollectCoinIco.sol\";\nimport \"./Haltable.sol\";\nimport \"./IPricingStrategy.sol\";\n\ncontract CollectCoinIcoMock is ICollectCoinIco, CollectCoinIco {\n\n    using SafeMath for uint256;\n\n    address[] investorAddresses;\n    State private state;\n\n    constructor(uint _investorCount, \n        address _token, \n        IPricingStrategy _pricingStrategy,\n        address payable _multisigWallet, \n        uint _start, uint _end,\n        uint _minimumFundingGoal, uint _maxSellableTokens, uint256 _tokenInvestorCap,\n        uint256 _walletUnlockPeriod, uint256 _walletUnlockPercentage)\n        CollectCoinIco(_token, _pricingStrategy, _multisigWallet, _start, _end, _minimumFundingGoal, _maxSellableTokens, _tokenInvestorCap,\n                         _walletUnlockPeriod, _walletUnlockPercentage)\n    {\n        _addInvestors(_investorCount);\n        state = State.Funding;\n    }\n\n    function setState(State _state) public {\n        state = _state;\n    }\n\n    function _addInvestors(uint count) private {\n        address mockAddress = address(0);\n\n        uint i=0;\n        for(i=0; i<count; i++)\n        {\n            investorAddresses.push(mockAddress);\n        }\n\n        tokenAmountOf[mockAddress] = 100000000;\n    }\n\n    function addInvestors(uint count) public {\n        _addInvestors(count);\n    }\n\n    function removeInvestors(uint count) public {\n        uint i=0;\n        for(i=0; i<count; i++)\n        {\n            delete investorAddresses[investorAddresses.length-1];\n        }\n    }\n\n    function getAllInvestors() public override(ICollectCoinIco, CollectCoinIco) view returns (address[] memory)\n    {\n        return investorAddresses;\n    }\n\n    function getState() public override(ICollectCoinIco, CollectCoinIco) view returns (State) {\n        return state;\n    }\n}",
  "sourcePath": "/share/contracts/CollectCoinIcoMock.sol",
  "compiler": {
    "name": "solc",
    "version": "0.8.6+commit.11564f7e.Emscripten.clang"
  },
  "schemaVersion": "3.4.3",
  "updatedAt": "2021-10-15T08:27:02.775Z",
  "devdoc": {
    "kind": "dev",
    "methods": {
      "buyTokens(address)": {
        "details": "low level token purchase ***DO NOT OVERRIDE***",
        "params": {
          "_beneficiary": "Address performing the token purchase"
        }
      },
      "claimRefund(address)": {
        "details": "Investors can claim refunds here if crowdsale is unsuccessful.",
        "params": {
          "refundee": "Whose refund will be claimed."
        }
      },
      "finalize(uint256)": {
        "params": {
          "_walletLockDate": "The time from when the locking calculations for the investor's time locked tokens begin to count"
        }
      },
      "isMinimumGoalReached()": {
        "returns": {
          "reached": "== true if the crowdsale has raised enough money to be a successful."
        }
      },
      "owner()": {
        "details": "Returns the address of the current owner."
      },
      "renounceOwnership()": {
        "details": "Leaves the contract without owner. It will not be possible to call `onlyOwner` functions anymore. Can only be called by the current owner. NOTE: Renouncing ownership will leave the contract without an owner, thereby removing any functionality that is only available to the owner."
      },
      "transferOwnership(address)": {
        "details": "Transfers ownership of the contract to a new account (`newOwner`). Can only be called by the current owner."
      }
    },
    "version": 1
  },
  "userdoc": {
    "kind": "user",
    "methods": {
      "finalize(uint256)": {
        "notice": "Finalize a succcesful crowdsale. The owner can triggre a call the contract that provides post-crowdsale actions, like releasing the tokens."
      },
      "investedAmountOf(address)": {
        "notice": "How much ETH each address has invested to this crowdsale "
      },
      "isFull()": {
        "notice": "Check if the current crowdsale is full and we can no longer sell any tokens."
      },
      "setWalletFactory(address)": {
        "notice": "Allow to (re)set finalize agent. Design choice: no state restrictions on setting this, so that we can fix fat finger mistakes."
      },
      "tokenAmountOf(address)": {
        "notice": "How much tokens this crowdsale has credited for each investor address "
      }
    },
    "version": 1
  }
}