{
  "contractName": "ContractRegistry",
  "abi": [
    {
      "inputs": [],
      "stateMutability": "nonpayable",
      "type": "constructor"
    },
    {
      "inputs": [],
      "name": "icoAddress",
      "outputs": [
        {
          "internalType": "address",
          "name": "",
          "type": "address"
        }
      ],
      "stateMutability": "view",
      "type": "function",
      "constant": true
    },
    {
      "inputs": [],
      "name": "owner",
      "outputs": [
        {
          "internalType": "address",
          "name": "",
          "type": "address"
        }
      ],
      "stateMutability": "view",
      "type": "function",
      "constant": true
    },
    {
      "inputs": [
        {
          "internalType": "address",
          "name": "_address",
          "type": "address"
        }
      ],
      "name": "setIcoAddress",
      "outputs": [],
      "stateMutability": "nonpayable",
      "type": "function"
    }
  ],
  "bytecode": "0x608060405234801561001057600080fd5b50336000806101000a81548173ffffffffffffffffffffffffffffffffffffffff021916908373ffffffffffffffffffffffffffffffffffffffff16021790555061026b806100606000396000f3fe608060405234801561001057600080fd5b50600436106100415760003560e01c8063788ce6f2146100465780638da5cb5b14610064578063bd792db314610082575b600080fd5b61004e61009e565b60405161005b91906101d1565b60405180910390f35b61006c6100c4565b60405161007991906101d1565b60405180910390f35b61009c60048036038101906100979190610199565b6100e8565b005b600160009054906101000a900473ffffffffffffffffffffffffffffffffffffffff1681565b60008054906101000a900473ffffffffffffffffffffffffffffffffffffffff1681565b60008054906101000a900473ffffffffffffffffffffffffffffffffffffffff1673ffffffffffffffffffffffffffffffffffffffff163373ffffffffffffffffffffffffffffffffffffffff161461014057600080fd5b80600160006101000a81548173ffffffffffffffffffffffffffffffffffffffff021916908373ffffffffffffffffffffffffffffffffffffffff16021790555050565b6000813590506101938161021e565b92915050565b6000602082840312156101ab57600080fd5b60006101b984828501610184565b91505092915050565b6101cb816101ec565b82525050565b60006020820190506101e660008301846101c2565b92915050565b60006101f7826101fe565b9050919050565b600073ffffffffffffffffffffffffffffffffffffffff82169050919050565b610227816101ec565b811461023257600080fd5b5056fea2646970667358221220dee65092f6168fefa5bed84801b84d100755eb073dff8216209998f307323ad264736f6c63430008000033",
  "immutableReferences": {},
  "source": "// SPDX-License-Identifier: UNLICENSED\npragma solidity ^0.8.0;\n\n\ncontract ContractRegistry {\n\n    address public owner;\n    address public icoAddress;\n\n    modifier onlyOwner {\n        require(msg.sender == owner);\n        _;\n    }\n\n    constructor()\n    {\n        owner = msg.sender;\n    }\n\n    function setIcoAddress(address _address) public onlyOwner {\n        icoAddress = _address;\n    }\n}",
  "sourcePath": "/home/eule/Projects/ico-contracts/ethereum/ico/contracts/ContractRegistry.sol",
  "compiler": {
    "name": "solc",
    "version": "0.8.0+commit.c7dfd78e.Emscripten.clang"
  },
  "schemaVersion": "3.4.1",
  "updatedAt": "2021-08-16T13:16:52.109Z",
  "networkType": "ethereum",
  "devdoc": {
    "kind": "dev",
    "methods": {},
    "version": 1
  },
  "userdoc": {
    "kind": "user",
    "methods": {},
    "version": 1
  }
}