{
  "contractName": "DefaultFinalizeAgent",
  "abi": [
    {
      "inputs": [
        {
          "internalType": "contract CollectCoin",
          "name": "_token",
          "type": "address"
        },
        {
          "internalType": "contract CollectCoinIco",
          "name": "_icoContract",
          "type": "address"
        },
        {
          "internalType": "contract TimeLockedWalletFactory",
          "name": "_walletFactory",
          "type": "address"
        },
        {
          "internalType": "address",
          "name": "_tokenOwner",
          "type": "address"
        }
      ],
      "stateMutability": "nonpayable",
      "type": "constructor"
    },
    {
      "inputs": [],
      "name": "icoContract",
      "outputs": [
        {
          "internalType": "contract CollectCoinIco",
          "name": "",
          "type": "address"
        }
      ],
      "stateMutability": "view",
      "type": "function"
    },
    {
      "inputs": [],
      "name": "token",
      "outputs": [
        {
          "internalType": "contract CollectCoin",
          "name": "",
          "type": "address"
        }
      ],
      "stateMutability": "view",
      "type": "function"
    },
    {
      "inputs": [
        {
          "internalType": "uint256",
          "name": "",
          "type": "uint256"
        }
      ],
      "name": "wallets",
      "outputs": [
        {
          "internalType": "address",
          "name": "",
          "type": "address"
        }
      ],
      "stateMutability": "view",
      "type": "function"
    },
    {
      "inputs": [],
      "name": "isSane",
      "outputs": [
        {
          "internalType": "bool",
          "name": "",
          "type": "bool"
        }
      ],
      "stateMutability": "pure",
      "type": "function"
    },
    {
      "inputs": [
        {
          "internalType": "uint256",
          "name": "_lockDate",
          "type": "uint256"
        },
        {
          "internalType": "uint256",
          "name": "_unlockPeriod",
          "type": "uint256"
        },
        {
          "internalType": "uint256",
          "name": "_unlockPercentage",
          "type": "uint256"
        }
      ],
      "name": "finalizeIco",
      "outputs": [],
      "stateMutability": "nonpayable",
      "type": "function"
    },
    {
      "inputs": [],
      "name": "isFinalizeAgent",
      "outputs": [
        {
          "internalType": "bool",
          "name": "",
          "type": "bool"
        }
      ],
      "stateMutability": "pure",
      "type": "function"
    },
    {
      "inputs": [],
      "name": "getAllWallets",
      "outputs": [
        {
          "internalType": "address[]",
          "name": "",
          "type": "address[]"
        }
      ],
      "stateMutability": "view",
      "type": "function"
    }
  ],
  "bytecode": "0x60806040523480156200001157600080fd5b5060405162000ab238038062000ab28339818101604052810190620000379190620001a0565b836000806101000a81548173ffffffffffffffffffffffffffffffffffffffff021916908373ffffffffffffffffffffffffffffffffffffffff16021790555080600460006101000a81548173ffffffffffffffffffffffffffffffffffffffff021916908373ffffffffffffffffffffffffffffffffffffffff16021790555082600160006101000a81548173ffffffffffffffffffffffffffffffffffffffff021916908373ffffffffffffffffffffffffffffffffffffffff16021790555081600260006101000a81548173ffffffffffffffffffffffffffffffffffffffff021916908373ffffffffffffffffffffffffffffffffffffffff16021790555050505050620002f8565b600081519050620001558162000290565b92915050565b6000815190506200016c81620002aa565b92915050565b6000815190506200018381620002c4565b92915050565b6000815190506200019a81620002de565b92915050565b60008060008060808587031215620001b757600080fd5b6000620001c78782880162000172565b9450506020620001da878288016200015b565b9350506040620001ed8782880162000189565b9250506060620002008782880162000144565b91505092959194509250565b6000620002198262000270565b9050919050565b60006200022d8262000270565b9050919050565b6000620002418262000220565b9050919050565b600062000255826200020c565b9050919050565b6000620002698262000220565b9050919050565b600073ffffffffffffffffffffffffffffffffffffffff82169050919050565b6200029b816200020c565b8114620002a757600080fd5b50565b620002b58162000234565b8114620002c157600080fd5b50565b620002cf8162000248565b8114620002db57600080fd5b50565b620002e9816200025c565b8114620002f557600080fd5b50565b6107aa80620003086000396000f3fe608060405234801561001057600080fd5b506004361061007d5760003560e01c80637ad71f721161005b5780637ad71f72146100da57806382771c8e1461010a578063c66e409514610128578063fc0c546a146101465761007d565b80631bfa860114610082578063202e053c146100a0578063614cb904146100bc575b600080fd5b61008a610164565b604051610097919061060a565b60405180910390f35b6100ba60048036038101906100b5919061047d565b6101f2565b005b6100c4610366565b6040516100d1919061062c565b60405180910390f35b6100f460048036038101906100ef9190610454565b61036f565b604051610101919061059c565b60405180910390f35b6101126103ae565b60405161011f919061062c565b60405180910390f35b6101306103b7565b60405161013d9190610647565b60405180910390f35b61014e6103dd565b60405161015b9190610662565b60405180910390f35b606060038054806020026020016040519081016040528092919081815260200182805480156101e857602002820191906000526020600020905b8160009054906101000a900473ffffffffffffffffffffffffffffffffffffffff1673ffffffffffffffffffffffffffffffffffffffff168152602001906001019080831161019e575b5050505050905090565b600160009054906101000a9050506000600260009054906101000a900473ffffffffffffffffffffffffffffffffffffffff1673ffffffffffffffffffffffffffffffffffffffff1663c63340db600460009054906101000a900473ffffffffffffffffffffffffffffffffffffffff16600160009054906101000a900473ffffffffffffffffffffffffffffffffffffffff168787876040518663ffffffff1660e01b81526004016102a99594939291906105b7565b602060405180830381600087803b1580156102c357600080fd5b505af11580156102d7573d6000803e3d6000fd5b505050506040513d601f19601f820116820180604052508101906102fb919061042b565b90506003819080600181540180825580915050600190039060005260206000200160009091909190916101000a81548173ffffffffffffffffffffffffffffffffffffffff021916908373ffffffffffffffffffffffffffffffffffffffff16021790555050505050565b60006001905090565b6003818154811061037f57600080fd5b906000526020600020016000915054906101000a900473ffffffffffffffffffffffffffffffffffffffff1681565b60006001905090565b600160009054906101000a900473ffffffffffffffffffffffffffffffffffffffff1681565b60008054906101000a900473ffffffffffffffffffffffffffffffffffffffff1681565b60008151905061041081610746565b92915050565b6000813590506104258161075d565b92915050565b60006020828403121561043d57600080fd5b600061044b84828501610401565b91505092915050565b60006020828403121561046657600080fd5b600061047484828501610416565b91505092915050565b60008060006060848603121561049257600080fd5b60006104a086828701610416565b93505060206104b186828701610416565b92505060406104c286828701610416565b9150509250925092565b60006104d883836104e4565b60208301905092915050565b6104ed816106b6565b82525050565b6104fc816106b6565b82525050565b600061050d8261068d565b61051781856106a5565b93506105228361067d565b8060005b8381101561055357815161053a88826104cc565b975061054583610698565b925050600181019050610526565b5085935050505092915050565b610569816106c8565b82525050565b610578816106fe565b82525050565b61058781610722565b82525050565b610596816106f4565b82525050565b60006020820190506105b160008301846104f3565b92915050565b600060a0820190506105cc60008301886104f3565b6105d960208301876104f3565b6105e6604083018661058d565b6105f3606083018561058d565b610600608083018461058d565b9695505050505050565b600060208201905081810360008301526106248184610502565b905092915050565b60006020820190506106416000830184610560565b92915050565b600060208201905061065c600083018461056f565b92915050565b6000602082019050610677600083018461057e565b92915050565b6000819050602082019050919050565b600081519050919050565b6000602082019050919050565b600082825260208201905092915050565b60006106c1826106d4565b9050919050565b60008115159050919050565b600073ffffffffffffffffffffffffffffffffffffffff82169050919050565b6000819050919050565b600061070982610710565b9050919050565b600061071b826106d4565b9050919050565b600061072d82610734565b9050919050565b600061073f826106d4565b9050919050565b61074f816106b6565b811461075a57600080fd5b50565b610766816106f4565b811461077157600080fd5b5056fea26469706673582212203794c311b5f818d3bf28ab7da745117a5fb499d990c1ece5b9b9366a7315df4764736f6c63430008000033",
  "immutableReferences": {},
  "source": "// SPDX-License-Identifier: UNLICENSED\npragma solidity ^0.8.0;\n\nimport \"./CollectCoinIco.sol\";\nimport \"./TimeLockedWalletFactory.sol\";\n\ncontract DefaultFinalizeAgent is IFinalizeAgent \n{\n  CollectCoin public token;\n  CollectCoinIco public icoContract;\n  TimeLockedWalletFactory walletFactory;\n\n  address[] public wallets;\n  address tokenOwner;\n\n  uint fourMonths;\n  uint fourMinutes;\n  \n  constructor(CollectCoin _token, CollectCoinIco _icoContract, TimeLockedWalletFactory _walletFactory, address _tokenOwner)\n  {\n    token = _token;\n    tokenOwner = _tokenOwner;\n\n    icoContract = _icoContract;\n    walletFactory = _walletFactory;\n\n    // 24h * 30d * 4m\n    //fourMonths = 3600 * 24 * 30 * 4;\n  }\n\n  /** Check that we can release the token */\n  function isSane() override public pure returns (bool) {\n    //return (token.releaseAgent() == address(this));\n    return true;\n  }\n\n  /** Called once by ico if the sale was success. */\n  function finalizeIco(uint256 _lockDate, uint256 _unlockPeriod, uint256 _unlockPercentage) override public \n  {\n    // only the ICO itself can call the finalize function\n    if(msg.sender != address(icoContract)) {\n      //revert();\n    }\n\n    address wallet = walletFactory.newPeriodicTimeLockedMonoWallet(tokenOwner, address(icoContract), _lockDate, _unlockPeriod, _unlockPercentage);\n    wallets.push(wallet);\n    \n    // get the amount of tokens from the ICO\n    //uint256 tokenAmount = icoContract.tokensSold();\n    \n    // transfer the amount of tokens to the time locked wallet\n    //token.transfer(wallet, tokenAmount);\n  }\n\n  function isFinalizeAgent() override public pure returns(bool) \n  {\n    return true;\n  }\n\n  function getAllWallets() public view returns (address[] memory)\n  {\n    return wallets;\n  }\n}",
  "sourcePath": "/home/eule/Projects/monaco-market/ethereum/ico/contracts/DefaultFinalizeAgent.sol",
  "compiler": {
    "name": "solc",
    "version": "0.8.0+commit.c7dfd78e.Emscripten.clang"
  },
  "schemaVersion": "3.4.1",
  "updatedAt": "2021-09-03T20:52:46.077Z",
  "networkType": "ethereum",
  "devdoc": {
    "kind": "dev",
    "methods": {},
    "version": 1
  },
  "userdoc": {
    "kind": "user",
    "methods": {
      "finalizeIco(uint256,uint256,uint256)": {
        "notice": "Called once by ico if the sale was success. "
      },
      "isSane()": {
        "notice": "Check that we can release the token "
      }
    },
    "version": 1
  }
}