{
  "contractName": "FlatPricingStrategy",
  "abi": [
    {
      "inputs": [
        {
          "internalType": "address",
          "name": "_priceFeed",
          "type": "address"
        }
      ],
      "stateMutability": "nonpayable",
      "type": "constructor"
    },
    {
      "inputs": [],
      "name": "isPricingStrategy",
      "outputs": [
        {
          "internalType": "bool",
          "name": "",
          "type": "bool"
        }
      ],
      "stateMutability": "pure",
      "type": "function"
    },
    {
      "inputs": [],
      "name": "isSane",
      "outputs": [
        {
          "internalType": "bool",
          "name": "",
          "type": "bool"
        }
      ],
      "stateMutability": "pure",
      "type": "function"
    },
    {
      "inputs": [
        {
          "internalType": "uint256",
          "name": "totalTokensSold",
          "type": "uint256"
        }
      ],
      "name": "currentUnitPrice",
      "outputs": [
        {
          "internalType": "uint256",
          "name": "unitPrice",
          "type": "uint256"
        },
        {
          "internalType": "uint256",
          "name": "feedPrice",
          "type": "uint256"
        }
      ],
      "stateMutability": "view",
      "type": "function"
    },
    {
      "inputs": [
        {
          "internalType": "uint256",
          "name": "value",
          "type": "uint256"
        },
        {
          "internalType": "uint256",
          "name": "weiRaised",
          "type": "uint256"
        },
        {
          "internalType": "uint256",
          "name": "tokensSold",
          "type": "uint256"
        },
        {
          "internalType": "address",
          "name": "msgSender",
          "type": "address"
        },
        {
          "internalType": "uint256",
          "name": "decimals",
          "type": "uint256"
        }
      ],
      "name": "calculateTokenAmount",
      "outputs": [
        {
          "internalType": "uint256",
          "name": "tokenAmount",
          "type": "uint256"
        }
      ],
      "stateMutability": "view",
      "type": "function"
    }
  ],
  "bytecode": "0x608060405234801561001057600080fd5b506040516108bb3803806108bb8339818101604052810190610032919061008d565b806000806101000a81548173ffffffffffffffffffffffffffffffffffffffff021916908373ffffffffffffffffffffffffffffffffffffffff160217905550506100ff565b600081519050610087816100e8565b92915050565b60006020828403121561009f57600080fd5b60006100ad84828501610078565b91505092915050565b60006100c1826100c8565b9050919050565b600073ffffffffffffffffffffffffffffffffffffffff82169050919050565b6100f1816100b6565b81146100fc57600080fd5b50565b6107ad8061010e6000396000f3fe608060405234801561001057600080fd5b506004361061004c5760003560e01c806304bbc2551461005157806338c3a5651461006f57806382771c8e1461009f578063d3f5c15f146100bd575b600080fd5b6100596100ee565b60405161006691906103ed565b60405180910390f35b610089600480360381019061008491906102e1565b6100f7565b6040516100969190610408565b60405180910390f35b6100a7610145565b6040516100b491906103ed565b60405180910390f35b6100d760048036038101906100d291906102b8565b61014e565b6040516100e5929190610423565b60405180910390f35b60006001905090565b60008082600a61010791906104d0565b90506000806101158761014e565b915091508161012d848b61023990919063ffffffff16565b610137919061044c565b935050505095945050505050565b60006001905090565b60008060008060008060008060009054906101000a900473ffffffffffffffffffffffffffffffffffffffff1673ffffffffffffffffffffffffffffffffffffffff1663feaf968c6040518163ffffffff1660e01b815260040160a06040518083038186803b1580156101c057600080fd5b505afa1580156101d4573d6000803e3d6000fd5b505050506040513d601f19601f820116820180604052508101906101f89190610358565b945094509450945094508395506000622625a0905086670de0b6b3a76400008261022291906105ee565b61022c919061044c565b9750505050505050915091565b6000818361024791906105ee565b905092915050565b60008135905061025e8161071b565b92915050565b60008151905061027381610732565b92915050565b60008135905061028881610749565b92915050565b60008151905061029d81610749565b92915050565b6000815190506102b281610760565b92915050565b6000602082840312156102ca57600080fd5b60006102d884828501610279565b91505092915050565b600080600080600060a086880312156102f957600080fd5b600061030788828901610279565b955050602061031888828901610279565b945050604061032988828901610279565b935050606061033a8882890161024f565b925050608061034b88828901610279565b9150509295509295909350565b600080600080600060a0868803121561037057600080fd5b600061037e888289016102a3565b955050602061038f88828901610264565b94505060406103a08882890161028e565b93505060606103b18882890161028e565b92505060806103c2888289016102a3565b9150509295509295909350565b6103d88161065a565b82525050565b6103e781610690565b82525050565b600060208201905061040260008301846103cf565b92915050565b600060208201905061041d60008301846103de565b92915050565b600060408201905061043860008301856103de565b61044560208301846103de565b9392505050565b600061045782610690565b915061046283610690565b925082610472576104716106df565b5b828204905092915050565b6000808291508390505b60018511156104c7578086048111156104a3576104a26106b0565b5b60018516156104b25780820291505b80810290506104c08561070e565b9450610487565b94509492505050565b60006104db82610690565b91506104e683610690565b92506105137fffffffffffffffffffffffffffffffffffffffffffffffffffffffffffffffff848461051b565b905092915050565b60008261052b57600190506105e7565b8161053957600090506105e7565b816001811461054f576002811461055957610588565b60019150506105e7565b60ff84111561056b5761056a6106b0565b5b8360020a915084821115610582576105816106b0565b5b506105e7565b5060208310610133831016604e8410600b84101617156105bd5782820a9050838111156105b8576105b76106b0565b5b6105e7565b6105ca848484600161047d565b925090508184048111156105e1576105e06106b0565b5b81810290505b9392505050565b60006105f982610690565b915061060483610690565b9250817fffffffffffffffffffffffffffffffffffffffffffffffffffffffffffffffff048311821515161561063d5761063c6106b0565b5b828202905092915050565b600061065382610670565b9050919050565b60008115159050919050565b6000819050919050565b600073ffffffffffffffffffffffffffffffffffffffff82169050919050565b6000819050919050565b600069ffffffffffffffffffff82169050919050565b7f4e487b7100000000000000000000000000000000000000000000000000000000600052601160045260246000fd5b7f4e487b7100000000000000000000000000000000000000000000000000000000600052601260045260246000fd5b60008160011c9050919050565b61072481610648565b811461072f57600080fd5b50565b61073b81610666565b811461074657600080fd5b50565b61075281610690565b811461075d57600080fd5b50565b6107698161069a565b811461077457600080fd5b5056fea26469706673582212204fb359056364161201706de35383163808f79dc737bb1dbf481486a94c25301664736f6c63430008000033",
  "immutableReferences": {},
  "source": "// SPDX-License-Identifier: UNLICENSED\npragma solidity ^0.8.0;\n\nimport \"@openzeppelin/contracts/utils/math/SafeMath.sol\";\nimport \"@openzeppelin/contracts/access/Ownable.sol\";\nimport \"@chainlink/contracts/src/v0.6/interfaces/AggregatorV3Interface.sol\";\n\nimport \"./IPricingStrategy.sol\";\n\ncontract FlatPricingStrategy is IPricingStrategy \n{\n  using SafeMath for uint;\n\n  /* BNB/USD price feed */\n  AggregatorV3Interface internal priceFeed;\n\n  constructor(address _priceFeed)\n  {\n    priceFeed = AggregatorV3Interface(_priceFeed);\n  }\n\n\n  function isPricingStrategy() override public pure returns (bool) {\n    return true;\n  }\n\n  /** Self check if all references are correctly set.\n   *\n   * Checks that pricing strategy matches crowdsale parameters.\n   */\n  function isSane() override public pure returns (bool)\n  {\n    return true;\n  }\n\n  function currentUnitPrice(uint256 totalTokensSold) override public view returns (uint unitPrice, uint feedPrice)\n  {\n      (\n        uint80 roundID, \n        int price,\n        uint startedAt,\n        uint timeStamp,\n        uint80 answeredInRound\n      ) = priceFeed.latestRoundData();\n\n      // price is USD / BB with 8 digits\n      // e.g. 67234124522 == 672.34124522 USD for 1 BNB\n      feedPrice = uint(price);\n      uint256 usdPrice = 0.025 * 10 ** 8;\n      unitPrice = (usdPrice  * 10 ** 18) / feedPrice;\n\n      return (unitPrice, feedPrice);\n  }\n\n  /**\n   * When somebody tries to buy tokens for X eth, calculate how many tokens they get.\n   *\n   *\n   * @param value - What is the value of the transaction send in as wei\n   * @param tokensSold - how much tokens have been sold this far\n   * @param weiRaised - how much money has been raised this far in the main token sale - this number excludes presale\n   * @param msgSender - who is the investor of this transaction\n   * @param decimals - how many decimal units the token has\n   * @return tokenAmount - Amount of tokens the investor receives\n   */\n  function calculateTokenAmount(uint value, uint weiRaised, uint tokensSold, address msgSender, uint decimals) \n  override public view returns (uint tokenAmount)\n  {\n    uint multiplier = 10 ** decimals;\n    (uint unitPrice, uint feedPrice) = currentUnitPrice(tokensSold);\n\n    return value.mul(multiplier) / unitPrice;\n  }\n}\n",
  "sourcePath": "/home/eule/Projects/monaco-market/ethereum/ico/contracts/FlatPricingStrategy.sol",
  "compiler": {
    "name": "solc",
    "version": "0.8.0+commit.c7dfd78e.Emscripten.clang"
  },
  "schemaVersion": "3.4.1",
  "updatedAt": "2021-07-16T20:45:06.370Z",
  "devdoc": {
    "kind": "dev",
    "methods": {
      "calculateTokenAmount(uint256,uint256,uint256,address,uint256)": {
        "params": {
          "decimals": "- how many decimal units the token has",
          "msgSender": "- who is the investor of this transaction",
          "tokensSold": "- how much tokens have been sold this far",
          "value": "- What is the value of the transaction send in as wei",
          "weiRaised": "- how much money has been raised this far in the main token sale - this number excludes presale"
        },
        "returns": {
          "tokenAmount": "- Amount of tokens the investor receives"
        }
      }
    },
    "version": 1
  },
  "userdoc": {
    "kind": "user",
    "methods": {
      "calculateTokenAmount(uint256,uint256,uint256,address,uint256)": {
        "notice": "When somebody tries to buy tokens for X eth, calculate how many tokens they get."
      },
      "isPricingStrategy()": {
        "notice": "Interface declaration. "
      },
      "isSane()": {
        "notice": "Self check if all references are correctly set. Checks that pricing strategy matches crowdsale parameters."
      }
    },
    "version": 1
  }
}