{
  "contractName": "Haltable",
  "abi": [
    {
      "anonymous": false,
      "inputs": [
        {
          "indexed": true,
          "internalType": "address",
          "name": "previousOwner",
          "type": "address"
        },
        {
          "indexed": true,
          "internalType": "address",
          "name": "newOwner",
          "type": "address"
        }
      ],
      "name": "OwnershipTransferred",
      "type": "event"
    },
    {
      "inputs": [],
      "name": "halted",
      "outputs": [
        {
          "internalType": "bool",
          "name": "",
          "type": "bool"
        }
      ],
      "stateMutability": "view",
      "type": "function"
    },
    {
      "inputs": [],
      "name": "owner",
      "outputs": [
        {
          "internalType": "address",
          "name": "",
          "type": "address"
        }
      ],
      "stateMutability": "view",
      "type": "function"
    },
    {
      "inputs": [],
      "name": "renounceOwnership",
      "outputs": [],
      "stateMutability": "nonpayable",
      "type": "function"
    },
    {
      "inputs": [
        {
          "internalType": "address",
          "name": "newOwner",
          "type": "address"
        }
      ],
      "name": "transferOwnership",
      "outputs": [],
      "stateMutability": "nonpayable",
      "type": "function"
    },
    {
      "inputs": [],
      "name": "halt",
      "outputs": [],
      "stateMutability": "nonpayable",
      "type": "function"
    },
    {
      "inputs": [],
      "name": "unhalt",
      "outputs": [],
      "stateMutability": "nonpayable",
      "type": "function"
    }
  ],
  "bytecode": "0x608060405234801561001057600080fd5b5060006100216100c460201b60201c565b9050806000806101000a81548173ffffffffffffffffffffffffffffffffffffffff021916908373ffffffffffffffffffffffffffffffffffffffff1602179055508073ffffffffffffffffffffffffffffffffffffffff16600073ffffffffffffffffffffffffffffffffffffffff167f8be0079c531659141344cd1fd0a4f28419497f9722a3daafe3b4186f6b6457e060405160405180910390a3506100cc565b600033905090565b610762806100db6000396000f3fe608060405234801561001057600080fd5b50600436106100625760003560e01c80635ed7ca5b14610067578063715018a6146100715780638da5cb5b1461007b578063b9b8af0b14610099578063cb3e64fd146100b7578063f2fde38b146100c1575b600080fd5b61006f6100dd565b005b610079610176565b005b6100836102b0565b6040516100909190610650565b60405180910390f35b6100a16102d9565b6040516100ae919061066b565b60405180910390f35b6100bf6102ec565b005b6100db60048036038101906100d69190610563565b61039d565b005b6100e5610546565b73ffffffffffffffffffffffffffffffffffffffff166101036102b0565b73ffffffffffffffffffffffffffffffffffffffff1614610159576040517f08c379a0000000000000000000000000000000000000000000000000000000008152600401610150906106a6565b60405180910390fd5b6001600060146101000a81548160ff021916908315150217905550565b61017e610546565b73ffffffffffffffffffffffffffffffffffffffff1661019c6102b0565b73ffffffffffffffffffffffffffffffffffffffff16146101f2576040517f08c379a00000000000000000000000000000000000000000000000000000000081526004016101e9906106a6565b60405180910390fd5b600073ffffffffffffffffffffffffffffffffffffffff1660008054906101000a900473ffffffffffffffffffffffffffffffffffffffff1673ffffffffffffffffffffffffffffffffffffffff167f8be0079c531659141344cd1fd0a4f28419497f9722a3daafe3b4186f6b6457e060405160405180910390a360008060006101000a81548173ffffffffffffffffffffffffffffffffffffffff021916908373ffffffffffffffffffffffffffffffffffffffff160217905550565b60008060009054906101000a900473ffffffffffffffffffffffffffffffffffffffff16905090565b600060149054906101000a900460ff1681565b6102f4610546565b73ffffffffffffffffffffffffffffffffffffffff166103126102b0565b73ffffffffffffffffffffffffffffffffffffffff1614610368576040517f08c379a000000000000000000000000000000000000000000000000000000000815260040161035f906106a6565b60405180910390fd5b600060149054906101000a900460ff1661038157600080fd5b60008060146101000a81548160ff021916908315150217905550565b6103a5610546565b73ffffffffffffffffffffffffffffffffffffffff166103c36102b0565b73ffffffffffffffffffffffffffffffffffffffff1614610419576040517f08c379a0000000000000000000000000000000000000000000000000000000008152600401610410906106a6565b60405180910390fd5b600073ffffffffffffffffffffffffffffffffffffffff168173ffffffffffffffffffffffffffffffffffffffff161415610489576040517f08c379a000000000000000000000000000000000000000000000000000000000815260040161048090610686565b60405180910390fd5b8073ffffffffffffffffffffffffffffffffffffffff1660008054906101000a900473ffffffffffffffffffffffffffffffffffffffff1673ffffffffffffffffffffffffffffffffffffffff167f8be0079c531659141344cd1fd0a4f28419497f9722a3daafe3b4186f6b6457e060405160405180910390a3806000806101000a81548173ffffffffffffffffffffffffffffffffffffffff021916908373ffffffffffffffffffffffffffffffffffffffff16021790555050565b600033905090565b60008135905061055d81610715565b92915050565b60006020828403121561057557600080fd5b60006105838482850161054e565b91505092915050565b610595816106d7565b82525050565b6105a4816106e9565b82525050565b60006105b76026836106c6565b91507f4f776e61626c653a206e6577206f776e657220697320746865207a65726f206160008301527f64647265737300000000000000000000000000000000000000000000000000006020830152604082019050919050565b600061061d6020836106c6565b91507f4f776e61626c653a2063616c6c6572206973206e6f7420746865206f776e65726000830152602082019050919050565b6000602082019050610665600083018461058c565b92915050565b6000602082019050610680600083018461059b565b92915050565b6000602082019050818103600083015261069f816105aa565b9050919050565b600060208201905081810360008301526106bf81610610565b9050919050565b600082825260208201905092915050565b60006106e2826106f5565b9050919050565b60008115159050919050565b600073ffffffffffffffffffffffffffffffffffffffff82169050919050565b61071e816106d7565b811461072957600080fd5b5056fea2646970667358221220d18939ca17e1eff3731c2edc2d847eff09a2c7e700b92804a2abe32abc2dd10e64736f6c63430008000033",
  "immutableReferences": {},
  "source": "// SPDX-License-Identifier: UNLICENSED\npragma solidity ^0.8.0;\n\nimport \"@openzeppelin/contracts/access/Ownable.sol\";\n\n/*\n * Haltable\n *\n * Abstract contract that allows children to implement an\n * emergency stop mechanism. Differs from Pausable by causing a throw when in halt mode.\n *\n *\n * Originally envisioned in FirstBlood ICO contract.\n */\ncontract Haltable is Ownable {\n  bool public halted;\n\n  modifier stopInEmergency {\n    if (halted) revert();\n    _;\n  }\n\n  modifier stopNonOwnersInEmergency {\n    if (halted && msg.sender != owner()) revert();\n    _;\n  }\n\n  modifier onlyInEmergency {\n    if (!halted) revert();\n    _;\n  }\n\n  // called by the owner on emergency, triggers stopped state\n  function halt() external onlyOwner {\n    halted = true;\n  }\n\n  // called by the owner on end of emergency, returns to normal state\n  function unhalt() external onlyOwner onlyInEmergency {\n    halted = false;\n  }\n\n}\n",
  "sourcePath": "/home/eule/Projects/ico-contracts/ethereum/ico/contracts/Haltable.sol",
  "compiler": {
    "name": "solc",
    "version": "0.8.0+commit.c7dfd78e.Emscripten.clang"
  },
  "schemaVersion": "3.4.1",
  "updatedAt": "2021-08-16T12:51:23.787Z",
  "devdoc": {
    "kind": "dev",
    "methods": {
      "owner()": {
        "details": "Returns the address of the current owner."
      },
      "renounceOwnership()": {
        "details": "Leaves the contract without owner. It will not be possible to call `onlyOwner` functions anymore. Can only be called by the current owner. NOTE: Renouncing ownership will leave the contract without an owner, thereby removing any functionality that is only available to the owner."
      },
      "transferOwnership(address)": {
        "details": "Transfers ownership of the contract to a new account (`newOwner`). Can only be called by the current owner."
      }
    },
    "version": 1
  },
  "userdoc": {
    "kind": "user",
    "methods": {},
    "version": 1
  }
}