{
  "contractName": "MilestonePricingStrategy",
  "abi": [
    {
      "inputs": [
        {
          "internalType": "address",
          "name": "_priceFeed",
          "type": "address"
        }
      ],
      "stateMutability": "nonpayable",
      "type": "constructor"
    },
    {
      "anonymous": false,
      "inputs": [
        {
          "indexed": true,
          "internalType": "address",
          "name": "previousOwner",
          "type": "address"
        },
        {
          "indexed": true,
          "internalType": "address",
          "name": "newOwner",
          "type": "address"
        }
      ],
      "name": "OwnershipTransferred",
      "type": "event"
    },
    {
      "inputs": [],
      "name": "milestoneCount",
      "outputs": [
        {
          "internalType": "uint256",
          "name": "",
          "type": "uint256"
        }
      ],
      "stateMutability": "view",
      "type": "function"
    },
    {
      "inputs": [
        {
          "internalType": "uint256",
          "name": "",
          "type": "uint256"
        }
      ],
      "name": "milestones",
      "outputs": [
        {
          "internalType": "uint256",
          "name": "soldTokenCount",
          "type": "uint256"
        },
        {
          "internalType": "uint256",
          "name": "price",
          "type": "uint256"
        }
      ],
      "stateMutability": "view",
      "type": "function"
    },
    {
      "inputs": [],
      "name": "owner",
      "outputs": [
        {
          "internalType": "address",
          "name": "",
          "type": "address"
        }
      ],
      "stateMutability": "view",
      "type": "function"
    },
    {
      "inputs": [],
      "name": "renounceOwnership",
      "outputs": [],
      "stateMutability": "nonpayable",
      "type": "function"
    },
    {
      "inputs": [
        {
          "internalType": "address",
          "name": "newOwner",
          "type": "address"
        }
      ],
      "name": "transferOwnership",
      "outputs": [],
      "stateMutability": "nonpayable",
      "type": "function"
    },
    {
      "inputs": [
        {
          "internalType": "uint256",
          "name": "n",
          "type": "uint256"
        }
      ],
      "name": "getMilestone",
      "outputs": [
        {
          "internalType": "uint256",
          "name": "soldTokenCount",
          "type": "uint256"
        },
        {
          "internalType": "uint256",
          "name": "price",
          "type": "uint256"
        }
      ],
      "stateMutability": "view",
      "type": "function"
    },
    {
      "inputs": [],
      "name": "getAllMilestones",
      "outputs": [
        {
          "components": [
            {
              "internalType": "uint256",
              "name": "soldTokenCount",
              "type": "uint256"
            },
            {
              "internalType": "uint256",
              "name": "price",
              "type": "uint256"
            }
          ],
          "internalType": "struct MilestonePricingStrategy.Milestone[4]",
          "name": "",
          "type": "tuple[4]"
        }
      ],
      "stateMutability": "view",
      "type": "function"
    },
    {
      "inputs": [],
      "name": "isPricingStrategy",
      "outputs": [
        {
          "internalType": "bool",
          "name": "",
          "type": "bool"
        }
      ],
      "stateMutability": "pure",
      "type": "function"
    },
    {
      "inputs": [],
      "name": "isSane",
      "outputs": [
        {
          "internalType": "bool",
          "name": "",
          "type": "bool"
        }
      ],
      "stateMutability": "pure",
      "type": "function"
    },
    {
      "inputs": [
        {
          "internalType": "uint256",
          "name": "totalTokensSold",
          "type": "uint256"
        }
      ],
      "name": "currentUnitPrice",
      "outputs": [
        {
          "internalType": "uint256",
          "name": "unitPrice",
          "type": "uint256"
        },
        {
          "internalType": "uint256",
          "name": "feedPrice",
          "type": "uint256"
        }
      ],
      "stateMutability": "view",
      "type": "function"
    },
    {
      "inputs": [
        {
          "internalType": "uint256",
          "name": "value",
          "type": "uint256"
        },
        {
          "internalType": "uint256",
          "name": "weiRaised",
          "type": "uint256"
        },
        {
          "internalType": "uint256",
          "name": "tokensSold",
          "type": "uint256"
        },
        {
          "internalType": "address",
          "name": "msgSender",
          "type": "address"
        },
        {
          "internalType": "uint256",
          "name": "decimals",
          "type": "uint256"
        }
      ],
      "name": "calculateTokenAmount",
      "outputs": [
        {
          "internalType": "uint256",
          "name": "tokenAmount",
          "type": "uint256"
        }
      ],
      "stateMutability": "view",
      "type": "function"
    },
    {
      "inputs": [
        {
          "internalType": "uint256",
          "name": "tokenAmount",
          "type": "uint256"
        },
        {
          "internalType": "uint256",
          "name": "tokensSold",
          "type": "uint256"
        },
        {
          "internalType": "uint256",
          "name": "decimals",
          "type": "uint256"
        }
      ],
      "name": "calculatePriceForTokenAmount",
      "outputs": [
        {
          "internalType": "uint256",
          "name": "totalPrice",
          "type": "uint256"
        },
        {
          "internalType": "uint256",
          "name": "avgPrice",
          "type": "uint256"
        }
      ],
      "stateMutability": "view",
      "type": "function"
    },
    {
      "inputs": [
        {
          "internalType": "uint256",
          "name": "tokensSold",
          "type": "uint256"
        }
      ],
      "name": "getCurrentPrice",
      "outputs": [
        {
          "internalType": "uint256",
          "name": "unitPrice",
          "type": "uint256"
        },
        {
          "internalType": "uint256",
          "name": "feedPrice",
          "type": "uint256"
        }
      ],
      "stateMutability": "view",
      "type": "function"
    }
  ],
  "bytecode": "0x60806040523480156200001157600080fd5b50604051620019de380380620019de8339818101604052810190620000379190620002ce565b620000576200004b620001eb60201b60201c565b620001f360201b60201c565b80600160006101000a81548173ffffffffffffffffffffffffffffffffffffffff021916908373ffffffffffffffffffffffffffffffffffffffff16021790555060006002600060048110620000b257620000b162000334565b5b6002020160000181905550624c4b406002600060048110620000d957620000d862000334565b5b60020201600101819055506a0422ca8b0a00a425000000600260016004811062000108576200010762000334565b5b600202016000018190555062632ea060026001600481106200012f576200012e62000334565b5b60020201600101819055506a084595161401484a000000600280600481106200015d576200015c62000334565b5b6002020160000181905550627270e06002806004811062000183576200018262000334565b5b60020201600101819055506a0c685fa11e01ec6f0000006002600360048110620001b257620001b162000334565b5b6002020160000181905550627a12006002600360048110620001d957620001d862000334565b5b60020201600101819055505062000382565b600033905090565b60008060009054906101000a900473ffffffffffffffffffffffffffffffffffffffff169050816000806101000a81548173ffffffffffffffffffffffffffffffffffffffff021916908373ffffffffffffffffffffffffffffffffffffffff1602179055508173ffffffffffffffffffffffffffffffffffffffff168173ffffffffffffffffffffffffffffffffffffffff167f8be0079c531659141344cd1fd0a4f28419497f9722a3daafe3b4186f6b6457e060405160405180910390a35050565b600081519050620002c88162000368565b92915050565b600060208284031215620002e757620002e662000363565b5b6000620002f784828501620002b7565b91505092915050565b60006200030d8262000314565b9050919050565b600073ffffffffffffffffffffffffffffffffffffffff82169050919050565b7f4e487b7100000000000000000000000000000000000000000000000000000000600052603260045260246000fd5b600080fd5b620003738162000300565b81146200037f57600080fd5b50565b61164c80620003926000396000f3fe608060405234801561001057600080fd5b50600436106100cf5760003560e01c806382771c8e1161008c578063d3f5c15f11610066578063d3f5c15f14610206578063e6a7e30814610237578063e89e4ed614610268578063f2fde38b14610299576100cf565b806382771c8e146101995780638da5cb5b146101b7578063c55d0f56146101d5576100cf565b806304bbc255146100d45780630681ca55146100f25780632442e1cb1461011057806338c3a565146101415780635c43dd9914610171578063715018a61461018f575b600080fd5b6100dc6102b5565b6040516100e99190611046565b60405180910390f35b6100fa6102be565b60405161010791906110c1565b60405180910390f35b61012a60048036038101906101259190610d56565b6102c4565b6040516101389291906110dc565b60405180910390f35b61015b60048036038101906101569190610dd6565b610308565b60405161016891906110c1565b60405180910390f35b6101796104ec565b604051610186919061102a565b60405180910390f35b610197610552565b005b6101a16105da565b6040516101ae9190611046565b60405180910390f35b6101bf6105e3565b6040516101cc919061100f565b60405180910390f35b6101ef60048036038101906101ea9190610d56565b61060c565b6040516101fd9291906110dc565b60405180910390f35b610220600480360381019061021b9190610d56565b6106fa565b60405161022e9291906110dc565b60405180910390f35b610251600480360381019061024c9190610d83565b61070f565b60405161025f9291906110dc565b60405180910390f35b610282600480360381019061027d9190610d56565b6108dd565b6040516102909291906110dc565b60405180910390f35b6102b360048036038101906102ae9190610d29565b610907565b005b60006001905090565b600a5481565b600080600283600481106102db576102da6114d8565b5b60020201600001549150600283600481106102f9576102f86114d8565b5b60020201600101549050915091565b60008086905060009150600061031c6109ff565b90506000805b60048110156104de576000600460018361033c9190611143565b14905060008488600a61034f919061121d565b60028560048110610363576103626114d8565b5b6002020160010154610375919061133b565b61037f9190611199565b9050816103b35760026001846103959190611143565b600481106103a6576103a56114d8565b5b60020201600001546103e2565b898189600a6103c2919061121d565b886103cd919061133b565b6103d79190611199565b6103e19190611143565b5b9350838a10156104b557600082610404578a856103ff9190611395565b610428565b8189600a610412919061121d565b8861041d919061133b565b6104279190611199565b5b90506000828a600a61043a919061121d565b89610445919061133b565b61044f9190611199565b90506000828210156104615781610463565b825b9050808a6104719190611143565b99508a600a610480919061121d565b848261048c919061133b565b6104969190611199565b896104a19190611395565b9850808d6104af9190611143565b9c505050505b60008614156104c9575050505050506104e3565b505080806104d690611431565b915050610322565b505050505b95945050505050565b6104f4610c79565b6002600480602002604051908101604052809291906000905b8282101561054957838260020201604051806040016040529081600082015481526020016001820154815250508152602001906001019061050d565b50505050905090565b61055a610aaf565b73ffffffffffffffffffffffffffffffffffffffff166105786105e3565b73ffffffffffffffffffffffffffffffffffffffff16146105ce576040517f08c379a00000000000000000000000000000000000000000000000000000000081526004016105c5906110a1565b60405180910390fd5b6105d86000610ab7565b565b60006001905090565b60008060009054906101000a900473ffffffffffffffffffffffffffffffffffffffff16905090565b6000806000600160009054906101000a900473ffffffffffffffffffffffffffffffffffffffff1673ffffffffffffffffffffffffffffffffffffffff1663feaf968c6040518163ffffffff1660e01b815260040160a06040518083038186803b15801561067957600080fd5b505afa15801561068d573d6000803e3d6000fd5b505050506040513d601f19601f820116820180604052508101906106b19190610e51565b50505091505060006106c285610b7b565b50905081925060008160200151905083670de0b6b3a7640000826106e6919061133b565b6106f09190611199565b9450505050915091565b6000806107068361060c565b91509150915091565b600080600091506000806107216109ff565b905060008092505b600483101561088e57600060046001856107439190611143565b1490508061077857600260018561075a9190611143565b6004811061076b5761076a6114d8565b5b6002020160000154610791565b600189896107869190611143565b6107909190611143565b5b915081881015610861576000816107b35788836107ae9190611395565b6107b5565b895b905060008190508a8211156107c8578a90505b6000858a600a6107d8919061121d565b600289600481106107ec576107eb6114d8565b5b60020201600101546107fe919061133b565b6108089190611199565b905089600a610817919061121d565b61082a8284610c6390919063ffffffff16565b6108349190611199565b8961083f9190611143565b9850818c61084d9190611395565b9b50818b61085b9190611143565b9a505050505b600089141561087a5785600095509550505050506108d5565b50828061088690611431565b935050610729565b600088146108d1576040517f08c379a00000000000000000000000000000000000000000000000000000000081526004016108c890611081565b60405180910390fd5b5050505b935093915050565b600281600481106108ed57600080fd5b600202016000915090508060000154908060010154905082565b61090f610aaf565b73ffffffffffffffffffffffffffffffffffffffff1661092d6105e3565b73ffffffffffffffffffffffffffffffffffffffff1614610983576040517f08c379a000000000000000000000000000000000000000000000000000000000815260040161097a906110a1565b60405180910390fd5b600073ffffffffffffffffffffffffffffffffffffffff168173ffffffffffffffffffffffffffffffffffffffff1614156109f3576040517f08c379a00000000000000000000000000000000000000000000000000000000081526004016109ea90611061565b60405180910390fd5b6109fc81610ab7565b50565b600080600160009054906101000a900473ffffffffffffffffffffffffffffffffffffffff1673ffffffffffffffffffffffffffffffffffffffff1663feaf968c6040518163ffffffff1660e01b815260040160a06040518083038186803b158015610a6a57600080fd5b505afa158015610a7e573d6000803e3d6000fd5b505050506040513d601f19601f82011682018060405250810190610aa29190610e51565b5050509150508091505090565b600033905090565b60008060009054906101000a900473ffffffffffffffffffffffffffffffffffffffff169050816000806101000a81548173ffffffffffffffffffffffffffffffffffffffff021916908373ffffffffffffffffffffffffffffffffffffffff1602179055508173ffffffffffffffffffffffffffffffffffffffff168173ffffffffffffffffffffffffffffffffffffffff167f8be0079c531659141344cd1fd0a4f28419497f9722a3daafe3b4186f6b6457e060405160405180910390a35050565b610b83610ca6565b600080600090505b6004811015610c1b5760028160048110610ba857610ba76114d8565b5b6002020160000154841015610c08576002600182610bc69190611395565b60048110610bd757610bd66114d8565b5b6002020181816040518060400160405290816000820154815260200160018201548152505091509250925050610c5e565b8080610c1390611431565b915050610b8b565b6002600060048110610c3057610c2f6114d8565b5b6002020160008160405180604001604052908160008201548152602001600182015481525050915092509250505b915091565b60008183610c71919061133b565b905092915050565b60405180608001604052806004905b610c90610ca6565b815260200190600190039081610c885790505090565b604051806040016040528060008152602001600081525090565b600081359050610ccf816115ba565b92915050565b600081519050610ce4816115d1565b92915050565b600081359050610cf9816115e8565b92915050565b600081519050610d0e816115e8565b92915050565b600081519050610d23816115ff565b92915050565b600060208284031215610d3f57610d3e611507565b5b6000610d4d84828501610cc0565b91505092915050565b600060208284031215610d6c57610d6b611507565b5b6000610d7a84828501610cea565b91505092915050565b600080600060608486031215610d9c57610d9b611507565b5b6000610daa86828701610cea565b9350506020610dbb86828701610cea565b9250506040610dcc86828701610cea565b9150509250925092565b600080600080600060a08688031215610df257610df1611507565b5b6000610e0088828901610cea565b9550506020610e1188828901610cea565b9450506040610e2288828901610cea565b9350506060610e3388828901610cc0565b9250506080610e4488828901610cea565b9150509295509295909350565b600080600080600060a08688031215610e6d57610e6c611507565b5b6000610e7b88828901610d14565b9550506020610e8c88828901610cd5565b9450506040610e9d88828901610cff565b9350506060610eae88828901610cff565b9250506080610ebf88828901610d14565b9150509295509295909350565b6000610ed88383610fc2565b60408301905092915050565b610eed816113c9565b82525050565b610efc8161110f565b610f068184611127565b9250610f1182611105565b8060005b83811015610f42578151610f298782610ecc565b9650610f348361111a565b925050600181019050610f15565b505050505050565b610f53816113db565b82525050565b6000610f66602683611132565b9150610f7182611519565b604082019050919050565b6000610f89601883611132565b9150610f9482611568565b602082019050919050565b6000610fac602083611132565b9150610fb782611591565b602082019050919050565b604082016000820151610fd86000850182610ff1565b506020820151610feb6020850182610ff1565b50505050565b610ffa81611411565b82525050565b61100981611411565b82525050565b60006020820190506110246000830184610ee4565b92915050565b6000610100820190506110406000830184610ef3565b92915050565b600060208201905061105b6000830184610f4a565b92915050565b6000602082019050818103600083015261107a81610f59565b9050919050565b6000602082019050818103600083015261109a81610f7c565b9050919050565b600060208201905081810360008301526110ba81610f9f565b9050919050565b60006020820190506110d66000830184611000565b92915050565b60006040820190506110f16000830185611000565b6110fe6020830184611000565b9392505050565b6000819050919050565b600060049050919050565b6000602082019050919050565b600081905092915050565b600082825260208201905092915050565b600061114e82611411565b915061115983611411565b9250827fffffffffffffffffffffffffffffffffffffffffffffffffffffffffffffffff0382111561118e5761118d61147a565b5b828201905092915050565b60006111a482611411565b91506111af83611411565b9250826111bf576111be6114a9565b5b828204905092915050565b6000808291508390505b6001851115611214578086048111156111f0576111ef61147a565b5b60018516156111ff5780820291505b808102905061120d8561150c565b94506111d4565b94509492505050565b600061122882611411565b915061123383611411565b92506112607fffffffffffffffffffffffffffffffffffffffffffffffffffffffffffffffff8484611268565b905092915050565b6000826112785760019050611334565b816112865760009050611334565b816001811461129c57600281146112a6576112d5565b6001915050611334565b60ff8411156112b8576112b761147a565b5b8360020a9150848211156112cf576112ce61147a565b5b50611334565b5060208310610133831016604e8410600b841016171561130a5782820a9050838111156113055761130461147a565b5b611334565b61131784848460016111ca565b9250905081840481111561132e5761132d61147a565b5b81810290505b9392505050565b600061134682611411565b915061135183611411565b9250817fffffffffffffffffffffffffffffffffffffffffffffffffffffffffffffffff048311821515161561138a5761138961147a565b5b828202905092915050565b60006113a082611411565b91506113ab83611411565b9250828210156113be576113bd61147a565b5b828203905092915050565b60006113d4826113f1565b9050919050565b60008115159050919050565b6000819050919050565b600073ffffffffffffffffffffffffffffffffffffffff82169050919050565b6000819050919050565b600069ffffffffffffffffffff82169050919050565b600061143c82611411565b91507fffffffffffffffffffffffffffffffffffffffffffffffffffffffffffffffff82141561146f5761146e61147a565b5b600182019050919050565b7f4e487b7100000000000000000000000000000000000000000000000000000000600052601160045260246000fd5b7f4e487b7100000000000000000000000000000000000000000000000000000000600052601260045260246000fd5b7f4e487b7100000000000000000000000000000000000000000000000000000000600052603260045260246000fd5b600080fd5b60008160011c9050919050565b7f4f776e61626c653a206e6577206f776e657220697320746865207a65726f206160008201527f6464726573730000000000000000000000000000000000000000000000000000602082015250565b7f636f756c646e27742073656c6c20616c6c20746f6b656e730000000000000000600082015250565b7f4f776e61626c653a2063616c6c6572206973206e6f7420746865206f776e6572600082015250565b6115c3816113c9565b81146115ce57600080fd5b50565b6115da816113e7565b81146115e557600080fd5b50565b6115f181611411565b81146115fc57600080fd5b50565b6116088161141b565b811461161357600080fd5b5056fea26469706673582212207b935360d080b4bb0470de7a7be5951e95a767fd0a455caaf632c60a27cd29a264736f6c63430008060033",
  "immutableReferences": {},
  "source": "// SPDX-License-Identifier: UNLICENSED\npragma solidity ^0.8.6;\n\nimport \"@openzeppelin/contracts/utils/math/SafeMath.sol\";\nimport \"@openzeppelin/contracts/access/Ownable.sol\";\nimport \"@chainlink/contracts/src/v0.6/interfaces/AggregatorV3Interface.sol\";\n\nimport \"./IPricingStrategy.sol\";\nimport \"./CollectCoinIco.sol\";\n\ncontract MilestonePricingStrategy is IPricingStrategy, Ownable \n{\n  using SafeMath for uint;\n\n  /* BNB/USD price feed */\n  AggregatorV3Interface internal priceFeed;\n\n  /**\n  * Define pricing schedule using milestones.\n  */\n  struct Milestone {\n\n      // number of CLCT tokens solds when this milestone kicks in\n      uint soldTokenCount;\n\n      // How many tokens per wei you will get after this milestone has been passed\n      uint price;\n  }\n\n  // Store milestones in a fixed array, so that it can be seen in a blockchain explorer\n  Milestone[4] public milestones;\n\n  // How many active milestones we have\n  uint public milestoneCount;\n\n  constructor(address _priceFeed)\n  {\n    priceFeed = AggregatorV3Interface(_priceFeed);\n\n    milestones[0].soldTokenCount = 0;\n    milestones[0].price = 0.05 * 10 ** 8;\n\n    milestones[1].soldTokenCount = 5000000 * 10**18;\n    milestones[1].price = 0.065 * 10 ** 8;\n\n    milestones[2].soldTokenCount = 10000000 * 10**18;\n    milestones[2].price = 0.075 * 10 ** 8;\n\n    milestones[3].soldTokenCount = 15000000 * 10**18;\n    milestones[3].price = 0.08 * 10 ** 8;\n  }\n\n  /// @dev Iterate through milestones. You reach end of milestones when price = 0\n  /// @return soldTokenCount\n  /// @return price\n  function getMilestone(uint n) public view returns (uint soldTokenCount, uint price) {\n    soldTokenCount = milestones[n].soldTokenCount;\n    price = milestones[n].price;\n    //return (milestones[n].soldTokenCount, milestones[n].price);\n  }\n\n  function getAllMilestones() public view returns (Milestone[4] memory)\n    {\n        return milestones;\n    }\n\n  function isPricingStrategy() override public pure returns (bool) {\n    return true;\n  }\n\n  /** Self check if all references are correctly set.\n   *\n   * Checks that pricing strategy matches crowdsale parameters.\n   */\n  function isSane() override public pure returns (bool)\n  {\n    return true;\n  }\n\n  function currentUnitPrice(uint256 totalTokensSold) override public view returns (uint unitPrice, uint feedPrice)\n  {\n    return getCurrentPrice(totalTokensSold);\n  }\n\n  /**\n   * When somebody tries to buy tokens for X eth, calculate how many tokens they get.\n   *\n   *\n   * @param value - What is the value of the transaction send in as wei\n   * @param tokensSold - how much tokens have been sold this far\n   * @param weiRaised - how much money has been raised this far in the main token sale - this number excludes presale\n   * @param msgSender - who is the investor of this transaction\n   * @param decimals - how many decimal units the token has\n   * @return tokenAmount - Amount of tokens the investor receives\n   */\n  function calculateTokenAmount(uint value, uint weiRaised, uint tokensSold, address msgSender, uint decimals) override public view returns (uint tokenAmount)\n  {\n    uint availableWei = value;\n    tokenAmount = 0;\n\n    uint feedPrice = getPriceFromFeed(); // USD / BNB (* 10**8)\n    \n    // save the amount of tokens from the previous milestones for the loop\n    uint currentCapacity = 0;\n\n    uint i;\n    for(i=0; i<milestones.length; i++) {\n      bool isLastMilestone = i+1 == milestones.length;\n      uint unitPriceBnbWei = (milestones[i].price * 10**decimals) / uint(feedPrice);\n      \n      // the current milestones token capacity: if it's the last milestone, there are as many tokens as the sent wei can buy\n      currentCapacity = isLastMilestone ? (availableWei * 10**decimals / unitPriceBnbWei) + tokensSold : milestones[i+1].soldTokenCount;\n\n      // if this milestone hasn't been sold out yet, we start selling tokens from here\n      if(tokensSold < currentCapacity) \n      {\n        // get the remaining token count for this level\n        uint availableTokensInMilestone = isLastMilestone ? (availableWei * 10**decimals / unitPriceBnbWei) : currentCapacity - tokensSold;\n\n        // calculate the price for this level\n        //uint tokenPriceWei = (milestones[i].price * 10**decimals) / feedPrice;\n        uint maxBuyableTokens = availableWei * 10**decimals / unitPriceBnbWei;\n        //return maxBuyableTokens;\n\n        uint buyableTokens = maxBuyableTokens >= availableTokensInMilestone ? availableTokensInMilestone : maxBuyableTokens;\n\n        // reduce the tokenAmount by the available tokens of this milestone\n        tokenAmount = tokenAmount + buyableTokens;\n\n        availableWei = availableWei - (buyableTokens * unitPriceBnbWei) / 10**decimals;\n\n        // increase tokensSold by the amount of tokens just \"sold\"\n        tokensSold = tokensSold + buyableTokens;\n      }\n\n      // if all wei has been spent, return the token amount\n      if(availableWei == 0) {\n        return tokenAmount;\n      }\n    }\n\n    return tokenAmount;\n  }\n\n  /// @dev Gets the prices for a specific amount of tokens: total and average\n  function calculatePriceForTokenAmount(uint tokenAmount, uint tokensSold, uint decimals) public view returns (uint totalPrice, uint avgPrice) {\n    totalPrice = 0;\n\n    uint i;\n\n    uint feedPrice = getPriceFromFeed(); // USD / BNB (* 10**8)\n\n    // save the amount of tokens from the previous milestones for the loop\n    uint currentCapacity = 0;\n\n    for(i=0; i<milestones.length; i++) {\n\n      bool isLastMilestone = i+1 == milestones.length;\n\n      // recalculate the currently available capacity of this milestone\n      // the upper limit comes from the next milestone's entry level. \n      // if we're in the last milestone, the upper limit is the requested amount\n      currentCapacity = isLastMilestone ? tokensSold + tokenAmount + 1 : milestones[i+1].soldTokenCount;\n\n      // if this milestone hasn't been sold out yet, we start selling tokens from here\n      //if(tokensSold == 0 || tokensSold < milestones[i].soldTokenCount + currentCapacity) {\n      if(tokensSold < currentCapacity) {\n        // get the remaining token count for this level\n        uint availableTokensInMilestone = isLastMilestone ? tokenAmount : currentCapacity - tokensSold;\n\n        // sell all remaining tokens of this milestone if requested amount is greater, otherwise the remaing requested tokens\n        uint tokensToSell = availableTokensInMilestone;\n        if( availableTokensInMilestone > tokenAmount) {\n          tokensToSell = tokenAmount;\n        }\n\n        // calculate the price for this level, sum up for each milestone\n        uint tokenPriceWei = (milestones[i].price * 10 ** decimals) / feedPrice;\n        \n        totalPrice += (tokensToSell.mul(tokenPriceWei) / 10 ** decimals);\n        //totalPrice = i;\n\n        // reduce the tokenAmount by the available tokens of this milestone\n        tokenAmount = tokenAmount - tokensToSell;\n\n        // increase tokensSold by the amount of tokens just \"sold\"\n        tokensSold = tokensSold + tokensToSell;\n      }\n\n      // if all requested tokens have been calculated, return the price\n      if(tokenAmount == 0) {\n        return (totalPrice, 0);\n      }\n    }\n\n    require(tokenAmount == 0, \"couldn't sell all tokens\");\n\n    //return (totalPrice, 0);\n  }\n\n  /// @dev Get the current unitPrice and feedPrice.\n  /// @return unitPrice == The current price or 0 if we are outside milestone period\n  function getCurrentPrice(uint tokensSold) public view returns (uint unitPrice, uint feedPrice) {\n    (, int price, , ,) = priceFeed.latestRoundData();\n\n    (Milestone memory milestone, ) = getCurrentMilestone(tokensSold);\n\n    feedPrice = uint(price);\n    uint usdPrice = milestone.price;\n    unitPrice = (usdPrice * 10 ** 18) / uint(feedPrice);\n\n    return (unitPrice, feedPrice);\n  }\n\n  function getPriceFromFeed() private view returns (uint feedPrice) {\n    (, int price, , ,) = priceFeed.latestRoundData();\n\n      feedPrice = uint(price);\n      return feedPrice;\n  }\n\n  /// @dev Get the current milestone or bail out if we are not in the milestone periods.\n  /// @param tokensSold - how much tokens have been sold this far\n  /// @return Mileston struct or default if none found (price == 0)\n  function getCurrentMilestone(uint tokensSold) private view returns (Milestone memory, uint index) {\n    uint i;\n\n    for(i=0; i<milestones.length; i++) {\n      if(tokensSold < milestones[i].soldTokenCount) {\n        return (milestones[i-1], i);\n      }\n    }\n\n    // nothing found\n    return (milestones[0], 0);\n  }\n}\n",
  "sourcePath": "/home/eule/Projects/ico-contracts/ethereum/ico/contracts/MilestonePricingStrategy.sol",
  "compiler": {
    "name": "solc",
    "version": "0.8.6+commit.11564f7e.Emscripten.clang"
  },
  "schemaVersion": "3.4.1",
  "updatedAt": "2021-10-11T21:58:59.956Z",
  "devdoc": {
    "kind": "dev",
    "methods": {
      "calculatePriceForTokenAmount(uint256,uint256,uint256)": {
        "details": "Gets the prices for a specific amount of tokens: total and average"
      },
      "calculateTokenAmount(uint256,uint256,uint256,address,uint256)": {
        "params": {
          "decimals": "- how many decimal units the token has",
          "msgSender": "- who is the investor of this transaction",
          "tokensSold": "- how much tokens have been sold this far",
          "value": "- What is the value of the transaction send in as wei",
          "weiRaised": "- how much money has been raised this far in the main token sale - this number excludes presale"
        },
        "returns": {
          "tokenAmount": "- Amount of tokens the investor receives"
        }
      },
      "getCurrentPrice(uint256)": {
        "details": "Get the current unitPrice and feedPrice.",
        "returns": {
          "unitPrice": "== The current price or 0 if we are outside milestone period"
        }
      },
      "getMilestone(uint256)": {
        "details": "Iterate through milestones. You reach end of milestones when price = 0",
        "returns": {
          "price": "price",
          "soldTokenCount": "soldTokenCount"
        }
      },
      "owner()": {
        "details": "Returns the address of the current owner."
      },
      "renounceOwnership()": {
        "details": "Leaves the contract without owner. It will not be possible to call `onlyOwner` functions anymore. Can only be called by the current owner. NOTE: Renouncing ownership will leave the contract without an owner, thereby removing any functionality that is only available to the owner."
      },
      "transferOwnership(address)": {
        "details": "Transfers ownership of the contract to a new account (`newOwner`). Can only be called by the current owner."
      }
    },
    "version": 1
  },
  "userdoc": {
    "kind": "user",
    "methods": {
      "calculateTokenAmount(uint256,uint256,uint256,address,uint256)": {
        "notice": "When somebody tries to buy tokens for X eth, calculate how many tokens they get."
      },
      "isPricingStrategy()": {
        "notice": "Interface declaration. "
      },
      "isSane()": {
        "notice": "Self check if all references are correctly set. Checks that pricing strategy matches crowdsale parameters."
      }
    },
    "version": 1
  }
}