{
  "contractName": "MilestonePricingStrategy",
  "abi": [
    {
      "inputs": [
        {
          "internalType": "address",
          "name": "_priceFeed",
          "type": "address"
        }
      ],
      "stateMutability": "nonpayable",
      "type": "constructor"
    },
    {
      "anonymous": false,
      "inputs": [
        {
          "indexed": true,
          "internalType": "address",
          "name": "previousOwner",
          "type": "address"
        },
        {
          "indexed": true,
          "internalType": "address",
          "name": "newOwner",
          "type": "address"
        }
      ],
      "name": "OwnershipTransferred",
      "type": "event"
    },
    {
      "inputs": [],
      "name": "milestoneCount",
      "outputs": [
        {
          "internalType": "uint256",
          "name": "",
          "type": "uint256"
        }
      ],
      "stateMutability": "view",
      "type": "function"
    },
    {
      "inputs": [
        {
          "internalType": "uint256",
          "name": "",
          "type": "uint256"
        }
      ],
      "name": "milestones",
      "outputs": [
        {
          "internalType": "uint256",
          "name": "soldTokenCount",
          "type": "uint256"
        },
        {
          "internalType": "uint256",
          "name": "price",
          "type": "uint256"
        }
      ],
      "stateMutability": "view",
      "type": "function"
    },
    {
      "inputs": [],
      "name": "owner",
      "outputs": [
        {
          "internalType": "address",
          "name": "",
          "type": "address"
        }
      ],
      "stateMutability": "view",
      "type": "function"
    },
    {
      "inputs": [],
      "name": "renounceOwnership",
      "outputs": [],
      "stateMutability": "nonpayable",
      "type": "function"
    },
    {
      "inputs": [
        {
          "internalType": "address",
          "name": "newOwner",
          "type": "address"
        }
      ],
      "name": "transferOwnership",
      "outputs": [],
      "stateMutability": "nonpayable",
      "type": "function"
    },
    {
      "inputs": [
        {
          "internalType": "uint256",
          "name": "n",
          "type": "uint256"
        }
      ],
      "name": "getMilestone",
      "outputs": [
        {
          "internalType": "uint256",
          "name": "soldTokenCount",
          "type": "uint256"
        },
        {
          "internalType": "uint256",
          "name": "price",
          "type": "uint256"
        }
      ],
      "stateMutability": "view",
      "type": "function"
    },
    {
      "inputs": [],
      "name": "getAllMilestones",
      "outputs": [
        {
          "components": [
            {
              "internalType": "uint256",
              "name": "soldTokenCount",
              "type": "uint256"
            },
            {
              "internalType": "uint256",
              "name": "price",
              "type": "uint256"
            }
          ],
          "internalType": "struct MilestonePricingStrategy.Milestone[4]",
          "name": "",
          "type": "tuple[4]"
        }
      ],
      "stateMutability": "view",
      "type": "function"
    },
    {
      "inputs": [],
      "name": "isPricingStrategy",
      "outputs": [
        {
          "internalType": "bool",
          "name": "",
          "type": "bool"
        }
      ],
      "stateMutability": "pure",
      "type": "function"
    },
    {
      "inputs": [],
      "name": "isSane",
      "outputs": [
        {
          "internalType": "bool",
          "name": "",
          "type": "bool"
        }
      ],
      "stateMutability": "pure",
      "type": "function"
    },
    {
      "inputs": [
        {
          "internalType": "uint256",
          "name": "totalTokensSold",
          "type": "uint256"
        }
      ],
      "name": "currentUnitPrice",
      "outputs": [
        {
          "internalType": "uint256",
          "name": "unitPrice",
          "type": "uint256"
        },
        {
          "internalType": "uint256",
          "name": "feedPrice",
          "type": "uint256"
        }
      ],
      "stateMutability": "view",
      "type": "function"
    },
    {
      "inputs": [
        {
          "internalType": "uint256",
          "name": "value",
          "type": "uint256"
        },
        {
          "internalType": "uint256",
          "name": "tokensSold",
          "type": "uint256"
        },
        {
          "internalType": "uint256",
          "name": "decimals",
          "type": "uint256"
        }
      ],
      "name": "calculateTokenAmount",
      "outputs": [
        {
          "internalType": "uint256",
          "name": "tokenAmount",
          "type": "uint256"
        }
      ],
      "stateMutability": "view",
      "type": "function"
    },
    {
      "inputs": [
        {
          "internalType": "uint256",
          "name": "tokenAmount",
          "type": "uint256"
        },
        {
          "internalType": "uint256",
          "name": "tokensSold",
          "type": "uint256"
        },
        {
          "internalType": "uint256",
          "name": "decimals",
          "type": "uint256"
        }
      ],
      "name": "calculatePriceForTokenAmount",
      "outputs": [
        {
          "internalType": "uint256",
          "name": "totalPrice",
          "type": "uint256"
        },
        {
          "internalType": "uint256",
          "name": "avgPrice",
          "type": "uint256"
        }
      ],
      "stateMutability": "view",
      "type": "function"
    },
    {
      "inputs": [
        {
          "internalType": "uint256",
          "name": "tokensSold",
          "type": "uint256"
        }
      ],
      "name": "getCurrentPrice",
      "outputs": [
        {
          "internalType": "uint256",
          "name": "unitPrice",
          "type": "uint256"
        },
        {
          "internalType": "uint256",
          "name": "feedPrice",
          "type": "uint256"
        }
      ],
      "stateMutability": "view",
      "type": "function"
    }
  ],
  "bytecode": "0x60806040523480156200001157600080fd5b50604051620019cc380380620019cc83398181016040528101906200003791906200029a565b6000620000496200027b60201b60201c565b9050806000806101000a81548173ffffffffffffffffffffffffffffffffffffffff021916908373ffffffffffffffffffffffffffffffffffffffff1602179055508073ffffffffffffffffffffffffffffffffffffffff16600073ffffffffffffffffffffffffffffffffffffffff167f8be0079c531659141344cd1fd0a4f28419497f9722a3daafe3b4186f6b6457e060405160405180910390a35080600160006101000a81548173ffffffffffffffffffffffffffffffffffffffff021916908373ffffffffffffffffffffffffffffffffffffffff1602179055506000600260006004811062000142576200014162000300565b5b6002020160000181905550624c4b40600260006004811062000169576200016862000300565b5b60020201600101819055506a0422ca8b0a00a425000000600260016004811062000198576200019762000300565b5b600202016000018190555062632ea06002600160048110620001bf57620001be62000300565b5b60020201600101819055506a084595161401484a00000060028060048110620001ed57620001ec62000300565b5b6002020160000181905550627270e06002806004811062000213576200021262000300565b5b60020201600101819055506a0c685fa11e01ec6f000000600260036004811062000242576200024162000300565b5b6002020160000181905550627a1200600260036004811062000269576200026862000300565b5b6002020160010181905550506200034e565b600033905090565b600081519050620002948162000334565b92915050565b600060208284031215620002b357620002b26200032f565b5b6000620002c38482850162000283565b91505092915050565b6000620002d982620002e0565b9050919050565b600073ffffffffffffffffffffffffffffffffffffffff82169050919050565b7f4e487b7100000000000000000000000000000000000000000000000000000000600052603260045260246000fd5b600080fd5b6200033f81620002cc565b81146200034b57600080fd5b50565b61166e806200035e6000396000f3fe608060405234801561001057600080fd5b50600436106100cf5760003560e01c80638da5cb5b1161008c578063d3f5c15f11610066578063d3f5c15f14610206578063e6a7e30814610237578063e89e4ed614610268578063f2fde38b14610299576100cf565b80638da5cb5b14610187578063a7c4abdb146101a5578063c55d0f56146101d5576100cf565b806304bbc255146100d45780630681ca55146100f25780632442e1cb146101105780635c43dd9914610141578063715018a61461015f57806382771c8e14610169575b600080fd5b6100dc6102b5565b6040516100e99190611068565b60405180910390f35b6100fa6102be565b60405161010791906110e3565b60405180910390f35b61012a60048036038101906101259190610df3565b6102c4565b6040516101389291906110fe565b60405180910390f35b610149610308565b604051610156919061104c565b60405180910390f35b61016761036e565b005b6101716104a8565b60405161017e9190611068565b60405180910390f35b61018f6104b1565b60405161019c9190611031565b60405180910390f35b6101bf60048036038101906101ba9190610e20565b6104da565b6040516101cc91906110e3565b60405180910390f35b6101ef60048036038101906101ea9190610df3565b6106bc565b6040516101fd9291906110fe565b60405180910390f35b610220600480360381019061021b9190610df3565b6107aa565b60405161022e9291906110fe565b60405180910390f35b610251600480360381019061024c9190610e20565b6107bf565b60405161025f9291906110fe565b60405180910390f35b610282600480360381019061027d9190610df3565b61098d565b6040516102909291906110fe565b60405180910390f35b6102b360048036038101906102ae9190610dc6565b6109b7565b005b60006001905090565b600a5481565b600080600283600481106102db576102da6114fa565b5b60020201600001549150600283600481106102f9576102f86114fa565b5b60020201600101549050915091565b610310610d16565b6002600480602002604051908101604052809291906000905b82821015610365578382600202016040518060400160405290816000820154815260200160018201548152505081526020019060010190610329565b50505050905090565b610376610b60565b73ffffffffffffffffffffffffffffffffffffffff166103946104b1565b73ffffffffffffffffffffffffffffffffffffffff16146103ea576040517f08c379a00000000000000000000000000000000000000000000000000000000081526004016103e1906110c3565b60405180910390fd5b600073ffffffffffffffffffffffffffffffffffffffff1660008054906101000a900473ffffffffffffffffffffffffffffffffffffffff1673ffffffffffffffffffffffffffffffffffffffff167f8be0079c531659141344cd1fd0a4f28419497f9722a3daafe3b4186f6b6457e060405160405180910390a360008060006101000a81548173ffffffffffffffffffffffffffffffffffffffff021916908373ffffffffffffffffffffffffffffffffffffffff160217905550565b60006001905090565b60008060009054906101000a900473ffffffffffffffffffffffffffffffffffffffff16905090565b6000808490506000915060006104ee610b68565b90506000805b60048110156106b0576000600460018361050e9190611165565b14905060008488600a610521919061123f565b60028560048110610535576105346114fa565b5b6002020160010154610547919061135d565b61055191906111bb565b9050816105855760026001846105679190611165565b60048110610578576105776114fa565b5b60020201600001546105b4565b888189600a610594919061123f565b8861059f919061135d565b6105a991906111bb565b6105b39190611165565b5b935083891015610687576000826105d65789856105d191906113b7565b6105fa565b8189600a6105e4919061123f565b886105ef919061135d565b6105f991906111bb565b5b90506000828a600a61060c919061123f565b89610617919061135d565b61062191906111bb565b90506000828210156106335781610635565b825b9050808a6106439190611165565b99508a600a610652919061123f565b848261065e919061135d565b61066891906111bb565b8961067391906113b7565b9850808c6106819190611165565b9b505050505b600086141561069b575050505050506106b5565b505080806106a890611453565b9150506104f4565b505050505b9392505050565b6000806000600160009054906101000a900473ffffffffffffffffffffffffffffffffffffffff1673ffffffffffffffffffffffffffffffffffffffff1663feaf968c6040518163ffffffff1660e01b815260040160a06040518083038186803b15801561072957600080fd5b505afa15801561073d573d6000803e3d6000fd5b505050506040513d601f19601f820116820180604052508101906107619190610e73565b505050915050600061077285610c18565b50905081925060008160200151905083670de0b6b3a764000082610796919061135d565b6107a091906111bb565b9450505050915091565b6000806107b6836106bc565b91509150915091565b600080600091506000806107d1610b68565b905060008092505b600483101561093e57600060046001856107f39190611165565b1490508061082857600260018561080a9190611165565b6004811061081b5761081a6114fa565b5b6002020160000154610841565b600189896108369190611165565b6108409190611165565b5b9150818810156109115760008161086357888361085e91906113b7565b610865565b895b905060008190508a821115610878578a90505b6000858a600a610888919061123f565b6002896004811061089c5761089b6114fa565b5b60020201600101546108ae919061135d565b6108b891906111bb565b905089600a6108c7919061123f565b6108da8284610d0090919063ffffffff16565b6108e491906111bb565b896108ef9190611165565b9850818c6108fd91906113b7565b9b50818b61090b9190611165565b9a505050505b600089141561092a578560009550955050505050610985565b50828061093690611453565b9350506107d9565b60008814610981576040517f08c379a0000000000000000000000000000000000000000000000000000000008152600401610978906110a3565b60405180910390fd5b5050505b935093915050565b6002816004811061099d57600080fd5b600202016000915090508060000154908060010154905082565b6109bf610b60565b73ffffffffffffffffffffffffffffffffffffffff166109dd6104b1565b73ffffffffffffffffffffffffffffffffffffffff1614610a33576040517f08c379a0000000000000000000000000000000000000000000000000000000008152600401610a2a906110c3565b60405180910390fd5b600073ffffffffffffffffffffffffffffffffffffffff168173ffffffffffffffffffffffffffffffffffffffff161415610aa3576040517f08c379a0000000000000000000000000000000000000000000000000000000008152600401610a9a90611083565b60405180910390fd5b8073ffffffffffffffffffffffffffffffffffffffff1660008054906101000a900473ffffffffffffffffffffffffffffffffffffffff1673ffffffffffffffffffffffffffffffffffffffff167f8be0079c531659141344cd1fd0a4f28419497f9722a3daafe3b4186f6b6457e060405160405180910390a3806000806101000a81548173ffffffffffffffffffffffffffffffffffffffff021916908373ffffffffffffffffffffffffffffffffffffffff16021790555050565b600033905090565b600080600160009054906101000a900473ffffffffffffffffffffffffffffffffffffffff1673ffffffffffffffffffffffffffffffffffffffff1663feaf968c6040518163ffffffff1660e01b815260040160a06040518083038186803b158015610bd357600080fd5b505afa158015610be7573d6000803e3d6000fd5b505050506040513d601f19601f82011682018060405250810190610c0b9190610e73565b5050509150508091505090565b610c20610d43565b600080600090505b6004811015610cb85760028160048110610c4557610c446114fa565b5b6002020160000154841015610ca5576002600182610c6391906113b7565b60048110610c7457610c736114fa565b5b6002020181816040518060400160405290816000820154815260200160018201548152505091509250925050610cfb565b8080610cb090611453565b915050610c28565b6002600060048110610ccd57610ccc6114fa565b5b6002020160008160405180604001604052908160008201548152602001600182015481525050915092509250505b915091565b60008183610d0e919061135d565b905092915050565b60405180608001604052806004905b610d2d610d43565b815260200190600190039081610d255790505090565b604051806040016040528060008152602001600081525090565b600081359050610d6c816115dc565b92915050565b600081519050610d81816115f3565b92915050565b600081359050610d968161160a565b92915050565b600081519050610dab8161160a565b92915050565b600081519050610dc081611621565b92915050565b600060208284031215610ddc57610ddb611529565b5b6000610dea84828501610d5d565b91505092915050565b600060208284031215610e0957610e08611529565b5b6000610e1784828501610d87565b91505092915050565b600080600060608486031215610e3957610e38611529565b5b6000610e4786828701610d87565b9350506020610e5886828701610d87565b9250506040610e6986828701610d87565b9150509250925092565b600080600080600060a08688031215610e8f57610e8e611529565b5b6000610e9d88828901610db1565b9550506020610eae88828901610d72565b9450506040610ebf88828901610d9c565b9350506060610ed088828901610d9c565b9250506080610ee188828901610db1565b9150509295509295909350565b6000610efa8383610fe4565b60408301905092915050565b610f0f816113eb565b82525050565b610f1e81611131565b610f288184611149565b9250610f3382611127565b8060005b83811015610f64578151610f4b8782610eee565b9650610f568361113c565b925050600181019050610f37565b505050505050565b610f75816113fd565b82525050565b6000610f88602683611154565b9150610f938261153b565b604082019050919050565b6000610fab601883611154565b9150610fb68261158a565b602082019050919050565b6000610fce602083611154565b9150610fd9826115b3565b602082019050919050565b604082016000820151610ffa6000850182611013565b50602082015161100d6020850182611013565b50505050565b61101c81611433565b82525050565b61102b81611433565b82525050565b60006020820190506110466000830184610f06565b92915050565b6000610100820190506110626000830184610f15565b92915050565b600060208201905061107d6000830184610f6c565b92915050565b6000602082019050818103600083015261109c81610f7b565b9050919050565b600060208201905081810360008301526110bc81610f9e565b9050919050565b600060208201905081810360008301526110dc81610fc1565b9050919050565b60006020820190506110f86000830184611022565b92915050565b60006040820190506111136000830185611022565b6111206020830184611022565b9392505050565b6000819050919050565b600060049050919050565b6000602082019050919050565b600081905092915050565b600082825260208201905092915050565b600061117082611433565b915061117b83611433565b9250827fffffffffffffffffffffffffffffffffffffffffffffffffffffffffffffffff038211156111b0576111af61149c565b5b828201905092915050565b60006111c682611433565b91506111d183611433565b9250826111e1576111e06114cb565b5b828204905092915050565b6000808291508390505b6001851115611236578086048111156112125761121161149c565b5b60018516156112215780820291505b808102905061122f8561152e565b94506111f6565b94509492505050565b600061124a82611433565b915061125583611433565b92506112827fffffffffffffffffffffffffffffffffffffffffffffffffffffffffffffffff848461128a565b905092915050565b60008261129a5760019050611356565b816112a85760009050611356565b81600181146112be57600281146112c8576112f7565b6001915050611356565b60ff8411156112da576112d961149c565b5b8360020a9150848211156112f1576112f061149c565b5b50611356565b5060208310610133831016604e8410600b841016171561132c5782820a9050838111156113275761132661149c565b5b611356565b61133984848460016111ec565b925090508184048111156113505761134f61149c565b5b81810290505b9392505050565b600061136882611433565b915061137383611433565b9250817fffffffffffffffffffffffffffffffffffffffffffffffffffffffffffffffff04831182151516156113ac576113ab61149c565b5b828202905092915050565b60006113c282611433565b91506113cd83611433565b9250828210156113e0576113df61149c565b5b828203905092915050565b60006113f682611413565b9050919050565b60008115159050919050565b6000819050919050565b600073ffffffffffffffffffffffffffffffffffffffff82169050919050565b6000819050919050565b600069ffffffffffffffffffff82169050919050565b600061145e82611433565b91507fffffffffffffffffffffffffffffffffffffffffffffffffffffffffffffffff8214156114915761149061149c565b5b600182019050919050565b7f4e487b7100000000000000000000000000000000000000000000000000000000600052601160045260246000fd5b7f4e487b7100000000000000000000000000000000000000000000000000000000600052601260045260246000fd5b7f4e487b7100000000000000000000000000000000000000000000000000000000600052603260045260246000fd5b600080fd5b60008160011c9050919050565b7f4f776e61626c653a206e6577206f776e657220697320746865207a65726f206160008201527f6464726573730000000000000000000000000000000000000000000000000000602082015250565b7f636f756c646e27742073656c6c20616c6c20746f6b656e730000000000000000600082015250565b7f4f776e61626c653a2063616c6c6572206973206e6f7420746865206f776e6572600082015250565b6115e5816113eb565b81146115f057600080fd5b50565b6115fc81611409565b811461160757600080fd5b50565b61161381611433565b811461161e57600080fd5b50565b61162a8161143d565b811461163557600080fd5b5056fea2646970667358221220918524ffeeb495e93f30f80188face5afff0ff2997af9da6eac466b687d3828d64736f6c63430008060033",
  "immutableReferences": {},
  "source": "// SPDX-License-Identifier: UNLICENSED\npragma solidity ^0.8.6;\n\nimport \"@openzeppelin/contracts/utils/math/SafeMath.sol\";\nimport \"@openzeppelin/contracts/access/Ownable.sol\";\nimport \"@chainlink/contracts/src/v0.6/interfaces/AggregatorV3Interface.sol\";\n\nimport \"./IPricingStrategy.sol\";\nimport \"./CollectCoinIco.sol\";\n\ncontract MilestonePricingStrategy is IPricingStrategy, Ownable \n{\n  using SafeMath for uint;\n\n  /* BNB/USD price feed */\n  AggregatorV3Interface internal priceFeed;\n\n  /**\n  * Define pricing schedule using milestones.\n  */\n  struct Milestone {\n\n      // number of CLCT tokens solds when this milestone kicks in\n      uint soldTokenCount;\n\n      // How many tokens per wei you will get after this milestone has been passed\n      uint price;\n  }\n\n  // Store milestones in a fixed array, so that it can be seen in a blockchain explorer\n  Milestone[4] public milestones;\n\n  // How many active milestones we have\n  uint public milestoneCount;\n\n  constructor(address _priceFeed)\n  {\n    priceFeed = AggregatorV3Interface(_priceFeed);\n\n    milestones[0].soldTokenCount = 0;\n    milestones[0].price = 0.05 * 10 ** 8;\n\n    milestones[1].soldTokenCount = 5000000 * 10**18;\n    milestones[1].price = 0.065 * 10 ** 8;\n\n    milestones[2].soldTokenCount = 10000000 * 10**18;\n    milestones[2].price = 0.075 * 10 ** 8;\n\n    milestones[3].soldTokenCount = 15000000 * 10**18;\n    milestones[3].price = 0.08 * 10 ** 8;\n  }\n\n  /// @dev Iterate through milestones. You reach end of milestones when price = 0\n  /// @return soldTokenCount\n  /// @return price\n  function getMilestone(uint n) public view returns (uint soldTokenCount, uint price) {\n    soldTokenCount = milestones[n].soldTokenCount;\n    price = milestones[n].price;\n    //return (milestones[n].soldTokenCount, milestones[n].price);\n  }\n\n  function getAllMilestones() public view returns (Milestone[4] memory)\n    {\n        return milestones;\n    }\n\n  function isPricingStrategy() override public pure returns (bool) {\n    return true;\n  }\n\n  /** Self check if all references are correctly set.\n   *\n   * Checks that pricing strategy matches crowdsale parameters.\n   */\n  function isSane() override public pure returns (bool)\n  {\n    return true;\n  }\n\n  function currentUnitPrice(uint256 totalTokensSold) override public view returns (uint unitPrice, uint feedPrice)\n  {\n    return getCurrentPrice(totalTokensSold);\n  }\n\n  /**\n   * When somebody tries to buy tokens for X eth, calculate how many tokens they get.\n   *\n   *\n   * @param value - What is the value of the transaction send in as wei\n   * @param tokensSold - how much tokens have been sold this far\n   * @param decimals - how many decimal units the token has\n   * @return tokenAmount - Amount of tokens the investor receives\n   */\n  function calculateTokenAmount(uint value, uint tokensSold, uint decimals) override public view returns (uint tokenAmount)\n  {\n    uint availableWei = value;\n    tokenAmount = 0;\n\n    uint feedPrice = getPriceFromFeed(); // USD / BNB (* 10**8)\n    \n    // save the amount of tokens from the previous milestones for the loop\n    uint currentCapacity = 0;\n\n    uint i;\n    for(i=0; i<milestones.length; i++) {\n      bool isLastMilestone = i+1 == milestones.length;\n      uint unitPriceBnbWei = (milestones[i].price * 10**decimals) / uint(feedPrice);\n      \n      // the current milestones token capacity: if it's the last milestone, there are as many tokens as the sent wei can buy\n      currentCapacity = isLastMilestone ? (availableWei * 10**decimals / unitPriceBnbWei) + tokensSold : milestones[i+1].soldTokenCount;\n\n      // if this milestone hasn't been sold out yet, we start selling tokens from here\n      if(tokensSold < currentCapacity) \n      {\n        // get the remaining token count for this level\n        uint availableTokensInMilestone = isLastMilestone ? (availableWei * 10**decimals / unitPriceBnbWei) : currentCapacity - tokensSold;\n\n        // calculate the price for this level\n        //uint tokenPriceWei = (milestones[i].price * 10**decimals) / feedPrice;\n        uint maxBuyableTokens = availableWei * 10**decimals / unitPriceBnbWei;\n        //return maxBuyableTokens;\n\n        uint buyableTokens = maxBuyableTokens >= availableTokensInMilestone ? availableTokensInMilestone : maxBuyableTokens;\n\n        // reduce the tokenAmount by the available tokens of this milestone\n        tokenAmount = tokenAmount + buyableTokens;\n\n        availableWei = availableWei - (buyableTokens * unitPriceBnbWei) / 10**decimals;\n\n        // increase tokensSold by the amount of tokens just \"sold\"\n        tokensSold = tokensSold + buyableTokens;\n      }\n\n      // if all wei has been spent, return the token amount\n      if(availableWei == 0) {\n        return tokenAmount;\n      }\n    }\n\n    return tokenAmount;\n  }\n\n  /// @dev Gets the prices for a specific amount of tokens: total and average\n  function calculatePriceForTokenAmount(uint tokenAmount, uint tokensSold, uint decimals) public view returns (uint totalPrice, uint avgPrice) {\n    totalPrice = 0;\n\n    uint i;\n\n    uint feedPrice = getPriceFromFeed(); // USD / BNB (* 10**8)\n\n    // save the amount of tokens from the previous milestones for the loop\n    uint currentCapacity = 0;\n\n    for(i=0; i<milestones.length; i++) {\n\n      bool isLastMilestone = i+1 == milestones.length;\n\n      // recalculate the currently available capacity of this milestone\n      // the upper limit comes from the next milestone's entry level. \n      // if we're in the last milestone, the upper limit is the requested amount\n      currentCapacity = isLastMilestone ? tokensSold + tokenAmount + 1 : milestones[i+1].soldTokenCount;\n\n      // if this milestone hasn't been sold out yet, we start selling tokens from here\n      //if(tokensSold == 0 || tokensSold < milestones[i].soldTokenCount + currentCapacity) {\n      if(tokensSold < currentCapacity) {\n        // get the remaining token count for this level\n        uint availableTokensInMilestone = isLastMilestone ? tokenAmount : currentCapacity - tokensSold;\n\n        // sell all remaining tokens of this milestone if requested amount is greater, otherwise the remaing requested tokens\n        uint tokensToSell = availableTokensInMilestone;\n        if( availableTokensInMilestone > tokenAmount) {\n          tokensToSell = tokenAmount;\n        }\n\n        // calculate the price for this level, sum up for each milestone\n        uint tokenPriceWei = (milestones[i].price * 10 ** decimals) / feedPrice;\n        \n        totalPrice += (tokensToSell.mul(tokenPriceWei) / 10 ** decimals);\n        //totalPrice = i;\n\n        // reduce the tokenAmount by the available tokens of this milestone\n        tokenAmount = tokenAmount - tokensToSell;\n\n        // increase tokensSold by the amount of tokens just \"sold\"\n        tokensSold = tokensSold + tokensToSell;\n      }\n\n      // if all requested tokens have been calculated, return the price\n      if(tokenAmount == 0) {\n        return (totalPrice, 0);\n      }\n    }\n\n    require(tokenAmount == 0, \"couldn't sell all tokens\");\n\n    //return (totalPrice, 0);\n  }\n\n  /// @dev Get the current unitPrice and feedPrice.\n  /// @return unitPrice == The current price or 0 if we are outside milestone period\n  function getCurrentPrice(uint tokensSold) public view returns (uint unitPrice, uint feedPrice) {\n    (, int price, , ,) = priceFeed.latestRoundData();\n\n    (Milestone memory milestone, ) = getCurrentMilestone(tokensSold);\n\n    feedPrice = uint(price);\n    uint usdPrice = milestone.price;\n    unitPrice = (usdPrice * 10 ** 18) / uint(feedPrice);\n\n    return (unitPrice, feedPrice);\n  }\n\n  function getPriceFromFeed() private view returns (uint feedPrice) {\n    (, int price, , ,) = priceFeed.latestRoundData();\n\n      feedPrice = uint(price);\n      return feedPrice;\n  }\n\n  /// @dev Get the current milestone or bail out if we are not in the milestone periods.\n  /// @param tokensSold - how much tokens have been sold this far\n  /// @return Mileston struct or default if none found (price == 0)\n  function getCurrentMilestone(uint tokensSold) private view returns (Milestone memory, uint index) {\n    uint i;\n\n    for(i=0; i<milestones.length; i++) {\n      if(tokensSold < milestones[i].soldTokenCount) {\n        return (milestones[i-1], i);\n      }\n    }\n\n    // nothing found\n    return (milestones[0], 0);\n  }\n}\n",
  "sourcePath": "/home/eule/Projects/ico-contracts/ethereum/ico/contracts/MilestonePricingStrategy.sol",
  "compiler": {
    "name": "solc",
    "version": "0.8.6+commit.11564f7e.Emscripten.clang"
  },
  "schemaVersion": "3.4.1",
  "updatedAt": "2021-10-15T09:48:04.907Z",
  "devdoc": {
    "kind": "dev",
    "methods": {
      "calculatePriceForTokenAmount(uint256,uint256,uint256)": {
        "details": "Gets the prices for a specific amount of tokens: total and average"
      },
      "calculateTokenAmount(uint256,uint256,uint256)": {
        "params": {
          "decimals": "- how many decimal units the token has",
          "tokensSold": "- how much tokens have been sold this far",
          "value": "- What is the value of the transaction send in as wei"
        },
        "returns": {
          "tokenAmount": "- Amount of tokens the investor receives"
        }
      },
      "getCurrentPrice(uint256)": {
        "details": "Get the current unitPrice and feedPrice.",
        "returns": {
          "unitPrice": "== The current price or 0 if we are outside milestone period"
        }
      },
      "getMilestone(uint256)": {
        "details": "Iterate through milestones. You reach end of milestones when price = 0",
        "returns": {
          "price": "price",
          "soldTokenCount": "soldTokenCount"
        }
      },
      "owner()": {
        "details": "Returns the address of the current owner."
      },
      "renounceOwnership()": {
        "details": "Leaves the contract without owner. It will not be possible to call `onlyOwner` functions anymore. Can only be called by the current owner. NOTE: Renouncing ownership will leave the contract without an owner, thereby removing any functionality that is only available to the owner."
      },
      "transferOwnership(address)": {
        "details": "Transfers ownership of the contract to a new account (`newOwner`). Can only be called by the current owner."
      }
    },
    "version": 1
  },
  "userdoc": {
    "kind": "user",
    "methods": {
      "calculateTokenAmount(uint256,uint256,uint256)": {
        "notice": "When somebody tries to buy tokens for X eth, calculate how many tokens they get."
      },
      "isPricingStrategy()": {
        "notice": "Interface declaration. "
      },
      "isSane()": {
        "notice": "Self check if all references are correctly set. Checks that pricing strategy matches crowdsale parameters."
      }
    },
    "version": 1
  }
}