{
  "contractName": "MilestonePricingStrategy",
  "abi": [
    {
      "inputs": [
        {
          "internalType": "address",
          "name": "_priceFeed",
          "type": "address"
        }
      ],
      "stateMutability": "nonpayable",
      "type": "constructor"
    },
    {
      "anonymous": false,
      "inputs": [
        {
          "indexed": true,
          "internalType": "address",
          "name": "previousOwner",
          "type": "address"
        },
        {
          "indexed": true,
          "internalType": "address",
          "name": "newOwner",
          "type": "address"
        }
      ],
      "name": "OwnershipTransferred",
      "type": "event"
    },
    {
      "inputs": [
        {
          "internalType": "uint256",
          "name": "",
          "type": "uint256"
        }
      ],
      "name": "milestones",
      "outputs": [
        {
          "internalType": "uint256",
          "name": "soldTokenCount",
          "type": "uint256"
        },
        {
          "internalType": "uint256",
          "name": "price",
          "type": "uint256"
        }
      ],
      "stateMutability": "view",
      "type": "function"
    },
    {
      "inputs": [],
      "name": "owner",
      "outputs": [
        {
          "internalType": "address",
          "name": "",
          "type": "address"
        }
      ],
      "stateMutability": "view",
      "type": "function"
    },
    {
      "inputs": [],
      "name": "renounceOwnership",
      "outputs": [],
      "stateMutability": "nonpayable",
      "type": "function"
    },
    {
      "inputs": [
        {
          "internalType": "address",
          "name": "newOwner",
          "type": "address"
        }
      ],
      "name": "transferOwnership",
      "outputs": [],
      "stateMutability": "nonpayable",
      "type": "function"
    },
    {
      "inputs": [
        {
          "internalType": "uint256",
          "name": "n",
          "type": "uint256"
        }
      ],
      "name": "getMilestone",
      "outputs": [
        {
          "internalType": "uint256",
          "name": "soldTokenCount",
          "type": "uint256"
        },
        {
          "internalType": "uint256",
          "name": "price",
          "type": "uint256"
        }
      ],
      "stateMutability": "view",
      "type": "function"
    },
    {
      "inputs": [],
      "name": "getAllMilestones",
      "outputs": [
        {
          "components": [
            {
              "internalType": "uint256",
              "name": "soldTokenCount",
              "type": "uint256"
            },
            {
              "internalType": "uint256",
              "name": "price",
              "type": "uint256"
            }
          ],
          "internalType": "struct MilestonePricingStrategy.Milestone[4]",
          "name": "",
          "type": "tuple[4]"
        }
      ],
      "stateMutability": "view",
      "type": "function"
    },
    {
      "inputs": [],
      "name": "isPricingStrategy",
      "outputs": [
        {
          "internalType": "bool",
          "name": "",
          "type": "bool"
        }
      ],
      "stateMutability": "pure",
      "type": "function"
    },
    {
      "inputs": [],
      "name": "isSane",
      "outputs": [
        {
          "internalType": "bool",
          "name": "",
          "type": "bool"
        }
      ],
      "stateMutability": "pure",
      "type": "function"
    },
    {
      "inputs": [
        {
          "internalType": "uint256",
          "name": "totalTokensSold",
          "type": "uint256"
        }
      ],
      "name": "currentUnitPrice",
      "outputs": [
        {
          "internalType": "uint256",
          "name": "unitPrice",
          "type": "uint256"
        },
        {
          "internalType": "uint256",
          "name": "feedPrice",
          "type": "uint256"
        }
      ],
      "stateMutability": "view",
      "type": "function"
    },
    {
      "inputs": [
        {
          "internalType": "uint256",
          "name": "value",
          "type": "uint256"
        },
        {
          "internalType": "uint256",
          "name": "tokensSold",
          "type": "uint256"
        },
        {
          "internalType": "uint256",
          "name": "decimals",
          "type": "uint256"
        }
      ],
      "name": "calculateTokenAmount",
      "outputs": [
        {
          "internalType": "uint256",
          "name": "tokenAmount",
          "type": "uint256"
        }
      ],
      "stateMutability": "view",
      "type": "function"
    },
    {
      "inputs": [
        {
          "internalType": "uint256",
          "name": "tokenAmount",
          "type": "uint256"
        },
        {
          "internalType": "uint256",
          "name": "tokensSold",
          "type": "uint256"
        },
        {
          "internalType": "uint256",
          "name": "decimals",
          "type": "uint256"
        }
      ],
      "name": "calculatePriceForTokenAmount",
      "outputs": [
        {
          "internalType": "uint256",
          "name": "totalPrice",
          "type": "uint256"
        },
        {
          "internalType": "uint256",
          "name": "avgPrice",
          "type": "uint256"
        }
      ],
      "stateMutability": "view",
      "type": "function"
    },
    {
      "inputs": [
        {
          "internalType": "uint256",
          "name": "tokensSold",
          "type": "uint256"
        }
      ],
      "name": "getCurrentPrice",
      "outputs": [
        {
          "internalType": "uint256",
          "name": "unitPrice",
          "type": "uint256"
        },
        {
          "internalType": "uint256",
          "name": "feedPrice",
          "type": "uint256"
        }
      ],
      "stateMutability": "view",
      "type": "function"
    }
  ],
  "bytecode": "0x60806040523480156200001157600080fd5b506040516200198d3803806200198d83398181016040528101906200003791906200029a565b6000620000496200027b60201b60201c565b9050806000806101000a81548173ffffffffffffffffffffffffffffffffffffffff021916908373ffffffffffffffffffffffffffffffffffffffff1602179055508073ffffffffffffffffffffffffffffffffffffffff16600073ffffffffffffffffffffffffffffffffffffffff167f8be0079c531659141344cd1fd0a4f28419497f9722a3daafe3b4186f6b6457e060405160405180910390a35080600160006101000a81548173ffffffffffffffffffffffffffffffffffffffff021916908373ffffffffffffffffffffffffffffffffffffffff1602179055506000600260006004811062000142576200014162000300565b5b6002020160000181905550624c4b40600260006004811062000169576200016862000300565b5b60020201600101819055506a0422ca8b0a00a425000000600260016004811062000198576200019762000300565b5b600202016000018190555062632ea06002600160048110620001bf57620001be62000300565b5b60020201600101819055506a084595161401484a00000060028060048110620001ed57620001ec62000300565b5b6002020160000181905550627270e06002806004811062000213576200021262000300565b5b60020201600101819055506a0c685fa11e01ec6f000000600260036004811062000242576200024162000300565b5b6002020160000181905550627a1200600260036004811062000269576200026862000300565b5b6002020160010181905550506200034e565b600033905090565b600081519050620002948162000334565b92915050565b600060208284031215620002b357620002b26200032f565b5b6000620002c38482850162000283565b91505092915050565b6000620002d982620002e0565b9050919050565b600073ffffffffffffffffffffffffffffffffffffffff82169050919050565b7f4e487b7100000000000000000000000000000000000000000000000000000000600052603260045260246000fd5b600080fd5b6200033f81620002cc565b81146200034b57600080fd5b50565b61162f806200035e6000396000f3fe608060405234801561001057600080fd5b50600436106100b45760003560e01c8063a7c4abdb11610071578063a7c4abdb1461016c578063c55d0f561461019c578063d3f5c15f146101cd578063e6a7e308146101fe578063e89e4ed61461022f578063f2fde38b14610260576100b4565b806304bbc255146100b95780632442e1cb146100d75780635c43dd9914610108578063715018a61461012657806382771c8e146101305780638da5cb5b1461014e575b600080fd5b6100c161027c565b6040516100ce9190611029565b60405180910390f35b6100f160048036038101906100ec9190610db4565b610285565b6040516100ff9291906110bf565b60405180910390f35b6101106102c9565b60405161011d919061100d565b60405180910390f35b61012e61032f565b005b610138610469565b6040516101459190611029565b60405180910390f35b610156610472565b6040516101639190610ff2565b60405180910390f35b61018660048036038101906101819190610de1565b61049b565b60405161019391906110a4565b60405180910390f35b6101b660048036038101906101b19190610db4565b61067d565b6040516101c49291906110bf565b60405180910390f35b6101e760048036038101906101e29190610db4565b61076b565b6040516101f59291906110bf565b60405180910390f35b61021860048036038101906102139190610de1565b610780565b6040516102269291906110bf565b60405180910390f35b61024960048036038101906102449190610db4565b61094e565b6040516102579291906110bf565b60405180910390f35b61027a60048036038101906102759190610d87565b610978565b005b60006001905090565b6000806002836004811061029c5761029b6114bb565b5b60020201600001549150600283600481106102ba576102b96114bb565b5b60020201600101549050915091565b6102d1610cd7565b6002600480602002604051908101604052809291906000905b828210156103265783826002020160405180604001604052908160008201548152602001600182015481525050815260200190600101906102ea565b50505050905090565b610337610b21565b73ffffffffffffffffffffffffffffffffffffffff16610355610472565b73ffffffffffffffffffffffffffffffffffffffff16146103ab576040517f08c379a00000000000000000000000000000000000000000000000000000000081526004016103a290611084565b60405180910390fd5b600073ffffffffffffffffffffffffffffffffffffffff1660008054906101000a900473ffffffffffffffffffffffffffffffffffffffff1673ffffffffffffffffffffffffffffffffffffffff167f8be0079c531659141344cd1fd0a4f28419497f9722a3daafe3b4186f6b6457e060405160405180910390a360008060006101000a81548173ffffffffffffffffffffffffffffffffffffffff021916908373ffffffffffffffffffffffffffffffffffffffff160217905550565b60006001905090565b60008060009054906101000a900473ffffffffffffffffffffffffffffffffffffffff16905090565b6000808490506000915060006104af610b29565b90506000805b600481101561067157600060046001836104cf9190611126565b14905060008488600a6104e29190611200565b600285600481106104f6576104f56114bb565b5b6002020160010154610508919061131e565b610512919061117c565b9050816105465760026001846105289190611126565b60048110610539576105386114bb565b5b6002020160000154610575565b888189600a6105559190611200565b88610560919061131e565b61056a919061117c565b6105749190611126565b5b935083891015610648576000826105975789856105929190611378565b6105bb565b8189600a6105a59190611200565b886105b0919061131e565b6105ba919061117c565b5b90506000828a600a6105cd9190611200565b896105d8919061131e565b6105e2919061117c565b90506000828210156105f457816105f6565b825b9050808a6106049190611126565b99508a600a6106139190611200565b848261061f919061131e565b610629919061117c565b896106349190611378565b9850808c6106429190611126565b9b505050505b600086141561065c57505050505050610676565b5050808061066990611414565b9150506104b5565b505050505b9392505050565b6000806000600160009054906101000a900473ffffffffffffffffffffffffffffffffffffffff1673ffffffffffffffffffffffffffffffffffffffff1663feaf968c6040518163ffffffff1660e01b815260040160a06040518083038186803b1580156106ea57600080fd5b505afa1580156106fe573d6000803e3d6000fd5b505050506040513d601f19601f820116820180604052508101906107229190610e34565b505050915050600061073385610bd9565b50905081925060008160200151905083670de0b6b3a764000082610757919061131e565b610761919061117c565b9450505050915091565b6000806107778361067d565b91509150915091565b60008060009150600080610792610b29565b905060008092505b60048310156108ff57600060046001856107b49190611126565b149050806107e95760026001856107cb9190611126565b600481106107dc576107db6114bb565b5b6002020160000154610802565b600189896107f79190611126565b6108019190611126565b5b9150818810156108d25760008161082457888361081f9190611378565b610826565b895b905060008190508a821115610839578a90505b6000858a600a6108499190611200565b6002896004811061085d5761085c6114bb565b5b600202016001015461086f919061131e565b610879919061117c565b905089600a6108889190611200565b61089b8284610cc190919063ffffffff16565b6108a5919061117c565b896108b09190611126565b9850818c6108be9190611378565b9b50818b6108cc9190611126565b9a505050505b60008914156108eb578560009550955050505050610946565b5082806108f790611414565b93505061079a565b60008814610942576040517f08c379a000000000000000000000000000000000000000000000000000000000815260040161093990611064565b60405180910390fd5b5050505b935093915050565b6002816004811061095e57600080fd5b600202016000915090508060000154908060010154905082565b610980610b21565b73ffffffffffffffffffffffffffffffffffffffff1661099e610472565b73ffffffffffffffffffffffffffffffffffffffff16146109f4576040517f08c379a00000000000000000000000000000000000000000000000000000000081526004016109eb90611084565b60405180910390fd5b600073ffffffffffffffffffffffffffffffffffffffff168173ffffffffffffffffffffffffffffffffffffffff161415610a64576040517f08c379a0000000000000000000000000000000000000000000000000000000008152600401610a5b90611044565b60405180910390fd5b8073ffffffffffffffffffffffffffffffffffffffff1660008054906101000a900473ffffffffffffffffffffffffffffffffffffffff1673ffffffffffffffffffffffffffffffffffffffff167f8be0079c531659141344cd1fd0a4f28419497f9722a3daafe3b4186f6b6457e060405160405180910390a3806000806101000a81548173ffffffffffffffffffffffffffffffffffffffff021916908373ffffffffffffffffffffffffffffffffffffffff16021790555050565b600033905090565b600080600160009054906101000a900473ffffffffffffffffffffffffffffffffffffffff1673ffffffffffffffffffffffffffffffffffffffff1663feaf968c6040518163ffffffff1660e01b815260040160a06040518083038186803b158015610b9457600080fd5b505afa158015610ba8573d6000803e3d6000fd5b505050506040513d601f19601f82011682018060405250810190610bcc9190610e34565b5050509150508091505090565b610be1610d04565b600080600090505b6004811015610c795760028160048110610c0657610c056114bb565b5b6002020160000154841015610c66576002600182610c249190611378565b60048110610c3557610c346114bb565b5b6002020181816040518060400160405290816000820154815260200160018201548152505091509250925050610cbc565b8080610c7190611414565b915050610be9565b6002600060048110610c8e57610c8d6114bb565b5b6002020160008160405180604001604052908160008201548152602001600182015481525050915092509250505b915091565b60008183610ccf919061131e565b905092915050565b60405180608001604052806004905b610cee610d04565b815260200190600190039081610ce65790505090565b604051806040016040528060008152602001600081525090565b600081359050610d2d8161159d565b92915050565b600081519050610d42816115b4565b92915050565b600081359050610d57816115cb565b92915050565b600081519050610d6c816115cb565b92915050565b600081519050610d81816115e2565b92915050565b600060208284031215610d9d57610d9c6114ea565b5b6000610dab84828501610d1e565b91505092915050565b600060208284031215610dca57610dc96114ea565b5b6000610dd884828501610d48565b91505092915050565b600080600060608486031215610dfa57610df96114ea565b5b6000610e0886828701610d48565b9350506020610e1986828701610d48565b9250506040610e2a86828701610d48565b9150509250925092565b600080600080600060a08688031215610e5057610e4f6114ea565b5b6000610e5e88828901610d72565b9550506020610e6f88828901610d33565b9450506040610e8088828901610d5d565b9350506060610e9188828901610d5d565b9250506080610ea288828901610d72565b9150509295509295909350565b6000610ebb8383610fa5565b60408301905092915050565b610ed0816113ac565b82525050565b610edf816110f2565b610ee9818461110a565b9250610ef4826110e8565b8060005b83811015610f25578151610f0c8782610eaf565b9650610f17836110fd565b925050600181019050610ef8565b505050505050565b610f36816113be565b82525050565b6000610f49602683611115565b9150610f54826114fc565b604082019050919050565b6000610f6c601883611115565b9150610f778261154b565b602082019050919050565b6000610f8f602083611115565b9150610f9a82611574565b602082019050919050565b604082016000820151610fbb6000850182610fd4565b506020820151610fce6020850182610fd4565b50505050565b610fdd816113f4565b82525050565b610fec816113f4565b82525050565b60006020820190506110076000830184610ec7565b92915050565b6000610100820190506110236000830184610ed6565b92915050565b600060208201905061103e6000830184610f2d565b92915050565b6000602082019050818103600083015261105d81610f3c565b9050919050565b6000602082019050818103600083015261107d81610f5f565b9050919050565b6000602082019050818103600083015261109d81610f82565b9050919050565b60006020820190506110b96000830184610fe3565b92915050565b60006040820190506110d46000830185610fe3565b6110e16020830184610fe3565b9392505050565b6000819050919050565b600060049050919050565b6000602082019050919050565b600081905092915050565b600082825260208201905092915050565b6000611131826113f4565b915061113c836113f4565b9250827fffffffffffffffffffffffffffffffffffffffffffffffffffffffffffffffff038211156111715761117061145d565b5b828201905092915050565b6000611187826113f4565b9150611192836113f4565b9250826111a2576111a161148c565b5b828204905092915050565b6000808291508390505b60018511156111f7578086048111156111d3576111d261145d565b5b60018516156111e25780820291505b80810290506111f0856114ef565b94506111b7565b94509492505050565b600061120b826113f4565b9150611216836113f4565b92506112437fffffffffffffffffffffffffffffffffffffffffffffffffffffffffffffffff848461124b565b905092915050565b60008261125b5760019050611317565b816112695760009050611317565b816001811461127f5760028114611289576112b8565b6001915050611317565b60ff84111561129b5761129a61145d565b5b8360020a9150848211156112b2576112b161145d565b5b50611317565b5060208310610133831016604e8410600b84101617156112ed5782820a9050838111156112e8576112e761145d565b5b611317565b6112fa84848460016111ad565b925090508184048111156113115761131061145d565b5b81810290505b9392505050565b6000611329826113f4565b9150611334836113f4565b9250817fffffffffffffffffffffffffffffffffffffffffffffffffffffffffffffffff048311821515161561136d5761136c61145d565b5b828202905092915050565b6000611383826113f4565b915061138e836113f4565b9250828210156113a1576113a061145d565b5b828203905092915050565b60006113b7826113d4565b9050919050565b60008115159050919050565b6000819050919050565b600073ffffffffffffffffffffffffffffffffffffffff82169050919050565b6000819050919050565b600069ffffffffffffffffffff82169050919050565b600061141f826113f4565b91507fffffffffffffffffffffffffffffffffffffffffffffffffffffffffffffffff8214156114525761145161145d565b5b600182019050919050565b7f4e487b7100000000000000000000000000000000000000000000000000000000600052601160045260246000fd5b7f4e487b7100000000000000000000000000000000000000000000000000000000600052601260045260246000fd5b7f4e487b7100000000000000000000000000000000000000000000000000000000600052603260045260246000fd5b600080fd5b60008160011c9050919050565b7f4f776e61626c653a206e6577206f776e657220697320746865207a65726f206160008201527f6464726573730000000000000000000000000000000000000000000000000000602082015250565b7f636f756c646e27742073656c6c20616c6c20746f6b656e730000000000000000600082015250565b7f4f776e61626c653a2063616c6c6572206973206e6f7420746865206f776e6572600082015250565b6115a6816113ac565b81146115b157600080fd5b50565b6115bd816113ca565b81146115c857600080fd5b50565b6115d4816113f4565b81146115df57600080fd5b50565b6115eb816113fe565b81146115f657600080fd5b5056fea2646970667358221220a59b2af406e24e94b663435997b9824bc07bd22124cb546e344bfd79c65fbec064736f6c63430008060033",
  "immutableReferences": {},
  "source": "// SPDX-License-Identifier: UNLICENSED\npragma solidity ^0.8.6;\n\nimport \"@openzeppelin/contracts/utils/math/SafeMath.sol\";\nimport \"@openzeppelin/contracts/access/Ownable.sol\";\nimport \"@chainlink/contracts/src/v0.6/interfaces/AggregatorV3Interface.sol\";\n\nimport \"./IPricingStrategy.sol\";\nimport \"./CollectCoinIco.sol\";\n\ncontract MilestonePricingStrategy is IPricingStrategy, Ownable \n{\n  using SafeMath for uint;\n\n  /* BNB/USD price feed */\n  AggregatorV3Interface internal priceFeed;\n\n  /**\n  * Define pricing schedule using milestones.\n  */\n  struct Milestone {\n\n      // number of CLCT tokens solds when this milestone kicks in\n      uint soldTokenCount;\n\n      // How many tokens per wei you will get after this milestone has been passed\n      uint price;\n  }\n\n  // Store milestones in a fixed array, so that it can be seen in a blockchain explorer\n  Milestone[4] public milestones;\n\n  constructor(address _priceFeed)\n  {\n    priceFeed = AggregatorV3Interface(_priceFeed);\n\n    milestones[0].soldTokenCount = 0;\n    milestones[0].price = 0.05 * 10 ** 8;\n\n    milestones[1].soldTokenCount = 5000000 * 10**18;\n    milestones[1].price = 0.065 * 10 ** 8;\n\n    milestones[2].soldTokenCount = 10000000 * 10**18;\n    milestones[2].price = 0.075 * 10 ** 8;\n\n    milestones[3].soldTokenCount = 15000000 * 10**18;\n    milestones[3].price = 0.08 * 10 ** 8;\n  }\n\n  /// @dev Iterate through milestones. You reach end of milestones when price = 0\n  /// @return soldTokenCount\n  /// @return price\n  function getMilestone(uint n) external view returns (uint soldTokenCount, uint price) {\n    soldTokenCount = milestones[n].soldTokenCount;\n    price = milestones[n].price;\n    //return (milestones[n].soldTokenCount, milestones[n].price);\n  }\n\n  function getAllMilestones() external view returns (Milestone[4] memory)\n    {\n        return milestones;\n    }\n\n  function isPricingStrategy() override external pure returns (bool) {\n    return true;\n  }\n\n  /** Self check if all references are correctly set.\n   *\n   * Checks that pricing strategy matches crowdsale parameters.\n   */\n  function isSane() override external pure returns (bool)\n  {\n    return true;\n  }\n\n  function currentUnitPrice(uint256 totalTokensSold) override external view returns (uint unitPrice, uint feedPrice)\n  {\n    return getCurrentPrice(totalTokensSold);\n  }\n\n  /**\n   * When somebody tries to buy tokens for X eth, calculate how many tokens they get.\n   *\n   *\n   * @param value - What is the value of the transaction send in as wei\n   * @param tokensSold - how much tokens have been sold this far\n   * @param decimals - how many decimal units the token has\n   * @return tokenAmount - Amount of tokens the investor receives\n   */\n  function calculateTokenAmount(uint value, uint tokensSold, uint decimals) override public view returns (uint tokenAmount)\n  {\n    uint availableWei = value;\n    tokenAmount = 0;\n\n    uint feedPrice = getPriceFromFeed(); // USD / BNB (* 10**8)\n    \n    // save the amount of tokens from the previous milestones for the loop\n    uint currentCapacity = 0;\n\n    uint i;\n    for(i=0; i<milestones.length; i++) {\n      bool isLastMilestone = i+1 == milestones.length;\n      uint unitPriceBnbWei = (milestones[i].price * 10**decimals) / uint(feedPrice);\n      \n      // the current milestones token capacity: if it's the last milestone, there are as many tokens as the sent wei can buy\n      currentCapacity = isLastMilestone ? (availableWei * 10**decimals / unitPriceBnbWei) + tokensSold : milestones[i+1].soldTokenCount;\n\n      // if this milestone hasn't been sold out yet, we start selling tokens from here\n      if(tokensSold < currentCapacity) \n      {\n        // get the remaining token count for this level\n        uint availableTokensInMilestone = isLastMilestone ? (availableWei * 10**decimals / unitPriceBnbWei) : currentCapacity - tokensSold;\n\n        // calculate the price for this level\n        //uint tokenPriceWei = (milestones[i].price * 10**decimals) / feedPrice;\n        uint maxBuyableTokens = availableWei * 10**decimals / unitPriceBnbWei;\n        //return maxBuyableTokens;\n\n        uint buyableTokens = maxBuyableTokens >= availableTokensInMilestone ? availableTokensInMilestone : maxBuyableTokens;\n\n        // reduce the tokenAmount by the available tokens of this milestone\n        tokenAmount = tokenAmount + buyableTokens;\n\n        availableWei = availableWei - (buyableTokens * unitPriceBnbWei) / 10**decimals;\n\n        // increase tokensSold by the amount of tokens just \"sold\"\n        tokensSold = tokensSold + buyableTokens;\n      }\n\n      // if all wei has been spent, return the token amount\n      if(availableWei == 0) {\n        return tokenAmount;\n      }\n    }\n\n    return tokenAmount;\n  }\n\n  /// @dev Gets the prices for a specific amount of tokens: total and average\n  function calculatePriceForTokenAmount(uint tokenAmount, uint tokensSold, uint decimals) public view returns (uint totalPrice, uint avgPrice) {\n    totalPrice = 0;\n\n    uint i;\n\n    uint feedPrice = getPriceFromFeed(); // USD / BNB (* 10**8)\n\n    // save the amount of tokens from the previous milestones for the loop\n    uint currentCapacity = 0;\n\n    for(i=0; i<milestones.length; i++) {\n\n      bool isLastMilestone = i+1 == milestones.length;\n\n      // recalculate the currently available capacity of this milestone\n      // the upper limit comes from the next milestone's entry level. \n      // if we're in the last milestone, the upper limit is the requested amount\n      currentCapacity = isLastMilestone ? tokensSold + tokenAmount + 1 : milestones[i+1].soldTokenCount;\n\n      // if this milestone hasn't been sold out yet, we start selling tokens from here\n      //if(tokensSold == 0 || tokensSold < milestones[i].soldTokenCount + currentCapacity) {\n      if(tokensSold < currentCapacity) {\n        // get the remaining token count for this level\n        uint availableTokensInMilestone = isLastMilestone ? tokenAmount : currentCapacity - tokensSold;\n\n        // sell all remaining tokens of this milestone if requested amount is greater, otherwise the remaing requested tokens\n        uint tokensToSell = availableTokensInMilestone;\n        if( availableTokensInMilestone > tokenAmount) {\n          tokensToSell = tokenAmount;\n        }\n\n        // calculate the price for this level, sum up for each milestone\n        uint tokenPriceWei = (milestones[i].price * 10 ** decimals) / feedPrice;\n        \n        totalPrice += (tokensToSell.mul(tokenPriceWei) / 10 ** decimals);\n        //totalPrice = i;\n\n        // reduce the tokenAmount by the available tokens of this milestone\n        tokenAmount = tokenAmount - tokensToSell;\n\n        // increase tokensSold by the amount of tokens just \"sold\"\n        tokensSold = tokensSold + tokensToSell;\n      }\n\n      // if all requested tokens have been calculated, return the price\n      if(tokenAmount == 0) {\n        return (totalPrice, 0);\n      }\n    }\n\n    require(tokenAmount == 0, \"couldn't sell all tokens\");\n\n    //return (totalPrice, 0);\n  }\n\n  /// @dev Get the current unitPrice and feedPrice.\n  /// @return unitPrice == The current price or 0 if we are outside milestone period\n  function getCurrentPrice(uint tokensSold) public view returns (uint unitPrice, uint feedPrice) {\n    (, int price, , ,) = priceFeed.latestRoundData();\n\n    (Milestone memory milestone, ) = getCurrentMilestone(tokensSold);\n\n    feedPrice = uint(price);\n    uint usdPrice = milestone.price;\n    unitPrice = (usdPrice * 10 ** 18) / uint(feedPrice);\n\n    return (unitPrice, feedPrice);\n  }\n\n  function getPriceFromFeed() private view returns (uint feedPrice) {\n    (, int price, , ,) = priceFeed.latestRoundData();\n\n      feedPrice = uint(price);\n      return feedPrice;\n  }\n\n  /// @dev Get the current milestone or bail out if we are not in the milestone periods.\n  /// @param tokensSold - how much tokens have been sold this far\n  /// @return Mileston struct or default if none found (price == 0)\n  function getCurrentMilestone(uint tokensSold) private view returns (Milestone memory, uint index) {\n    uint i;\n\n    for(i=0; i<milestones.length; i++) {\n      if(tokensSold < milestones[i].soldTokenCount) {\n        return (milestones[i-1], i);\n      }\n    }\n\n    // nothing found\n    return (milestones[0], 0);\n  }\n}\n",
  "sourcePath": "/share/contracts/MilestonePricingStrategy.sol",
  "compiler": {
    "name": "solc",
    "version": "0.8.6+commit.11564f7e.Emscripten.clang"
  },
  "schemaVersion": "3.4.3",
  "updatedAt": "2021-10-17T13:56:56.164Z",
  "devdoc": {
    "kind": "dev",
    "methods": {
      "calculatePriceForTokenAmount(uint256,uint256,uint256)": {
        "details": "Gets the prices for a specific amount of tokens: total and average"
      },
      "calculateTokenAmount(uint256,uint256,uint256)": {
        "params": {
          "decimals": "- how many decimal units the token has",
          "tokensSold": "- how much tokens have been sold this far",
          "value": "- What is the value of the transaction send in as wei"
        },
        "returns": {
          "tokenAmount": "- Amount of tokens the investor receives"
        }
      },
      "getCurrentPrice(uint256)": {
        "details": "Get the current unitPrice and feedPrice.",
        "returns": {
          "unitPrice": "== The current price or 0 if we are outside milestone period"
        }
      },
      "getMilestone(uint256)": {
        "details": "Iterate through milestones. You reach end of milestones when price = 0",
        "returns": {
          "price": "price",
          "soldTokenCount": "soldTokenCount"
        }
      },
      "owner()": {
        "details": "Returns the address of the current owner."
      },
      "renounceOwnership()": {
        "details": "Leaves the contract without owner. It will not be possible to call `onlyOwner` functions anymore. Can only be called by the current owner. NOTE: Renouncing ownership will leave the contract without an owner, thereby removing any functionality that is only available to the owner."
      },
      "transferOwnership(address)": {
        "details": "Transfers ownership of the contract to a new account (`newOwner`). Can only be called by the current owner."
      }
    },
    "version": 1
  },
  "userdoc": {
    "kind": "user",
    "methods": {
      "calculateTokenAmount(uint256,uint256,uint256)": {
        "notice": "When somebody tries to buy tokens for X eth, calculate how many tokens they get."
      },
      "isPricingStrategy()": {
        "notice": "Interface declaration. "
      },
      "isSane()": {
        "notice": "Self check if all references are correctly set. Checks that pricing strategy matches crowdsale parameters."
      }
    },
    "version": 1
  }
}