{
  "contractName": "MilestonePricingStrategy",
  "abi": [
    {
      "inputs": [
        {
          "internalType": "address",
          "name": "_priceFeed",
          "type": "address"
        }
      ],
      "stateMutability": "nonpayable",
      "type": "constructor"
    },
    {
      "anonymous": false,
      "inputs": [
        {
          "indexed": true,
          "internalType": "address",
          "name": "previousOwner",
          "type": "address"
        },
        {
          "indexed": true,
          "internalType": "address",
          "name": "newOwner",
          "type": "address"
        }
      ],
      "name": "OwnershipTransferred",
      "type": "event"
    },
    {
      "inputs": [],
      "name": "milestoneCount",
      "outputs": [
        {
          "internalType": "uint256",
          "name": "",
          "type": "uint256"
        }
      ],
      "stateMutability": "view",
      "type": "function",
      "constant": true
    },
    {
      "inputs": [
        {
          "internalType": "uint256",
          "name": "",
          "type": "uint256"
        }
      ],
      "name": "milestones",
      "outputs": [
        {
          "internalType": "uint256",
          "name": "soldTokenCount",
          "type": "uint256"
        },
        {
          "internalType": "uint256",
          "name": "price",
          "type": "uint256"
        }
      ],
      "stateMutability": "view",
      "type": "function",
      "constant": true
    },
    {
      "inputs": [],
      "name": "owner",
      "outputs": [
        {
          "internalType": "address",
          "name": "",
          "type": "address"
        }
      ],
      "stateMutability": "view",
      "type": "function",
      "constant": true
    },
    {
      "inputs": [],
      "name": "renounceOwnership",
      "outputs": [],
      "stateMutability": "nonpayable",
      "type": "function"
    },
    {
      "inputs": [
        {
          "internalType": "address",
          "name": "newOwner",
          "type": "address"
        }
      ],
      "name": "transferOwnership",
      "outputs": [],
      "stateMutability": "nonpayable",
      "type": "function"
    },
    {
      "inputs": [
        {
          "internalType": "uint256",
          "name": "n",
          "type": "uint256"
        }
      ],
      "name": "getMilestone",
      "outputs": [
        {
          "internalType": "uint256",
          "name": "soldTokenCount",
          "type": "uint256"
        },
        {
          "internalType": "uint256",
          "name": "price",
          "type": "uint256"
        }
      ],
      "stateMutability": "view",
      "type": "function",
      "constant": true
    },
    {
      "inputs": [],
      "name": "getAllMilestones",
      "outputs": [
        {
          "components": [
            {
              "internalType": "uint256",
              "name": "soldTokenCount",
              "type": "uint256"
            },
            {
              "internalType": "uint256",
              "name": "price",
              "type": "uint256"
            }
          ],
          "internalType": "struct MilestonePricingStrategy.Milestone[4]",
          "name": "",
          "type": "tuple[4]"
        }
      ],
      "stateMutability": "view",
      "type": "function",
      "constant": true
    },
    {
      "inputs": [],
      "name": "isPricingStrategy",
      "outputs": [
        {
          "internalType": "bool",
          "name": "",
          "type": "bool"
        }
      ],
      "stateMutability": "pure",
      "type": "function",
      "constant": true
    },
    {
      "inputs": [],
      "name": "isSane",
      "outputs": [
        {
          "internalType": "bool",
          "name": "",
          "type": "bool"
        }
      ],
      "stateMutability": "pure",
      "type": "function",
      "constant": true
    },
    {
      "inputs": [
        {
          "internalType": "uint256",
          "name": "totalTokensSold",
          "type": "uint256"
        }
      ],
      "name": "currentUnitPrice",
      "outputs": [
        {
          "internalType": "uint256",
          "name": "unitPrice",
          "type": "uint256"
        },
        {
          "internalType": "uint256",
          "name": "feedPrice",
          "type": "uint256"
        }
      ],
      "stateMutability": "view",
      "type": "function",
      "constant": true
    },
    {
      "inputs": [
        {
          "internalType": "uint256",
          "name": "value",
          "type": "uint256"
        },
        {
          "internalType": "uint256",
          "name": "tokensSold",
          "type": "uint256"
        },
        {
          "internalType": "uint256",
          "name": "decimals",
          "type": "uint256"
        }
      ],
      "name": "calculateTokenAmount",
      "outputs": [
        {
          "internalType": "uint256",
          "name": "tokenAmount",
          "type": "uint256"
        }
      ],
      "stateMutability": "view",
      "type": "function",
      "constant": true
    },
    {
      "inputs": [
        {
          "internalType": "uint256",
          "name": "tokenAmount",
          "type": "uint256"
        },
        {
          "internalType": "uint256",
          "name": "tokensSold",
          "type": "uint256"
        },
        {
          "internalType": "uint256",
          "name": "decimals",
          "type": "uint256"
        }
      ],
      "name": "calculatePriceForTokenAmount",
      "outputs": [
        {
          "internalType": "uint256",
          "name": "totalPrice",
          "type": "uint256"
        },
        {
          "internalType": "uint256",
          "name": "avgPrice",
          "type": "uint256"
        }
      ],
      "stateMutability": "view",
      "type": "function",
      "constant": true
    },
    {
      "inputs": [
        {
          "internalType": "uint256",
          "name": "tokensSold",
          "type": "uint256"
        }
      ],
      "name": "getCurrentPrice",
      "outputs": [
        {
          "internalType": "uint256",
          "name": "unitPrice",
          "type": "uint256"
        },
        {
          "internalType": "uint256",
          "name": "feedPrice",
          "type": "uint256"
        }
      ],
      "stateMutability": "view",
      "type": "function",
      "constant": true
    }
  ],
  "bytecode": "0x60806040523480156200001157600080fd5b5060405162001b9a38038062001b9a8339818101604052810190620000379190620003b4565b6000620000496200039560201b60201c565b9050806000806101000a81548173ffffffffffffffffffffffffffffffffffffffff021916908373ffffffffffffffffffffffffffffffffffffffff1602179055508073ffffffffffffffffffffffffffffffffffffffff16600073ffffffffffffffffffffffffffffffffffffffff167f8be0079c531659141344cd1fd0a4f28419497f9722a3daafe3b4186f6b6457e060405160405180910390a35080600160006101000a81548173ffffffffffffffffffffffffffffffffffffffff021916908373ffffffffffffffffffffffffffffffffffffffff1602179055506000600260006004811062000166577f4e487b7100000000000000000000000000000000000000000000000000000000600052603260045260246000fd5b6002020160000181905550624c4b406002600060048110620001b1577f4e487b7100000000000000000000000000000000000000000000000000000000600052603260045260246000fd5b6002020160010181905550680d8d726b7177a80000600260016004811062000202577f4e487b7100000000000000000000000000000000000000000000000000000000600052603260045260246000fd5b600202016000018190555062632ea060026001600481106200024d577f4e487b7100000000000000000000000000000000000000000000000000000000600052603260045260246000fd5b600202016001018190555068233c8fe42703e80000600280600481106200029d577f4e487b7100000000000000000000000000000000000000000000000000000000600052603260045260246000fd5b6002020160000181905550627270e060028060048110620002e7577f4e487b7100000000000000000000000000000000000000000000000000000000600052603260045260246000fd5b60020201600101819055506838ebad5cdc90280000600260036004811062000338577f4e487b7100000000000000000000000000000000000000000000000000000000600052603260045260246000fd5b6002020160000181905550627a1200600260036004811062000383577f4e487b7100000000000000000000000000000000000000000000000000000000600052603260045260246000fd5b6002020160010181905550506200042e565b600033905090565b600081519050620003ae8162000414565b92915050565b600060208284031215620003c757600080fd5b6000620003d7848285016200039d565b91505092915050565b6000620003ed82620003f4565b9050919050565b600073ffffffffffffffffffffffffffffffffffffffff82169050919050565b6200041f81620003e0565b81146200042b57600080fd5b50565b61175c806200043e6000396000f3fe608060405234801561001057600080fd5b50600436106100cf5760003560e01c80638da5cb5b1161008c578063d3f5c15f11610066578063d3f5c15f14610206578063e6a7e30814610237578063e89e4ed614610268578063f2fde38b14610299576100cf565b80638da5cb5b14610187578063a7c4abdb146101a5578063c55d0f56146101d5576100cf565b806304bbc255146100d45780630681ca55146100f25780632442e1cb146101105780635c43dd9914610141578063715018a61461015f57806382771c8e14610169575b600080fd5b6100dc6102b5565b6040516100e9919061122b565b60405180910390f35b6100fa6102be565b60405161010791906112a6565b60405180910390f35b61012a60048036038101906101259190610f45565b6102c4565b6040516101389291906112c1565b60405180910390f35b610149610354565b604051610156919061120f565b60405180910390f35b6101676103ba565b005b6101716104f4565b60405161017e919061122b565b60405180910390f35b61018f6104fd565b60405161019c91906111f4565b60405180910390f35b6101bf60048036038101906101ba9190610f6e565b610526565b6040516101cc91906112a6565b60405180910390f35b6101ef60048036038101906101ea9190610f45565b610754565b6040516101fd9291906112c1565b60405180910390f35b610220600480360381019061021b9190610f45565b610842565b60405161022e9291906112c1565b60405180910390f35b610251600480360381019061024c9190610f6e565b610857565b60405161025f9291906112c1565b60405180910390f35b610282600480360381019061027d9190610f45565b610a71565b6040516102909291906112c1565b60405180910390f35b6102b360048036038101906102ae9190610f1c565b610a9b565b005b60006001905090565b600a5481565b60008060028360048110610301577f4e487b7100000000000000000000000000000000000000000000000000000000600052603260045260246000fd5b6002020160000154915060028360048110610345577f4e487b7100000000000000000000000000000000000000000000000000000000600052603260045260246000fd5b60020201600101549050915091565b61035c610e6c565b6002600480602002604051908101604052809291906000905b828210156103b1578382600202016040518060400160405290816000820154815260200160018201548152505081526020019060010190610375565b50505050905090565b6103c2610c44565b73ffffffffffffffffffffffffffffffffffffffff166103e06104fd565b73ffffffffffffffffffffffffffffffffffffffff1614610436576040517f08c379a000000000000000000000000000000000000000000000000000000000815260040161042d90611286565b60405180910390fd5b600073ffffffffffffffffffffffffffffffffffffffff1660008054906101000a900473ffffffffffffffffffffffffffffffffffffffff1673ffffffffffffffffffffffffffffffffffffffff167f8be0079c531659141344cd1fd0a4f28419497f9722a3daafe3b4186f6b6457e060405160405180910390a360008060006101000a81548173ffffffffffffffffffffffffffffffffffffffff021916908373ffffffffffffffffffffffffffffffffffffffff160217905550565b60006001905090565b60008060009054906101000a900473ffffffffffffffffffffffffffffffffffffffff16905090565b60008084905060009150600061053a610c4c565b90506000805b6004811015610748576000600460018361055a9190611328565b14905060008488600a61056d9190611402565b600285600481106105a7577f4e487b7100000000000000000000000000000000000000000000000000000000600052603260045260246000fd5b60020201600101546105b99190611520565b6105c3919061137e565b90508161061d5760026001846105d99190611328565b60048110610610577f4e487b7100000000000000000000000000000000000000000000000000000000600052603260045260246000fd5b600202016000015461064c565b888189600a61062c9190611402565b886106379190611520565b610641919061137e565b61064b9190611328565b5b93508389101561071f5760008261066e578985610669919061157a565b610692565b8189600a61067c9190611402565b886106879190611520565b610691919061137e565b5b90506000828a600a6106a49190611402565b896106af9190611520565b6106b9919061137e565b90506000828210156106cb57816106cd565b825b9050808a6106db9190611328565b99508a600a6106ea9190611402565b84826106f69190611520565b610700919061137e565b8961070b919061157a565b9850808c6107199190611328565b9b505050505b60008614156107335750505050505061074d565b5050808061074090611616565b915050610540565b505050505b9392505050565b6000806000600160009054906101000a900473ffffffffffffffffffffffffffffffffffffffff1673ffffffffffffffffffffffffffffffffffffffff1663feaf968c6040518163ffffffff1660e01b815260040160a06040518083038186803b1580156107c157600080fd5b505afa1580156107d5573d6000803e3d6000fd5b505050506040513d601f19601f820116820180604052508101906107f99190610fbd565b505050915050600061080a85610cfc565b50905081925060008160200151905083670de0b6b3a76400008261082e9190611520565b610838919061137e565b9450505050915091565b60008061084e83610754565b91509150915091565b60008060009150600080610869610c4c565b905060008092505b6004831015610a22576000600460018561088b9190611328565b149050806108e65760026001856108a29190611328565b600481106108d9577f4e487b7100000000000000000000000000000000000000000000000000000000600052603260045260246000fd5b60020201600001546108ff565b600189896108f49190611328565b6108fe9190611328565b5b9150818810156109f55760008161092157888361091c919061157a565b610923565b895b905060008190508a821115610936578a90505b6000858a600a6109469190611402565b60028960048110610980577f4e487b7100000000000000000000000000000000000000000000000000000000600052603260045260246000fd5b60020201600101546109929190611520565b61099c919061137e565b905089600a6109ab9190611402565b6109be8284610e5690919063ffffffff16565b6109c8919061137e565b896109d39190611328565b9850818c6109e1919061157a565b9b50818b6109ef9190611328565b9a505050505b6000891415610a0e578560009550955050505050610a69565b508280610a1a90611616565b935050610871565b60008814610a65576040517f08c379a0000000000000000000000000000000000000000000000000000000008152600401610a5c90611266565b60405180910390fd5b5050505b935093915050565b60028160048110610a8157600080fd5b600202016000915090508060000154908060010154905082565b610aa3610c44565b73ffffffffffffffffffffffffffffffffffffffff16610ac16104fd565b73ffffffffffffffffffffffffffffffffffffffff1614610b17576040517f08c379a0000000000000000000000000000000000000000000000000000000008152600401610b0e90611286565b60405180910390fd5b600073ffffffffffffffffffffffffffffffffffffffff168173ffffffffffffffffffffffffffffffffffffffff161415610b87576040517f08c379a0000000000000000000000000000000000000000000000000000000008152600401610b7e90611246565b60405180910390fd5b8073ffffffffffffffffffffffffffffffffffffffff1660008054906101000a900473ffffffffffffffffffffffffffffffffffffffff1673ffffffffffffffffffffffffffffffffffffffff167f8be0079c531659141344cd1fd0a4f28419497f9722a3daafe3b4186f6b6457e060405160405180910390a3806000806101000a81548173ffffffffffffffffffffffffffffffffffffffff021916908373ffffffffffffffffffffffffffffffffffffffff16021790555050565b600033905090565b600080600160009054906101000a900473ffffffffffffffffffffffffffffffffffffffff1673ffffffffffffffffffffffffffffffffffffffff1663feaf968c6040518163ffffffff1660e01b815260040160a06040518083038186803b158015610cb757600080fd5b505afa158015610ccb573d6000803e3d6000fd5b505050506040513d601f19601f82011682018060405250810190610cef9190610fbd565b5050509150508091505090565b610d04610e99565b600080600090505b6004811015610de85760028160048110610d4f577f4e487b7100000000000000000000000000000000000000000000000000000000600052603260045260246000fd5b6002020160000154841015610dd5576002600182610d6d919061157a565b60048110610da4577f4e487b7100000000000000000000000000000000000000000000000000000000600052603260045260246000fd5b6002020181816040518060400160405290816000820154815260200160018201548152505091509250925050610e51565b8080610de090611616565b915050610d0c565b6002600060048110610e23577f4e487b7100000000000000000000000000000000000000000000000000000000600052603260045260246000fd5b6002020160008160405180604001604052908160008201548152602001600182015481525050915092509250505b915091565b60008183610e649190611520565b905092915050565b60405180608001604052806004905b610e83610e99565b815260200190600190039081610e7b5790505090565b604051806040016040528060008152602001600081525090565b600081359050610ec2816116ca565b92915050565b600081519050610ed7816116e1565b92915050565b600081359050610eec816116f8565b92915050565b600081519050610f01816116f8565b92915050565b600081519050610f168161170f565b92915050565b600060208284031215610f2e57600080fd5b6000610f3c84828501610eb3565b91505092915050565b600060208284031215610f5757600080fd5b6000610f6584828501610edd565b91505092915050565b600080600060608486031215610f8357600080fd5b6000610f9186828701610edd565b9350506020610fa286828701610edd565b9250506040610fb386828701610edd565b9150509250925092565b600080600080600060a08688031215610fd557600080fd5b6000610fe388828901610f07565b9550506020610ff488828901610ec8565b945050604061100588828901610ef2565b935050606061101688828901610ef2565b925050608061102788828901610f07565b9150509295509295909350565b600061104083836111a7565b60408301905092915050565b611055816115ae565b82525050565b611064816112f4565b61106e818461130c565b9250611079826112ea565b8060005b838110156110aa5781516110918782611034565b965061109c836112ff565b92505060018101905061107d565b505050505050565b6110bb816115c0565b82525050565b60006110ce602683611317565b91507f4f776e61626c653a206e6577206f776e657220697320746865207a65726f206160008301527f64647265737300000000000000000000000000000000000000000000000000006020830152604082019050919050565b6000611134601883611317565b91507f636f756c646e27742073656c6c20616c6c20746f6b656e7300000000000000006000830152602082019050919050565b6000611174602083611317565b91507f4f776e61626c653a2063616c6c6572206973206e6f7420746865206f776e65726000830152602082019050919050565b6040820160008201516111bd60008501826111d6565b5060208201516111d060208501826111d6565b50505050565b6111df816115f6565b82525050565b6111ee816115f6565b82525050565b6000602082019050611209600083018461104c565b92915050565b600061010082019050611225600083018461105b565b92915050565b600060208201905061124060008301846110b2565b92915050565b6000602082019050818103600083015261125f816110c1565b9050919050565b6000602082019050818103600083015261127f81611127565b9050919050565b6000602082019050818103600083015261129f81611167565b9050919050565b60006020820190506112bb60008301846111e5565b92915050565b60006040820190506112d660008301856111e5565b6112e360208301846111e5565b9392505050565b6000819050919050565b600060049050919050565b6000602082019050919050565b600081905092915050565b600082825260208201905092915050565b6000611333826115f6565b915061133e836115f6565b9250827fffffffffffffffffffffffffffffffffffffffffffffffffffffffffffffffff038211156113735761137261165f565b5b828201905092915050565b6000611389826115f6565b9150611394836115f6565b9250826113a4576113a361168e565b5b828204905092915050565b6000808291508390505b60018511156113f9578086048111156113d5576113d461165f565b5b60018516156113e45780820291505b80810290506113f2856116bd565b94506113b9565b94509492505050565b600061140d826115f6565b9150611418836115f6565b92506114457fffffffffffffffffffffffffffffffffffffffffffffffffffffffffffffffff848461144d565b905092915050565b60008261145d5760019050611519565b8161146b5760009050611519565b8160018114611481576002811461148b576114ba565b6001915050611519565b60ff84111561149d5761149c61165f565b5b8360020a9150848211156114b4576114b361165f565b5b50611519565b5060208310610133831016604e8410600b84101617156114ef5782820a9050838111156114ea576114e961165f565b5b611519565b6114fc84848460016113af565b925090508184048111156115135761151261165f565b5b81810290505b9392505050565b600061152b826115f6565b9150611536836115f6565b9250817fffffffffffffffffffffffffffffffffffffffffffffffffffffffffffffffff048311821515161561156f5761156e61165f565b5b828202905092915050565b6000611585826115f6565b9150611590836115f6565b9250828210156115a3576115a261165f565b5b828203905092915050565b60006115b9826115d6565b9050919050565b60008115159050919050565b6000819050919050565b600073ffffffffffffffffffffffffffffffffffffffff82169050919050565b6000819050919050565b600069ffffffffffffffffffff82169050919050565b6000611621826115f6565b91507fffffffffffffffffffffffffffffffffffffffffffffffffffffffffffffffff8214156116545761165361165f565b5b600182019050919050565b7f4e487b7100000000000000000000000000000000000000000000000000000000600052601160045260246000fd5b7f4e487b7100000000000000000000000000000000000000000000000000000000600052601260045260246000fd5b60008160011c9050919050565b6116d3816115ae565b81146116de57600080fd5b50565b6116ea816115cc565b81146116f557600080fd5b50565b611701816115f6565b811461170c57600080fd5b50565b61171881611600565b811461172357600080fd5b5056fea2646970667358221220bda20bab7fc9d32630e5d087616af915c937065dddca2ba43cfe5345ce72515364736f6c63430008000033",
  "immutableReferences": {},
  "source": "// SPDX-License-Identifier: UNLICENSED\npragma solidity ^0.8.0;\n\nimport \"@openzeppelin/contracts/utils/math/SafeMath.sol\";\nimport \"@openzeppelin/contracts/access/Ownable.sol\";\nimport \"@chainlink/contracts/src/v0.6/interfaces/AggregatorV3Interface.sol\";\n\nimport \"./IPricingStrategy.sol\";\nimport \"./CollectCoinIco.sol\";\n\ncontract MilestonePricingStrategy is IPricingStrategy, Ownable \n{\n  using SafeMath for uint;\n\n  /* BNB/USD price feed */\n  AggregatorV3Interface internal priceFeed;\n\n  /**\n  * Define pricing schedule using milestones.\n  */\n  struct Milestone {\n\n      // number of CLCT tokens solds when this milestone kicks in\n      uint soldTokenCount;\n\n      // How many tokens per wei you will get after this milestone has been passed\n      uint price;\n  }\n\n  // Store milestones in a fixed array, so that it can be seen in a blockchain explorer\n  Milestone[4] public milestones;\n\n  // How many active milestones we have\n  uint public milestoneCount;\n\n  constructor(address _priceFeed)\n  {\n    priceFeed = AggregatorV3Interface(_priceFeed);\n\n    milestones[0].soldTokenCount = 0;\n    milestones[0].price = 0.05 * 10 ** 8;\n\n    milestones[1].soldTokenCount = 250 * 10**18;\n    milestones[1].price = 0.065 * 10 ** 8;\n\n    milestones[2].soldTokenCount = 650 * 10**18;\n    milestones[2].price = 0.075 * 10 ** 8;\n\n    milestones[3].soldTokenCount = 1050 * 10**18;\n    milestones[3].price = 0.08 * 10 ** 8;\n  }\n\n  /// @dev Iterate through milestones. You reach end of milestones when price = 0\n  /// @return soldTokenCount\n  /// @return price\n  function getMilestone(uint n) public view returns (uint soldTokenCount, uint price) {\n    soldTokenCount = milestones[n].soldTokenCount;\n    price = milestones[n].price;\n    //return (milestones[n].soldTokenCount, milestones[n].price);\n  }\n\n  function getAllMilestones() public view returns (Milestone[4] memory)\n    {\n        return milestones;\n    }\n\n  function isPricingStrategy() override public pure returns (bool) {\n    return true;\n  }\n\n  /** Self check if all references are correctly set.\n   *\n   * Checks that pricing strategy matches crowdsale parameters.\n   */\n  function isSane() override public pure returns (bool)\n  {\n    return true;\n  }\n\n  function currentUnitPrice(uint256 totalTokensSold) override public view returns (uint unitPrice, uint feedPrice)\n  {\n    return getCurrentPrice(totalTokensSold);\n  }\n\n  /**\n   * When somebody tries to buy tokens for X eth, calculate how many tokens they get.\n   *\n   *\n   * @param value - What is the value of the transaction send in as wei\n   * @param tokensSold - how much tokens have been sold this far\n   * @param decimals - how many decimal units the token has\n   * @return tokenAmount - Amount of tokens the investor receives\n   */\n  function calculateTokenAmount(uint value, uint tokensSold, uint decimals) \n  override public view returns (uint tokenAmount)\n  {\n    uint availableWei = value;\n    tokenAmount = 0;\n\n    uint feedPrice = getPriceFromFeed(); // USD / BNB (* 10**8)\n    \n    // save the amount of tokens from the previous milestones for the loop\n    uint currentCapacity = 0;\n\n    uint i;\n    for(i=0; i<milestones.length; i++) {\n      bool isLastMilestone = i+1 == milestones.length;\n      uint unitPriceBnbWei = (milestones[i].price * 10**decimals) / uint(feedPrice);\n      \n      // the current milestones token capacity: if it's the last milestone, there are as many tokens as the sent wei can buy\n      currentCapacity = isLastMilestone ? (availableWei * 10**decimals / unitPriceBnbWei) + tokensSold : milestones[i+1].soldTokenCount;\n\n      // if this milestone hasn't been sold out yet, we start selling tokens from here\n      if(tokensSold < currentCapacity) \n      {\n        // get the remaining token count for this level\n        uint availableTokensInMilestone = isLastMilestone ? (availableWei * 10**decimals / unitPriceBnbWei) : currentCapacity - tokensSold;\n\n        // calculate the price for this level\n        //uint tokenPriceWei = (milestones[i].price * 10**decimals) / feedPrice;\n        uint maxBuyableTokens = availableWei * 10**decimals / unitPriceBnbWei;\n        //return maxBuyableTokens;\n\n        uint buyableTokens = maxBuyableTokens >= availableTokensInMilestone ? availableTokensInMilestone : maxBuyableTokens;\n\n        // reduce the tokenAmount by the available tokens of this milestone\n        tokenAmount = tokenAmount + buyableTokens;\n\n        availableWei = availableWei - (buyableTokens * unitPriceBnbWei) / 10**decimals;\n\n        // increase tokensSold by the amount of tokens just \"sold\"\n        tokensSold = tokensSold + buyableTokens;\n      }\n\n      // if all wei has been spent, return the token amount\n      if(availableWei == 0) {\n        return tokenAmount;\n      }\n    }\n\n    return tokenAmount;\n  }\n\n  /// @dev Gets the prices for a specific amount of tokens: total and average\n  function calculatePriceForTokenAmount(uint tokenAmount, uint tokensSold, uint decimals) public view returns (uint totalPrice, uint avgPrice) {\n    totalPrice = 0;\n\n    uint i;\n\n    uint feedPrice = getPriceFromFeed(); // USD / BNB (* 10**8)\n\n    // save the amount of tokens from the previous milestones for the loop\n    uint currentCapacity = 0;\n\n    for(i=0; i<milestones.length; i++) {\n\n      bool isLastMilestone = i+1 == milestones.length;\n\n      // recalculate the currently available capacity of this milestone\n      // the upper limit comes from the next milestone's entry level. \n      // if we're in the last milestone, the upper limit is the requested amount\n      currentCapacity = isLastMilestone ? tokensSold + tokenAmount + 1 : milestones[i+1].soldTokenCount;\n\n      // if this milestone hasn't been sold out yet, we start selling tokens from here\n      //if(tokensSold == 0 || tokensSold < milestones[i].soldTokenCount + currentCapacity) {\n      if(tokensSold < currentCapacity) {\n        // get the remaining token count for this level\n        uint availableTokensInMilestone = isLastMilestone ? tokenAmount : currentCapacity - tokensSold;\n\n        // sell all remaining tokens of this milestone if requested amount is greater, otherwise the remaing requested tokens\n        uint tokensToSell = availableTokensInMilestone;\n        if( availableTokensInMilestone > tokenAmount) {\n          tokensToSell = tokenAmount;\n        }\n\n        // calculate the price for this level, sum up for each milestone\n        uint tokenPriceWei = (milestones[i].price * 10 ** decimals) / feedPrice;\n        \n        totalPrice += (tokensToSell.mul(tokenPriceWei) / 10 ** decimals);\n        //totalPrice = i;\n\n        // reduce the tokenAmount by the available tokens of this milestone\n        tokenAmount = tokenAmount - tokensToSell;\n\n        // increase tokensSold by the amount of tokens just \"sold\"\n        tokensSold = tokensSold + tokensToSell;\n      }\n\n      // if all requested tokens have been calculated, return the price\n      if(tokenAmount == 0) {\n        return (totalPrice, 0);\n      }\n    }\n\n    require(tokenAmount == 0, \"couldn't sell all tokens\");\n\n    //return (totalPrice, 0);\n  }\n\n  /// @dev Get the current unitPrice and feedPrice.\n  /// @return unitPrice == The current price or 0 if we are outside milestone period\n  function getCurrentPrice(uint tokensSold) public view returns (uint unitPrice, uint feedPrice) {\n\n    (, int price, , ,) = priceFeed.latestRoundData();\n\n    (Milestone memory milestone, ) = getCurrentMilestone(tokensSold);\n\n    feedPrice = uint(price);\n    uint usdPrice = milestone.price;\n    unitPrice = (usdPrice * 10 ** 18) / uint(feedPrice);\n\n    return (unitPrice, feedPrice);\n  }\n\n  function getPriceFromFeed() private view returns (uint feedPrice) {\n\n    (, int price, , ,) = priceFeed.latestRoundData();\n\n    feedPrice = uint(price);\n    return feedPrice;\n  }\n\n  /// @dev Get the current milestone or bail out if we are not in the milestone periods.\n  /// @param tokensSold - how much tokens have been sold this far\n  /// @return Mileston struct or default if none found (price == 0)\n  function getCurrentMilestone(uint tokensSold) private view returns (Milestone memory, uint index) {\n    uint i;\n\n    for(i=0; i<milestones.length; i++) {\n      if(tokensSold < milestones[i].soldTokenCount) {\n        return (milestones[i-1], i);\n      }\n    }\n\n    // nothing found\n    return (milestones[0], 0);\n  }\n}\n",
  "sourcePath": "/home/eule/Projects/ico-contracts/ethereum/ico/contracts/MilestonePricingStrategy.sol",
  "compiler": {
    "name": "solc",
    "version": "0.8.0+commit.c7dfd78e.Emscripten.clang"
  },
  "schemaVersion": "3.4.1",
  "updatedAt": "2021-08-16T13:16:52.199Z",
  "networkType": "ethereum",
  "devdoc": {
    "kind": "dev",
    "methods": {
      "calculatePriceForTokenAmount(uint256,uint256,uint256)": {
        "details": "Gets the prices for a specific amount of tokens: total and average"
      },
      "calculateTokenAmount(uint256,uint256,uint256)": {
        "params": {
          "decimals": "- how many decimal units the token has",
          "tokensSold": "- how much tokens have been sold this far",
          "value": "- What is the value of the transaction send in as wei"
        },
        "returns": {
          "tokenAmount": "- Amount of tokens the investor receives"
        }
      },
      "getCurrentPrice(uint256)": {
        "details": "Get the current unitPrice and feedPrice.",
        "returns": {
          "unitPrice": "== The current price or 0 if we are outside milestone period"
        }
      },
      "getMilestone(uint256)": {
        "details": "Iterate through milestones. You reach end of milestones when price = 0",
        "returns": {
          "price": "price",
          "soldTokenCount": "soldTokenCount"
        }
      },
      "owner()": {
        "details": "Returns the address of the current owner."
      },
      "renounceOwnership()": {
        "details": "Leaves the contract without owner. It will not be possible to call `onlyOwner` functions anymore. Can only be called by the current owner. NOTE: Renouncing ownership will leave the contract without an owner, thereby removing any functionality that is only available to the owner."
      },
      "transferOwnership(address)": {
        "details": "Transfers ownership of the contract to a new account (`newOwner`). Can only be called by the current owner."
      }
    },
    "version": 1
  },
  "userdoc": {
    "kind": "user",
    "methods": {
      "calculateTokenAmount(uint256,uint256,uint256)": {
        "notice": "When somebody tries to buy tokens for X eth, calculate how many tokens they get."
      },
      "isPricingStrategy()": {
        "notice": "Interface declaration. "
      },
      "isSane()": {
        "notice": "Self check if all references are correctly set. Checks that pricing strategy matches crowdsale parameters."
      }
    },
    "version": 1
  }
}