{
  "contractName": "PeriodicTimeLockedWallet",
  "abi": [
    {
      "inputs": [
        {
          "internalType": "address",
          "name": "_owner",
          "type": "address"
        },
        {
          "internalType": "uint256",
          "name": "_unlockPeriod",
          "type": "uint256"
        },
        {
          "internalType": "uint256",
          "name": "_unlockPercentage",
          "type": "uint256"
        }
      ],
      "stateMutability": "nonpayable",
      "type": "constructor"
    },
    {
      "anonymous": false,
      "inputs": [
        {
          "indexed": false,
          "internalType": "address",
          "name": "tokenContract",
          "type": "address"
        },
        {
          "indexed": false,
          "internalType": "address",
          "name": "to",
          "type": "address"
        },
        {
          "indexed": false,
          "internalType": "uint256",
          "name": "amount",
          "type": "uint256"
        }
      ],
      "name": "WithdrewTokens",
      "type": "event"
    },
    {
      "inputs": [],
      "name": "createdAt",
      "outputs": [
        {
          "internalType": "uint256",
          "name": "",
          "type": "uint256"
        }
      ],
      "stateMutability": "view",
      "type": "function"
    },
    {
      "inputs": [],
      "name": "creator",
      "outputs": [
        {
          "internalType": "address",
          "name": "",
          "type": "address"
        }
      ],
      "stateMutability": "view",
      "type": "function"
    },
    {
      "inputs": [],
      "name": "initialized",
      "outputs": [
        {
          "internalType": "bool",
          "name": "",
          "type": "bool"
        }
      ],
      "stateMutability": "view",
      "type": "function"
    },
    {
      "inputs": [],
      "name": "owner",
      "outputs": [
        {
          "internalType": "address",
          "name": "",
          "type": "address"
        }
      ],
      "stateMutability": "view",
      "type": "function"
    },
    {
      "inputs": [],
      "name": "unlockDate",
      "outputs": [
        {
          "internalType": "uint256",
          "name": "",
          "type": "uint256"
        }
      ],
      "stateMutability": "view",
      "type": "function"
    },
    {
      "inputs": [],
      "name": "unlockPercentage",
      "outputs": [
        {
          "internalType": "uint256",
          "name": "",
          "type": "uint256"
        }
      ],
      "stateMutability": "view",
      "type": "function"
    },
    {
      "inputs": [],
      "name": "unlockPeriod",
      "outputs": [
        {
          "internalType": "uint256",
          "name": "",
          "type": "uint256"
        }
      ],
      "stateMutability": "view",
      "type": "function"
    },
    {
      "stateMutability": "payable",
      "type": "receive"
    },
    {
      "inputs": [
        {
          "internalType": "uint256",
          "name": "_unlockDate",
          "type": "uint256"
        }
      ],
      "name": "initialize",
      "outputs": [],
      "stateMutability": "nonpayable",
      "type": "function"
    },
    {
      "inputs": [
        {
          "internalType": "address",
          "name": "_tokenContract",
          "type": "address"
        },
        {
          "internalType": "uint256",
          "name": "_amount",
          "type": "uint256"
        }
      ],
      "name": "withdrawTokens",
      "outputs": [],
      "stateMutability": "nonpayable",
      "type": "function"
    },
    {
      "inputs": [
        {
          "internalType": "address",
          "name": "tokenAddress",
          "type": "address"
        }
      ],
      "name": "balance",
      "outputs": [
        {
          "internalType": "uint256",
          "name": "",
          "type": "uint256"
        }
      ],
      "stateMutability": "view",
      "type": "function"
    },
    {
      "inputs": [
        {
          "internalType": "address",
          "name": "tokenAddress",
          "type": "address"
        }
      ],
      "name": "claimed",
      "outputs": [
        {
          "internalType": "uint256",
          "name": "",
          "type": "uint256"
        }
      ],
      "stateMutability": "view",
      "type": "function"
    },
    {
      "inputs": [
        {
          "internalType": "address",
          "name": "tokenAddress",
          "type": "address"
        }
      ],
      "name": "getUnlockedTokenAmount",
      "outputs": [
        {
          "internalType": "uint256",
          "name": "",
          "type": "uint256"
        }
      ],
      "stateMutability": "view",
      "type": "function"
    }
  ],
  "bytecode": "0x60806040523480156200001157600080fd5b506040516200122b3803806200122b83398181016040528101906200003791906200011f565b33600160006101000a81548173ffffffffffffffffffffffffffffffffffffffff021916908373ffffffffffffffffffffffffffffffffffffffff16021790555082600060016101000a81548173ffffffffffffffffffffffffffffffffffffffff021916908373ffffffffffffffffffffffffffffffffffffffff16021790555060008060006101000a81548160ff021916908315150217905550426003819055508160048190555080600581905550505050620001f2565b6000815190506200010281620001be565b92915050565b6000815190506200011981620001d8565b92915050565b6000806000606084860312156200013b576200013a620001b9565b5b60006200014b86828701620000f1565b93505060206200015e8682870162000108565b9250506040620001718682870162000108565b9150509250925092565b600062000188826200018f565b9050919050565b600073ffffffffffffffffffffffffffffffffffffffff82169050919050565b6000819050919050565b600080fd5b620001c9816200017b565b8114620001d557600080fd5b50565b620001e381620001af565b8114620001ef57600080fd5b50565b61102980620002026000396000f3fe6080604052600436106100ab5760003560e01c80638da5cb5b116100645780638da5cb5b146101ba578063bd7001ff146101e5578063c884ef8314610222578063cf09e0d01461025f578063e3d670d71461028a578063fe4b84df146102c7576100b5565b806302d05d3f146100ba57806306b091f9146100e5578063158ef93e1461010e57806320d3a0b4146101395780633b3fba161461016457806369ac57211461018f576100b5565b366100b557600080fd5b600080fd5b3480156100c657600080fd5b506100cf6102f0565b6040516100dc9190610b44565b60405180910390f35b3480156100f157600080fd5b5061010c600480360381019061010791906109c4565b610316565b005b34801561011a57600080fd5b5061012361056c565b6040516101309190610bbf565b60405180910390f35b34801561014557600080fd5b5061014e61057d565b60405161015b9190610c5a565b60405180910390f35b34801561017057600080fd5b50610179610583565b6040516101869190610c5a565b60405180910390f35b34801561019b57600080fd5b506101a4610589565b6040516101b19190610c5a565b60405180910390f35b3480156101c657600080fd5b506101cf61058f565b6040516101dc9190610b44565b60405180910390f35b3480156101f157600080fd5b5061020c60048036038101906102079190610997565b6105b5565b6040516102199190610c5a565b60405180910390f35b34801561022e57600080fd5b5061024960048036038101906102449190610997565b61075b565b6040516102569190610c5a565b60405180910390f35b34801561026b57600080fd5b506102746107a4565b6040516102819190610c5a565b60405180910390f35b34801561029657600080fd5b506102b160048036038101906102ac9190610997565b6107aa565b6040516102be9190610c5a565b60405180910390f35b3480156102d357600080fd5b506102ee60048036038101906102e99190610a31565b610841565b005b600160009054906101000a900473ffffffffffffffffffffffffffffffffffffffff1681565b600060019054906101000a900473ffffffffffffffffffffffffffffffffffffffff1673ffffffffffffffffffffffffffffffffffffffff163373ffffffffffffffffffffffffffffffffffffffff16146103a6576040517f08c379a000000000000000000000000000000000000000000000000000000000815260040161039d90610c3a565b60405180910390fd5b60006103b1836105b5565b9050808211156103f6576040517f08c379a00000000000000000000000000000000000000000000000000000000081526004016103ed90610c1a565b60405180910390fd5b81600760008573ffffffffffffffffffffffffffffffffffffffff1673ffffffffffffffffffffffffffffffffffffffff16815260200190815260200160002060008282546104459190610c86565b9250508190555060008390508073ffffffffffffffffffffffffffffffffffffffff1663a9059cbb600060019054906101000a900473ffffffffffffffffffffffffffffffffffffffff16856040518363ffffffff1660e01b81526004016104ae929190610b96565b602060405180830381600087803b1580156104c857600080fd5b505af11580156104dc573d6000803e3d6000fd5b505050506040513d601f19601f820116820180604052508101906105009190610a04565b61050957600080fd5b7fa04c965e7d289704527a948915777d68bb4530fb4b08aa935fb958c0b7901ab984600060019054906101000a900473ffffffffffffffffffffffffffffffffffffffff168460405161055e93929190610b5f565b60405180910390a150505050565b60008054906101000a900460ff1681565b60045481565b60055481565b60025481565b600060019054906101000a900473ffffffffffffffffffffffffffffffffffffffff1681565b60008060009054906101000a900460ff166105d35760009050610756565b6000600760008473ffffffffffffffffffffffffffffffffffffffff1673ffffffffffffffffffffffffffffffffffffffff16815260200190815260200160002054905060008390506000828273ffffffffffffffffffffffffffffffffffffffff166370a08231306040518263ffffffff1660e01b81526004016106589190610b44565b60206040518083038186803b15801561067057600080fd5b505afa158015610684573d6000803e3d6000fd5b505050506040513d601f19601f820116820180604052508101906106a89190610a5e565b6106b29190610c86565b90506000600254426106c49190610d67565b905060008112156106dc576000945050505050610756565b60006001600454836106ee9190610cdc565b6106f89190610c86565b9050600060646005548361070c9190610d0d565b101561072557600554826107209190610d0d565b610728565b60645b905085606485836107399190610d0d565b6107439190610cdc565b61074d9190610dfb565b96505050505050505b919050565b6000600760008373ffffffffffffffffffffffffffffffffffffffff1673ffffffffffffffffffffffffffffffffffffffff168152602001908152602001600020549050919050565b60035481565b6000808290508073ffffffffffffffffffffffffffffffffffffffff166370a08231306040518263ffffffff1660e01b81526004016107e99190610b44565b60206040518083038186803b15801561080157600080fd5b505afa158015610815573d6000803e3d6000fd5b505050506040513d601f19601f820116820180604052508101906108399190610a5e565b915050919050565b600160009054906101000a900473ffffffffffffffffffffffffffffffffffffffff1673ffffffffffffffffffffffffffffffffffffffff163373ffffffffffffffffffffffffffffffffffffffff16146108d1576040517f08c379a00000000000000000000000000000000000000000000000000000000081526004016108c890610bfa565b60405180910390fd5b60008054906101000a900460ff161561091f576040517f08c379a000000000000000000000000000000000000000000000000000000000815260040161091690610bda565b60405180910390fd5b8060028190555060016000806101000a81548160ff02191690831515021790555050565b60008135905061095281610fae565b92915050565b60008151905061096781610fc5565b92915050565b60008135905061097c81610fdc565b92915050565b60008151905061099181610fdc565b92915050565b6000602082840312156109ad576109ac610edf565b5b60006109bb84828501610943565b91505092915050565b600080604083850312156109db576109da610edf565b5b60006109e985828601610943565b92505060206109fa8582860161096d565b9150509250929050565b600060208284031215610a1a57610a19610edf565b5b6000610a2884828501610958565b91505092915050565b600060208284031215610a4757610a46610edf565b5b6000610a558482850161096d565b91505092915050565b600060208284031215610a7457610a73610edf565b5b6000610a8284828501610982565b91505092915050565b610a9481610e2f565b82525050565b610aa381610e41565b82525050565b6000610ab6601383610c75565b9150610ac182610ee4565b602082019050919050565b6000610ad9600c83610c75565b9150610ae482610f0d565b602082019050919050565b6000610afc602583610c75565b9150610b0782610f36565b604082019050919050565b6000610b1f600a83610c75565b9150610b2a82610f85565b602082019050919050565b610b3e81610e77565b82525050565b6000602082019050610b596000830184610a8b565b92915050565b6000606082019050610b746000830186610a8b565b610b816020830185610a8b565b610b8e6040830184610b35565b949350505050565b6000604082019050610bab6000830185610a8b565b610bb86020830184610b35565b9392505050565b6000602082019050610bd46000830184610a9a565b92915050565b60006020820190508181036000830152610bf381610aa9565b9050919050565b60006020820190508181036000830152610c1381610acc565b9050919050565b60006020820190508181036000830152610c3381610aef565b9050919050565b60006020820190508181036000830152610c5381610b12565b9050919050565b6000602082019050610c6f6000830184610b35565b92915050565b600082825260208201905092915050565b6000610c9182610e77565b9150610c9c83610e77565b9250827fffffffffffffffffffffffffffffffffffffffffffffffffffffffffffffffff03821115610cd157610cd0610e81565b5b828201905092915050565b6000610ce782610e77565b9150610cf283610e77565b925082610d0257610d01610eb0565b5b828204905092915050565b6000610d1882610e77565b9150610d2383610e77565b9250817fffffffffffffffffffffffffffffffffffffffffffffffffffffffffffffffff0483118215151615610d5c57610d5b610e81565b5b828202905092915050565b6000610d7282610e4d565b9150610d7d83610e4d565b9250827f800000000000000000000000000000000000000000000000000000000000000001821260008412151615610db857610db7610e81565b5b827f7fffffffffffffffffffffffffffffffffffffffffffffffffffffffffffffff018213600084121615610df057610def610e81565b5b828203905092915050565b6000610e0682610e77565b9150610e1183610e77565b925082821015610e2457610e23610e81565b5b828203905092915050565b6000610e3a82610e57565b9050919050565b60008115159050919050565b6000819050919050565b600073ffffffffffffffffffffffffffffffffffffffff82169050919050565b6000819050919050565b7f4e487b7100000000000000000000000000000000000000000000000000000000600052601160045260246000fd5b7f4e487b7100000000000000000000000000000000000000000000000000000000600052601260045260246000fd5b600080fd5b7f416c726561647920496e697469616c697a656400000000000000000000000000600082015250565b7f4f6e6c792043726561746f720000000000000000000000000000000000000000600082015250565b7f4e6f7420656e6f7567687420756e6c6f636b656420746f6b656e73206176616960008201527f6c61626c65000000000000000000000000000000000000000000000000000000602082015250565b7f4f6e6c79204f776e657200000000000000000000000000000000000000000000600082015250565b610fb781610e2f565b8114610fc257600080fd5b50565b610fce81610e41565b8114610fd957600080fd5b50565b610fe581610e77565b8114610ff057600080fd5b5056fea26469706673582212206d80dccc4a29dfa62e0ff73c19b449386de6adf29a2ca2b5f79fe91ef1c5b8da64736f6c63430008060033",
  "immutableReferences": {},
  "source": "// SPDX-License-Identifier: UNLICENSED\npragma solidity ^0.8.6;\n\nimport \"@openzeppelin/contracts/access/Ownable.sol\";\nimport \"@openzeppelin/contracts/token/ERC20/ERC20.sol\";\n\ncontract PeriodicTimeLockedWallet\n{\n    bool public initialized;\n    address public owner;\n    address public creator;\n    uint256 public unlockDate;\n    uint256 public createdAt;\n\n    uint256 public unlockPeriod;\n    uint public unlockPercentage;\n    address tokenOwner;\n\n    modifier onlyOwner {\n        require(msg.sender == owner, \"Only Owner\");\n        _;\n    }\n\n    modifier onlyCreator {\n        require(msg.sender == creator, \"Only Creator\");\n        _;\n    }\n\n    mapping (address => uint256) private claimedAmountOf;\n\n    event WithdrewTokens(address tokenContract, address to, uint256 amount);\n\n    constructor(address _owner, uint256 _unlockPeriod, uint _unlockPercentage)\n    {\n        creator = msg.sender;\n        owner = _owner;\n\n        initialized = false;\n        createdAt = block.timestamp;\n\n        // unlockedAmount = 0;\n        unlockPeriod = _unlockPeriod;\n        unlockPercentage = _unlockPercentage;\n    }\n\n    receive() external payable\n    {\n        // we do not accept any native coin on this wallet\n        revert();\n    }\n\n    function initialize(uint256 _unlockDate) public onlyCreator \n    {\n        if(initialized) {\n            revert(\"Already Initialized\");\n        }\n\n        unlockDate =_unlockDate;\n        initialized = true;\n    }\n\n    // callable by owner only, after specified time, only for Tokens implementing ERC20\n    function withdrawTokens(address _tokenContract, uint256 _amount) public onlyOwner\n    {\n        uint256 unlockedTokenAmount = getUnlockedTokenAmount(_tokenContract);\n        require(_amount <= unlockedTokenAmount, \"Not enought unlocked tokens available\");\n\n        claimedAmountOf[_tokenContract] += _amount;\n\n        ERC20 token = ERC20(_tokenContract);\n        if(!token.transfer(owner, _amount)) revert();\n        emit WithdrewTokens(_tokenContract, owner, unlockedTokenAmount);\n    }\n\n    function balance(address tokenAddress) public view returns (uint256) {\n        ERC20 token = ERC20(tokenAddress);\n        return token.balanceOf(address(this));\n    }\n\n    function claimed(address tokenAddress) public view returns (uint256) {\n        return claimedAmountOf[tokenAddress];\n    }\n\n    function getUnlockedTokenAmount(address tokenAddress) public view returns (uint256)\n    {\n        if(!initialized) {\n            return 0;\n        }\n\n        // the amount of tokens already unlocked and transferred\n        uint256 claimedAmount = claimedAmountOf[tokenAddress];\n\n        ERC20 token = ERC20(tokenAddress);\n        uint256 totaltokenAmount = token.balanceOf(address(this)) + claimedAmount;\n\n        int256 timeDiff = int256(block.timestamp) - int256(unlockDate);\n        \n        if(timeDiff < 0) \n        {\n            // still locked\n            return 0;\n        }\n\n        uint unlockedUnits = (uint256(timeDiff) / unlockPeriod) + 1;\n        uint multiplier = unlockedUnits * unlockPercentage >= 100 ? 100 : unlockedUnits * unlockPercentage;\n\n        return (multiplier * totaltokenAmount) / 100 - claimedAmount;\n    }\n}",
  "sourcePath": "/home/eule/Projects/ico-contracts/ethereum/ico/contracts/PeriodicTimeLockedWallet.sol",
  "compiler": {
    "name": "solc",
    "version": "0.8.6+commit.11564f7e.Emscripten.clang"
  },
  "schemaVersion": "3.4.1",
  "updatedAt": "2021-10-15T09:48:04.970Z",
  "devdoc": {
    "kind": "dev",
    "methods": {},
    "version": 1
  },
  "userdoc": {
    "kind": "user",
    "methods": {},
    "version": 1
  }
}