{
  "contractName": "PeriodicTimeLockedWallet",
  "abi": [
    {
      "inputs": [
        {
          "internalType": "address",
          "name": "_owner",
          "type": "address"
        },
        {
          "internalType": "uint256",
          "name": "_unlockPeriod",
          "type": "uint256"
        },
        {
          "internalType": "uint256",
          "name": "_unlockPercentage",
          "type": "uint256"
        }
      ],
      "stateMutability": "nonpayable",
      "type": "constructor"
    },
    {
      "anonymous": false,
      "inputs": [
        {
          "indexed": false,
          "internalType": "address",
          "name": "tokenContract",
          "type": "address"
        },
        {
          "indexed": false,
          "internalType": "address",
          "name": "to",
          "type": "address"
        },
        {
          "indexed": false,
          "internalType": "uint256",
          "name": "amount",
          "type": "uint256"
        }
      ],
      "name": "WithdrewTokens",
      "type": "event"
    },
    {
      "inputs": [],
      "name": "createdAt",
      "outputs": [
        {
          "internalType": "uint256",
          "name": "",
          "type": "uint256"
        }
      ],
      "stateMutability": "view",
      "type": "function"
    },
    {
      "inputs": [],
      "name": "creator",
      "outputs": [
        {
          "internalType": "address",
          "name": "",
          "type": "address"
        }
      ],
      "stateMutability": "view",
      "type": "function"
    },
    {
      "inputs": [],
      "name": "initialized",
      "outputs": [
        {
          "internalType": "bool",
          "name": "",
          "type": "bool"
        }
      ],
      "stateMutability": "view",
      "type": "function"
    },
    {
      "inputs": [],
      "name": "owner",
      "outputs": [
        {
          "internalType": "address",
          "name": "",
          "type": "address"
        }
      ],
      "stateMutability": "view",
      "type": "function"
    },
    {
      "inputs": [],
      "name": "unlockDate",
      "outputs": [
        {
          "internalType": "uint256",
          "name": "",
          "type": "uint256"
        }
      ],
      "stateMutability": "view",
      "type": "function"
    },
    {
      "inputs": [],
      "name": "unlockPercentage",
      "outputs": [
        {
          "internalType": "uint256",
          "name": "",
          "type": "uint256"
        }
      ],
      "stateMutability": "view",
      "type": "function"
    },
    {
      "inputs": [],
      "name": "unlockPeriod",
      "outputs": [
        {
          "internalType": "uint256",
          "name": "",
          "type": "uint256"
        }
      ],
      "stateMutability": "view",
      "type": "function"
    },
    {
      "inputs": [
        {
          "internalType": "uint256",
          "name": "_unlockDate",
          "type": "uint256"
        }
      ],
      "name": "initialize",
      "outputs": [],
      "stateMutability": "nonpayable",
      "type": "function"
    },
    {
      "inputs": [
        {
          "internalType": "address",
          "name": "_tokenContract",
          "type": "address"
        },
        {
          "internalType": "uint256",
          "name": "_amount",
          "type": "uint256"
        }
      ],
      "name": "withdrawTokens",
      "outputs": [],
      "stateMutability": "nonpayable",
      "type": "function"
    },
    {
      "inputs": [
        {
          "internalType": "address",
          "name": "tokenAddress",
          "type": "address"
        }
      ],
      "name": "balance",
      "outputs": [
        {
          "internalType": "uint256",
          "name": "",
          "type": "uint256"
        }
      ],
      "stateMutability": "view",
      "type": "function"
    },
    {
      "inputs": [
        {
          "internalType": "address",
          "name": "tokenAddress",
          "type": "address"
        }
      ],
      "name": "claimed",
      "outputs": [
        {
          "internalType": "uint256",
          "name": "",
          "type": "uint256"
        }
      ],
      "stateMutability": "view",
      "type": "function"
    },
    {
      "inputs": [
        {
          "internalType": "address",
          "name": "tokenAddress",
          "type": "address"
        }
      ],
      "name": "getUnlockedTokenAmount",
      "outputs": [
        {
          "internalType": "uint256",
          "name": "",
          "type": "uint256"
        }
      ],
      "stateMutability": "view",
      "type": "function"
    }
  ],
  "bytecode": "0x60806040523480156200001157600080fd5b506040516200118e3803806200118e83398181016040528101906200003791906200011f565b33600160006101000a81548173ffffffffffffffffffffffffffffffffffffffff021916908373ffffffffffffffffffffffffffffffffffffffff16021790555082600060016101000a81548173ffffffffffffffffffffffffffffffffffffffff021916908373ffffffffffffffffffffffffffffffffffffffff16021790555060008060006101000a81548160ff021916908315150217905550426003819055508160048190555080600581905550505050620001f2565b6000815190506200010281620001be565b92915050565b6000815190506200011981620001d8565b92915050565b6000806000606084860312156200013b576200013a620001b9565b5b60006200014b86828701620000f1565b93505060206200015e8682870162000108565b9250506040620001718682870162000108565b9150509250925092565b600062000188826200018f565b9050919050565b600073ffffffffffffffffffffffffffffffffffffffff82169050919050565b6000819050919050565b600080fd5b620001c9816200017b565b8114620001d557600080fd5b50565b620001e381620001af565b8114620001ef57600080fd5b50565b610f8c80620002026000396000f3fe608060405234801561001057600080fd5b50600436106100b45760003560e01c80638da5cb5b116100715780638da5cb5b1461016b578063bd7001ff14610189578063c884ef83146101b9578063cf09e0d0146101e9578063e3d670d714610207578063fe4b84df14610237576100b4565b806302d05d3f146100b957806306b091f9146100d7578063158ef93e146100f357806320d3a0b4146101115780633b3fba161461012f57806369ac57211461014d575b600080fd5b6100c1610253565b6040516100ce9190610aa7565b60405180910390f35b6100f160048036038101906100ec9190610927565b610279565b005b6100fb6104cf565b6040516101089190610b22565b60405180910390f35b6101196104e0565b6040516101269190610bbd565b60405180910390f35b6101376104e6565b6040516101449190610bbd565b60405180910390f35b6101556104ec565b6040516101629190610bbd565b60405180910390f35b6101736104f2565b6040516101809190610aa7565b60405180910390f35b6101a3600480360381019061019e91906108fa565b610518565b6040516101b09190610bbd565b60405180910390f35b6101d360048036038101906101ce91906108fa565b6106be565b6040516101e09190610bbd565b60405180910390f35b6101f1610707565b6040516101fe9190610bbd565b60405180910390f35b610221600480360381019061021c91906108fa565b61070d565b60405161022e9190610bbd565b60405180910390f35b610251600480360381019061024c9190610994565b6107a4565b005b600160009054906101000a900473ffffffffffffffffffffffffffffffffffffffff1681565b600060019054906101000a900473ffffffffffffffffffffffffffffffffffffffff1673ffffffffffffffffffffffffffffffffffffffff163373ffffffffffffffffffffffffffffffffffffffff1614610309576040517f08c379a000000000000000000000000000000000000000000000000000000000815260040161030090610b9d565b60405180910390fd5b600061031483610518565b905080821115610359576040517f08c379a000000000000000000000000000000000000000000000000000000000815260040161035090610b7d565b60405180910390fd5b81600760008573ffffffffffffffffffffffffffffffffffffffff1673ffffffffffffffffffffffffffffffffffffffff16815260200190815260200160002060008282546103a89190610be9565b9250508190555060008390508073ffffffffffffffffffffffffffffffffffffffff1663a9059cbb600060019054906101000a900473ffffffffffffffffffffffffffffffffffffffff16856040518363ffffffff1660e01b8152600401610411929190610af9565b602060405180830381600087803b15801561042b57600080fd5b505af115801561043f573d6000803e3d6000fd5b505050506040513d601f19601f820116820180604052508101906104639190610967565b61046c57600080fd5b7fa04c965e7d289704527a948915777d68bb4530fb4b08aa935fb958c0b7901ab984600060019054906101000a900473ffffffffffffffffffffffffffffffffffffffff16846040516104c193929190610ac2565b60405180910390a150505050565b60008054906101000a900460ff1681565b60045481565b60055481565b60025481565b600060019054906101000a900473ffffffffffffffffffffffffffffffffffffffff1681565b60008060009054906101000a900460ff1661053657600090506106b9565b6000600760008473ffffffffffffffffffffffffffffffffffffffff1673ffffffffffffffffffffffffffffffffffffffff16815260200190815260200160002054905060008390506000828273ffffffffffffffffffffffffffffffffffffffff166370a08231306040518263ffffffff1660e01b81526004016105bb9190610aa7565b60206040518083038186803b1580156105d357600080fd5b505afa1580156105e7573d6000803e3d6000fd5b505050506040513d601f19601f8201168201806040525081019061060b91906109c1565b6106159190610be9565b90506000600254426106279190610cca565b9050600081121561063f5760009450505050506106b9565b60006001600454836106519190610c3f565b61065b9190610be9565b9050600060646005548361066f9190610c70565b101561068857600554826106839190610c70565b61068b565b60645b9050856064858361069c9190610c70565b6106a69190610c3f565b6106b09190610d5e565b96505050505050505b919050565b6000600760008373ffffffffffffffffffffffffffffffffffffffff1673ffffffffffffffffffffffffffffffffffffffff168152602001908152602001600020549050919050565b60035481565b6000808290508073ffffffffffffffffffffffffffffffffffffffff166370a08231306040518263ffffffff1660e01b815260040161074c9190610aa7565b60206040518083038186803b15801561076457600080fd5b505afa158015610778573d6000803e3d6000fd5b505050506040513d601f19601f8201168201806040525081019061079c91906109c1565b915050919050565b600160009054906101000a900473ffffffffffffffffffffffffffffffffffffffff1673ffffffffffffffffffffffffffffffffffffffff163373ffffffffffffffffffffffffffffffffffffffff1614610834576040517f08c379a000000000000000000000000000000000000000000000000000000000815260040161082b90610b5d565b60405180910390fd5b60008054906101000a900460ff1615610882576040517f08c379a000000000000000000000000000000000000000000000000000000000815260040161087990610b3d565b60405180910390fd5b8060028190555060016000806101000a81548160ff02191690831515021790555050565b6000813590506108b581610f11565b92915050565b6000815190506108ca81610f28565b92915050565b6000813590506108df81610f3f565b92915050565b6000815190506108f481610f3f565b92915050565b6000602082840312156109105761090f610e42565b5b600061091e848285016108a6565b91505092915050565b6000806040838503121561093e5761093d610e42565b5b600061094c858286016108a6565b925050602061095d858286016108d0565b9150509250929050565b60006020828403121561097d5761097c610e42565b5b600061098b848285016108bb565b91505092915050565b6000602082840312156109aa576109a9610e42565b5b60006109b8848285016108d0565b91505092915050565b6000602082840312156109d7576109d6610e42565b5b60006109e5848285016108e5565b91505092915050565b6109f781610d92565b82525050565b610a0681610da4565b82525050565b6000610a19601383610bd8565b9150610a2482610e47565b602082019050919050565b6000610a3c600c83610bd8565b9150610a4782610e70565b602082019050919050565b6000610a5f602583610bd8565b9150610a6a82610e99565b604082019050919050565b6000610a82600a83610bd8565b9150610a8d82610ee8565b602082019050919050565b610aa181610dda565b82525050565b6000602082019050610abc60008301846109ee565b92915050565b6000606082019050610ad760008301866109ee565b610ae460208301856109ee565b610af16040830184610a98565b949350505050565b6000604082019050610b0e60008301856109ee565b610b1b6020830184610a98565b9392505050565b6000602082019050610b3760008301846109fd565b92915050565b60006020820190508181036000830152610b5681610a0c565b9050919050565b60006020820190508181036000830152610b7681610a2f565b9050919050565b60006020820190508181036000830152610b9681610a52565b9050919050565b60006020820190508181036000830152610bb681610a75565b9050919050565b6000602082019050610bd26000830184610a98565b92915050565b600082825260208201905092915050565b6000610bf482610dda565b9150610bff83610dda565b9250827fffffffffffffffffffffffffffffffffffffffffffffffffffffffffffffffff03821115610c3457610c33610de4565b5b828201905092915050565b6000610c4a82610dda565b9150610c5583610dda565b925082610c6557610c64610e13565b5b828204905092915050565b6000610c7b82610dda565b9150610c8683610dda565b9250817fffffffffffffffffffffffffffffffffffffffffffffffffffffffffffffffff0483118215151615610cbf57610cbe610de4565b5b828202905092915050565b6000610cd582610db0565b9150610ce083610db0565b9250827f800000000000000000000000000000000000000000000000000000000000000001821260008412151615610d1b57610d1a610de4565b5b827f7fffffffffffffffffffffffffffffffffffffffffffffffffffffffffffffff018213600084121615610d5357610d52610de4565b5b828203905092915050565b6000610d6982610dda565b9150610d7483610dda565b925082821015610d8757610d86610de4565b5b828203905092915050565b6000610d9d82610dba565b9050919050565b60008115159050919050565b6000819050919050565b600073ffffffffffffffffffffffffffffffffffffffff82169050919050565b6000819050919050565b7f4e487b7100000000000000000000000000000000000000000000000000000000600052601160045260246000fd5b7f4e487b7100000000000000000000000000000000000000000000000000000000600052601260045260246000fd5b600080fd5b7f416c726561647920496e697469616c697a656400000000000000000000000000600082015250565b7f4f6e6c792043726561746f720000000000000000000000000000000000000000600082015250565b7f4e6f7420656e6f7567687420756e6c6f636b656420746f6b656e73206176616960008201527f6c61626c65000000000000000000000000000000000000000000000000000000602082015250565b7f4f6e6c79204f776e657200000000000000000000000000000000000000000000600082015250565b610f1a81610d92565b8114610f2557600080fd5b50565b610f3181610da4565b8114610f3c57600080fd5b50565b610f4881610dda565b8114610f5357600080fd5b5056fea2646970667358221220663c4118ab170ae959eceb2700f6d7169b14efb30b2d2b2611302354f529b43f64736f6c63430008060033",
  "immutableReferences": {},
  "source": "// SPDX-License-Identifier: UNLICENSED\npragma solidity ^0.8.6;\n\nimport \"@openzeppelin/contracts/access/Ownable.sol\";\nimport \"@openzeppelin/contracts/token/ERC20/ERC20.sol\";\n\ncontract PeriodicTimeLockedWallet\n{\n    bool public initialized;\n    address public owner;\n    address public creator;\n    uint256 public unlockDate;\n    uint256 public createdAt;\n\n    uint256 public unlockPeriod;\n    uint public unlockPercentage;\n    address tokenOwner;\n\n    modifier onlyOwner {\n        require(msg.sender == owner, \"Only Owner\");\n        _;\n    }\n\n    modifier onlyCreator {\n        require(msg.sender == creator, \"Only Creator\");\n        _;\n    }\n\n    mapping (address => uint256) private claimedAmountOf;\n\n    event WithdrewTokens(address tokenContract, address to, uint256 amount);\n\n    constructor(address _owner, uint256 _unlockPeriod, uint _unlockPercentage)\n    {\n        creator = msg.sender;\n        owner = _owner;\n\n        initialized = false;\n        createdAt = block.timestamp;\n\n        // unlockedAmount = 0;\n        unlockPeriod = _unlockPeriod;\n        unlockPercentage = _unlockPercentage;\n    }\n\n    function initialize(uint256 _unlockDate) public onlyCreator \n    {\n        if(initialized) {\n            revert(\"Already Initialized\");\n        }\n\n        unlockDate =_unlockDate;\n        initialized = true;\n    }\n\n    // callable by owner only, after specified time, only for Tokens implementing ERC20\n    function withdrawTokens(address _tokenContract, uint256 _amount) public onlyOwner\n    {\n        uint256 unlockedTokenAmount = getUnlockedTokenAmount(_tokenContract);\n        require(_amount <= unlockedTokenAmount, \"Not enought unlocked tokens available\");\n\n        claimedAmountOf[_tokenContract] += _amount;\n\n        ERC20 token = ERC20(_tokenContract);\n        if(!token.transfer(owner, _amount)) revert();\n        emit WithdrewTokens(_tokenContract, owner, unlockedTokenAmount);\n    }\n\n    function balance(address tokenAddress) public view returns (uint256) {\n        ERC20 token = ERC20(tokenAddress);\n        return token.balanceOf(address(this));\n    }\n\n    function claimed(address tokenAddress) public view returns (uint256) {\n        return claimedAmountOf[tokenAddress];\n    }\n\n    function getUnlockedTokenAmount(address tokenAddress) public view returns (uint256)\n    {\n        if(!initialized) {\n            return 0;\n        }\n\n        // the amount of tokens already unlocked and transferred\n        uint256 claimedAmount = claimedAmountOf[tokenAddress];\n\n        ERC20 token = ERC20(tokenAddress);\n        uint256 totaltokenAmount = token.balanceOf(address(this)) + claimedAmount;\n\n        int256 timeDiff = int256(block.timestamp) - int256(unlockDate);\n        \n        if(timeDiff < 0) \n        {\n            // still locked\n            return 0;\n        }\n\n        uint unlockedUnits = (uint256(timeDiff) / unlockPeriod) + 1;\n        uint multiplier = unlockedUnits * unlockPercentage >= 100 ? 100 : unlockedUnits * unlockPercentage;\n\n        return (multiplier * totaltokenAmount) / 100 - claimedAmount;\n    }\n}",
  "sourcePath": "/share/contracts/PeriodicTimeLockedWallet.sol",
  "compiler": {
    "name": "solc",
    "version": "0.8.6+commit.11564f7e.Emscripten.clang"
  },
  "schemaVersion": "3.4.3",
  "updatedAt": "2021-10-15T12:30:14.803Z",
  "devdoc": {
    "kind": "dev",
    "methods": {},
    "version": 1
  },
  "userdoc": {
    "kind": "user",
    "methods": {},
    "version": 1
  }
}