{
  "contractName": "PeriodicTimeLockedWallet",
  "abi": [
    {
      "inputs": [
        {
          "internalType": "address",
          "name": "_creator",
          "type": "address"
        },
        {
          "internalType": "address payable",
          "name": "_owner",
          "type": "address"
        },
        {
          "internalType": "uint256",
          "name": "_lockDate",
          "type": "uint256"
        },
        {
          "internalType": "uint256",
          "name": "_unlockPeriod",
          "type": "uint256"
        },
        {
          "internalType": "uint256",
          "name": "_unlockPercentage",
          "type": "uint256"
        }
      ],
      "stateMutability": "nonpayable",
      "type": "constructor"
    },
    {
      "anonymous": false,
      "inputs": [
        {
          "indexed": false,
          "internalType": "address",
          "name": "tokenContract",
          "type": "address"
        },
        {
          "indexed": false,
          "internalType": "address",
          "name": "to",
          "type": "address"
        },
        {
          "indexed": false,
          "internalType": "uint256",
          "name": "amount",
          "type": "uint256"
        }
      ],
      "name": "WithdrewTokens",
      "type": "event"
    },
    {
      "inputs": [],
      "name": "createdAt",
      "outputs": [
        {
          "internalType": "uint256",
          "name": "",
          "type": "uint256"
        }
      ],
      "stateMutability": "view",
      "type": "function"
    },
    {
      "inputs": [],
      "name": "creator",
      "outputs": [
        {
          "internalType": "address",
          "name": "",
          "type": "address"
        }
      ],
      "stateMutability": "view",
      "type": "function"
    },
    {
      "inputs": [],
      "name": "lockDate",
      "outputs": [
        {
          "internalType": "uint256",
          "name": "",
          "type": "uint256"
        }
      ],
      "stateMutability": "view",
      "type": "function"
    },
    {
      "inputs": [],
      "name": "owner",
      "outputs": [
        {
          "internalType": "address payable",
          "name": "",
          "type": "address"
        }
      ],
      "stateMutability": "view",
      "type": "function"
    },
    {
      "inputs": [],
      "name": "unlockPercentage",
      "outputs": [
        {
          "internalType": "uint256",
          "name": "",
          "type": "uint256"
        }
      ],
      "stateMutability": "view",
      "type": "function"
    },
    {
      "inputs": [],
      "name": "unlockPeriod",
      "outputs": [
        {
          "internalType": "uint256",
          "name": "",
          "type": "uint256"
        }
      ],
      "stateMutability": "view",
      "type": "function"
    },
    {
      "stateMutability": "payable",
      "type": "receive"
    },
    {
      "inputs": [
        {
          "internalType": "address",
          "name": "_tokenContract",
          "type": "address"
        }
      ],
      "name": "withdrawTokens",
      "outputs": [],
      "stateMutability": "nonpayable",
      "type": "function"
    },
    {
      "inputs": [
        {
          "internalType": "address",
          "name": "_tokenContract",
          "type": "address"
        }
      ],
      "name": "getUnlockedTokenAmount",
      "outputs": [
        {
          "internalType": "uint256",
          "name": "",
          "type": "uint256"
        }
      ],
      "stateMutability": "view",
      "type": "function"
    }
  ],
  "bytecode": "0x60806040523480156200001157600080fd5b5060405162000bb038038062000bb083398181016040528101906200003791906200012c565b846000806101000a81548173ffffffffffffffffffffffffffffffffffffffff021916908373ffffffffffffffffffffffffffffffffffffffff16021790555083600160006101000a81548173ffffffffffffffffffffffffffffffffffffffff021916908373ffffffffffffffffffffffffffffffffffffffff16021790555082600281905550426003819055506000600681905550816004819055508060058190555050505050506200024e565b600081519050620000f88162000200565b92915050565b6000815190506200010f816200021a565b92915050565b600081519050620001268162000234565b92915050565b600080600080600060a086880312156200014557600080fd5b60006200015588828901620000e7565b95505060206200016888828901620000fe565b94505060406200017b8882890162000115565b93505060606200018e8882890162000115565b9250506080620001a18882890162000115565b9150509295509295909350565b6000620001bb82620001d6565b9050919050565b6000620001cf82620001d6565b9050919050565b600073ffffffffffffffffffffffffffffffffffffffff82169050919050565b6000819050919050565b6200020b81620001ae565b81146200021757600080fd5b50565b6200022581620001c2565b81146200023157600080fd5b50565b6200023f81620001f6565b81146200024b57600080fd5b50565b610952806200025e6000396000f3fe60806040526004361061007f5760003560e01c8063649ae9c61161004e578063649ae9c6146101385780638da5cb5b14610163578063bd7001ff1461018e578063cf09e0d0146101cb57610089565b806302d05d3f1461008e57806320d3a0b4146100b95780633b3fba16146100e457806349df728c1461010f57610089565b3661008957600080fd5b600080fd5b34801561009a57600080fd5b506100a36101f6565b6040516100b09190610679565b60405180910390f35b3480156100c557600080fd5b506100ce61021a565b6040516100db919061070f565b60405180910390f35b3480156100f057600080fd5b506100f9610220565b604051610106919061070f565b60405180910390f35b34801561011b57600080fd5b50610136600480360381019061013191906105c2565b610226565b005b34801561014457600080fd5b5061014d610402565b60405161015a919061070f565b60405180910390f35b34801561016f57600080fd5b50610178610408565b6040516101859190610694565b60405180910390f35b34801561019a57600080fd5b506101b560048036038101906101b091906105c2565b61042e565b6040516101c2919061070f565b60405180910390f35b3480156101d757600080fd5b506101e061057d565b6040516101ed919061070f565b60405180910390f35b60008054906101000a900473ffffffffffffffffffffffffffffffffffffffff1681565b60045481565b60055481565b600160009054906101000a900473ffffffffffffffffffffffffffffffffffffffff1673ffffffffffffffffffffffffffffffffffffffff163373ffffffffffffffffffffffffffffffffffffffff161461028057600080fd5b600081905060008173ffffffffffffffffffffffffffffffffffffffff166370a08231306040518263ffffffff1660e01b81526004016102c09190610679565b60206040518083038186803b1580156102d857600080fd5b505afa1580156102ec573d6000803e3d6000fd5b505050506040513d601f19601f820116820180604052508101906103109190610614565b90508173ffffffffffffffffffffffffffffffffffffffff1663a9059cbb600160009054906101000a900473ffffffffffffffffffffffffffffffffffffffff16836040518363ffffffff1660e01b815260040161036f9291906106af565b602060405180830381600087803b15801561038957600080fd5b505af115801561039d573d6000803e3d6000fd5b505050506040513d601f19601f820116820180604052508101906103c191906105eb565b507fa04c965e7d289704527a948915777d68bb4530fb4b08aa935fb958c0b7901ab98333836040516103f5939291906106d8565b60405180910390a1505050565b60025481565b600160009054906101000a900473ffffffffffffffffffffffffffffffffffffffff1681565b6000600160009054906101000a900473ffffffffffffffffffffffffffffffffffffffff1673ffffffffffffffffffffffffffffffffffffffff163373ffffffffffffffffffffffffffffffffffffffff161461048a57600080fd5b600082905060008173ffffffffffffffffffffffffffffffffffffffff166370a08231306040518263ffffffff1660e01b81526004016104ca9190610679565b60206040518083038186803b1580156104e257600080fd5b505afa1580156104f6573d6000803e3d6000fd5b505050506040513d601f19601f8201168201806040525081019061051a9190610614565b905060006002544261052c91906107b5565b905060006004548261053e919061072a565b905060065460648460055484610554919061075b565b61055e919061075b565b610568919061072a565b61057291906107b5565b945050505050919050565b60035481565b600081359050610592816108d7565b92915050565b6000815190506105a7816108ee565b92915050565b6000815190506105bc81610905565b92915050565b6000602082840312156105d457600080fd5b60006105e284828501610583565b91505092915050565b6000602082840312156105fd57600080fd5b600061060b84828501610598565b91505092915050565b60006020828403121561062657600080fd5b6000610634848285016105ad565b91505092915050565b61064681610843565b82525050565b610655816107fb565b82525050565b610664816107e9565b82525050565b61067381610839565b82525050565b600060208201905061068e600083018461065b565b92915050565b60006020820190506106a9600083018461064c565b92915050565b60006040820190506106c4600083018561063d565b6106d1602083018461066a565b9392505050565b60006060820190506106ed600083018661065b565b6106fa602083018561065b565b610707604083018461066a565b949350505050565b6000602082019050610724600083018461066a565b92915050565b600061073582610839565b915061074083610839565b9250826107505761074f6108a8565b5b828204905092915050565b600061076682610839565b915061077183610839565b9250817fffffffffffffffffffffffffffffffffffffffffffffffffffffffffffffffff04831182151516156107aa576107a9610879565b5b828202905092915050565b60006107c082610839565b91506107cb83610839565b9250828210156107de576107dd610879565b5b828203905092915050565b60006107f482610819565b9050919050565b600061080682610819565b9050919050565b60008115159050919050565b600073ffffffffffffffffffffffffffffffffffffffff82169050919050565b6000819050919050565b600061084e82610855565b9050919050565b600061086082610867565b9050919050565b600061087282610819565b9050919050565b7f4e487b7100000000000000000000000000000000000000000000000000000000600052601160045260246000fd5b7f4e487b7100000000000000000000000000000000000000000000000000000000600052601260045260246000fd5b6108e0816107e9565b81146108eb57600080fd5b50565b6108f78161080d565b811461090257600080fd5b50565b61090e81610839565b811461091957600080fd5b5056fea2646970667358221220380136efcf5d4d842583d3b37197073b099d738ae35f0cf230a23cb8ea3665ed64736f6c63430008000033",
  "immutableReferences": {},
  "source": "// SPDX-License-Identifier: UNLICENSED\npragma solidity ^0.8.0;\n\nimport \"@openzeppelin/contracts/access/Ownable.sol\";\n\nimport \"./CollectCoin.sol\";\n\ncontract PeriodicTimeLockedWallet\n{\n    address public creator;\n    address payable public owner;\n    uint256 public lockDate;\n    uint256 public createdAt;\n\n    uint256 public unlockPeriod;\n    uint public unlockPercentage;\n\n    uint256 private unlockedAmount;\n\n    modifier onlyOwner {\n        require(msg.sender == owner);\n        _;\n    }\n\n    \n    event WithdrewTokens(address tokenContract, address to, uint256 amount);\n\n    constructor(address _creator, address payable _owner, uint256 _lockDate, uint256 _unlockPeriod, uint _unlockPercentage)\n    {\n        creator = _creator;\n        owner = _owner;\n        lockDate = _lockDate;\n        createdAt = block.timestamp;\n\n        unlockedAmount = 0;\n        unlockPeriod = _unlockPeriod;\n        unlockPercentage = _unlockPercentage;\n    }\n\n    receive() external payable\n    {\n        // we do not accept any native coin on this wallet\n        revert();\n    }\n\n    // callable by owner only, after specified time, only for Tokens implementing ERC20\n    function withdrawTokens(address _tokenContract) onlyOwner public \n    {\n       //require(block.timestamp >= unlockDate);\n\n       CollectCoin token = CollectCoin(_tokenContract);\n\n       // calculate the max release since lock time\n\n       //now send all the token balance\n       uint256 tokenBalance = token.balanceOf(address(this));\n       token.transfer(owner, tokenBalance);\n       emit WithdrewTokens(_tokenContract, msg.sender, tokenBalance);\n    }\n\n    function getUnlockedTokenAmount(address _tokenContract) onlyOwner public view returns (uint256)\n    {\n        CollectCoin token = CollectCoin(_tokenContract);\n        uint256 tokenBalance = token.balanceOf(address(this));\n\n        uint256 timeDiff = block.timestamp - lockDate;\n\n        uint unlockedUnits = timeDiff / unlockPeriod;\n\n        return (unlockedUnits * unlockPercentage * tokenBalance) / 100 - unlockedAmount;\n    }\n}",
  "sourcePath": "/home/eule/Projects/monaco-market/ethereum/ico/contracts/PeriodicTimeLockedWallet.sol",
  "compiler": {
    "name": "solc",
    "version": "0.8.0+commit.c7dfd78e.Emscripten.clang"
  },
  "schemaVersion": "3.4.1",
  "updatedAt": "2021-06-30T13:12:14.377Z",
  "devdoc": {
    "kind": "dev",
    "methods": {},
    "version": 1
  },
  "userdoc": {
    "kind": "user",
    "methods": {},
    "version": 1
  }
}