{
  "contractName": "PeriodicTimeLockedWallet",
  "abi": [
    {
      "inputs": [
        {
          "internalType": "address",
          "name": "_owner",
          "type": "address"
        },
        {
          "internalType": "uint256",
          "name": "_lockDate",
          "type": "uint256"
        },
        {
          "internalType": "uint256",
          "name": "_unlockPeriod",
          "type": "uint256"
        },
        {
          "internalType": "uint256",
          "name": "_unlockPercentage",
          "type": "uint256"
        }
      ],
      "stateMutability": "nonpayable",
      "type": "constructor"
    },
    {
      "anonymous": false,
      "inputs": [
        {
          "indexed": false,
          "internalType": "address",
          "name": "tokenContract",
          "type": "address"
        },
        {
          "indexed": false,
          "internalType": "address",
          "name": "to",
          "type": "address"
        },
        {
          "indexed": false,
          "internalType": "uint256",
          "name": "amount",
          "type": "uint256"
        }
      ],
      "name": "WithdrewTokens",
      "type": "event"
    },
    {
      "inputs": [],
      "name": "createdAt",
      "outputs": [
        {
          "internalType": "uint256",
          "name": "",
          "type": "uint256"
        }
      ],
      "stateMutability": "view",
      "type": "function"
    },
    {
      "inputs": [],
      "name": "lockDate",
      "outputs": [
        {
          "internalType": "uint256",
          "name": "",
          "type": "uint256"
        }
      ],
      "stateMutability": "view",
      "type": "function"
    },
    {
      "inputs": [],
      "name": "owner",
      "outputs": [
        {
          "internalType": "address",
          "name": "",
          "type": "address"
        }
      ],
      "stateMutability": "view",
      "type": "function"
    },
    {
      "inputs": [],
      "name": "unlockPercentage",
      "outputs": [
        {
          "internalType": "uint256",
          "name": "",
          "type": "uint256"
        }
      ],
      "stateMutability": "view",
      "type": "function"
    },
    {
      "inputs": [],
      "name": "unlockPeriod",
      "outputs": [
        {
          "internalType": "uint256",
          "name": "",
          "type": "uint256"
        }
      ],
      "stateMutability": "view",
      "type": "function"
    },
    {
      "stateMutability": "payable",
      "type": "receive"
    },
    {
      "inputs": [
        {
          "internalType": "address",
          "name": "_tokenContract",
          "type": "address"
        },
        {
          "internalType": "uint256",
          "name": "_amount",
          "type": "uint256"
        }
      ],
      "name": "withdrawTokens",
      "outputs": [],
      "stateMutability": "nonpayable",
      "type": "function"
    },
    {
      "inputs": [
        {
          "internalType": "address",
          "name": "tokenAddress",
          "type": "address"
        }
      ],
      "name": "balance",
      "outputs": [
        {
          "internalType": "uint256",
          "name": "",
          "type": "uint256"
        }
      ],
      "stateMutability": "view",
      "type": "function"
    },
    {
      "inputs": [
        {
          "internalType": "address",
          "name": "tokenAddress",
          "type": "address"
        }
      ],
      "name": "claimed",
      "outputs": [
        {
          "internalType": "uint256",
          "name": "",
          "type": "uint256"
        }
      ],
      "stateMutability": "view",
      "type": "function"
    },
    {
      "inputs": [
        {
          "internalType": "address",
          "name": "tokenAddress",
          "type": "address"
        }
      ],
      "name": "getUnlockedTokenAmount",
      "outputs": [
        {
          "internalType": "uint256",
          "name": "",
          "type": "uint256"
        }
      ],
      "stateMutability": "view",
      "type": "function"
    }
  ],
  "bytecode": "0x60806040523480156200001157600080fd5b5060405162000e2338038062000e238339818101604052810190620000379190620000cb565b836000806101000a81548173ffffffffffffffffffffffffffffffffffffffff021916908373ffffffffffffffffffffffffffffffffffffffff1602179055508260018190555042600281905550816003819055508060048190555050505050620001b4565b600081519050620000ae8162000180565b92915050565b600081519050620000c5816200019a565b92915050565b60008060008060808587031215620000e857620000e76200017b565b5b6000620000f8878288016200009d565b94505060206200010b87828801620000b4565b93505060406200011e87828801620000b4565b92505060606200013187828801620000b4565b91505092959194509250565b60006200014a8262000151565b9050919050565b600073ffffffffffffffffffffffffffffffffffffffff82169050919050565b6000819050919050565b600080fd5b6200018b816200013d565b81146200019757600080fd5b50565b620001a58162000171565b8114620001b157600080fd5b50565b610c5f80620001c46000396000f3fe60806040526004361061008a5760003560e01c80638da5cb5b116100595780638da5cb5b14610143578063bd7001ff1461016e578063c884ef83146101ab578063cf09e0d0146101e8578063e3d670d71461021357610094565b806306b091f91461009957806320d3a0b4146100c25780633b3fba16146100ed578063649ae9c61461011857610094565b3661009457600080fd5b600080fd5b3480156100a557600080fd5b506100c060048036038101906100bb91906107c7565b610250565b005b3480156100ce57600080fd5b506100d7610498565b6040516100e49190610980565b60405180910390f35b3480156100f957600080fd5b5061010261049e565b60405161010f9190610980565b60405180910390f35b34801561012457600080fd5b5061012d6104a4565b60405161013a9190610980565b60405180910390f35b34801561014f57600080fd5b506101586104aa565b60405161016591906108c5565b60405180910390f35b34801561017a57600080fd5b506101956004803603810190610190919061079a565b6104ce565b6040516101a29190610980565b60405180910390f35b3480156101b757600080fd5b506101d260048036038101906101cd919061079a565b610640565b6040516101df9190610980565b60405180910390f35b3480156101f457600080fd5b506101fd610689565b60405161020a9190610980565b60405180910390f35b34801561021f57600080fd5b5061023a6004803603810190610235919061079a565b61068f565b6040516102479190610980565b60405180910390f35b60008054906101000a900473ffffffffffffffffffffffffffffffffffffffff1673ffffffffffffffffffffffffffffffffffffffff163373ffffffffffffffffffffffffffffffffffffffff16146102de576040517f08c379a00000000000000000000000000000000000000000000000000000000081526004016102d590610960565b60405180910390fd5b60006102e9836104ce565b90508082111561032e576040517f08c379a000000000000000000000000000000000000000000000000000000000815260040161032590610940565b60405180910390fd5b81600660008573ffffffffffffffffffffffffffffffffffffffff1673ffffffffffffffffffffffffffffffffffffffff168152602001908152602001600020600082825461037d91906109ac565b9250508190555060008390508073ffffffffffffffffffffffffffffffffffffffff1663a9059cbb60008054906101000a900473ffffffffffffffffffffffffffffffffffffffff16856040518363ffffffff1660e01b81526004016103e4929190610917565b602060405180830381600087803b1580156103fe57600080fd5b505af1158015610412573d6000803e3d6000fd5b505050506040513d601f19601f820116820180604052508101906104369190610807565b507fa04c965e7d289704527a948915777d68bb4530fb4b08aa935fb958c0b7901ab98460008054906101000a900473ffffffffffffffffffffffffffffffffffffffff168460405161048a939291906108e0565b60405180910390a150505050565b60035481565b60045481565b60015481565b60008054906101000a900473ffffffffffffffffffffffffffffffffffffffff1681565b600080600660008473ffffffffffffffffffffffffffffffffffffffff1673ffffffffffffffffffffffffffffffffffffffff16815260200190815260200160002054905060008390506000828273ffffffffffffffffffffffffffffffffffffffff166370a08231306040518263ffffffff1660e01b815260040161055491906108c5565b60206040518083038186803b15801561056c57600080fd5b505afa158015610580573d6000803e3d6000fd5b505050506040513d601f19601f820116820180604052508101906105a49190610834565b6105ae91906109ac565b90506000600154426105c09190610a8d565b905060006001600354836105d49190610a02565b6105de91906109ac565b905060006064600454836105f29190610a33565b101561060b57600454826106069190610a33565b61060e565b60645b9050856064858361061f9190610a33565b6106299190610a02565b6106339190610a8d565b9650505050505050919050565b6000600660008373ffffffffffffffffffffffffffffffffffffffff1673ffffffffffffffffffffffffffffffffffffffff168152602001908152602001600020549050919050565b60025481565b6000808290508073ffffffffffffffffffffffffffffffffffffffff166370a0823160008054906101000a900473ffffffffffffffffffffffffffffffffffffffff166040518263ffffffff1660e01b81526004016106ee91906108c5565b60206040518083038186803b15801561070657600080fd5b505afa15801561071a573d6000803e3d6000fd5b505050506040513d601f19601f8201168201806040525081019061073e9190610834565b915050919050565b60008135905061075581610be4565b92915050565b60008151905061076a81610bfb565b92915050565b60008135905061077f81610c12565b92915050565b60008151905061079481610c12565b92915050565b6000602082840312156107b0576107af610b67565b5b60006107be84828501610746565b91505092915050565b600080604083850312156107de576107dd610b67565b5b60006107ec85828601610746565b92505060206107fd85828601610770565b9150509250929050565b60006020828403121561081d5761081c610b67565b5b600061082b8482850161075b565b91505092915050565b60006020828403121561084a57610849610b67565b5b600061085884828501610785565b91505092915050565b61086a81610ac1565b82525050565b600061087d60258361099b565b915061088882610b6c565b604082019050919050565b60006108a0600a8361099b565b91506108ab82610bbb565b602082019050919050565b6108bf81610aff565b82525050565b60006020820190506108da6000830184610861565b92915050565b60006060820190506108f56000830186610861565b6109026020830185610861565b61090f60408301846108b6565b949350505050565b600060408201905061092c6000830185610861565b61093960208301846108b6565b9392505050565b6000602082019050818103600083015261095981610870565b9050919050565b6000602082019050818103600083015261097981610893565b9050919050565b600060208201905061099560008301846108b6565b92915050565b600082825260208201905092915050565b60006109b782610aff565b91506109c283610aff565b9250827fffffffffffffffffffffffffffffffffffffffffffffffffffffffffffffffff038211156109f7576109f6610b09565b5b828201905092915050565b6000610a0d82610aff565b9150610a1883610aff565b925082610a2857610a27610b38565b5b828204905092915050565b6000610a3e82610aff565b9150610a4983610aff565b9250817fffffffffffffffffffffffffffffffffffffffffffffffffffffffffffffffff0483118215151615610a8257610a81610b09565b5b828202905092915050565b6000610a9882610aff565b9150610aa383610aff565b925082821015610ab657610ab5610b09565b5b828203905092915050565b6000610acc82610adf565b9050919050565b60008115159050919050565b600073ffffffffffffffffffffffffffffffffffffffff82169050919050565b6000819050919050565b7f4e487b7100000000000000000000000000000000000000000000000000000000600052601160045260246000fd5b7f4e487b7100000000000000000000000000000000000000000000000000000000600052601260045260246000fd5b600080fd5b7f4e6f7420656e6f7567687420756e6c6f636b656420746f6b656e73206176616960008201527f6c61626c65000000000000000000000000000000000000000000000000000000602082015250565b7f4f6e6c79204f776e657200000000000000000000000000000000000000000000600082015250565b610bed81610ac1565b8114610bf857600080fd5b50565b610c0481610ad3565b8114610c0f57600080fd5b50565b610c1b81610aff565b8114610c2657600080fd5b5056fea2646970667358221220702692c42049fd504175fdf30b8e00dbc97a32e7c195c2ba726c5b2871d6007a64736f6c63430008060033",
  "immutableReferences": {},
  "source": "// SPDX-License-Identifier: UNLICENSED\npragma solidity ^0.8.6;\n\nimport \"@openzeppelin/contracts/access/Ownable.sol\";\nimport \"@openzeppelin/contracts/token/ERC20/ERC20.sol\";\n\ncontract PeriodicTimeLockedWallet\n{\n    address public owner;\n    uint256 public lockDate;\n    uint256 public createdAt;\n\n    uint256 public unlockPeriod;\n    uint public unlockPercentage;\n    address tokenOwner;\n\n    modifier onlyOwner {\n        require(msg.sender == owner, \"Only Owner\");\n        _;\n    }\n\n    mapping (address => uint256) private claimedAmountOf;\n\n    event WithdrewTokens(address tokenContract, address to, uint256 amount);\n\n    constructor(address _owner, uint256 _lockDate, uint256 _unlockPeriod, uint _unlockPercentage)\n    {\n        owner = _owner;\n\n        lockDate = _lockDate;\n        createdAt = block.timestamp;\n\n        // unlockedAmount = 0;\n        unlockPeriod = _unlockPeriod;\n        unlockPercentage = _unlockPercentage;\n    }\n\n    receive() external payable\n    {\n        // we do not accept any native coin on this wallet\n        revert();\n    }\n\n    // callable by owner only, after specified time, only for Tokens implementing ERC20\n    function withdrawTokens(address _tokenContract, uint256 _amount) public onlyOwner\n    {\n        uint256 unlockedTokenAmount = getUnlockedTokenAmount(_tokenContract);\n        require(_amount <= unlockedTokenAmount, \"Not enought unlocked tokens available\");\n\n        claimedAmountOf[_tokenContract] += _amount;\n\n        ERC20 token = ERC20(_tokenContract);\n        token.transfer(owner, _amount);\n        emit WithdrewTokens(_tokenContract, owner, unlockedTokenAmount);\n    }\n\n    function balance(address tokenAddress) public view returns (uint256) {\n        ERC20 token = ERC20(tokenAddress);\n        return token.balanceOf(owner);\n    }\n\n    function claimed(address tokenAddress) public view returns (uint256) {\n        return claimedAmountOf[tokenAddress];\n    }\n\n    function getUnlockedTokenAmount(address tokenAddress) public view returns (uint256)\n    {\n        // the amount of tokens already unlocked and transferred\n        uint256 claimedAmount = claimedAmountOf[tokenAddress];\n\n        ERC20 token = ERC20(tokenAddress);\n        uint256 totaltokenAmount = token.balanceOf(address(this)) + claimedAmount;\n\n        uint256 timeDiff = block.timestamp - lockDate;\n\n        uint unlockedUnits = (timeDiff / unlockPeriod) + 1;\n        uint multiplier = unlockedUnits * unlockPercentage >= 100 ? 100 : unlockedUnits * unlockPercentage;\n\n        return (multiplier * totaltokenAmount) / 100 - claimedAmount;\n    }\n}",
  "sourcePath": "/home/eule/Projects/ico-contracts/ethereum/ico/contracts/PeriodicTimeLockedWallet.sol",
  "compiler": {
    "name": "solc",
    "version": "0.8.6+commit.11564f7e.Emscripten.clang"
  },
  "schemaVersion": "3.4.1",
  "updatedAt": "2021-10-12T08:27:04.200Z",
  "devdoc": {
    "kind": "dev",
    "methods": {},
    "version": 1
  },
  "userdoc": {
    "kind": "user",
    "methods": {},
    "version": 1
  }
}