{
  "contractName": "PeriodicTimeLockedMonoWallet",
  "abi": [
    {
      "inputs": [
        {
          "internalType": "address",
          "name": "_creator",
          "type": "address"
        },
        {
          "internalType": "contract ICollectCoinIco",
          "name": "_icoContract",
          "type": "address"
        },
        {
          "internalType": "uint256",
          "name": "_lockDate",
          "type": "uint256"
        },
        {
          "internalType": "uint256",
          "name": "_unlockPeriod",
          "type": "uint256"
        },
        {
          "internalType": "uint256",
          "name": "_unlockPercentage",
          "type": "uint256"
        },
        {
          "internalType": "address",
          "name": "_tokenOwner",
          "type": "address"
        }
      ],
      "stateMutability": "nonpayable",
      "type": "constructor"
    },
    {
      "anonymous": false,
      "inputs": [
        {
          "indexed": false,
          "internalType": "address",
          "name": "tokenContract",
          "type": "address"
        },
        {
          "indexed": false,
          "internalType": "address",
          "name": "to",
          "type": "address"
        },
        {
          "indexed": false,
          "internalType": "uint256",
          "name": "amount",
          "type": "uint256"
        }
      ],
      "name": "WithdrewTokens",
      "type": "event"
    },
    {
      "inputs": [],
      "name": "createdAt",
      "outputs": [
        {
          "internalType": "uint256",
          "name": "",
          "type": "uint256"
        }
      ],
      "stateMutability": "view",
      "type": "function"
    },
    {
      "inputs": [],
      "name": "creator",
      "outputs": [
        {
          "internalType": "address",
          "name": "",
          "type": "address"
        }
      ],
      "stateMutability": "view",
      "type": "function"
    },
    {
      "inputs": [],
      "name": "icoContract",
      "outputs": [
        {
          "internalType": "contract ICollectCoinIco",
          "name": "",
          "type": "address"
        }
      ],
      "stateMutability": "view",
      "type": "function"
    },
    {
      "inputs": [],
      "name": "lockDate",
      "outputs": [
        {
          "internalType": "uint256",
          "name": "",
          "type": "uint256"
        }
      ],
      "stateMutability": "view",
      "type": "function"
    },
    {
      "inputs": [],
      "name": "unlockPercentage",
      "outputs": [
        {
          "internalType": "uint256",
          "name": "",
          "type": "uint256"
        }
      ],
      "stateMutability": "view",
      "type": "function"
    },
    {
      "inputs": [],
      "name": "unlockPeriod",
      "outputs": [
        {
          "internalType": "uint256",
          "name": "",
          "type": "uint256"
        }
      ],
      "stateMutability": "view",
      "type": "function"
    },
    {
      "stateMutability": "payable",
      "type": "receive"
    },
    {
      "inputs": [
        {
          "internalType": "address",
          "name": "_tokenContract",
          "type": "address"
        }
      ],
      "name": "withdrawTokens",
      "outputs": [],
      "stateMutability": "nonpayable",
      "type": "function"
    },
    {
      "inputs": [],
      "name": "balance",
      "outputs": [
        {
          "internalType": "uint256",
          "name": "",
          "type": "uint256"
        }
      ],
      "stateMutability": "view",
      "type": "function"
    },
    {
      "inputs": [],
      "name": "claimed",
      "outputs": [
        {
          "internalType": "uint256",
          "name": "",
          "type": "uint256"
        }
      ],
      "stateMutability": "view",
      "type": "function"
    },
    {
      "inputs": [],
      "name": "getUnlockedTokenAmount",
      "outputs": [
        {
          "internalType": "uint256",
          "name": "",
          "type": "uint256"
        }
      ],
      "stateMutability": "view",
      "type": "function"
    }
  ],
  "bytecode": "0x60806040523480156200001157600080fd5b5060405162000d4438038062000d44833981810160405281019062000037919062000166565b856000806101000a81548173ffffffffffffffffffffffffffffffffffffffff021916908373ffffffffffffffffffffffffffffffffffffffff16021790555084600660006101000a81548173ffffffffffffffffffffffffffffffffffffffff021916908373ffffffffffffffffffffffffffffffffffffffff160217905550836001819055504260028190555080600560006101000a81548173ffffffffffffffffffffffffffffffffffffffff021916908373ffffffffffffffffffffffffffffffffffffffff16021790555082600381905550816004819055505050505050506200029c565b60008151905062000132816200024e565b92915050565b600081519050620001498162000268565b92915050565b600081519050620001608162000282565b92915050565b60008060008060008060c087890312156200018057600080fd5b60006200019089828a0162000121565b9650506020620001a389828a0162000138565b9550506040620001b689828a016200014f565b9450506060620001c989828a016200014f565b9350506080620001dc89828a016200014f565b92505060a0620001ef89828a0162000121565b9150509295509295509295565b6000620002098262000224565b9050919050565b60006200021d82620001fc565b9050919050565b600073ffffffffffffffffffffffffffffffffffffffff82169050919050565b6000819050919050565b6200025981620001fc565b81146200026557600080fd5b50565b620002738162000210565b81146200027f57600080fd5b50565b6200028d8162000244565b81146200029957600080fd5b50565b610a9880620002ac6000396000f3fe6080604052600436106100955760003560e01c8063649ae9c611610059578063649ae9c614610179578063b69ef8a8146101a4578063c66e4095146101cf578063cf09e0d0146101fa578063e834a834146102255761009f565b806302d05d3f146100a457806320d3a0b4146100cf5780633b3fba16146100fa57806349df728c1461012557806363f5de761461014e5761009f565b3661009f57600080fd5b600080fd5b3480156100b057600080fd5b506100b9610250565b6040516100c691906107b6565b60405180910390f35b3480156100db57600080fd5b506100e4610274565b6040516100f19190610823565b60405180910390f35b34801561010657600080fd5b5061010f61027a565b60405161011c9190610823565b60405180910390f35b34801561013157600080fd5b5061014c6004803603810190610147919061070e565b610280565b005b34801561015a57600080fd5b506101636103d9565b6040516101709190610823565b60405180910390f35b34801561018557600080fd5b5061018e61055a565b60405161019b9190610823565b60405180910390f35b3480156101b057600080fd5b506101b9610560565b6040516101c69190610823565b60405180910390f35b3480156101db57600080fd5b506101e461065c565b6040516101f19190610808565b60405180910390f35b34801561020657600080fd5b5061020f610682565b60405161021c9190610823565b60405180910390f35b34801561023157600080fd5b5061023a610688565b6040516102479190610823565b60405180910390f35b60008054906101000a900473ffffffffffffffffffffffffffffffffffffffff1681565b60035481565b60045481565b6000819050600061028f6103d9565b905080600760003373ffffffffffffffffffffffffffffffffffffffff1673ffffffffffffffffffffffffffffffffffffffff16815260200190815260200160002060008282546102e0919061083e565b925050819055508173ffffffffffffffffffffffffffffffffffffffff166323b872dd600560009054906101000a900473ffffffffffffffffffffffffffffffffffffffff1633846040518463ffffffff1660e01b8152600401610346939291906107d1565b602060405180830381600087803b15801561036057600080fd5b505af1158015610374573d6000803e3d6000fd5b505050506040513d601f19601f820116820180604052508101906103989190610737565b507fa04c965e7d289704527a948915777d68bb4530fb4b08aa935fb958c0b7901ab98333836040516103cc939291906107d1565b60405180910390a1505050565b600080600660009054906101000a900473ffffffffffffffffffffffffffffffffffffffff1673ffffffffffffffffffffffffffffffffffffffff166397b150ca336040518263ffffffff1660e01b815260040161043791906107b6565b60206040518083038186803b15801561044f57600080fd5b505afa158015610463573d6000803e3d6000fd5b505050506040513d601f19601f820116820180604052508101906104879190610760565b90506000600760003373ffffffffffffffffffffffffffffffffffffffff1673ffffffffffffffffffffffffffffffffffffffff1681526020019081526020016000205490506000600154426104dd919061091f565b905060006001600354836104f19190610894565b6104fb919061083e565b9050600060646004548361050f91906108c5565b1015610528576004548261052391906108c5565b61052b565b60645b9050836064868361053c91906108c5565b6105469190610894565b610550919061091f565b9550505050505090565b60015481565b6000600760003373ffffffffffffffffffffffffffffffffffffffff1673ffffffffffffffffffffffffffffffffffffffff16815260200190815260200160002054600660009054906101000a900473ffffffffffffffffffffffffffffffffffffffff1673ffffffffffffffffffffffffffffffffffffffff166397b150ca336040518263ffffffff1660e01b81526004016105fd91906107b6565b60206040518083038186803b15801561061557600080fd5b505afa158015610629573d6000803e3d6000fd5b505050506040513d601f19601f8201168201806040525081019061064d9190610760565b610657919061091f565b905090565b600660009054906101000a900473ffffffffffffffffffffffffffffffffffffffff1681565b60025481565b6000600760003373ffffffffffffffffffffffffffffffffffffffff1673ffffffffffffffffffffffffffffffffffffffff16815260200190815260200160002054905090565b6000813590506106de81610a1d565b92915050565b6000815190506106f381610a34565b92915050565b60008151905061070881610a4b565b92915050565b60006020828403121561072057600080fd5b600061072e848285016106cf565b91505092915050565b60006020828403121561074957600080fd5b6000610757848285016106e4565b91505092915050565b60006020828403121561077257600080fd5b6000610780848285016106f9565b91505092915050565b61079281610953565b82525050565b6107a18161099b565b82525050565b6107b081610991565b82525050565b60006020820190506107cb6000830184610789565b92915050565b60006060820190506107e66000830186610789565b6107f36020830185610789565b61080060408301846107a7565b949350505050565b600060208201905061081d6000830184610798565b92915050565b600060208201905061083860008301846107a7565b92915050565b600061084982610991565b915061085483610991565b9250827fffffffffffffffffffffffffffffffffffffffffffffffffffffffffffffffff03821115610889576108886109bf565b5b828201905092915050565b600061089f82610991565b91506108aa83610991565b9250826108ba576108b96109ee565b5b828204905092915050565b60006108d082610991565b91506108db83610991565b9250817fffffffffffffffffffffffffffffffffffffffffffffffffffffffffffffffff0483118215151615610914576109136109bf565b5b828202905092915050565b600061092a82610991565b915061093583610991565b925082821015610948576109476109bf565b5b828203905092915050565b600061095e82610971565b9050919050565b60008115159050919050565b600073ffffffffffffffffffffffffffffffffffffffff82169050919050565b6000819050919050565b60006109a6826109ad565b9050919050565b60006109b882610971565b9050919050565b7f4e487b7100000000000000000000000000000000000000000000000000000000600052601160045260246000fd5b7f4e487b7100000000000000000000000000000000000000000000000000000000600052601260045260246000fd5b610a2681610953565b8114610a3157600080fd5b50565b610a3d81610965565b8114610a4857600080fd5b50565b610a5481610991565b8114610a5f57600080fd5b5056fea264697066735822122028ba725551f99738003f6d675e9a94a61258cd26a41d07c292061c811a9ad1ad64736f6c63430008000033",
  "immutableReferences": {},
  "source": "// SPDX-License-Identifier: UNLICENSED\npragma solidity ^0.8.0;\n\nimport \"@openzeppelin/contracts/access/Ownable.sol\";\n\nimport \"./CollectCoin.sol\";\nimport \"./ICollectCoinIco.sol\";\n\ncontract PeriodicTimeLockedMonoWallet\n{\n    address public creator;\n    uint256 public lockDate;\n    uint256 public createdAt;\n\n    uint256 public unlockPeriod;\n    uint public unlockPercentage;\n    address tokenOwner;\n\n    ICollectCoinIco public icoContract;\n\n    mapping (address => uint256) private claimedAmountOf;\n\n    event WithdrewTokens(address tokenContract, address to, uint256 amount);\n\n    constructor(address _creator, ICollectCoinIco _icoContract, uint256 _lockDate, uint256 _unlockPeriod, uint _unlockPercentage, address _tokenOwner)\n    {\n        creator = _creator;\n        icoContract = _icoContract;\n\n        lockDate = _lockDate;\n        createdAt = block.timestamp;\n        tokenOwner = _tokenOwner;\n\n        // unlockedAmount = 0;\n        unlockPeriod = _unlockPeriod;\n        unlockPercentage = _unlockPercentage;\n    }\n\n    receive() external payable\n    {\n        // we do not accept any native coin on this wallet\n        revert();\n    }\n\n    // callable by owner only, after specified time, only for Tokens implementing ERC20\n    function withdrawTokens(address _tokenContract) public \n    {\n       //require(block.timestamp >= unlockDate);\n\n       CollectCoin token = CollectCoin(_tokenContract);\n\n       //now send all the token balance\n       uint256 unlockedTokenAmount = getUnlockedTokenAmount();\n       \n       claimedAmountOf[msg.sender] += unlockedTokenAmount;\n\n       token.transferFrom(tokenOwner, msg.sender, unlockedTokenAmount);\n       emit WithdrewTokens(_tokenContract, msg.sender, unlockedTokenAmount);\n    }\n\n    function balance() public view returns (uint256) {\n        return icoContract.tokenAmountOf(msg.sender) - claimedAmountOf[msg.sender];\n    }\n\n    function claimed() public view returns (uint256) {\n        return claimedAmountOf[msg.sender];\n    }\n\n    function getUnlockedTokenAmount() public view returns (uint256)\n    {\n        uint256 totaltokenAmount = icoContract.tokenAmountOf(msg.sender);\n\n        // the amount of tokens already unlocked and transferred\n        uint256 claimedAmount = claimedAmountOf[msg.sender];\n\n        uint256 timeDiff = block.timestamp - lockDate;\n\n        uint unlockedUnits = (timeDiff / unlockPeriod) + 1;\n        uint multiplier = unlockedUnits * unlockPercentage >= 100 ? 100 : unlockedUnits * unlockPercentage;\n\n        return (multiplier * totaltokenAmount) / 100 - claimedAmount;\n    }\n}",
  "sourcePath": "/home/eule/Projects/ico-contracts/ethereum/ico/contracts/PeriodicTimeLockedMonoWallet.sol",
  "compiler": {
    "name": "solc",
    "version": "0.8.0+commit.c7dfd78e.Emscripten.clang"
  },
  "schemaVersion": "3.4.1",
  "updatedAt": "2021-08-16T12:51:23.868Z",
  "devdoc": {
    "kind": "dev",
    "methods": {},
    "version": 1
  },
  "userdoc": {
    "kind": "user",
    "methods": {},
    "version": 1
  }
}