{
  "contractName": "PeriodicTimeLockedMonoWallet",
  "abi": [
    {
      "inputs": [
        {
          "internalType": "address",
          "name": "_creator",
          "type": "address"
        },
        {
          "internalType": "contract ICollectCoinIco",
          "name": "_icoContract",
          "type": "address"
        },
        {
          "internalType": "uint256",
          "name": "_unlockDate",
          "type": "uint256"
        },
        {
          "internalType": "uint256",
          "name": "_unlockPeriod",
          "type": "uint256"
        },
        {
          "internalType": "uint256",
          "name": "_unlockPercentage",
          "type": "uint256"
        },
        {
          "internalType": "address",
          "name": "_tokenOwner",
          "type": "address"
        }
      ],
      "stateMutability": "nonpayable",
      "type": "constructor"
    },
    {
      "anonymous": false,
      "inputs": [
        {
          "indexed": false,
          "internalType": "address",
          "name": "tokenContract",
          "type": "address"
        },
        {
          "indexed": false,
          "internalType": "address",
          "name": "to",
          "type": "address"
        },
        {
          "indexed": false,
          "internalType": "uint256",
          "name": "amount",
          "type": "uint256"
        }
      ],
      "name": "WithdrewTokens",
      "type": "event"
    },
    {
      "inputs": [],
      "name": "createdAt",
      "outputs": [
        {
          "internalType": "uint256",
          "name": "",
          "type": "uint256"
        }
      ],
      "stateMutability": "view",
      "type": "function"
    },
    {
      "inputs": [],
      "name": "creator",
      "outputs": [
        {
          "internalType": "address",
          "name": "",
          "type": "address"
        }
      ],
      "stateMutability": "view",
      "type": "function"
    },
    {
      "inputs": [],
      "name": "icoContract",
      "outputs": [
        {
          "internalType": "contract ICollectCoinIco",
          "name": "",
          "type": "address"
        }
      ],
      "stateMutability": "view",
      "type": "function"
    },
    {
      "inputs": [],
      "name": "unlockDate",
      "outputs": [
        {
          "internalType": "uint256",
          "name": "",
          "type": "uint256"
        }
      ],
      "stateMutability": "view",
      "type": "function"
    },
    {
      "inputs": [],
      "name": "unlockPercentage",
      "outputs": [
        {
          "internalType": "uint256",
          "name": "",
          "type": "uint256"
        }
      ],
      "stateMutability": "view",
      "type": "function"
    },
    {
      "inputs": [],
      "name": "unlockPeriod",
      "outputs": [
        {
          "internalType": "uint256",
          "name": "",
          "type": "uint256"
        }
      ],
      "stateMutability": "view",
      "type": "function"
    },
    {
      "stateMutability": "payable",
      "type": "receive"
    },
    {
      "inputs": [
        {
          "internalType": "address",
          "name": "_tokenContract",
          "type": "address"
        }
      ],
      "name": "withdrawTokens",
      "outputs": [],
      "stateMutability": "nonpayable",
      "type": "function"
    },
    {
      "inputs": [],
      "name": "balance",
      "outputs": [
        {
          "internalType": "uint256",
          "name": "",
          "type": "uint256"
        }
      ],
      "stateMutability": "view",
      "type": "function"
    },
    {
      "inputs": [],
      "name": "claimed",
      "outputs": [
        {
          "internalType": "uint256",
          "name": "",
          "type": "uint256"
        }
      ],
      "stateMutability": "view",
      "type": "function"
    },
    {
      "inputs": [],
      "name": "getUnlockedTokenAmount",
      "outputs": [
        {
          "internalType": "uint256",
          "name": "",
          "type": "uint256"
        }
      ],
      "stateMutability": "view",
      "type": "function"
    }
  ],
  "bytecode": "0x60806040523480156200001157600080fd5b5060405162000e1c38038062000e1c833981810160405281019062000037919062000166565b856000806101000a81548173ffffffffffffffffffffffffffffffffffffffff021916908373ffffffffffffffffffffffffffffffffffffffff16021790555084600660006101000a81548173ffffffffffffffffffffffffffffffffffffffff021916908373ffffffffffffffffffffffffffffffffffffffff160217905550836001819055504260028190555080600560006101000a81548173ffffffffffffffffffffffffffffffffffffffff021916908373ffffffffffffffffffffffffffffffffffffffff1602179055508260038190555081600481905550505050505050620002a7565b600081519050620001328162000259565b92915050565b600081519050620001498162000273565b92915050565b60008151905062000160816200028d565b92915050565b60008060008060008060c0878903121562000186576200018562000254565b5b60006200019689828a0162000121565b9650506020620001a989828a0162000138565b9550506040620001bc89828a016200014f565b9450506060620001cf89828a016200014f565b9350506080620001e289828a016200014f565b92505060a0620001f589828a0162000121565b9150509295509295509295565b60006200020f826200022a565b9050919050565b6000620002238262000202565b9050919050565b600073ffffffffffffffffffffffffffffffffffffffff82169050919050565b6000819050919050565b600080fd5b620002648162000202565b81146200027057600080fd5b50565b6200027e8162000216565b81146200028a57600080fd5b50565b62000298816200024a565b8114620002a457600080fd5b50565b610b6580620002b76000396000f3fe6080604052600436106100955760003560e01c806369ac57211161005957806369ac572114610179578063b69ef8a8146101a4578063c66e4095146101cf578063cf09e0d0146101fa578063e834a834146102255761009f565b806302d05d3f146100a457806320d3a0b4146100cf5780633b3fba16146100fa57806349df728c1461012557806363f5de761461014e5761009f565b3661009f57600080fd5b600080fd5b3480156100b057600080fd5b506100b9610250565b6040516100c691906107e0565b60405180910390f35b3480156100db57600080fd5b506100e4610274565b6040516100f1919061084d565b60405180910390f35b34801561010657600080fd5b5061010f61027a565b60405161011c919061084d565b60405180910390f35b34801561013157600080fd5b5061014c6004803603810190610147919061072c565b610280565b005b34801561015a57600080fd5b506101636103e1565b604051610170919061084d565b60405180910390f35b34801561018557600080fd5b5061018e610578565b60405161019b919061084d565b60405180910390f35b3480156101b057600080fd5b506101b961057e565b6040516101c6919061084d565b60405180910390f35b3480156101db57600080fd5b506101e461067a565b6040516101f19190610832565b60405180910390f35b34801561020657600080fd5b5061020f6106a0565b60405161021c919061084d565b60405180910390f35b34801561023157600080fd5b5061023a6106a6565b604051610247919061084d565b60405180910390f35b60008054906101000a900473ffffffffffffffffffffffffffffffffffffffff1681565b60035481565b60045481565b6000819050600061028f6103e1565b905080600760003373ffffffffffffffffffffffffffffffffffffffff1673ffffffffffffffffffffffffffffffffffffffff16815260200190815260200160002060008282546102e09190610868565b925050819055508173ffffffffffffffffffffffffffffffffffffffff166323b872dd600560009054906101000a900473ffffffffffffffffffffffffffffffffffffffff1633846040518463ffffffff1660e01b8152600401610346939291906107fb565b602060405180830381600087803b15801561036057600080fd5b505af1158015610374573d6000803e3d6000fd5b505050506040513d601f19601f820116820180604052508101906103989190610759565b6103a157600080fd5b7fa04c965e7d289704527a948915777d68bb4530fb4b08aa935fb958c0b7901ab98333836040516103d4939291906107fb565b60405180910390a1505050565b600080600660009054906101000a900473ffffffffffffffffffffffffffffffffffffffff1673ffffffffffffffffffffffffffffffffffffffff166397b150ca336040518263ffffffff1660e01b815260040161043f91906107e0565b60206040518083038186803b15801561045757600080fd5b505afa15801561046b573d6000803e3d6000fd5b505050506040513d601f19601f8201168201806040525081019061048f9190610786565b90506000600760003373ffffffffffffffffffffffffffffffffffffffff1673ffffffffffffffffffffffffffffffffffffffff1681526020019081526020016000205490506000600154426104e59190610949565b905060008112156104fc5760009350505050610575565b600060016003548361050e91906108be565b6105189190610868565b9050600060646004548361052c91906108ef565b1015610545576004548261054091906108ef565b610548565b60645b9050836064868361055991906108ef565b61056391906108be565b61056d91906109dd565b955050505050505b90565b60015481565b6000600760003373ffffffffffffffffffffffffffffffffffffffff1673ffffffffffffffffffffffffffffffffffffffff16815260200190815260200160002054600660009054906101000a900473ffffffffffffffffffffffffffffffffffffffff1673ffffffffffffffffffffffffffffffffffffffff166397b150ca336040518263ffffffff1660e01b815260040161061b91906107e0565b60206040518083038186803b15801561063357600080fd5b505afa158015610647573d6000803e3d6000fd5b505050506040513d601f19601f8201168201806040525081019061066b9190610786565b61067591906109dd565b905090565b600660009054906101000a900473ffffffffffffffffffffffffffffffffffffffff1681565b60025481565b6000600760003373ffffffffffffffffffffffffffffffffffffffff1673ffffffffffffffffffffffffffffffffffffffff16815260200190815260200160002054905090565b6000813590506106fc81610aea565b92915050565b60008151905061071181610b01565b92915050565b60008151905061072681610b18565b92915050565b60006020828403121561074257610741610ae5565b5b6000610750848285016106ed565b91505092915050565b60006020828403121561076f5761076e610ae5565b5b600061077d84828501610702565b91505092915050565b60006020828403121561079c5761079b610ae5565b5b60006107aa84828501610717565b91505092915050565b6107bc81610a11565b82525050565b6107cb81610a63565b82525050565b6107da81610a59565b82525050565b60006020820190506107f560008301846107b3565b92915050565b600060608201905061081060008301866107b3565b61081d60208301856107b3565b61082a60408301846107d1565b949350505050565b600060208201905061084760008301846107c2565b92915050565b600060208201905061086260008301846107d1565b92915050565b600061087382610a59565b915061087e83610a59565b9250827fffffffffffffffffffffffffffffffffffffffffffffffffffffffffffffffff038211156108b3576108b2610a87565b5b828201905092915050565b60006108c982610a59565b91506108d483610a59565b9250826108e4576108e3610ab6565b5b828204905092915050565b60006108fa82610a59565b915061090583610a59565b9250817fffffffffffffffffffffffffffffffffffffffffffffffffffffffffffffffff048311821515161561093e5761093d610a87565b5b828202905092915050565b600061095482610a2f565b915061095f83610a2f565b9250827f80000000000000000000000000000000000000000000000000000000000000000182126000841215161561099a57610999610a87565b5b827f7fffffffffffffffffffffffffffffffffffffffffffffffffffffffffffffff0182136000841216156109d2576109d1610a87565b5b828203905092915050565b60006109e882610a59565b91506109f383610a59565b925082821015610a0657610a05610a87565b5b828203905092915050565b6000610a1c82610a39565b9050919050565b60008115159050919050565b6000819050919050565b600073ffffffffffffffffffffffffffffffffffffffff82169050919050565b6000819050919050565b6000610a6e82610a75565b9050919050565b6000610a8082610a39565b9050919050565b7f4e487b7100000000000000000000000000000000000000000000000000000000600052601160045260246000fd5b7f4e487b7100000000000000000000000000000000000000000000000000000000600052601260045260246000fd5b600080fd5b610af381610a11565b8114610afe57600080fd5b50565b610b0a81610a23565b8114610b1557600080fd5b50565b610b2181610a59565b8114610b2c57600080fd5b5056fea264697066735822122058b97c6040b9273676235589a4d803a1ef51fc6e3f1e5517ecb11c342500ec7864736f6c63430008060033",
  "immutableReferences": {},
  "source": "// SPDX-License-Identifier: UNLICENSED\npragma solidity ^0.8.6;\n\nimport \"@openzeppelin/contracts/access/Ownable.sol\";\n\nimport \"./CollectCoin.sol\";\nimport \"./ICollectCoinIco.sol\";\n\ncontract PeriodicTimeLockedMonoWallet\n{\n    address public creator;\n    uint256 public unlockDate;\n    uint256 public createdAt;\n\n    uint256 public unlockPeriod;\n    uint public unlockPercentage;\n    address tokenOwner;\n\n    ICollectCoinIco public icoContract;\n\n    mapping (address => uint256) private claimedAmountOf;\n\n    event WithdrewTokens(address tokenContract, address to, uint256 amount);\n\n    constructor(address _creator, ICollectCoinIco _icoContract, uint256 _unlockDate, uint256 _unlockPeriod, uint _unlockPercentage, address _tokenOwner)\n    {\n        creator = _creator;\n        icoContract = _icoContract;\n\n        unlockDate = _unlockDate;\n        createdAt = block.timestamp;\n        tokenOwner = _tokenOwner;\n\n        // unlockedAmount = 0;\n        unlockPeriod = _unlockPeriod;\n        unlockPercentage = _unlockPercentage;\n    }\n\n    receive() external payable\n    {\n        // we do not accept any native coin on this wallet\n        revert();\n    }\n\n    // callable by owner only, after specified time, only for Tokens implementing ERC20\n    function withdrawTokens(address _tokenContract) public \n    {\n       //require(block.timestamp >= unlockDate);\n\n       CollectCoin token = CollectCoin(_tokenContract);\n\n       //now send all the token balance\n       uint256 unlockedTokenAmount = getUnlockedTokenAmount();\n       \n       claimedAmountOf[msg.sender] += unlockedTokenAmount;\n\n       if(!token.transferFrom(tokenOwner, msg.sender, unlockedTokenAmount)) revert();\n       emit WithdrewTokens(_tokenContract, msg.sender, unlockedTokenAmount);\n    }\n\n    function balance() public view returns (uint256) {\n        return icoContract.tokenAmountOf(msg.sender) - claimedAmountOf[msg.sender];\n    }\n\n    function claimed() public view returns (uint256) {\n        return claimedAmountOf[msg.sender];\n    }\n\n    function getUnlockedTokenAmount() public view returns (uint256)\n    {\n        uint256 totaltokenAmount = icoContract.tokenAmountOf(msg.sender);\n\n        // the amount of tokens already unlocked and transferred\n        uint256 claimedAmount = claimedAmountOf[msg.sender];\n\n        int256 timeDiff = int256(block.timestamp) - int256(unlockDate);\n\n        if(timeDiff < 0) \n        {\n            // still locked\n            return 0;\n        }\n\n        uint unlockedUnits = (uint256(timeDiff) / unlockPeriod) + 1;\n\n        uint multiplier = unlockedUnits * unlockPercentage >= 100 ? 100 : unlockedUnits * unlockPercentage;\n\n        return (multiplier * totaltokenAmount) / 100 - claimedAmount;\n    }\n}",
  "sourcePath": "/home/eule/Projects/ico-contracts/ethereum/ico/contracts/PeriodicTimeLockedMonoWallet.sol",
  "compiler": {
    "name": "solc",
    "version": "0.8.6+commit.11564f7e.Emscripten.clang"
  },
  "schemaVersion": "3.4.1",
  "updatedAt": "2021-10-15T09:48:04.944Z",
  "devdoc": {
    "kind": "dev",
    "methods": {},
    "version": 1
  },
  "userdoc": {
    "kind": "user",
    "methods": {},
    "version": 1
  }
}