{
  "contractName": "PeriodicTimeLockedMonoWallet",
  "abi": [
    {
      "inputs": [
        {
          "internalType": "address",
          "name": "_creator",
          "type": "address"
        },
        {
          "internalType": "contract ICollectCoinIco",
          "name": "_icoContract",
          "type": "address"
        },
        {
          "internalType": "uint256",
          "name": "_unlockDate",
          "type": "uint256"
        },
        {
          "internalType": "uint256",
          "name": "_unlockPeriod",
          "type": "uint256"
        },
        {
          "internalType": "uint256",
          "name": "_unlockPercentage",
          "type": "uint256"
        },
        {
          "internalType": "address",
          "name": "_tokenOwner",
          "type": "address"
        }
      ],
      "stateMutability": "nonpayable",
      "type": "constructor"
    },
    {
      "anonymous": false,
      "inputs": [
        {
          "indexed": false,
          "internalType": "address",
          "name": "tokenContract",
          "type": "address"
        },
        {
          "indexed": false,
          "internalType": "address",
          "name": "to",
          "type": "address"
        },
        {
          "indexed": false,
          "internalType": "uint256",
          "name": "amount",
          "type": "uint256"
        }
      ],
      "name": "WithdrewTokens",
      "type": "event"
    },
    {
      "inputs": [],
      "name": "createdAt",
      "outputs": [
        {
          "internalType": "uint256",
          "name": "",
          "type": "uint256"
        }
      ],
      "stateMutability": "view",
      "type": "function"
    },
    {
      "inputs": [],
      "name": "creator",
      "outputs": [
        {
          "internalType": "address",
          "name": "",
          "type": "address"
        }
      ],
      "stateMutability": "view",
      "type": "function"
    },
    {
      "inputs": [],
      "name": "icoContract",
      "outputs": [
        {
          "internalType": "contract ICollectCoinIco",
          "name": "",
          "type": "address"
        }
      ],
      "stateMutability": "view",
      "type": "function"
    },
    {
      "inputs": [],
      "name": "unlockDate",
      "outputs": [
        {
          "internalType": "uint256",
          "name": "",
          "type": "uint256"
        }
      ],
      "stateMutability": "view",
      "type": "function"
    },
    {
      "inputs": [],
      "name": "unlockPercentage",
      "outputs": [
        {
          "internalType": "uint256",
          "name": "",
          "type": "uint256"
        }
      ],
      "stateMutability": "view",
      "type": "function"
    },
    {
      "inputs": [],
      "name": "unlockPeriod",
      "outputs": [
        {
          "internalType": "uint256",
          "name": "",
          "type": "uint256"
        }
      ],
      "stateMutability": "view",
      "type": "function"
    },
    {
      "stateMutability": "payable",
      "type": "receive"
    },
    {
      "inputs": [
        {
          "internalType": "address",
          "name": "_tokenContract",
          "type": "address"
        }
      ],
      "name": "withdrawTokens",
      "outputs": [],
      "stateMutability": "nonpayable",
      "type": "function"
    },
    {
      "inputs": [],
      "name": "balance",
      "outputs": [
        {
          "internalType": "uint256",
          "name": "",
          "type": "uint256"
        }
      ],
      "stateMutability": "view",
      "type": "function"
    },
    {
      "inputs": [],
      "name": "claimed",
      "outputs": [
        {
          "internalType": "uint256",
          "name": "",
          "type": "uint256"
        }
      ],
      "stateMutability": "view",
      "type": "function"
    },
    {
      "inputs": [],
      "name": "getUnlockedTokenAmount",
      "outputs": [
        {
          "internalType": "uint256",
          "name": "",
          "type": "uint256"
        }
      ],
      "stateMutability": "view",
      "type": "function"
    }
  ],
  "bytecode": "0x60806040523480156200001157600080fd5b5060405162000e1438038062000e14833981810160405281019062000037919062000166565b856000806101000a81548173ffffffffffffffffffffffffffffffffffffffff021916908373ffffffffffffffffffffffffffffffffffffffff16021790555084600660006101000a81548173ffffffffffffffffffffffffffffffffffffffff021916908373ffffffffffffffffffffffffffffffffffffffff160217905550836001819055504260028190555080600560006101000a81548173ffffffffffffffffffffffffffffffffffffffff021916908373ffffffffffffffffffffffffffffffffffffffff1602179055508260038190555081600481905550505050505050620002a7565b600081519050620001328162000259565b92915050565b600081519050620001498162000273565b92915050565b60008151905062000160816200028d565b92915050565b60008060008060008060c0878903121562000186576200018562000254565b5b60006200019689828a0162000121565b9650506020620001a989828a0162000138565b9550506040620001bc89828a016200014f565b9450506060620001cf89828a016200014f565b9350506080620001e289828a016200014f565b92505060a0620001f589828a0162000121565b9150509295509295509295565b60006200020f826200022a565b9050919050565b6000620002238262000202565b9050919050565b600073ffffffffffffffffffffffffffffffffffffffff82169050919050565b6000819050919050565b600080fd5b620002648162000202565b81146200027057600080fd5b50565b6200027e8162000216565b81146200028a57600080fd5b50565b62000298816200024a565b8114620002a457600080fd5b50565b610b5d80620002b76000396000f3fe6080604052600436106100955760003560e01c806369ac57211161005957806369ac572114610179578063b69ef8a8146101a4578063c66e4095146101cf578063cf09e0d0146101fa578063e834a834146102255761009f565b806302d05d3f146100a457806320d3a0b4146100cf5780633b3fba16146100fa57806349df728c1461012557806363f5de761461014e5761009f565b3661009f57600080fd5b600080fd5b3480156100b057600080fd5b506100b9610250565b6040516100c691906107d8565b60405180910390f35b3480156100db57600080fd5b506100e4610274565b6040516100f19190610845565b60405180910390f35b34801561010657600080fd5b5061010f61027a565b60405161011c9190610845565b60405180910390f35b34801561013157600080fd5b5061014c60048036038101906101479190610724565b610280565b005b34801561015a57600080fd5b506101636103d9565b6040516101709190610845565b60405180910390f35b34801561018557600080fd5b5061018e610570565b60405161019b9190610845565b60405180910390f35b3480156101b057600080fd5b506101b9610576565b6040516101c69190610845565b60405180910390f35b3480156101db57600080fd5b506101e4610672565b6040516101f1919061082a565b60405180910390f35b34801561020657600080fd5b5061020f610698565b60405161021c9190610845565b60405180910390f35b34801561023157600080fd5b5061023a61069e565b6040516102479190610845565b60405180910390f35b60008054906101000a900473ffffffffffffffffffffffffffffffffffffffff1681565b60035481565b60045481565b6000819050600061028f6103d9565b905080600760003373ffffffffffffffffffffffffffffffffffffffff1673ffffffffffffffffffffffffffffffffffffffff16815260200190815260200160002060008282546102e09190610860565b925050819055508173ffffffffffffffffffffffffffffffffffffffff166323b872dd600560009054906101000a900473ffffffffffffffffffffffffffffffffffffffff1633846040518463ffffffff1660e01b8152600401610346939291906107f3565b602060405180830381600087803b15801561036057600080fd5b505af1158015610374573d6000803e3d6000fd5b505050506040513d601f19601f820116820180604052508101906103989190610751565b507fa04c965e7d289704527a948915777d68bb4530fb4b08aa935fb958c0b7901ab98333836040516103cc939291906107f3565b60405180910390a1505050565b600080600660009054906101000a900473ffffffffffffffffffffffffffffffffffffffff1673ffffffffffffffffffffffffffffffffffffffff166397b150ca336040518263ffffffff1660e01b815260040161043791906107d8565b60206040518083038186803b15801561044f57600080fd5b505afa158015610463573d6000803e3d6000fd5b505050506040513d601f19601f82011682018060405250810190610487919061077e565b90506000600760003373ffffffffffffffffffffffffffffffffffffffff1673ffffffffffffffffffffffffffffffffffffffff1681526020019081526020016000205490506000600154426104dd9190610941565b905060008112156104f4576000935050505061056d565b600060016003548361050691906108b6565b6105109190610860565b9050600060646004548361052491906108e7565b101561053d576004548261053891906108e7565b610540565b60645b9050836064868361055191906108e7565b61055b91906108b6565b61056591906109d5565b955050505050505b90565b60015481565b6000600760003373ffffffffffffffffffffffffffffffffffffffff1673ffffffffffffffffffffffffffffffffffffffff16815260200190815260200160002054600660009054906101000a900473ffffffffffffffffffffffffffffffffffffffff1673ffffffffffffffffffffffffffffffffffffffff166397b150ca336040518263ffffffff1660e01b815260040161061391906107d8565b60206040518083038186803b15801561062b57600080fd5b505afa15801561063f573d6000803e3d6000fd5b505050506040513d601f19601f82011682018060405250810190610663919061077e565b61066d91906109d5565b905090565b600660009054906101000a900473ffffffffffffffffffffffffffffffffffffffff1681565b60025481565b6000600760003373ffffffffffffffffffffffffffffffffffffffff1673ffffffffffffffffffffffffffffffffffffffff16815260200190815260200160002054905090565b6000813590506106f481610ae2565b92915050565b60008151905061070981610af9565b92915050565b60008151905061071e81610b10565b92915050565b60006020828403121561073a57610739610add565b5b6000610748848285016106e5565b91505092915050565b60006020828403121561076757610766610add565b5b6000610775848285016106fa565b91505092915050565b60006020828403121561079457610793610add565b5b60006107a28482850161070f565b91505092915050565b6107b481610a09565b82525050565b6107c381610a5b565b82525050565b6107d281610a51565b82525050565b60006020820190506107ed60008301846107ab565b92915050565b600060608201905061080860008301866107ab565b61081560208301856107ab565b61082260408301846107c9565b949350505050565b600060208201905061083f60008301846107ba565b92915050565b600060208201905061085a60008301846107c9565b92915050565b600061086b82610a51565b915061087683610a51565b9250827fffffffffffffffffffffffffffffffffffffffffffffffffffffffffffffffff038211156108ab576108aa610a7f565b5b828201905092915050565b60006108c182610a51565b91506108cc83610a51565b9250826108dc576108db610aae565b5b828204905092915050565b60006108f282610a51565b91506108fd83610a51565b9250817fffffffffffffffffffffffffffffffffffffffffffffffffffffffffffffffff048311821515161561093657610935610a7f565b5b828202905092915050565b600061094c82610a27565b915061095783610a27565b9250827f80000000000000000000000000000000000000000000000000000000000000000182126000841215161561099257610991610a7f565b5b827f7fffffffffffffffffffffffffffffffffffffffffffffffffffffffffffffff0182136000841216156109ca576109c9610a7f565b5b828203905092915050565b60006109e082610a51565b91506109eb83610a51565b9250828210156109fe576109fd610a7f565b5b828203905092915050565b6000610a1482610a31565b9050919050565b60008115159050919050565b6000819050919050565b600073ffffffffffffffffffffffffffffffffffffffff82169050919050565b6000819050919050565b6000610a6682610a6d565b9050919050565b6000610a7882610a31565b9050919050565b7f4e487b7100000000000000000000000000000000000000000000000000000000600052601160045260246000fd5b7f4e487b7100000000000000000000000000000000000000000000000000000000600052601260045260246000fd5b600080fd5b610aeb81610a09565b8114610af657600080fd5b50565b610b0281610a1b565b8114610b0d57600080fd5b50565b610b1981610a51565b8114610b2457600080fd5b5056fea2646970667358221220a7d782f2ca7d738951bb48f6e6c410c4cc753dae622f179664c6a6e79d34d10f64736f6c63430008060033",
  "immutableReferences": {},
  "source": "// SPDX-License-Identifier: UNLICENSED\npragma solidity ^0.8.6;\n\nimport \"@openzeppelin/contracts/access/Ownable.sol\";\n\nimport \"./CollectCoin.sol\";\nimport \"./ICollectCoinIco.sol\";\n\ncontract PeriodicTimeLockedMonoWallet\n{\n    address public creator;\n    uint256 public unlockDate;\n    uint256 public createdAt;\n\n    uint256 public unlockPeriod;\n    uint public unlockPercentage;\n    address tokenOwner;\n\n    ICollectCoinIco public icoContract;\n\n    mapping (address => uint256) private claimedAmountOf;\n\n    event WithdrewTokens(address tokenContract, address to, uint256 amount);\n\n    constructor(address _creator, ICollectCoinIco _icoContract, uint256 _unlockDate, uint256 _unlockPeriod, uint _unlockPercentage, address _tokenOwner)\n    {\n        creator = _creator;\n        icoContract = _icoContract;\n\n        unlockDate = _unlockDate;\n        createdAt = block.timestamp;\n        tokenOwner = _tokenOwner;\n\n        // unlockedAmount = 0;\n        unlockPeriod = _unlockPeriod;\n        unlockPercentage = _unlockPercentage;\n    }\n\n    receive() external payable\n    {\n        // we do not accept any native coin on this wallet\n        revert();\n    }\n\n    // callable by owner only, after specified time, only for Tokens implementing ERC20\n    function withdrawTokens(address _tokenContract) public \n    {\n       //require(block.timestamp >= unlockDate);\n\n       CollectCoin token = CollectCoin(_tokenContract);\n\n       //now send all the token balance\n       uint256 unlockedTokenAmount = getUnlockedTokenAmount();\n       \n       claimedAmountOf[msg.sender] += unlockedTokenAmount;\n\n       token.transferFrom(tokenOwner, msg.sender, unlockedTokenAmount);\n       emit WithdrewTokens(_tokenContract, msg.sender, unlockedTokenAmount);\n    }\n\n    function balance() public view returns (uint256) {\n        return icoContract.tokenAmountOf(msg.sender) - claimedAmountOf[msg.sender];\n    }\n\n    function claimed() public view returns (uint256) {\n        return claimedAmountOf[msg.sender];\n    }\n\n    function getUnlockedTokenAmount() public view returns (uint256)\n    {\n        uint256 totaltokenAmount = icoContract.tokenAmountOf(msg.sender);\n\n        // the amount of tokens already unlocked and transferred\n        uint256 claimedAmount = claimedAmountOf[msg.sender];\n\n        int256 timeDiff = int256(block.timestamp) - int256(unlockDate);\n\n        if(timeDiff < 0) \n        {\n            // still locked\n            return 0;\n        }\n\n        uint unlockedUnits = (uint256(timeDiff) / unlockPeriod) + 1;\n\n        uint multiplier = unlockedUnits * unlockPercentage >= 100 ? 100 : unlockedUnits * unlockPercentage;\n\n        return (multiplier * totaltokenAmount) / 100 - claimedAmount;\n    }\n}",
  "sourcePath": "/home/eule/Projects/ico-contracts/ethereum/ico/contracts/PeriodicTimeLockedMonoWallet.sol",
  "compiler": {
    "name": "solc",
    "version": "0.8.6+commit.11564f7e.Emscripten.clang"
  },
  "schemaVersion": "3.4.1",
  "updatedAt": "2021-10-13T09:59:56.874Z",
  "devdoc": {
    "kind": "dev",
    "methods": {},
    "version": 1
  },
  "userdoc": {
    "kind": "user",
    "methods": {},
    "version": 1
  }
}