{
  "contractName": "PeriodicTimeLockedWallet",
  "abi": [
    {
      "inputs": [
        {
          "internalType": "address",
          "name": "_owner",
          "type": "address"
        },
        {
          "internalType": "uint256",
          "name": "_lockDate",
          "type": "uint256"
        },
        {
          "internalType": "uint256",
          "name": "_unlockPeriod",
          "type": "uint256"
        },
        {
          "internalType": "uint256",
          "name": "_unlockPercentage",
          "type": "uint256"
        }
      ],
      "stateMutability": "nonpayable",
      "type": "constructor"
    },
    {
      "anonymous": false,
      "inputs": [
        {
          "indexed": false,
          "internalType": "address",
          "name": "tokenContract",
          "type": "address"
        },
        {
          "indexed": false,
          "internalType": "address",
          "name": "to",
          "type": "address"
        },
        {
          "indexed": false,
          "internalType": "uint256",
          "name": "amount",
          "type": "uint256"
        }
      ],
      "name": "WithdrewTokens",
      "type": "event"
    },
    {
      "inputs": [],
      "name": "createdAt",
      "outputs": [
        {
          "internalType": "uint256",
          "name": "",
          "type": "uint256"
        }
      ],
      "stateMutability": "view",
      "type": "function"
    },
    {
      "inputs": [],
      "name": "lockDate",
      "outputs": [
        {
          "internalType": "uint256",
          "name": "",
          "type": "uint256"
        }
      ],
      "stateMutability": "view",
      "type": "function"
    },
    {
      "inputs": [],
      "name": "owner",
      "outputs": [
        {
          "internalType": "address",
          "name": "",
          "type": "address"
        }
      ],
      "stateMutability": "view",
      "type": "function"
    },
    {
      "inputs": [],
      "name": "unlockPercentage",
      "outputs": [
        {
          "internalType": "uint256",
          "name": "",
          "type": "uint256"
        }
      ],
      "stateMutability": "view",
      "type": "function"
    },
    {
      "inputs": [],
      "name": "unlockPeriod",
      "outputs": [
        {
          "internalType": "uint256",
          "name": "",
          "type": "uint256"
        }
      ],
      "stateMutability": "view",
      "type": "function"
    },
    {
      "stateMutability": "payable",
      "type": "receive"
    },
    {
      "inputs": [
        {
          "internalType": "address",
          "name": "_tokenContract",
          "type": "address"
        },
        {
          "internalType": "uint256",
          "name": "_amount",
          "type": "uint256"
        }
      ],
      "name": "withdrawTokens",
      "outputs": [],
      "stateMutability": "nonpayable",
      "type": "function"
    },
    {
      "inputs": [
        {
          "internalType": "address",
          "name": "tokenAddress",
          "type": "address"
        }
      ],
      "name": "balance",
      "outputs": [
        {
          "internalType": "uint256",
          "name": "",
          "type": "uint256"
        }
      ],
      "stateMutability": "view",
      "type": "function"
    },
    {
      "inputs": [
        {
          "internalType": "address",
          "name": "tokenAddress",
          "type": "address"
        }
      ],
      "name": "claimed",
      "outputs": [
        {
          "internalType": "uint256",
          "name": "",
          "type": "uint256"
        }
      ],
      "stateMutability": "view",
      "type": "function"
    },
    {
      "inputs": [
        {
          "internalType": "address",
          "name": "tokenAddress",
          "type": "address"
        }
      ],
      "name": "getUnlockedTokenAmount",
      "outputs": [
        {
          "internalType": "uint256",
          "name": "",
          "type": "uint256"
        }
      ],
      "stateMutability": "view",
      "type": "function"
    }
  ],
  "bytecode": "0x60806040523480156200001157600080fd5b5060405162000da138038062000da18339818101604052810190620000379190620000cb565b836000806101000a81548173ffffffffffffffffffffffffffffffffffffffff021916908373ffffffffffffffffffffffffffffffffffffffff1602179055508260018190555042600281905550816003819055508060048190555050505050620001b4565b600081519050620000ae8162000180565b92915050565b600081519050620000c5816200019a565b92915050565b60008060008060808587031215620000e857620000e76200017b565b5b6000620000f8878288016200009d565b94505060206200010b87828801620000b4565b93505060406200011e87828801620000b4565b92505060606200013187828801620000b4565b91505092959194509250565b60006200014a8262000151565b9050919050565b600073ffffffffffffffffffffffffffffffffffffffff82169050919050565b6000819050919050565b600080fd5b6200018b816200013d565b81146200019757600080fd5b50565b620001a58162000171565b8114620001b157600080fd5b50565b610bdd80620001c46000396000f3fe60806040526004361061008a5760003560e01c80638da5cb5b116100595780638da5cb5b14610143578063bd7001ff1461016e578063c884ef83146101ab578063cf09e0d0146101e8578063e3d670d71461021357610094565b806306b091f91461009957806320d3a0b4146100c25780633b3fba16146100ed578063649ae9c61461011857610094565b3661009457600080fd5b600080fd5b3480156100a557600080fd5b506100c060048036038101906100bb91906107b1565b610250565b005b3480156100ce57600080fd5b506100d7610462565b6040516100e49190610927565b60405180910390f35b3480156100f957600080fd5b50610102610468565b60405161010f9190610927565b60405180910390f35b34801561012457600080fd5b5061012d61046e565b60405161013a9190610927565b60405180910390f35b34801561014f57600080fd5b50610158610474565b604051610165919061088c565b60405180910390f35b34801561017a57600080fd5b5061019560048036038101906101909190610784565b610498565b6040516101a29190610927565b60405180910390f35b3480156101b757600080fd5b506101d260048036038101906101cd9190610784565b61062a565b6040516101df9190610927565b60405180910390f35b3480156101f457600080fd5b506101fd610673565b60405161020a9190610927565b60405180910390f35b34801561021f57600080fd5b5061023a60048036038101906102359190610784565b610679565b6040516102479190610927565b60405180910390f35b60008054906101000a900473ffffffffffffffffffffffffffffffffffffffff1673ffffffffffffffffffffffffffffffffffffffff163373ffffffffffffffffffffffffffffffffffffffff16146102a857600080fd5b60006102b383610498565b9050808211156102f8576040517f08c379a00000000000000000000000000000000000000000000000000000000081526004016102ef90610907565b60405180910390fd5b81600660008573ffffffffffffffffffffffffffffffffffffffff1673ffffffffffffffffffffffffffffffffffffffff16815260200190815260200160002060008282546103479190610953565b9250508190555060008390508073ffffffffffffffffffffffffffffffffffffffff1663a9059cbb60008054906101000a900473ffffffffffffffffffffffffffffffffffffffff16856040518363ffffffff1660e01b81526004016103ae9291906108de565b602060405180830381600087803b1580156103c857600080fd5b505af11580156103dc573d6000803e3d6000fd5b505050506040513d601f19601f8201168201806040525081019061040091906107f1565b507fa04c965e7d289704527a948915777d68bb4530fb4b08aa935fb958c0b7901ab98460008054906101000a900473ffffffffffffffffffffffffffffffffffffffff1684604051610454939291906108a7565b60405180910390a150505050565b60035481565b60045481565b60015481565b60008054906101000a900473ffffffffffffffffffffffffffffffffffffffff1681565b600080600660008473ffffffffffffffffffffffffffffffffffffffff1673ffffffffffffffffffffffffffffffffffffffff16815260200190815260200160002054905060008390506000828273ffffffffffffffffffffffffffffffffffffffff166370a0823160008054906101000a900473ffffffffffffffffffffffffffffffffffffffff166040518263ffffffff1660e01b815260040161053e919061088c565b60206040518083038186803b15801561055657600080fd5b505afa15801561056a573d6000803e3d6000fd5b505050506040513d601f19601f8201168201806040525081019061058e919061081e565b6105989190610953565b90506000600154426105aa9190610a34565b905060006001600354836105be91906109a9565b6105c89190610953565b905060006064600454836105dc91906109da565b10156105f557600454826105f091906109da565b6105f8565b60645b9050856064858361060991906109da565b61061391906109a9565b61061d9190610a34565b9650505050505050919050565b6000600660008373ffffffffffffffffffffffffffffffffffffffff1673ffffffffffffffffffffffffffffffffffffffff168152602001908152602001600020549050919050565b60025481565b6000808290508073ffffffffffffffffffffffffffffffffffffffff166370a0823160008054906101000a900473ffffffffffffffffffffffffffffffffffffffff166040518263ffffffff1660e01b81526004016106d8919061088c565b60206040518083038186803b1580156106f057600080fd5b505afa158015610704573d6000803e3d6000fd5b505050506040513d601f19601f82011682018060405250810190610728919061081e565b915050919050565b60008135905061073f81610b62565b92915050565b60008151905061075481610b79565b92915050565b60008135905061076981610b90565b92915050565b60008151905061077e81610b90565b92915050565b60006020828403121561079a57610799610b0e565b5b60006107a884828501610730565b91505092915050565b600080604083850312156107c8576107c7610b0e565b5b60006107d685828601610730565b92505060206107e78582860161075a565b9150509250929050565b60006020828403121561080757610806610b0e565b5b600061081584828501610745565b91505092915050565b60006020828403121561083457610833610b0e565b5b60006108428482850161076f565b91505092915050565b61085481610a68565b82525050565b6000610867602583610942565b915061087282610b13565b604082019050919050565b61088681610aa6565b82525050565b60006020820190506108a1600083018461084b565b92915050565b60006060820190506108bc600083018661084b565b6108c9602083018561084b565b6108d6604083018461087d565b949350505050565b60006040820190506108f3600083018561084b565b610900602083018461087d565b9392505050565b600060208201905081810360008301526109208161085a565b9050919050565b600060208201905061093c600083018461087d565b92915050565b600082825260208201905092915050565b600061095e82610aa6565b915061096983610aa6565b9250827fffffffffffffffffffffffffffffffffffffffffffffffffffffffffffffffff0382111561099e5761099d610ab0565b5b828201905092915050565b60006109b482610aa6565b91506109bf83610aa6565b9250826109cf576109ce610adf565b5b828204905092915050565b60006109e582610aa6565b91506109f083610aa6565b9250817fffffffffffffffffffffffffffffffffffffffffffffffffffffffffffffffff0483118215151615610a2957610a28610ab0565b5b828202905092915050565b6000610a3f82610aa6565b9150610a4a83610aa6565b925082821015610a5d57610a5c610ab0565b5b828203905092915050565b6000610a7382610a86565b9050919050565b60008115159050919050565b600073ffffffffffffffffffffffffffffffffffffffff82169050919050565b6000819050919050565b7f4e487b7100000000000000000000000000000000000000000000000000000000600052601160045260246000fd5b7f4e487b7100000000000000000000000000000000000000000000000000000000600052601260045260246000fd5b600080fd5b7f4e6f7420656e6f7567687420756e6c6f636b656420746f6b656e73206176616960008201527f6c61626c65000000000000000000000000000000000000000000000000000000602082015250565b610b6b81610a68565b8114610b7657600080fd5b50565b610b8281610a7a565b8114610b8d57600080fd5b50565b610b9981610aa6565b8114610ba457600080fd5b5056fea2646970667358221220a888c52c66e989a7dd6cd399463a5dcd9787f78d7357f9cf4bda2f3af18437e864736f6c63430008060033",
  "immutableReferences": {},
  "source": "// SPDX-License-Identifier: UNLICENSED\npragma solidity ^0.8.6;\n\nimport \"@openzeppelin/contracts/access/Ownable.sol\";\nimport \"@openzeppelin/contracts/token/ERC20/ERC20.sol\";\n\ncontract PeriodicTimeLockedWallet\n{\n    address public owner;\n    uint256 public lockDate;\n    uint256 public createdAt;\n\n    uint256 public unlockPeriod;\n    uint public unlockPercentage;\n    address tokenOwner;\n\n    modifier onlyOwner {\n        require(msg.sender == owner);\n        _;\n    }\n\n    mapping (address => uint256) private claimedAmountOf;\n\n    event WithdrewTokens(address tokenContract, address to, uint256 amount);\n\n    constructor(address _owner, uint256 _lockDate, uint256 _unlockPeriod, uint _unlockPercentage)\n    {\n        owner = _owner;\n\n        lockDate = _lockDate;\n        createdAt = block.timestamp;\n\n        // unlockedAmount = 0;\n        unlockPeriod = _unlockPeriod;\n        unlockPercentage = _unlockPercentage;\n    }\n\n    receive() external payable\n    {\n        // we do not accept any native coin on this wallet\n        revert();\n    }\n\n    // callable by owner only, after specified time, only for Tokens implementing ERC20\n    function withdrawTokens(address _tokenContract, uint256 _amount) public onlyOwner\n    {\n        uint256 unlockedTokenAmount = getUnlockedTokenAmount(_tokenContract);\n        require(_amount <= unlockedTokenAmount, \"Not enought unlocked tokens available\");\n\n        claimedAmountOf[_tokenContract] += _amount;\n\n        ERC20 token = ERC20(_tokenContract);\n        token.transfer(owner, _amount);\n        emit WithdrewTokens(_tokenContract, owner, unlockedTokenAmount);\n    }\n\n    function balance(address tokenAddress) public view returns (uint256) {\n        ERC20 token = ERC20(tokenAddress);\n        return token.balanceOf(owner);\n    }\n\n    function claimed(address tokenAddress) public view returns (uint256) {\n        return claimedAmountOf[tokenAddress];\n    }\n\n    function getUnlockedTokenAmount(address tokenAddress) public view returns (uint256)\n    {\n        // the amount of tokens already unlocked and transferred\n        uint256 claimedAmount = claimedAmountOf[tokenAddress];\n\n        ERC20 token = ERC20(tokenAddress);\n        uint256 totaltokenAmount = token.balanceOf(owner) + claimedAmount;\n\n        uint256 timeDiff = block.timestamp - lockDate;\n\n        uint unlockedUnits = (timeDiff / unlockPeriod) + 1;\n        uint multiplier = unlockedUnits * unlockPercentage >= 100 ? 100 : unlockedUnits * unlockPercentage;\n\n        return (multiplier * totaltokenAmount) / 100 - claimedAmount;\n    }\n}",
  "sourcePath": "/home/eule/Projects/ico-contracts/ethereum/ico/contracts/PeriodicTimeLockedWallet.sol",
  "compiler": {
    "name": "solc",
    "version": "0.8.6+commit.11564f7e.Emscripten.clang"
  },
  "schemaVersion": "3.4.1",
  "updatedAt": "2021-10-11T21:57:49.784Z",
  "devdoc": {
    "kind": "dev",
    "methods": {},
    "version": 1
  },
  "userdoc": {
    "kind": "user",
    "methods": {},
    "version": 1
  }
}