{
  "contractName": "PreSale",
  "abi": [
    {
      "inputs": [
        {
          "internalType": "address",
          "name": "_token",
          "type": "address"
        },
        {
          "internalType": "uint256",
          "name": "_investorTokenCap",
          "type": "uint256"
        },
        {
          "internalType": "contract IPricingStrategy",
          "name": "_pricingStrategy",
          "type": "address"
        },
        {
          "internalType": "address payable",
          "name": "_multisigWallet",
          "type": "address"
        },
        {
          "internalType": "uint256",
          "name": "_maximumSellableTokens",
          "type": "uint256"
        },
        {
          "internalType": "uint256",
          "name": "_lockPeriod",
          "type": "uint256"
        }
      ],
      "stateMutability": "nonpayable",
      "type": "constructor"
    },
    {
      "anonymous": false,
      "inputs": [
        {
          "indexed": false,
          "internalType": "address",
          "name": "investor",
          "type": "address"
        },
        {
          "indexed": false,
          "internalType": "uint256",
          "name": "weiAmount",
          "type": "uint256"
        },
        {
          "indexed": false,
          "internalType": "uint256",
          "name": "tokenAmount",
          "type": "uint256"
        },
        {
          "indexed": false,
          "internalType": "uint128",
          "name": "customerId",
          "type": "uint128"
        }
      ],
      "name": "Invested",
      "type": "event"
    },
    {
      "anonymous": false,
      "inputs": [
        {
          "indexed": true,
          "internalType": "address",
          "name": "previousOwner",
          "type": "address"
        },
        {
          "indexed": true,
          "internalType": "address",
          "name": "newOwner",
          "type": "address"
        }
      ],
      "name": "OwnershipTransferred",
      "type": "event"
    },
    {
      "anonymous": false,
      "inputs": [
        {
          "indexed": false,
          "internalType": "address",
          "name": "addr",
          "type": "address"
        },
        {
          "indexed": false,
          "internalType": "bool",
          "name": "status",
          "type": "bool"
        }
      ],
      "name": "Whitelisted",
      "type": "event"
    },
    {
      "stateMutability": "payable",
      "type": "fallback"
    },
    {
      "inputs": [
        {
          "internalType": "address",
          "name": "",
          "type": "address"
        }
      ],
      "name": "earlyParticipantWhitelist",
      "outputs": [
        {
          "internalType": "bool",
          "name": "",
          "type": "bool"
        }
      ],
      "stateMutability": "view",
      "type": "function"
    },
    {
      "inputs": [],
      "name": "finalized",
      "outputs": [
        {
          "internalType": "bool",
          "name": "",
          "type": "bool"
        }
      ],
      "stateMutability": "view",
      "type": "function"
    },
    {
      "inputs": [],
      "name": "halt",
      "outputs": [],
      "stateMutability": "nonpayable",
      "type": "function"
    },
    {
      "inputs": [],
      "name": "halted",
      "outputs": [
        {
          "internalType": "bool",
          "name": "",
          "type": "bool"
        }
      ],
      "stateMutability": "view",
      "type": "function"
    },
    {
      "inputs": [
        {
          "internalType": "address",
          "name": "",
          "type": "address"
        }
      ],
      "name": "investedAmountOf",
      "outputs": [
        {
          "internalType": "uint256",
          "name": "",
          "type": "uint256"
        }
      ],
      "stateMutability": "view",
      "type": "function"
    },
    {
      "inputs": [],
      "name": "investorCount",
      "outputs": [
        {
          "internalType": "uint256",
          "name": "",
          "type": "uint256"
        }
      ],
      "stateMutability": "view",
      "type": "function"
    },
    {
      "inputs": [
        {
          "internalType": "uint256",
          "name": "",
          "type": "uint256"
        }
      ],
      "name": "investors",
      "outputs": [
        {
          "internalType": "address",
          "name": "",
          "type": "address"
        }
      ],
      "stateMutability": "view",
      "type": "function"
    },
    {
      "inputs": [],
      "name": "maximumSellableTokens",
      "outputs": [
        {
          "internalType": "uint256",
          "name": "",
          "type": "uint256"
        }
      ],
      "stateMutability": "view",
      "type": "function"
    },
    {
      "inputs": [],
      "name": "multisigWallet",
      "outputs": [
        {
          "internalType": "address payable",
          "name": "",
          "type": "address"
        }
      ],
      "stateMutability": "view",
      "type": "function"
    },
    {
      "inputs": [],
      "name": "owner",
      "outputs": [
        {
          "internalType": "address",
          "name": "",
          "type": "address"
        }
      ],
      "stateMutability": "view",
      "type": "function"
    },
    {
      "inputs": [],
      "name": "pricingStrategy",
      "outputs": [
        {
          "internalType": "contract IPricingStrategy",
          "name": "",
          "type": "address"
        }
      ],
      "stateMutability": "view",
      "type": "function"
    },
    {
      "inputs": [],
      "name": "renounceOwnership",
      "outputs": [],
      "stateMutability": "nonpayable",
      "type": "function"
    },
    {
      "inputs": [],
      "name": "token",
      "outputs": [
        {
          "internalType": "contract CollectCoin",
          "name": "",
          "type": "address"
        }
      ],
      "stateMutability": "view",
      "type": "function"
    },
    {
      "inputs": [
        {
          "internalType": "address",
          "name": "",
          "type": "address"
        }
      ],
      "name": "tokenAmountOf",
      "outputs": [
        {
          "internalType": "uint256",
          "name": "",
          "type": "uint256"
        }
      ],
      "stateMutability": "view",
      "type": "function"
    },
    {
      "inputs": [],
      "name": "tokenInvestorCap",
      "outputs": [
        {
          "internalType": "uint256",
          "name": "",
          "type": "uint256"
        }
      ],
      "stateMutability": "view",
      "type": "function"
    },
    {
      "inputs": [],
      "name": "tokensSold",
      "outputs": [
        {
          "internalType": "uint256",
          "name": "",
          "type": "uint256"
        }
      ],
      "stateMutability": "view",
      "type": "function"
    },
    {
      "inputs": [
        {
          "internalType": "address",
          "name": "newOwner",
          "type": "address"
        }
      ],
      "name": "transferOwnership",
      "outputs": [],
      "stateMutability": "nonpayable",
      "type": "function"
    },
    {
      "inputs": [],
      "name": "unhalt",
      "outputs": [],
      "stateMutability": "nonpayable",
      "type": "function"
    },
    {
      "inputs": [
        {
          "internalType": "address",
          "name": "",
          "type": "address"
        }
      ],
      "name": "walletOf",
      "outputs": [
        {
          "internalType": "address",
          "name": "",
          "type": "address"
        }
      ],
      "stateMutability": "view",
      "type": "function"
    },
    {
      "inputs": [],
      "name": "weiRaised",
      "outputs": [
        {
          "internalType": "uint256",
          "name": "",
          "type": "uint256"
        }
      ],
      "stateMutability": "view",
      "type": "function"
    },
    {
      "stateMutability": "payable",
      "type": "receive"
    },
    {
      "inputs": [
        {
          "internalType": "address",
          "name": "addr",
          "type": "address"
        },
        {
          "internalType": "bool",
          "name": "status",
          "type": "bool"
        }
      ],
      "name": "setEarlyParicipantWhitelist",
      "outputs": [],
      "stateMutability": "nonpayable",
      "type": "function"
    },
    {
      "inputs": [
        {
          "internalType": "bool",
          "name": "value",
          "type": "bool"
        }
      ],
      "name": "setUseTimeLockedWallets",
      "outputs": [],
      "stateMutability": "nonpayable",
      "type": "function"
    },
    {
      "inputs": [],
      "name": "availableInvestment",
      "outputs": [
        {
          "internalType": "uint256",
          "name": "",
          "type": "uint256"
        }
      ],
      "stateMutability": "view",
      "type": "function"
    },
    {
      "inputs": [],
      "name": "reset",
      "outputs": [],
      "stateMutability": "nonpayable",
      "type": "function"
    },
    {
      "inputs": [],
      "name": "finalize",
      "outputs": [],
      "stateMutability": "nonpayable",
      "type": "function"
    },
    {
      "inputs": [
        {
          "internalType": "uint256",
          "name": "tokenAmount",
          "type": "uint256"
        },
        {
          "internalType": "uint256",
          "name": "tokensSoldTotal",
          "type": "uint256"
        }
      ],
      "name": "isBreakingCap",
      "outputs": [
        {
          "internalType": "bool",
          "name": "limitBroken",
          "type": "bool"
        }
      ],
      "stateMutability": "view",
      "type": "function"
    },
    {
      "inputs": [],
      "name": "getState",
      "outputs": [
        {
          "internalType": "enum PreSale.State",
          "name": "",
          "type": "uint8"
        }
      ],
      "stateMutability": "view",
      "type": "function"
    },
    {
      "inputs": [],
      "name": "getAllInvestors",
      "outputs": [
        {
          "internalType": "address[]",
          "name": "",
          "type": "address[]"
        }
      ],
      "stateMutability": "view",
      "type": "function"
    },
    {
      "inputs": [],
      "name": "getTokenPrice",
      "outputs": [
        {
          "internalType": "uint256",
          "name": "unitPrice",
          "type": "uint256"
        },
        {
          "internalType": "uint256",
          "name": "feedPrice",
          "type": "uint256"
        }
      ],
      "stateMutability": "view",
      "type": "function"
    },
    {
      "inputs": [
        {
          "internalType": "address",
          "name": "_beneficiary",
          "type": "address"
        }
      ],
      "name": "buyTokens",
      "outputs": [],
      "stateMutability": "payable",
      "type": "function"
    }
  ],
  "bytecode": "0x6080604052600060065560006009556000600a553480156200002057600080fd5b50604051620036cd380380620036cd83398181016040528101906200004691906200045d565b600062000058620003e260201b60201c565b9050806000806101000a81548173ffffffffffffffffffffffffffffffffffffffff021916908373ffffffffffffffffffffffffffffffffffffffff1602179055508073ffffffffffffffffffffffffffffffffffffffff16600073ffffffffffffffffffffffffffffffffffffffff167f8be0079c531659141344cd1fd0a4f28419497f9722a3daafe3b4186f6b6457e060405160405180910390a35085600160006101000a81548173ffffffffffffffffffffffffffffffffffffffff021916908373ffffffffffffffffffffffffffffffffffffffff16021790555083600260006101000a81548173ffffffffffffffffffffffffffffffffffffffff021916908373ffffffffffffffffffffffffffffffffffffffff16021790555060008111600860006101000a81548160ff021916908315150217905550600160009054906101000a900473ffffffffffffffffffffffffffffffffffffffff1673ffffffffffffffffffffffffffffffffffffffff1663313ce5676040518163ffffffff1660e01b815260040160206040518083038186803b158015620001fe57600080fd5b505afa15801562000213573d6000803e3d6000fd5b505050506040513d601f19601f82011682018060405250810190620002399190620004f3565b600a6200024791906200057a565b82620002549190620006b7565b600481905550600160009054906101000a900473ffffffffffffffffffffffffffffffffffffffff1673ffffffffffffffffffffffffffffffffffffffff1663313ce5676040518163ffffffff1660e01b815260040160206040518083038186803b158015620002c357600080fd5b505afa158015620002d8573d6000803e3d6000fd5b505050506040513d601f19601f82011682018060405250810190620002fe9190620004f3565b600a6200030c91906200057a565b85620003199190620006b7565b60058190555082600360006101000a81548173ffffffffffffffffffffffffffffffffffffffff021916908373ffffffffffffffffffffffffffffffffffffffff160217905550600860009054906101000a900460ff168015620003cb5750600073ffffffffffffffffffffffffffffffffffffffff16600360009054906101000a900473ffffffffffffffffffffffffffffffffffffffff1673ffffffffffffffffffffffffffffffffffffffff16145b15620003d657600080fd5b50505050505062000849565b600033905090565b600081519050620003fb81620007c7565b92915050565b6000815190506200041281620007e1565b92915050565b6000815190506200042981620007fb565b92915050565b600081519050620004408162000815565b92915050565b60008151905062000457816200082f565b92915050565b60008060008060008060c087890312156200047757600080fd5b60006200048789828a01620003ea565b96505060206200049a89828a016200042f565b9550506040620004ad89828a0162000418565b9450506060620004c089828a0162000401565b9350506080620004d389828a016200042f565b92505060a0620004e689828a016200042f565b9150509295509295509295565b6000602082840312156200050657600080fd5b6000620005168482850162000446565b91505092915050565b6000808291508390505b600185111562000571578086048111156200054957620005486200078b565b5b6001851615620005595780820291505b80810290506200056985620007ba565b945062000529565b94509492505050565b6000620005878262000774565b915062000594836200077e565b9250620005c37fffffffffffffffffffffffffffffffffffffffffffffffffffffffffffffffff8484620005cb565b905092915050565b600082620005dd5760019050620006b0565b81620005ed5760009050620006b0565b8160018114620006065760028114620006115762000647565b6001915050620006b0565b60ff8411156200062657620006256200078b565b5b8360020a91508482111562000640576200063f6200078b565b5b50620006b0565b5060208310610133831016604e8410600b8410161715620006815782820a9050838111156200067b576200067a6200078b565b5b620006b0565b6200069084848460016200051f565b92509050818404811115620006aa57620006a96200078b565b5b81810290505b9392505050565b6000620006c48262000774565b9150620006d18362000774565b9250817fffffffffffffffffffffffffffffffffffffffffffffffffffffffffffffffff04831182151516156200070d576200070c6200078b565b5b828202905092915050565b6000620007258262000754565b9050919050565b6000620007398262000754565b9050919050565b60006200074d8262000718565b9050919050565b600073ffffffffffffffffffffffffffffffffffffffff82169050919050565b6000819050919050565b600060ff82169050919050565b7f4e487b7100000000000000000000000000000000000000000000000000000000600052601160045260246000fd5b60008160011c9050919050565b620007d28162000718565b8114620007de57600080fd5b50565b620007ec816200072c565b8114620007f857600080fd5b50565b620008068162000740565b81146200081257600080fd5b50565b620008208162000774565b81146200082c57600080fd5b50565b6200083a816200077e565b81146200084657600080fd5b50565b612e7480620008596000396000f3fe608060405260043610620001ff5760003560e01c806397b150ca116200010f578063d0a2f2c411620000a3578063eac24932116200006d578063eac249321462000700578063ec8ac4d8146200072e578063f2fde38b146200074e578063fc0c546a146200077c5762000212565b8063d0a2f2c41462000656578063d0f6e53e1462000686578063d7e64c0014620006b6578063d826f88f14620006e65762000212565b8063b9b8af0b11620000e5578063b9b8af0b1462000598578063c361f7d014620005c8578063cb16e6d014620005f8578063cb3e64fd146200063c5762000212565b806397b150ca14620004f6578063b2a94466146200053a578063b3f05b9714620005685762000212565b80634bb278f31162000193578063715018a6116200015d578063715018a6146200044c57806378b99c2414620004665780638da5cb5b14620004965780639075becf14620004c65762000212565b80634bb278f314620003a4578063518ab2a814620003be5780635ed7ca5b14620003ee5780636f3355af14620004085762000212565b80633ad075ea11620001d55780633ad075ea14620002cf5780633feb5f2b14620002ff5780634042b66f14620003435780634b94f50e14620003735762000212565b80631865c57d14620002175780631982640c14620002475780631aae3460146200028b5762000212565b3662000212576200021033620007ac565b005b600080fd5b3480156200022457600080fd5b506200022f620007e1565b6040516200023e9190620021f7565b60405180910390f35b3480156200025457600080fd5b506200027360048036038101906200026d919062001cbb565b6200080b565b6040516200028291906200205e565b60405180910390f35b3480156200029857600080fd5b50620002b76004803603810190620002b1919062001cbb565b6200083e565b604051620002c6919062002258565b60405180910390f35b348015620002dc57600080fd5b50620002e762000856565b604051620002f6919062002258565b60405180910390f35b3480156200030c57600080fd5b506200032b600480360381019062000325919062001d80565b6200085c565b6040516200033a91906200205e565b60405180910390f35b3480156200035057600080fd5b506200035b6200089c565b6040516200036a919062002258565b60405180910390f35b3480156200038057600080fd5b506200038b620008a2565b6040516200039b92919062002275565b60405180910390f35b348015620003b157600080fd5b50620003bc6200095f565b005b348015620003cb57600080fd5b50620003d662000ac0565b604051620003e5919062002258565b60405180910390f35b348015620003fb57600080fd5b506200040662000ac6565b005b3480156200041557600080fd5b506200043460048036038101906200042e919062001dd8565b62000b66565b604051620004439190620021a0565b60405180910390f35b3480156200045957600080fd5b506200046462000b82565b005b3480156200047357600080fd5b506200047e62000cc3565b6040516200048d9190620021da565b60405180910390f35b348015620004a357600080fd5b50620004ae62000ce9565b604051620004bd91906200205e565b60405180910390f35b348015620004d357600080fd5b50620004de62000d12565b604051620004ed91906200207b565b60405180910390f35b3480156200050357600080fd5b506200052260048036038101906200051c919062001cbb565b62000d38565b60405162000531919062002258565b60405180910390f35b3480156200054757600080fd5b5062000566600480360381019062000560919062001d28565b62000d50565b005b3480156200057557600080fd5b506200058062000df0565b6040516200058f9190620021a0565b60405180910390f35b348015620005a557600080fd5b50620005b062000e03565b604051620005bf9190620021a0565b60405180910390f35b348015620005d557600080fd5b50620005e062000e16565b604051620005ef919062002258565b60405180910390f35b3480156200060557600080fd5b506200062460048036038101906200061e919062001cbb565b62000e6c565b604051620006339190620021a0565b60405180910390f35b3480156200064957600080fd5b506200065462000e8c565b005b3480156200066357600080fd5b506200066e62000f45565b6040516200067d91906200217c565b60405180910390f35b3480156200069357600080fd5b506200069e62000fd5565b604051620006ad919062002258565b60405180910390f35b348015620006c357600080fd5b50620006ce62000fdb565b604051620006dd919062002258565b60405180910390f35b348015620006f357600080fd5b50620006fe62000fe1565b005b3480156200070d57600080fd5b506200072c600480360381019062000726919062001ce7565b6200107e565b005b6200074c600480360381019062000746919062001cbb565b620007ac565b005b3480156200075b57600080fd5b506200077a600480360381019062000774919062001cbb565b62001197565b005b3480156200078957600080fd5b50620007946200134a565b604051620007a39190620021bd565b60405180910390f35b6000349050620007bd828262001370565b6000620007ca82620013be565b9050620007da836000836200152d565b5050505050565b6000600860019054906101000a900460ff161562000803576002905062000808565b600190505b90565b600e6020528060005260406000206000915054906101000a900473ffffffffffffffffffffffffffffffffffffffff1681565b600c6020528060005260406000206000915090505481565b60045481565b600781815481106200086d57600080fd5b906000526020600020016000915054906101000a900473ffffffffffffffffffffffffffffffffffffffff1681565b600a5481565b600080600260009054906101000a900473ffffffffffffffffffffffffffffffffffffffff1673ffffffffffffffffffffffffffffffffffffffff1663d3f5c15f6009546040518263ffffffff1660e01b815260040162000904919062002258565b604080518083038186803b1580156200091c57600080fd5b505afa15801562000931573d6000803e3d6000fd5b505050506040513d601f19601f8201168201806040525081019062000957919062001e19565b915091509091565b60018060028111156200099b577f4e487b7100000000000000000000000000000000000000000000000000000000600052602160045260246000fd5b620009a5620007e1565b6002811115620009de577f4e487b7100000000000000000000000000000000000000000000000000000000600052602160045260246000fd5b14620009e957600080fd5b620009f36200199c565b73ffffffffffffffffffffffffffffffffffffffff1662000a1362000ce9565b73ffffffffffffffffffffffffffffffffffffffff161462000a6c576040517f08c379a000000000000000000000000000000000000000000000000000000000815260040162000a639062002236565b60405180910390fd5b600060149054906101000a900460ff161562000a8757600080fd5b600860019054906101000a900460ff161562000aa257600080fd5b6001600860016101000a81548160ff02191690831515021790555050565b60095481565b62000ad06200199c565b73ffffffffffffffffffffffffffffffffffffffff1662000af062000ce9565b73ffffffffffffffffffffffffffffffffffffffff161462000b49576040517f08c379a000000000000000000000000000000000000000000000000000000000815260040162000b409062002236565b60405180910390fd5b6001600060146101000a81548160ff021916908315150217905550565b6000600454838362000b79919062002349565b11905092915050565b62000b8c6200199c565b73ffffffffffffffffffffffffffffffffffffffff1662000bac62000ce9565b73ffffffffffffffffffffffffffffffffffffffff161462000c05576040517f08c379a000000000000000000000000000000000000000000000000000000000815260040162000bfc9062002236565b60405180910390fd5b600073ffffffffffffffffffffffffffffffffffffffff1660008054906101000a900473ffffffffffffffffffffffffffffffffffffffff1673ffffffffffffffffffffffffffffffffffffffff167f8be0079c531659141344cd1fd0a4f28419497f9722a3daafe3b4186f6b6457e060405160405180910390a360008060006101000a81548173ffffffffffffffffffffffffffffffffffffffff021916908373ffffffffffffffffffffffffffffffffffffffff160217905550565b600260009054906101000a900473ffffffffffffffffffffffffffffffffffffffff1681565b60008060009054906101000a900473ffffffffffffffffffffffffffffffffffffffff16905090565b600360009054906101000a900473ffffffffffffffffffffffffffffffffffffffff1681565b600d6020528060005260406000206000915090505481565b62000d5a6200199c565b73ffffffffffffffffffffffffffffffffffffffff1662000d7a62000ce9565b73ffffffffffffffffffffffffffffffffffffffff161462000dd3576040517f08c379a000000000000000000000000000000000000000000000000000000000815260040162000dca9062002236565b60405180910390fd5b80600860006101000a81548160ff02191690831515021790555050565b600860019054906101000a900460ff1681565b600060149054906101000a900460ff1681565b6000600d60003373ffffffffffffffffffffffffffffffffffffffff1673ffffffffffffffffffffffffffffffffffffffff1681526020019081526020016000205460055462000e679190620023a6565b905090565b600b6020528060005260406000206000915054906101000a900460ff1681565b62000e966200199c565b73ffffffffffffffffffffffffffffffffffffffff1662000eb662000ce9565b73ffffffffffffffffffffffffffffffffffffffff161462000f0f576040517f08c379a000000000000000000000000000000000000000000000000000000000815260040162000f069062002236565b60405180910390fd5b600060149054906101000a900460ff1662000f2957600080fd5b60008060146101000a81548160ff021916908315150217905550565b6060600780548060200260200160405190810160405280929190818152602001828054801562000fcb57602002820191906000526020600020905b8160009054906101000a900473ffffffffffffffffffffffffffffffffffffffff1673ffffffffffffffffffffffffffffffffffffffff168152602001906001019080831162000f80575b5050505050905090565b60055481565b60065481565b62000feb6200199c565b73ffffffffffffffffffffffffffffffffffffffff166200100b62000ce9565b73ffffffffffffffffffffffffffffffffffffffff161462001064576040517f08c379a00000000000000000000000000000000000000000000000000000000081526004016200105b9062002236565b60405180910390fd5b6000600a8190555060006009819055506000600681905550565b620010886200199c565b73ffffffffffffffffffffffffffffffffffffffff16620010a862000ce9565b73ffffffffffffffffffffffffffffffffffffffff161462001101576040517f08c379a0000000000000000000000000000000000000000000000000000000008152600401620010f89062002236565b60405180910390fd5b80600b60008473ffffffffffffffffffffffffffffffffffffffff1673ffffffffffffffffffffffffffffffffffffffff16815260200190815260200160002060006101000a81548160ff0219169083151502179055507fa54714518c5d275fdcd3d2a461e4858e4e8cb04fb93cd0bca9d6d34115f2644082826040516200118b929190620020d5565b60405180910390a15050565b620011a16200199c565b73ffffffffffffffffffffffffffffffffffffffff16620011c162000ce9565b73ffffffffffffffffffffffffffffffffffffffff16146200121a576040517f08c379a0000000000000000000000000000000000000000000000000000000008152600401620012119062002236565b60405180910390fd5b600073ffffffffffffffffffffffffffffffffffffffff168173ffffffffffffffffffffffffffffffffffffffff1614156200128d576040517f08c379a0000000000000000000000000000000000000000000000000000000008152600401620012849062002214565b60405180910390fd5b8073ffffffffffffffffffffffffffffffffffffffff1660008054906101000a900473ffffffffffffffffffffffffffffffffffffffff1673ffffffffffffffffffffffffffffffffffffffff167f8be0079c531659141344cd1fd0a4f28419497f9722a3daafe3b4186f6b6457e060405160405180910390a3806000806101000a81548173ffffffffffffffffffffffffffffffffffffffff021916908373ffffffffffffffffffffffffffffffffffffffff16021790555050565b600160009054906101000a900473ffffffffffffffffffffffffffffffffffffffff1681565b600073ffffffffffffffffffffffffffffffffffffffff168273ffffffffffffffffffffffffffffffffffffffff161415620013ab57600080fd5b6000811415620013ba57600080fd5b5050565b600080600260009054906101000a900473ffffffffffffffffffffffffffffffffffffffff1673ffffffffffffffffffffffffffffffffffffffff166338c3a56584600a546009546000600160009054906101000a900473ffffffffffffffffffffffffffffffffffffffff1673ffffffffffffffffffffffffffffffffffffffff1663313ce5676040518163ffffffff1660e01b815260040160206040518083038186803b1580156200147157600080fd5b505afa15801562001486573d6000803e3d6000fd5b505050506040513d601f19601f82011682018060405250810190620014ac919062001e5a565b6040518663ffffffff1660e01b8152600401620014ce959493929190620022a2565b60206040518083038186803b158015620014e757600080fd5b505afa158015620014fc573d6000803e3d6000fd5b505050506040513d601f19601f8201168201806040525081019062001522919062001dac565b905080915050919050565b600080600060149054906101000a900460ff16156200154b57600080fd5b600b60008673ffffffffffffffffffffffffffffffffffffffff1673ffffffffffffffffffffffffffffffffffffffff16815260200190815260200160002060009054906101000a900460ff16620015a257600080fd5b60016002811115620015dd577f4e487b7100000000000000000000000000000000000000000000000000000000600052602160045260246000fd5b620015e7620007e1565b600281111562001620577f4e487b7100000000000000000000000000000000000000000000000000000000600052602160045260246000fd5b146200162b57600080fd5b600034905060008414156200163f57600080fd5b60055484600d60008973ffffffffffffffffffffffffffffffffffffffff1673ffffffffffffffffffffffffffffffffffffffff168152602001908152602001600020546200168f919062002349565b106200169a57600080fd5b620016a88460095462000b66565b15620016b357600080fd5b6000600c60008873ffffffffffffffffffffffffffffffffffffffff1673ffffffffffffffffffffffffffffffffffffffff1681526020019081526020016000205414156200177a57600660008154809291906200171190620024f5565b91905055506007869080600181540180825580915050600190039060005260206000200160009091909190916101000a81548173ffffffffffffffffffffffffffffffffffffffff021916908373ffffffffffffffffffffffffffffffffffffffff1602179055505b620017ce81600c60008973ffffffffffffffffffffffffffffffffffffffff1673ffffffffffffffffffffffffffffffffffffffff16815260200190815260200160002054620019a490919063ffffffff16565b600c60008873ffffffffffffffffffffffffffffffffffffffff1673ffffffffffffffffffffffffffffffffffffffff168152602001908152602001600020819055506200186584600d60008973ffffffffffffffffffffffffffffffffffffffff1673ffffffffffffffffffffffffffffffffffffffff16815260200190815260200160002054620019a490919063ffffffff16565b600d60008873ffffffffffffffffffffffffffffffffffffffff1673ffffffffffffffffffffffffffffffffffffffff16815260200190815260200160002081905550620018bf81600a54620019a490919063ffffffff16565b600a81905550620018dc84600954620019a490919063ffffffff16565b600981905550620018ee8685620019bc565b9150600360009054906101000a900473ffffffffffffffffffffffffffffffffffffffff1673ffffffffffffffffffffffffffffffffffffffff166108fc829081150290604051600060405180830381858888f193505050506200195157600080fd5b7f0396f60aaad038749091d273dc13aaabc63db6e2271c7bad442d5cf25cc43350868286886040516200198894939291906200212f565b60405180910390a183925050935093915050565b600033905090565b60008183620019b4919062002349565b905092915050565b6000600860009054906101000a900460ff16620019da578262001a3b565b600e60008473ffffffffffffffffffffffffffffffffffffffff1673ffffffffffffffffffffffffffffffffffffffff16815260200190815260200160002060009054906101000a900473ffffffffffffffffffffffffffffffffffffffff165b9050600860009054906101000a900460ff16801562001a865750600073ffffffffffffffffffffffffffffffffffffffff168173ffffffffffffffffffffffffffffffffffffffff16145b1562001ae95760006301e133804262001aa0919062002349565b9050600030858360405162001ab59062001c23565b62001ac39392919062002098565b604051809103906000f08015801562001ae0573d6000803e3d6000fd5b50905080925050505b80600e60008573ffffffffffffffffffffffffffffffffffffffff1673ffffffffffffffffffffffffffffffffffffffff16815260200190815260200160002060006101000a81548173ffffffffffffffffffffffffffffffffffffffff021916908373ffffffffffffffffffffffffffffffffffffffff160217905550600160009054906101000a900473ffffffffffffffffffffffffffffffffffffffff1673ffffffffffffffffffffffffffffffffffffffff1663a9059cbb82846040518363ffffffff1660e01b815260040162001bc692919062002102565b602060405180830381600087803b15801562001be157600080fd5b505af115801562001bf6573d6000803e3d6000fd5b505050506040513d601f19601f8201168201806040525081019062001c1c919062001d54565b5092915050565b61081e806200262183390190565b60008135905062001c4281620025b8565b92915050565b60008135905062001c5981620025d2565b92915050565b60008151905062001c7081620025d2565b92915050565b60008135905062001c8781620025ec565b92915050565b60008151905062001c9e81620025ec565b92915050565b60008151905062001cb58162002606565b92915050565b60006020828403121562001cce57600080fd5b600062001cde8482850162001c31565b91505092915050565b6000806040838503121562001cfb57600080fd5b600062001d0b8582860162001c31565b925050602062001d1e8582860162001c48565b9150509250929050565b60006020828403121562001d3b57600080fd5b600062001d4b8482850162001c48565b91505092915050565b60006020828403121562001d6757600080fd5b600062001d778482850162001c5f565b91505092915050565b60006020828403121562001d9357600080fd5b600062001da38482850162001c76565b91505092915050565b60006020828403121562001dbf57600080fd5b600062001dcf8482850162001c8d565b91505092915050565b6000806040838503121562001dec57600080fd5b600062001dfc8582860162001c76565b925050602062001e0f8582860162001c76565b9150509250929050565b6000806040838503121562001e2d57600080fd5b600062001e3d8582860162001c8d565b925050602062001e508582860162001c8d565b9150509250929050565b60006020828403121562001e6d57600080fd5b600062001e7d8482850162001ca4565b91505092915050565b600062001e94838362001eb1565b60208301905092915050565b62001eab81620023f5565b82525050565b62001ebc81620023e1565b82525050565b62001ecd81620023e1565b82525050565b600062001ee0826200230f565b62001eec818562002327565b935062001ef983620022ff565b8060005b8381101562001f3057815162001f14888262001e86565b975062001f21836200231a565b92505060018101905062001efd565b5085935050505092915050565b62001f488162002409565b82525050565b62001f59816200247d565b82525050565b62001f6a81620024a5565b82525050565b62001f7b81620024cd565b82525050565b600062001f9060268362002338565b91507f4f776e61626c653a206e6577206f776e657220697320746865207a65726f206160008301527f64647265737300000000000000000000000000000000000000000000000000006020830152604082019050919050565b600062001ff860208362002338565b91507f4f776e61626c653a2063616c6c6572206973206e6f7420746865206f776e65726000830152602082019050919050565b62002036816200242a565b82525050565b620020478162002466565b82525050565b6200205881620024e1565b82525050565b600060208201905062002075600083018462001ec2565b92915050565b600060208201905062002092600083018462001ea0565b92915050565b6000606082019050620020af600083018662001ec2565b620020be602083018562001ea0565b620020cd60408301846200203c565b949350505050565b6000604082019050620020ec600083018562001ec2565b620020fb602083018462001f3d565b9392505050565b600060408201905062002119600083018562001ec2565b6200212860208301846200203c565b9392505050565b600060808201905062002146600083018762001ec2565b6200215560208301866200203c565b6200216460408301856200203c565b6200217360608301846200202b565b95945050505050565b6000602082019050818103600083015262002198818462001ed3565b905092915050565b6000602082019050620021b7600083018462001f3d565b92915050565b6000602082019050620021d4600083018462001f4e565b92915050565b6000602082019050620021f1600083018462001f5f565b92915050565b60006020820190506200220e600083018462001f70565b92915050565b600060208201905081810360008301526200222f8162001f81565b9050919050565b60006020820190508181036000830152620022518162001fe9565b9050919050565b60006020820190506200226f60008301846200203c565b92915050565b60006040820190506200228c60008301856200203c565b6200229b60208301846200203c565b9392505050565b600060a082019050620022b960008301886200203c565b620022c860208301876200203c565b620022d760408301866200203c565b620022e6606083018562001ec2565b620022f560808301846200204d565b9695505050505050565b6000819050602082019050919050565b600081519050919050565b6000602082019050919050565b600082825260208201905092915050565b600082825260208201905092915050565b6000620023568262002466565b9150620023638362002466565b9250827fffffffffffffffffffffffffffffffffffffffffffffffffffffffffffffffff038211156200239b576200239a62002543565b5b828201905092915050565b6000620023b38262002466565b9150620023c08362002466565b925082821015620023d657620023d562002543565b5b828203905092915050565b6000620023ee8262002446565b9050919050565b6000620024028262002446565b9050919050565b60008115159050919050565b60008190506200242582620025a1565b919050565b60006fffffffffffffffffffffffffffffffff82169050919050565b600073ffffffffffffffffffffffffffffffffffffffff82169050919050565b6000819050919050565b600060ff82169050919050565b60006200248a8262002491565b9050919050565b60006200249e8262002446565b9050919050565b6000620024b282620024b9565b9050919050565b6000620024c68262002446565b9050919050565b6000620024da8262002415565b9050919050565b6000620024ee8262002470565b9050919050565b6000620025028262002466565b91507fffffffffffffffffffffffffffffffffffffffffffffffffffffffffffffffff82141562002538576200253762002543565b5b600182019050919050565b7f4e487b7100000000000000000000000000000000000000000000000000000000600052601160045260246000fd5b7f4e487b7100000000000000000000000000000000000000000000000000000000600052602160045260246000fd5b60038110620025b557620025b462002572565b5b50565b620025c381620023e1565b8114620025cf57600080fd5b50565b620025dd8162002409565b8114620025e957600080fd5b50565b620025f78162002466565b81146200260357600080fd5b50565b620026118162002470565b81146200261d57600080fd5b5056fe608060405234801561001057600080fd5b5060405161081e38038061081e83398181016040528101906100329190610108565b826000806101000a81548173ffffffffffffffffffffffffffffffffffffffff021916908373ffffffffffffffffffffffffffffffffffffffff16021790555081600160006101000a81548173ffffffffffffffffffffffffffffffffffffffff021916908373ffffffffffffffffffffffffffffffffffffffff16021790555080600281905550426003819055505050506101ea565b6000815190506100d8816101a5565b92915050565b6000815190506100ed816101bc565b92915050565b600081519050610102816101d3565b92915050565b60008060006060848603121561011d57600080fd5b600061012b868287016100c9565b935050602061013c868287016100de565b925050604061014d868287016100f3565b9150509250925092565b60006101628261017b565b9050919050565b60006101748261017b565b9050919050565b600073ffffffffffffffffffffffffffffffffffffffff82169050919050565b6000819050919050565b6101ae81610157565b81146101b957600080fd5b50565b6101c581610169565b81146101d057600080fd5b50565b6101dc8161019b565b81146101e757600080fd5b50565b610625806101f96000396000f3fe60806040526004361061004e5760003560e01c806302d05d3f1461005d57806349df728c1461008857806369ac5721146100b15780638da5cb5b146100dc578063cf09e0d01461010757610058565b3661005857600080fd5b600080fd5b34801561006957600080fd5b50610072610132565b60405161007f9190610469565b60405180910390f35b34801561009457600080fd5b506100af60048036038101906100aa91906103b2565b610156565b005b3480156100bd57600080fd5b506100c6610341565b6040516100d391906104ff565b60405180910390f35b3480156100e857600080fd5b506100f1610347565b6040516100fe9190610484565b60405180910390f35b34801561011357600080fd5b5061011c61036d565b60405161012991906104ff565b60405180910390f35b60008054906101000a900473ffffffffffffffffffffffffffffffffffffffff1681565b600160009054906101000a900473ffffffffffffffffffffffffffffffffffffffff1673ffffffffffffffffffffffffffffffffffffffff163373ffffffffffffffffffffffffffffffffffffffff16146101b057600080fd5b6002544210156101bf57600080fd5b600081905060008173ffffffffffffffffffffffffffffffffffffffff166370a08231306040518263ffffffff1660e01b81526004016101ff9190610469565b60206040518083038186803b15801561021757600080fd5b505afa15801561022b573d6000803e3d6000fd5b505050506040513d601f19601f8201168201806040525081019061024f9190610404565b90508173ffffffffffffffffffffffffffffffffffffffff1663a9059cbb600160009054906101000a900473ffffffffffffffffffffffffffffffffffffffff16836040518363ffffffff1660e01b81526004016102ae92919061049f565b602060405180830381600087803b1580156102c857600080fd5b505af11580156102dc573d6000803e3d6000fd5b505050506040513d601f19601f8201168201806040525081019061030091906103db565b507fa04c965e7d289704527a948915777d68bb4530fb4b08aa935fb958c0b7901ab9833383604051610334939291906104c8565b60405180910390a1505050565b60025481565b600160009054906101000a900473ffffffffffffffffffffffffffffffffffffffff1681565b60035481565b600081359050610382816105aa565b92915050565b600081519050610397816105c1565b92915050565b6000815190506103ac816105d8565b92915050565b6000602082840312156103c457600080fd5b60006103d284828501610373565b91505092915050565b6000602082840312156103ed57600080fd5b60006103fb84828501610388565b91505092915050565b60006020828403121561041657600080fd5b60006104248482850161039d565b91505092915050565b61043681610574565b82525050565b6104458161052c565b82525050565b6104548161051a565b82525050565b6104638161056a565b82525050565b600060208201905061047e600083018461044b565b92915050565b6000602082019050610499600083018461043c565b92915050565b60006040820190506104b4600083018561042d565b6104c1602083018461045a565b9392505050565b60006060820190506104dd600083018661044b565b6104ea602083018561044b565b6104f7604083018461045a565b949350505050565b6000602082019050610514600083018461045a565b92915050565b60006105258261054a565b9050919050565b60006105378261054a565b9050919050565b60008115159050919050565b600073ffffffffffffffffffffffffffffffffffffffff82169050919050565b6000819050919050565b600061057f82610586565b9050919050565b600061059182610598565b9050919050565b60006105a38261054a565b9050919050565b6105b38161051a565b81146105be57600080fd5b50565b6105ca8161053e565b81146105d557600080fd5b50565b6105e18161056a565b81146105ec57600080fd5b5056fea26469706673582212207a954c1087092fdef816903192a3dd0502b672a2c22c4ffd2bfef0145e59aeb664736f6c63430008000033a2646970667358221220b1122cebb6e7b8a1f02c8266d469db9f62897bed8eeade667b6a5a4f7fbcc1ee64736f6c63430008000033",
  "immutableReferences": {},
  "source": "// SPDX-License-Identifier: UNLICENSED\npragma solidity ^0.8.0;\n\nimport \"@openzeppelin/contracts/utils/math/SafeMath.sol\";\n\nimport \"./CollectCoin.sol\";\nimport \"./Haltable.sol\";\nimport \"./IPricingStrategy.sol\";\nimport \"./TimeLockedWallet.sol\";\n\ncontract PreSale is Haltable {\n\n    using SafeMath for uint256;\n\n    /* The token we are selling */\n    CollectCoin public token;\n\n    // How we are going to price our offering\n    IPricingStrategy public pricingStrategy;\n\n    // tokens will be transfered from this address\n    address payable public multisigWallet;\n\n    /* Maximum amount of tokens this crowdsale can sell. */\n    uint256 public maximumSellableTokens;\n\n    uint256 public tokenInvestorCap;\n\n    /* How many distinct addresses have invested */\n    uint public investorCount = 0;\n\n    /* List of all investors */\n    address[] public investors;\n\n    bool useTimeLockedWallets;\n\n    /* Has this crowdsale been finalized */\n    bool public finalized;\n\n    /* the number of tokens already sold through this contract*/\n    uint public tokensSold = 0;\n\n    /* How many wei of funding we have raised */\n    uint public weiRaised = 0;\n\n    /** State machine\n    *\n    * - Preparing: All contract initialization calls and variables have not been set yet\n    * - Funding: Active crowdsale\n    * - Finalized: The finalized has been called and succesfully executed\n    */\n    enum State { Unknown, Funding, Finalized }\n\n    // A new investment was made\n    event Invested(address investor, uint weiAmount, uint tokenAmount, uint128 customerId);\n    \n    event Whitelisted(address addr, bool status);\n\n    /** Addresses that are allowed to invest even before ICO offical opens. For testing, for ICO partners, etc. */\n    mapping (address => bool) public earlyParticipantWhitelist;\n\n    /** How much ETH each address has invested to this crowdsale */\n    mapping (address => uint256) public investedAmountOf;\n\n    /** How much tokens this crowdsale has credited for each investor address */\n    mapping (address => uint256) public tokenAmountOf;\n\n    /* List of time lock wallets for the investors */\n    mapping (address => address) public walletOf;\n\n    /** Modified allowing execution only if the crowdsale is currently running.  */\n    modifier inState(State state) {\n        if(getState() != state) revert();\n        _;\n    }\n\n    constructor(address _token, uint256 _investorTokenCap, IPricingStrategy _pricingStrategy, address payable _multisigWallet, uint256 _maximumSellableTokens, uint256 _lockPeriod) \n    {\n        token = CollectCoin(_token);\n        pricingStrategy = _pricingStrategy;\n        useTimeLockedWallets = _lockPeriod > 0;\n\n        //maximumSellableTokens = 5000000000000000000000000;\n        maximumSellableTokens = _maximumSellableTokens * 10**token.decimals();\n\n        // the fps holds the wei value for 1 unit which is currently defined to 5 Cents.\n        // max investment is $10.000 which are 400.000 Cents converted to wei\n        tokenInvestorCap = _investorTokenCap * 10**token.decimals();\n\n        multisigWallet = _multisigWallet;\n        if(useTimeLockedWallets && multisigWallet == address(0)) {\n            revert();\n        }\n    }\n\n    function setEarlyParicipantWhitelist(address addr, bool status) onlyOwner public {\n        earlyParticipantWhitelist[addr] = status;\n        emit Whitelisted(addr, status);\n    }\n\n    function setUseTimeLockedWallets(bool value) onlyOwner public {\n        useTimeLockedWallets = value;\n\n        // unlock all wallets\n    }\n\n    function availableInvestment() public view returns(uint256)\n    {\n        return tokenInvestorCap - tokenAmountOf[msg.sender];\n    }\n\n    /**\n    * @dev Make an investment.\n    *\n    * Crowdsale must be running for one to invest.\n    * We must have not pressed the emergency brake.\n    *\n    * @param receiver The Ethereum address who receives the tokens\n    * @param customerId (optional) UUID v4 to track the successful payments on the server side'\n    * @param tokenAmount Amount of tokens which be credited to receiver\n    *\n    * @return tokensBought How mony tokens were bought\n    */\n    function buyTokens(address receiver, uint128 customerId, uint256 tokenAmount) \n                stopInEmergency \n                internal \n                returns(uint tokensBought, address tokenWallet) \n    {\n        // Are we whitelisted for early deposit\n        if(!earlyParticipantWhitelist[receiver]) \n        {\n            revert();\n        }\n\n        if(getState() != State.Funding) \n        {\n            revert();\n        }\n\n        uint weiAmount = msg.value;\n\n        // Dust transaction\n        require(tokenAmount != 0);\n\n        // don't allow investment to exceed the investor cap\n        require(tokenAmountOf[receiver] + tokenAmount < tokenInvestorCap);\n\n        // Check that we did not bust the cap\n        require(!isBreakingCap(tokenAmount, tokensSold));\n\n        if(investedAmountOf[receiver] == 0) {\n            // A new investor\n            investorCount++;\n            investors.push(receiver);\n        }\n\n        // Update investor\n        investedAmountOf[receiver] = investedAmountOf[receiver].add(weiAmount);\n        tokenAmountOf[receiver] = tokenAmountOf[receiver].add(tokenAmount);\n\n        // Update totals\n        weiRaised = weiRaised.add(weiAmount);\n        tokensSold = tokensSold.add(tokenAmount);\n\n        tokenWallet = assignTokens(receiver, tokenAmount);\n\n        // Pocket the money, or fail the transaction if we for some reason cannot send the money to our multisig\n        if(!multisigWallet.send(weiAmount)) revert();\n\n        // Tell us invest was success\n        emit Invested(receiver, weiAmount, tokenAmount, customerId);\n\n        return (tokenAmount, tokenWallet);\n    }\n\n    /**\n    * Create new tokens or transfer issued tokens to the investor depending on the cap model.\n    */\n    function assignTokens(address receiver, uint tokenAmount) internal returns (address receiverWalletAddress)\n    {\n        receiverWalletAddress = useTimeLockedWallets ? walletOf[receiver] : receiver;\n\n        if(useTimeLockedWallets && receiverWalletAddress == address(0))\n        {\n            // unlockDate = now + 1 year\n            uint256 unlockDate = block.timestamp + 60 * 60 * 24 * 365;\n\n            // Create new wallet.\n            TimeLockedWallet tlwallet = new TimeLockedWallet(address(this), payable(receiver), unlockDate);\n            \n            receiverWalletAddress = address(tlwallet);\n        }\n\n        // Add wallet to sender's wallets.\n        walletOf[receiver] = receiverWalletAddress;\n\n        // transfer the amount of tokens to the time locked wallet\n        token.transfer(receiverWalletAddress, tokenAmount);\n    }\n\n    // ONLY FOR TEST PURPOSE\n    function reset() public onlyOwner {\n        weiRaised = 0;\n        tokensSold = 0;\n        investorCount = 0;\n    }\n\n    /**\n    * Finalize a succcesful crowdsale.\n    *\n    * The owner can triggre a call the contract that provides post-crowdsale actions, like releasing the tokens.\n    */\n    function finalize() public inState(State.Funding) onlyOwner stopInEmergency {\n\n        // Already finalized\n        if(finalized) {\n            revert();\n        }\n\n        finalized = true;\n    }\n    \n    /**\n    * Check if the current invested breaks our cap rules.\n    *\n    *\n    * The child contract must define their own cap setting rules.\n    * We allow a lot of flexibility through different capping strategies (ETH, token count)\n    * Called from invest().\n    *\n    * @param tokenAmount The amount of tokens we try to give to the investor in the current transaction\n    * @param tokensSoldTotal What would be our total sold tokens count after this transaction\n    *\n    * @return limitBroken is true if taking this investment would break our cap rules\n    */\n    function isBreakingCap(uint tokenAmount, uint tokensSoldTotal) public view returns (bool limitBroken) \n    {\n        // TODO\n        return tokensSoldTotal + tokenAmount > maximumSellableTokens;\n    }\n\n    /**\n    * state machine management.\n    *\n    * We make it a function and do not assign the result to a variable, so there is no chance of the variable being stale.\n    */\n    function getState() public view returns (State) {\n        if(finalized) return State.Finalized;\n        else return State.Funding;\n    }\n\n    function getAllInvestors() public view returns (address[] memory)\n    {\n        return investors;\n    }\n\n    function getTokenPrice() public view returns (uint unitPrice, uint feedPrice)\n    {\n        return pricingStrategy.currentUnitPrice(tokensSold);\n    }\n\n    // -----------------------------------------\n    // Crowdsale external interface\n    // -----------------------------------------\n\n    fallback () external payable {\n        revert();\n    }\n\n    /**\n    * @dev low level token purchase ***DO NOT OVERRIDE***\n    * @param _beneficiary Address performing the token purchase\n    */\n    function buyTokens(address _beneficiary) public payable {\n\n        uint256 weiAmount = msg.value;\n        _preValidatePurchase(_beneficiary, weiAmount);\n\n        // calculate token amount to be created\n        uint256 tokens = _getTokenAmount(weiAmount);\n\n        buyTokens(_beneficiary, 0, tokens);\n    }\n\n    receive () external payable {\n        buyTokens(msg.sender);\n    }\n\n    // -----------------------------------------\n    // Internal interface (extensible)\n    // -----------------------------------------\n\n    /**\n    * @dev Validation of an incoming purchase. Use require statements to revert state when conditions are not met. Use super to concatenate validations.\n    * @param _beneficiary Address performing the token purchase\n    * @param _weiAmount Value in wei involved in the purchase\n    */\n    function _preValidatePurchase(address _beneficiary, uint256 _weiAmount) internal pure {\n        require(_beneficiary != address(0));\n        require(_weiAmount != 0);\n    }\n\n    /**\n    * @dev Override to extend the way in which ether is converted to tokens.\n    * @param _weiAmount Value in wei to be converted into tokens\n    * @return Number of tokens that can be purchased with the specified _weiAmount\n    */\n    function _getTokenAmount(uint256 _weiAmount) internal view returns (uint256) {\n        uint256 tokenAmount = pricingStrategy.calculateTokenAmount(_weiAmount, weiRaised, tokensSold, address(0), token.decimals());\n        return tokenAmount;\n    }\n}",
  "sourcePath": "/home/eule/Projects/monaco-market/ethereum/ico/contracts/PreSale.sol",
  "compiler": {
    "name": "solc",
    "version": "0.8.0+commit.c7dfd78e.Emscripten.clang"
  },
  "schemaVersion": "3.4.1",
  "updatedAt": "2021-07-16T20:45:06.490Z",
  "devdoc": {
    "kind": "dev",
    "methods": {
      "buyTokens(address)": {
        "details": "low level token purchase ***DO NOT OVERRIDE***",
        "params": {
          "_beneficiary": "Address performing the token purchase"
        }
      },
      "isBreakingCap(uint256,uint256)": {
        "params": {
          "tokenAmount": "The amount of tokens we try to give to the investor in the current transaction",
          "tokensSoldTotal": "What would be our total sold tokens count after this transaction"
        },
        "returns": {
          "limitBroken": "is true if taking this investment would break our cap rules"
        }
      },
      "owner()": {
        "details": "Returns the address of the current owner."
      },
      "renounceOwnership()": {
        "details": "Leaves the contract without owner. It will not be possible to call `onlyOwner` functions anymore. Can only be called by the current owner. NOTE: Renouncing ownership will leave the contract without an owner, thereby removing any functionality that is only available to the owner."
      },
      "transferOwnership(address)": {
        "details": "Transfers ownership of the contract to a new account (`newOwner`). Can only be called by the current owner."
      }
    },
    "version": 1
  },
  "userdoc": {
    "kind": "user",
    "methods": {
      "earlyParticipantWhitelist(address)": {
        "notice": "Addresses that are allowed to invest even before ICO offical opens. For testing, for ICO partners, etc. "
      },
      "finalize()": {
        "notice": "Finalize a succcesful crowdsale. The owner can triggre a call the contract that provides post-crowdsale actions, like releasing the tokens."
      },
      "getState()": {
        "notice": "state machine management. We make it a function and do not assign the result to a variable, so there is no chance of the variable being stale."
      },
      "investedAmountOf(address)": {
        "notice": "How much ETH each address has invested to this crowdsale "
      },
      "isBreakingCap(uint256,uint256)": {
        "notice": "Check if the current invested breaks our cap rules. The child contract must define their own cap setting rules. We allow a lot of flexibility through different capping strategies (ETH, token count) Called from invest()."
      },
      "tokenAmountOf(address)": {
        "notice": "How much tokens this crowdsale has credited for each investor address "
      }
    },
    "version": 1
  }
}