{
  "contractName": "PreSaleTimelockPolicy",
  "abi": [
    {
      "inputs": [
        {
          "internalType": "uint256",
          "name": "lockedTime",
          "type": "uint256"
        }
      ],
      "name": "getUnlockedPercentage",
      "outputs": [
        {
          "internalType": "uint8",
          "name": "unlockedPercentage",
          "type": "uint8"
        }
      ],
      "stateMutability": "pure",
      "type": "function"
    }
  ],
  "bytecode": "0x608060405234801561001057600080fd5b50610152806100206000396000f3fe608060405234801561001057600080fd5b506004361061002b5760003560e01c8063a345b74e14610030575b600080fd5b61004a6004803603810190610045919061009b565b610060565b60405161005791906100d3565b60405180910390f35b6000806301da9c0090508083101561007b5760009150610080565b606491505b50919050565b60008135905061009581610105565b92915050565b6000602082840312156100ad57600080fd5b60006100bb84828501610086565b91505092915050565b6100cd816100f8565b82525050565b60006020820190506100e860008301846100c4565b92915050565b6000819050919050565b600060ff82169050919050565b61010e816100ee565b811461011957600080fd5b5056fea26469706673582212206cd838007ab35e1ce537844107c35dcce2c9c41b1fd248a4d93bb85544d9428a64736f6c63430008000033",
  "immutableReferences": {},
  "source": "// SPDX-License-Identifier: UNLICENSED\npragma solidity ^0.8.0;\n\nimport \"./ITimelockPolicy.sol\";\n\n/* Ensures that pre-sale tokens are locked for 12 months = 360 days */\ncontract PreSaleTimelockPolicy is ITimelockPolicy \n{\n    /**\n    * @dev Get the relative amount of unlocked tokens for a passed time period.\n    *\n    *\n    * @param lockedTime The time since the tokens have been locked\n    *\n    * @return unlockedPercentage The percentage, either 0 or 100. 0 if tokens haven't been locked for 12 months yet.\n    */\n    function getUnlockedPercentage(uint256 lockedTime) override public pure returns (uint8 unlockedPercentage)\n    {\n        uint maxLockTime = 31104000; // 60 sec * 60 min * 24 hrs * 30 days * 12 months\n\n        if(lockedTime < maxLockTime)\n        {\n            unlockedPercentage = 0;\n        }\n        else\n        {\n            unlockedPercentage = 100;\n        }\n    }\n}",
  "sourcePath": "/home/eule/Projects/monaco-market/ethereum/ico/contracts/PreSaleTimelockPolicy.sol",
  "compiler": {
    "name": "solc",
    "version": "0.8.0+commit.c7dfd78e.Emscripten.clang"
  },
  "schemaVersion": "3.4.1",
  "updatedAt": "2021-06-25T06:09:22.632Z",
  "devdoc": {
    "kind": "dev",
    "methods": {
      "getUnlockedPercentage(uint256)": {
        "details": "Get the relative amount of unlocked tokens for a passed time period.",
        "params": {
          "lockedTime": "The time since the tokens have been locked"
        },
        "returns": {
          "unlockedPercentage": "The percentage, either 0 or 100. 0 if tokens haven't been locked for 12 months yet."
        }
      }
    },
    "version": 1
  },
  "userdoc": {
    "kind": "user",
    "methods": {},
    "version": 1
  }
}