{
  "contractName": "SimplePreSale",
  "abi": [
    {
      "inputs": [
        {
          "internalType": "address",
          "name": "_token",
          "type": "address"
        },
        {
          "internalType": "uint256",
          "name": "_startsAt",
          "type": "uint256"
        },
        {
          "internalType": "uint256",
          "name": "_investorTokenCap",
          "type": "uint256"
        },
        {
          "internalType": "contract IPricingStrategy",
          "name": "_pricingStrategy",
          "type": "address"
        },
        {
          "internalType": "address payable",
          "name": "_multisigWallet",
          "type": "address"
        },
        {
          "internalType": "uint256",
          "name": "_maximumSellableTokens",
          "type": "uint256"
        }
      ],
      "stateMutability": "nonpayable",
      "type": "constructor"
    },
    {
      "anonymous": false,
      "inputs": [
        {
          "indexed": false,
          "internalType": "address",
          "name": "investor",
          "type": "address"
        },
        {
          "indexed": false,
          "internalType": "uint256",
          "name": "weiAmount",
          "type": "uint256"
        },
        {
          "indexed": false,
          "internalType": "uint256",
          "name": "tokenAmount",
          "type": "uint256"
        }
      ],
      "name": "Invested",
      "type": "event"
    },
    {
      "anonymous": false,
      "inputs": [
        {
          "indexed": true,
          "internalType": "address",
          "name": "previousOwner",
          "type": "address"
        },
        {
          "indexed": true,
          "internalType": "address",
          "name": "newOwner",
          "type": "address"
        }
      ],
      "name": "OwnershipTransferred",
      "type": "event"
    },
    {
      "anonymous": false,
      "inputs": [
        {
          "indexed": false,
          "internalType": "address",
          "name": "addr",
          "type": "address"
        },
        {
          "indexed": false,
          "internalType": "bool",
          "name": "status",
          "type": "bool"
        }
      ],
      "name": "Whitelisted",
      "type": "event"
    },
    {
      "stateMutability": "payable",
      "type": "fallback"
    },
    {
      "inputs": [
        {
          "internalType": "address",
          "name": "",
          "type": "address"
        }
      ],
      "name": "earlyParticipantWhitelist",
      "outputs": [
        {
          "internalType": "bool",
          "name": "",
          "type": "bool"
        }
      ],
      "stateMutability": "view",
      "type": "function"
    },
    {
      "inputs": [],
      "name": "finalized",
      "outputs": [
        {
          "internalType": "bool",
          "name": "",
          "type": "bool"
        }
      ],
      "stateMutability": "view",
      "type": "function"
    },
    {
      "inputs": [],
      "name": "halt",
      "outputs": [],
      "stateMutability": "nonpayable",
      "type": "function"
    },
    {
      "inputs": [],
      "name": "halted",
      "outputs": [
        {
          "internalType": "bool",
          "name": "",
          "type": "bool"
        }
      ],
      "stateMutability": "view",
      "type": "function"
    },
    {
      "inputs": [
        {
          "internalType": "address",
          "name": "",
          "type": "address"
        }
      ],
      "name": "investedAmountOf",
      "outputs": [
        {
          "internalType": "uint256",
          "name": "",
          "type": "uint256"
        }
      ],
      "stateMutability": "view",
      "type": "function"
    },
    {
      "inputs": [],
      "name": "investorCount",
      "outputs": [
        {
          "internalType": "uint256",
          "name": "",
          "type": "uint256"
        }
      ],
      "stateMutability": "view",
      "type": "function"
    },
    {
      "inputs": [
        {
          "internalType": "uint256",
          "name": "",
          "type": "uint256"
        }
      ],
      "name": "investors",
      "outputs": [
        {
          "internalType": "address",
          "name": "",
          "type": "address"
        }
      ],
      "stateMutability": "view",
      "type": "function"
    },
    {
      "inputs": [],
      "name": "maximumSellableTokens",
      "outputs": [
        {
          "internalType": "uint256",
          "name": "",
          "type": "uint256"
        }
      ],
      "stateMutability": "view",
      "type": "function"
    },
    {
      "inputs": [],
      "name": "multisigWallet",
      "outputs": [
        {
          "internalType": "address payable",
          "name": "",
          "type": "address"
        }
      ],
      "stateMutability": "view",
      "type": "function"
    },
    {
      "inputs": [],
      "name": "owner",
      "outputs": [
        {
          "internalType": "address",
          "name": "",
          "type": "address"
        }
      ],
      "stateMutability": "view",
      "type": "function"
    },
    {
      "inputs": [],
      "name": "pricingStrategy",
      "outputs": [
        {
          "internalType": "contract IPricingStrategy",
          "name": "",
          "type": "address"
        }
      ],
      "stateMutability": "view",
      "type": "function"
    },
    {
      "inputs": [],
      "name": "renounceOwnership",
      "outputs": [],
      "stateMutability": "nonpayable",
      "type": "function"
    },
    {
      "inputs": [],
      "name": "startsAt",
      "outputs": [
        {
          "internalType": "uint256",
          "name": "",
          "type": "uint256"
        }
      ],
      "stateMutability": "view",
      "type": "function"
    },
    {
      "inputs": [],
      "name": "token",
      "outputs": [
        {
          "internalType": "contract CollectCoin",
          "name": "",
          "type": "address"
        }
      ],
      "stateMutability": "view",
      "type": "function"
    },
    {
      "inputs": [
        {
          "internalType": "address",
          "name": "",
          "type": "address"
        }
      ],
      "name": "tokenAmountOf",
      "outputs": [
        {
          "internalType": "uint256",
          "name": "",
          "type": "uint256"
        }
      ],
      "stateMutability": "view",
      "type": "function"
    },
    {
      "inputs": [],
      "name": "tokenInvestorCap",
      "outputs": [
        {
          "internalType": "uint256",
          "name": "",
          "type": "uint256"
        }
      ],
      "stateMutability": "view",
      "type": "function"
    },
    {
      "inputs": [],
      "name": "tokensSold",
      "outputs": [
        {
          "internalType": "uint256",
          "name": "",
          "type": "uint256"
        }
      ],
      "stateMutability": "view",
      "type": "function"
    },
    {
      "inputs": [
        {
          "internalType": "address",
          "name": "newOwner",
          "type": "address"
        }
      ],
      "name": "transferOwnership",
      "outputs": [],
      "stateMutability": "nonpayable",
      "type": "function"
    },
    {
      "inputs": [],
      "name": "unhalt",
      "outputs": [],
      "stateMutability": "nonpayable",
      "type": "function"
    },
    {
      "inputs": [],
      "name": "weiRaised",
      "outputs": [
        {
          "internalType": "uint256",
          "name": "",
          "type": "uint256"
        }
      ],
      "stateMutability": "view",
      "type": "function"
    },
    {
      "stateMutability": "payable",
      "type": "receive"
    },
    {
      "inputs": [
        {
          "internalType": "uint256",
          "name": "_startsAt",
          "type": "uint256"
        }
      ],
      "name": "setStartsAt",
      "outputs": [],
      "stateMutability": "nonpayable",
      "type": "function"
    },
    {
      "inputs": [
        {
          "internalType": "address",
          "name": "addr",
          "type": "address"
        },
        {
          "internalType": "bool",
          "name": "status",
          "type": "bool"
        }
      ],
      "name": "setEarlyParicipantWhitelist",
      "outputs": [],
      "stateMutability": "nonpayable",
      "type": "function"
    },
    {
      "inputs": [],
      "name": "availableInvestment",
      "outputs": [
        {
          "internalType": "uint256",
          "name": "",
          "type": "uint256"
        }
      ],
      "stateMutability": "view",
      "type": "function"
    },
    {
      "inputs": [],
      "name": "reset",
      "outputs": [],
      "stateMutability": "nonpayable",
      "type": "function"
    },
    {
      "inputs": [],
      "name": "finalize",
      "outputs": [],
      "stateMutability": "nonpayable",
      "type": "function"
    },
    {
      "inputs": [
        {
          "internalType": "uint256",
          "name": "tokenAmount",
          "type": "uint256"
        },
        {
          "internalType": "uint256",
          "name": "tokensSoldTotal",
          "type": "uint256"
        }
      ],
      "name": "isBreakingCap",
      "outputs": [
        {
          "internalType": "bool",
          "name": "limitBroken",
          "type": "bool"
        }
      ],
      "stateMutability": "view",
      "type": "function"
    },
    {
      "inputs": [],
      "name": "getState",
      "outputs": [
        {
          "internalType": "enum SimplePreSale.State",
          "name": "",
          "type": "uint8"
        }
      ],
      "stateMutability": "view",
      "type": "function"
    },
    {
      "inputs": [],
      "name": "getAllInvestors",
      "outputs": [
        {
          "internalType": "address[]",
          "name": "",
          "type": "address[]"
        }
      ],
      "stateMutability": "view",
      "type": "function"
    },
    {
      "inputs": [],
      "name": "getTokenPrice",
      "outputs": [
        {
          "internalType": "uint256",
          "name": "unitPrice",
          "type": "uint256"
        },
        {
          "internalType": "uint256",
          "name": "feedPrice",
          "type": "uint256"
        }
      ],
      "stateMutability": "view",
      "type": "function"
    },
    {
      "inputs": [
        {
          "internalType": "address",
          "name": "_beneficiary",
          "type": "address"
        }
      ],
      "name": "buyTokens",
      "outputs": [],
      "stateMutability": "payable",
      "type": "function"
    }
  ],
  "bytecode": "0x608060405260006007556000600a556000600b553480156200002057600080fd5b5060405162002af438038062002af4833981810160405281019062000046919062000444565b600062000058620003c960201b60201c565b9050806000806101000a81548173ffffffffffffffffffffffffffffffffffffffff021916908373ffffffffffffffffffffffffffffffffffffffff1602179055508073ffffffffffffffffffffffffffffffffffffffff16600073ffffffffffffffffffffffffffffffffffffffff167f8be0079c531659141344cd1fd0a4f28419497f9722a3daafe3b4186f6b6457e060405160405180910390a350600073ffffffffffffffffffffffffffffffffffffffff168273ffffffffffffffffffffffffffffffffffffffff16141562000169576040517f08c379a0000000000000000000000000000000000000000000000000000000008152600401620001609062000548565b60405180910390fd5b8460038190555085600160006101000a81548173ffffffffffffffffffffffffffffffffffffffff021916908373ffffffffffffffffffffffffffffffffffffffff16021790555082600260006101000a81548173ffffffffffffffffffffffffffffffffffffffff021916908373ffffffffffffffffffffffffffffffffffffffff160217905550600160009054906101000a900473ffffffffffffffffffffffffffffffffffffffff1673ffffffffffffffffffffffffffffffffffffffff1663313ce5676040518163ffffffff1660e01b815260040160206040518083038186803b1580156200025b57600080fd5b505afa15801562000270573d6000803e3d6000fd5b505050506040513d601f19601f82011682018060405250810190620002969190620004da565b600a620002a49190620005d6565b81620002b1919062000713565b600581905550600160009054906101000a900473ffffffffffffffffffffffffffffffffffffffff1673ffffffffffffffffffffffffffffffffffffffff1663313ce5676040518163ffffffff1660e01b815260040160206040518083038186803b1580156200032057600080fd5b505afa15801562000335573d6000803e3d6000fd5b505050506040513d601f19601f820116820180604052508101906200035b9190620004da565b600a620003699190620005d6565b8462000376919062000713565b60068190555081600460006101000a81548173ffffffffffffffffffffffffffffffffffffffff021916908373ffffffffffffffffffffffffffffffffffffffff160217905550505050505050620008a5565b600033905090565b600081519050620003e28162000823565b92915050565b600081519050620003f9816200083d565b92915050565b600081519050620004108162000857565b92915050565b600081519050620004278162000871565b92915050565b6000815190506200043e816200088b565b92915050565b60008060008060008060c087890312156200045e57600080fd5b60006200046e89828a01620003d1565b96505060206200048189828a0162000416565b95505060406200049489828a0162000416565b9450506060620004a789828a01620003ff565b9350506080620004ba89828a01620003e8565b92505060a0620004cd89828a0162000416565b9150509295509295509295565b600060208284031215620004ed57600080fd5b6000620004fd848285016200042d565b91505092915050565b600062000515601c836200056a565b91507f6d756c74697369672077616c6c6574207a65726f2061646472657373000000006000830152602082019050919050565b60006020820190508181036000830152620005638162000506565b9050919050565b600082825260208201905092915050565b6000808291508390505b6001851115620005cd57808604811115620005a557620005a4620007e7565b5b6001851615620005b55780820291505b8081029050620005c58562000816565b945062000585565b94509492505050565b6000620005e382620007d0565b9150620005f083620007da565b92506200061f7fffffffffffffffffffffffffffffffffffffffffffffffffffffffffffffffff848462000627565b905092915050565b6000826200063957600190506200070c565b816200064957600090506200070c565b81600181146200066257600281146200066d57620006a3565b60019150506200070c565b60ff841115620006825762000681620007e7565b5b8360020a9150848211156200069c576200069b620007e7565b5b506200070c565b5060208310610133831016604e8410600b8410161715620006dd5782820a905083811115620006d757620006d6620007e7565b5b6200070c565b620006ec84848460016200057b565b92509050818404811115620007065762000705620007e7565b5b81810290505b9392505050565b60006200072082620007d0565b91506200072d83620007d0565b9250817fffffffffffffffffffffffffffffffffffffffffffffffffffffffffffffffff0483118215151615620007695762000768620007e7565b5b828202905092915050565b60006200078182620007b0565b9050919050565b60006200079582620007b0565b9050919050565b6000620007a98262000774565b9050919050565b600073ffffffffffffffffffffffffffffffffffffffff82169050919050565b6000819050919050565b600060ff82169050919050565b7f4e487b7100000000000000000000000000000000000000000000000000000000600052601160045260246000fd5b60008160011c9050919050565b6200082e8162000774565b81146200083a57600080fd5b50565b620008488162000788565b81146200085457600080fd5b50565b62000862816200079c565b81146200086e57600080fd5b50565b6200087c81620007d0565b81146200088857600080fd5b50565b6200089681620007da565b8114620008a257600080fd5b50565b61223f80620008b56000396000f3fe6080604052600436106101d15760003560e01c8063af468682116100f7578063d0a2f2c411610095578063eac2493211610064578063eac24932146106bf578063ec8ac4d8146106e8578063f2fde38b14610704578063fc0c546a1461072d57610267565b8063d0a2f2c414610627578063d0f6e53e14610652578063d7e64c001461067d578063d826f88f146106a857610267565b8063bf5fc2ee116100d1578063bf5fc2ee1461057f578063c361f7d0146105a8578063cb16e6d0146105d3578063cb3e64fd1461061057610267565b8063af468682146104fe578063b3f05b9714610529578063b9b8af0b1461055457610267565b8063518ab2a81161016f57806378b99c241161013e57806378b99c24146104405780638da5cb5b1461046b5780639075becf1461049657806397b150ca146104c157610267565b8063518ab2a8146103aa5780635ed7ca5b146103d55780636f3355af146103ec578063715018a61461042957610267565b80633feb5f2b116101ab5780633feb5f2b146102ff5780634042b66f1461033c5780634b94f50e146103675780634bb278f31461039357610267565b80631865c57d1461026c5780631aae3460146102975780633ad075ea146102d457610267565b36610267576002806003811115610211577f4e487b7100000000000000000000000000000000000000000000000000000000600052602160045260246000fd5b610219610758565b6003811115610251577f4e487b7100000000000000000000000000000000000000000000000000000000600052602160045260246000fd5b1461025b57600080fd5b610264336107b4565b50005b600080fd5b34801561027857600080fd5b50610281610758565b60405161028e9190611e46565b60405180910390f35b3480156102a357600080fd5b506102be60048036038101906102b991906119f0565b6107e0565b6040516102cb9190611ea1565b60405180910390f35b3480156102e057600080fd5b506102e96107f8565b6040516102f69190611ea1565b60405180910390f35b34801561030b57600080fd5b5061032660048036038101906103219190611a7e565b6107fe565b6040516103339190611d14565b60405180910390f35b34801561034857600080fd5b5061035161083d565b60405161035e9190611ea1565b60405180910390f35b34801561037357600080fd5b5061037c610843565b60405161038a929190611ebc565b60405180910390f35b34801561039f57600080fd5b506103a86108fa565b005b3480156103b657600080fd5b506103bf610a4d565b6040516103cc9190611ea1565b60405180910390f35b3480156103e157600080fd5b506103ea610a53565b005b3480156103f857600080fd5b50610413600480360381019061040e9190611ad0565b610aec565b6040516104209190611df5565b60405180910390f35b34801561043557600080fd5b5061043e610b06565b005b34801561044c57600080fd5b50610455610c40565b6040516104629190611e2b565b60405180910390f35b34801561047757600080fd5b50610480610c66565b60405161048d9190611d14565b60405180910390f35b3480156104a257600080fd5b506104ab610c8f565b6040516104b89190611d2f565b60405180910390f35b3480156104cd57600080fd5b506104e860048036038101906104e391906119f0565b610cb5565b6040516104f59190611ea1565b60405180910390f35b34801561050a57600080fd5b50610513610ccd565b6040516105209190611ea1565b60405180910390f35b34801561053557600080fd5b5061053e610cd3565b60405161054b9190611df5565b60405180910390f35b34801561056057600080fd5b50610569610ce6565b6040516105769190611df5565b60405180910390f35b34801561058b57600080fd5b506105a660048036038101906105a19190611a7e565b610cf9565b005b3480156105b457600080fd5b506105bd610d7f565b6040516105ca9190611ea1565b60405180910390f35b3480156105df57600080fd5b506105fa60048036038101906105f591906119f0565b610dd3565b6040516106079190611df5565b60405180910390f35b34801561061c57600080fd5b50610625610df3565b005b34801561063357600080fd5b5061063c610ea4565b6040516106499190611dd3565b60405180910390f35b34801561065e57600080fd5b50610667610f32565b6040516106749190611ea1565b60405180910390f35b34801561068957600080fd5b50610692610f38565b60405161069f9190611ea1565b60405180910390f35b3480156106b457600080fd5b506106bd610f3e565b005b3480156106cb57600080fd5b506106e660048036038101906106e19190611a19565b610fd4565b005b61070260048036038101906106fd91906119f0565b6107b4565b005b34801561071057600080fd5b5061072b600480360381019061072691906119f0565b6110e4565b005b34801561073957600080fd5b5061074261128d565b60405161074f9190611e10565b60405180910390f35b600060035442101561076d57600190506107b1565b600960009054906101000a900460ff161561078b57600390506107b1565b6000600a5460055461079d9190611fd8565b14156107ac57600390506107b1565b600290505b90565b60003490506107c382826112b3565b60006107ce826112ff565b90506107da8382611464565b50505050565b600d6020528060005260406000206000915090505481565b60055481565b6008818154811061080e57600080fd5b906000526020600020016000915054906101000a900473ffffffffffffffffffffffffffffffffffffffff1681565b600b5481565b600080600260009054906101000a900473ffffffffffffffffffffffffffffffffffffffff1673ffffffffffffffffffffffffffffffffffffffff1663d3f5c15f600a546040518263ffffffff1660e01b81526004016108a39190611ea1565b604080518083038186803b1580156108ba57600080fd5b505afa1580156108ce573d6000803e3d6000fd5b505050506040513d601f19601f820116820180604052508101906108f29190611b0c565b915091509091565b6002806003811115610935577f4e487b7100000000000000000000000000000000000000000000000000000000600052602160045260246000fd5b61093d610758565b6003811115610975577f4e487b7100000000000000000000000000000000000000000000000000000000600052602160045260246000fd5b1461097f57600080fd5b610987611954565b73ffffffffffffffffffffffffffffffffffffffff166109a5610c66565b73ffffffffffffffffffffffffffffffffffffffff16146109fb576040517f08c379a00000000000000000000000000000000000000000000000000000000081526004016109f290611e81565b60405180910390fd5b600060149054906101000a900460ff1615610a1557600080fd5b600960009054906101000a900460ff1615610a2f57600080fd5b6001600960006101000a81548160ff02191690831515021790555050565b600a5481565b610a5b611954565b73ffffffffffffffffffffffffffffffffffffffff16610a79610c66565b73ffffffffffffffffffffffffffffffffffffffff1614610acf576040517f08c379a0000000000000000000000000000000000000000000000000000000008152600401610ac690611e81565b60405180910390fd5b6001600060146101000a81548160ff021916908315150217905550565b60006005548383610afd9190611f82565b11905092915050565b610b0e611954565b73ffffffffffffffffffffffffffffffffffffffff16610b2c610c66565b73ffffffffffffffffffffffffffffffffffffffff1614610b82576040517f08c379a0000000000000000000000000000000000000000000000000000000008152600401610b7990611e81565b60405180910390fd5b600073ffffffffffffffffffffffffffffffffffffffff1660008054906101000a900473ffffffffffffffffffffffffffffffffffffffff1673ffffffffffffffffffffffffffffffffffffffff167f8be0079c531659141344cd1fd0a4f28419497f9722a3daafe3b4186f6b6457e060405160405180910390a360008060006101000a81548173ffffffffffffffffffffffffffffffffffffffff021916908373ffffffffffffffffffffffffffffffffffffffff160217905550565b600260009054906101000a900473ffffffffffffffffffffffffffffffffffffffff1681565b60008060009054906101000a900473ffffffffffffffffffffffffffffffffffffffff16905090565b600460009054906101000a900473ffffffffffffffffffffffffffffffffffffffff1681565b600e6020528060005260406000206000915090505481565b60035481565b600960009054906101000a900460ff1681565b600060149054906101000a900460ff1681565b610d01611954565b73ffffffffffffffffffffffffffffffffffffffff16610d1f610c66565b73ffffffffffffffffffffffffffffffffffffffff1614610d75576040517f08c379a0000000000000000000000000000000000000000000000000000000008152600401610d6c90611e81565b60405180910390fd5b8060038190555050565b6000600e60003373ffffffffffffffffffffffffffffffffffffffff1673ffffffffffffffffffffffffffffffffffffffff16815260200190815260200160002054600654610dce9190611fd8565b905090565b600c6020528060005260406000206000915054906101000a900460ff1681565b610dfb611954565b73ffffffffffffffffffffffffffffffffffffffff16610e19610c66565b73ffffffffffffffffffffffffffffffffffffffff1614610e6f576040517f08c379a0000000000000000000000000000000000000000000000000000000008152600401610e6690611e81565b60405180910390fd5b600060149054906101000a900460ff16610e8857600080fd5b60008060146101000a81548160ff021916908315150217905550565b60606008805480602002602001604051908101604052809291908181526020018280548015610f2857602002820191906000526020600020905b8160009054906101000a900473ffffffffffffffffffffffffffffffffffffffff1673ffffffffffffffffffffffffffffffffffffffff1681526020019060010190808311610ede575b5050505050905090565b60065481565b60075481565b610f46611954565b73ffffffffffffffffffffffffffffffffffffffff16610f64610c66565b73ffffffffffffffffffffffffffffffffffffffff1614610fba576040517f08c379a0000000000000000000000000000000000000000000000000000000008152600401610fb190611e81565b60405180910390fd5b6000600b819055506000600a819055506000600781905550565b610fdc611954565b73ffffffffffffffffffffffffffffffffffffffff16610ffa610c66565b73ffffffffffffffffffffffffffffffffffffffff1614611050576040517f08c379a000000000000000000000000000000000000000000000000000000000815260040161104790611e81565b60405180910390fd5b80600c60008473ffffffffffffffffffffffffffffffffffffffff1673ffffffffffffffffffffffffffffffffffffffff16815260200190815260200160002060006101000a81548160ff0219169083151502179055507fa54714518c5d275fdcd3d2a461e4858e4e8cb04fb93cd0bca9d6d34115f2644082826040516110d8929190611d4a565b60405180910390a15050565b6110ec611954565b73ffffffffffffffffffffffffffffffffffffffff1661110a610c66565b73ffffffffffffffffffffffffffffffffffffffff1614611160576040517f08c379a000000000000000000000000000000000000000000000000000000000815260040161115790611e81565b60405180910390fd5b600073ffffffffffffffffffffffffffffffffffffffff168173ffffffffffffffffffffffffffffffffffffffff1614156111d0576040517f08c379a00000000000000000000000000000000000000000000000000000000081526004016111c790611e61565b60405180910390fd5b8073ffffffffffffffffffffffffffffffffffffffff1660008054906101000a900473ffffffffffffffffffffffffffffffffffffffff1673ffffffffffffffffffffffffffffffffffffffff167f8be0079c531659141344cd1fd0a4f28419497f9722a3daafe3b4186f6b6457e060405160405180910390a3806000806101000a81548173ffffffffffffffffffffffffffffffffffffffff021916908373ffffffffffffffffffffffffffffffffffffffff16021790555050565b600160009054906101000a900473ffffffffffffffffffffffffffffffffffffffff1681565b600073ffffffffffffffffffffffffffffffffffffffff168273ffffffffffffffffffffffffffffffffffffffff1614156112ed57600080fd5b60008114156112fb57600080fd5b5050565b600080600260009054906101000a900473ffffffffffffffffffffffffffffffffffffffff1673ffffffffffffffffffffffffffffffffffffffff166338c3a56584600b54600a546000600160009054906101000a900473ffffffffffffffffffffffffffffffffffffffff1673ffffffffffffffffffffffffffffffffffffffff1663313ce5676040518163ffffffff1660e01b815260040160206040518083038186803b1580156113b157600080fd5b505afa1580156113c5573d6000803e3d6000fd5b505050506040513d601f19601f820116820180604052508101906113e99190611b48565b6040518663ffffffff1660e01b8152600401611409959493929190611ee5565b60206040518083038186803b15801561142157600080fd5b505afa158015611435573d6000803e3d6000fd5b505050506040513d601f19601f820116820180604052508101906114599190611aa7565b905080915050919050565b60008060149054906101000a900460ff161561147f57600080fd5b600c60008473ffffffffffffffffffffffffffffffffffffffff1673ffffffffffffffffffffffffffffffffffffffff16815260200190815260200160002060009054906101000a900460ff166114d557600080fd5b6002600381111561150f577f4e487b7100000000000000000000000000000000000000000000000000000000600052602160045260246000fd5b611517610758565b600381111561154f577f4e487b7100000000000000000000000000000000000000000000000000000000600052602160045260246000fd5b1461155957600080fd5b6000349050600083141561156c57600080fd5b60065483600e60008773ffffffffffffffffffffffffffffffffffffffff1673ffffffffffffffffffffffffffffffffffffffff168152602001908152602001600020546115ba9190611f82565b11156115c557600080fd5b6115d183600a54610aec565b156115db57600080fd5b6000600d60008673ffffffffffffffffffffffffffffffffffffffff1673ffffffffffffffffffffffffffffffffffffffff16815260200190815260200160002054141561169f5760076000815480929190611636906120f2565b91905055506008849080600181540180825580915050600190039060005260206000200160009091909190916101000a81548173ffffffffffffffffffffffffffffffffffffffff021916908373ffffffffffffffffffffffffffffffffffffffff1602179055505b6116f181600d60008773ffffffffffffffffffffffffffffffffffffffff1673ffffffffffffffffffffffffffffffffffffffff1681526020019081526020016000205461195c90919063ffffffff16565b600d60008673ffffffffffffffffffffffffffffffffffffffff1673ffffffffffffffffffffffffffffffffffffffff1681526020019081526020016000208190555061178683600e60008773ffffffffffffffffffffffffffffffffffffffff1673ffffffffffffffffffffffffffffffffffffffff1681526020019081526020016000205461195c90919063ffffffff16565b600e60008673ffffffffffffffffffffffffffffffffffffffff1673ffffffffffffffffffffffffffffffffffffffff168152602001908152602001600020819055506117de81600b5461195c90919063ffffffff16565b600b819055506117f983600a5461195c90919063ffffffff16565b600a81905550600160009054906101000a900473ffffffffffffffffffffffffffffffffffffffff1673ffffffffffffffffffffffffffffffffffffffff1663a9059cbb85856040518363ffffffff1660e01b815260040161185c929190611d73565b602060405180830381600087803b15801561187657600080fd5b505af115801561188a573d6000803e3d6000fd5b505050506040513d601f19601f820116820180604052508101906118ae9190611a55565b50600460009054906101000a900473ffffffffffffffffffffffffffffffffffffffff1673ffffffffffffffffffffffffffffffffffffffff166108fc829081150290604051600060405180830381858888f1935050505061190f57600080fd5b7f9e9d071824fd57d062ca63fd8b786d8da48a6807eebbcb2d83f9e8d21398e28c84828560405161194293929190611d9c565b60405180910390a18291505092915050565b600033905090565b6000818361196a9190611f82565b905092915050565b600081359050611981816121ad565b92915050565b600081359050611996816121c4565b92915050565b6000815190506119ab816121c4565b92915050565b6000813590506119c0816121db565b92915050565b6000815190506119d5816121db565b92915050565b6000815190506119ea816121f2565b92915050565b600060208284031215611a0257600080fd5b6000611a1084828501611972565b91505092915050565b60008060408385031215611a2c57600080fd5b6000611a3a85828601611972565b9250506020611a4b85828601611987565b9150509250929050565b600060208284031215611a6757600080fd5b6000611a758482850161199c565b91505092915050565b600060208284031215611a9057600080fd5b6000611a9e848285016119b1565b91505092915050565b600060208284031215611ab957600080fd5b6000611ac7848285016119c6565b91505092915050565b60008060408385031215611ae357600080fd5b6000611af1858286016119b1565b9250506020611b02858286016119b1565b9150509250929050565b60008060408385031215611b1f57600080fd5b6000611b2d858286016119c6565b9250506020611b3e858286016119c6565b9150509250929050565b600060208284031215611b5a57600080fd5b6000611b68848285016119db565b91505092915050565b6000611b7d8383611b98565b60208301905092915050565b611b928161201e565b82525050565b611ba18161200c565b82525050565b611bb08161200c565b82525050565b6000611bc182611f48565b611bcb8185611f60565b9350611bd683611f38565b8060005b83811015611c07578151611bee8882611b71565b9750611bf983611f53565b925050600181019050611bda565b5085935050505092915050565b611c1d81612030565b82525050565b611c2c81612086565b82525050565b611c3b816120aa565b82525050565b611c4a816120ce565b82525050565b6000611c5d602683611f71565b91507f4f776e61626c653a206e6577206f776e657220697320746865207a65726f206160008301527f64647265737300000000000000000000000000000000000000000000000000006020830152604082019050919050565b6000611cc3602083611f71565b91507f4f776e61626c653a2063616c6c6572206973206e6f7420746865206f776e65726000830152602082019050919050565b611cff8161206f565b82525050565b611d0e816120e0565b82525050565b6000602082019050611d296000830184611ba7565b92915050565b6000602082019050611d446000830184611b89565b92915050565b6000604082019050611d5f6000830185611ba7565b611d6c6020830184611c14565b9392505050565b6000604082019050611d886000830185611ba7565b611d956020830184611cf6565b9392505050565b6000606082019050611db16000830186611ba7565b611dbe6020830185611cf6565b611dcb6040830184611cf6565b949350505050565b60006020820190508181036000830152611ded8184611bb6565b905092915050565b6000602082019050611e0a6000830184611c14565b92915050565b6000602082019050611e256000830184611c23565b92915050565b6000602082019050611e406000830184611c32565b92915050565b6000602082019050611e5b6000830184611c41565b92915050565b60006020820190508181036000830152611e7a81611c50565b9050919050565b60006020820190508181036000830152611e9a81611cb6565b9050919050565b6000602082019050611eb66000830184611cf6565b92915050565b6000604082019050611ed16000830185611cf6565b611ede6020830184611cf6565b9392505050565b600060a082019050611efa6000830188611cf6565b611f076020830187611cf6565b611f146040830186611cf6565b611f216060830185611ba7565b611f2e6080830184611d05565b9695505050505050565b6000819050602082019050919050565b600081519050919050565b6000602082019050919050565b600082825260208201905092915050565b600082825260208201905092915050565b6000611f8d8261206f565b9150611f988361206f565b9250827fffffffffffffffffffffffffffffffffffffffffffffffffffffffffffffffff03821115611fcd57611fcc61213b565b5b828201905092915050565b6000611fe38261206f565b9150611fee8361206f565b9250828210156120015761200061213b565b5b828203905092915050565b60006120178261204f565b9050919050565b60006120298261204f565b9050919050565b60008115159050919050565b600081905061204a82612199565b919050565b600073ffffffffffffffffffffffffffffffffffffffff82169050919050565b6000819050919050565b600060ff82169050919050565b600061209182612098565b9050919050565b60006120a38261204f565b9050919050565b60006120b5826120bc565b9050919050565b60006120c78261204f565b9050919050565b60006120d98261203c565b9050919050565b60006120eb82612079565b9050919050565b60006120fd8261206f565b91507fffffffffffffffffffffffffffffffffffffffffffffffffffffffffffffffff8214156121305761212f61213b565b5b600182019050919050565b7f4e487b7100000000000000000000000000000000000000000000000000000000600052601160045260246000fd5b7f4e487b7100000000000000000000000000000000000000000000000000000000600052602160045260246000fd5b600481106121aa576121a961216a565b5b50565b6121b68161200c565b81146121c157600080fd5b50565b6121cd81612030565b81146121d857600080fd5b50565b6121e48161206f565b81146121ef57600080fd5b50565b6121fb81612079565b811461220657600080fd5b5056fea2646970667358221220a276204d74841d5e933a4a75ad9498753556653e651bf6f7dcf77f7f453b189764736f6c63430008000033",
  "immutableReferences": {},
  "source": "// SPDX-License-Identifier: UNLICENSED\npragma solidity ^0.8.0;\n\nimport \"@openzeppelin/contracts/utils/math/SafeMath.sol\";\n\nimport \"./CollectCoin.sol\";\nimport \"./Haltable.sol\";\nimport \"./IPricingStrategy.sol\";\n\ncontract SimplePreSale is Haltable {\n\n    using SafeMath for uint256;\n\n    /* The token we are selling */\n    CollectCoin public token;\n\n    // How we are going to price our offering\n    IPricingStrategy public pricingStrategy;\n\n    /* the UNIX timestamp start date of the ico */\n    uint public startsAt;\n\n    // tokens will be transfered from this address\n    address payable public multisigWallet;\n\n    /* Maximum amount of tokens this crowdsale can sell. */\n    uint256 public maximumSellableTokens;\n\n    uint256 public tokenInvestorCap;\n\n    /* How many distinct addresses have invested */\n    uint public investorCount = 0;\n\n    /* List of all investors */\n    address[] public investors;\n\n    /* Has this crowdsale been finalized */\n    bool public finalized;\n\n    /* the number of tokens already sold through this contract*/\n    uint public tokensSold = 0;\n\n    /* How many wei of funding we have raised */\n    uint public weiRaised = 0;\n\n    /** State machine\n    *\n    * - Preparing: All contract initialization calls and variables have not been set yet\n    * - Funding: Active crowdsale\n    * - Finalized: The finalized has been called and succesfully executed\n    */\n    enum State { Unknown, Locked, Funding, Finalized }\n\n    // A new investment was made\n    event Invested(address investor, uint weiAmount, uint tokenAmount);\n    \n    event Whitelisted(address addr, bool status);\n\n    /** Addresses that are allowed to invest even before ICO offical opens. For testing, for ICO partners, etc. */\n    mapping (address => bool) public earlyParticipantWhitelist;\n\n    /** How much ETH each address has invested to this crowdsale */\n    mapping (address => uint256) public investedAmountOf;\n\n    /** How much tokens this crowdsale has credited for each investor address */\n    mapping (address => uint256) public tokenAmountOf;\n\n    /** Modified allowing execution only if the crowdsale is currently running.  */\n    modifier inState(State state) {\n        if(getState() != state) revert();\n        _;\n    }\n\n    constructor(address _token, uint256 _startsAt, uint256 _investorTokenCap, IPricingStrategy _pricingStrategy, address payable _multisigWallet, uint256 _maximumSellableTokens) \n    {\n        require(_multisigWallet != address(0), \"multisig wallet zero address\");\n\n        startsAt = _startsAt;\n        token = CollectCoin(_token);\n        pricingStrategy = _pricingStrategy;\n        maximumSellableTokens = _maximumSellableTokens * 10**token.decimals();\n        tokenInvestorCap = _investorTokenCap * 10**token.decimals();\n\n        multisigWallet = _multisigWallet;\n    }\n\n    function setStartsAt(uint256 _startsAt) public onlyOwner {\n        startsAt = _startsAt;\n    }\n\n    function setEarlyParicipantWhitelist(address addr, bool status) onlyOwner public {\n        earlyParticipantWhitelist[addr] = status;\n        emit Whitelisted(addr, status);\n    }\n\n    function availableInvestment() public view returns(uint256)\n    {\n        return tokenInvestorCap - tokenAmountOf[msg.sender];\n    }\n\n    /**\n    * @dev Make an investment.\n    *\n    * Crowdsale must be running for one to invest.\n    * We must have not pressed the emergency brake.\n    *\n    * @param receiver The Ethereum address who receives the tokens\n    * @param tokenAmount Amount of tokens which be credited to receiver\n    *\n    * @return tokensBought How mony tokens were bought\n    */\n    function buyTokens(address receiver, uint256 tokenAmount) \n                stopInEmergency \n                internal \n                returns(uint tokensBought) \n    {\n        // Are we whitelisted for early deposit\n        if(!earlyParticipantWhitelist[receiver]) \n        {\n            revert();\n        }\n\n        if(getState() != State.Funding) \n        {\n            revert();\n        }\n\n        uint weiAmount = msg.value;\n\n        // Dust transaction\n        require(tokenAmount != 0);\n\n        // don't allow investment to exceed the investor cap\n        require(tokenAmountOf[receiver] + tokenAmount <= tokenInvestorCap);\n\n        // Check that we did not bust the cap\n        require(!isBreakingCap(tokenAmount, tokensSold));\n\n        if(investedAmountOf[receiver] == 0) {\n            // A new investor\n            investorCount++;\n            investors.push(receiver);\n        }\n\n        // Update investor\n        investedAmountOf[receiver] = investedAmountOf[receiver].add(weiAmount);\n        tokenAmountOf[receiver] = tokenAmountOf[receiver].add(tokenAmount);\n\n        // Update totals\n        weiRaised = weiRaised.add(weiAmount);\n        tokensSold = tokensSold.add(tokenAmount);\n\n        // transfer the amount of tokens to the time locked wallet\n        token.transfer(receiver, tokenAmount);\n\n        // Pocket the money, or fail the transaction if we for some reason cannot send the money to our multisig\n        if(!multisigWallet.send(weiAmount)) revert();\n\n        // Tell us invest was success\n        emit Invested(receiver, weiAmount, tokenAmount);\n\n        return (tokenAmount);\n    }\n\n    // ONLY FOR TEST PURPOSE\n    function reset() public onlyOwner {\n        weiRaised = 0;\n        tokensSold = 0;\n        investorCount = 0;\n    }\n\n    /**\n    * Finalize a succcesful crowdsale.\n    *\n    * The owner can triggre a call the contract that provides post-crowdsale actions, like releasing the tokens.\n    */\n    function finalize() public inState(State.Funding) onlyOwner stopInEmergency {\n\n        // Already finalized\n        if(finalized) {\n            revert();\n        }\n\n        finalized = true;\n    }\n    \n    /**\n    * Check if the current invested breaks our cap rules.\n    *\n    *\n    * The child contract must define their own cap setting rules.\n    * We allow a lot of flexibility through different capping strategies (ETH, token count)\n    * Called from invest().\n    *\n    * @param tokenAmount The amount of tokens we try to give to the investor in the current transaction\n    * @param tokensSoldTotal What would be our total sold tokens count after this transaction\n    *\n    * @return limitBroken is true if taking this investment would break our cap rules\n    */\n    function isBreakingCap(uint tokenAmount, uint tokensSoldTotal) public view returns (bool limitBroken) \n    {\n        return tokensSoldTotal + tokenAmount > maximumSellableTokens;\n    }\n\n    /**\n    * state machine management.\n    *\n    * We make it a function and do not assign the result to a variable, so there is no chance of the variable being stale.\n    */\n    function getState() public view returns (State) {\n        if (block.timestamp < startsAt) return State.Locked;\n        else if(finalized) return State.Finalized;\n        else if(maximumSellableTokens - tokensSold == 0) return State.Finalized;\n        else return State.Funding;\n    }\n\n    function getAllInvestors() public view returns (address[] memory)\n    {\n        return investors;\n    }\n\n    function getTokenPrice() public view returns (uint unitPrice, uint feedPrice)\n    {\n        return pricingStrategy.currentUnitPrice(tokensSold);\n    }\n\n    // -----------------------------------------\n    // Crowdsale external interface\n    // -----------------------------------------\n\n    fallback () external payable {\n        revert();\n    }\n\n    /**\n    * @dev low level token purchase ***DO NOT OVERRIDE***\n    * @param _beneficiary Address performing the token purchase\n    */\n    function buyTokens(address _beneficiary) public payable {\n\n        uint256 weiAmount = msg.value;\n        _preValidatePurchase(_beneficiary, weiAmount);\n\n        // calculate token amount to be created\n        uint256 tokens = _getTokenAmount(weiAmount);\n\n        buyTokens(_beneficiary, tokens);\n    }\n\n    receive () external inState(State.Funding) payable {\n        buyTokens(msg.sender);\n    }\n\n    // -----------------------------------------\n    // Internal interface (extensible)\n    // -----------------------------------------\n\n    /**\n    * @dev Validation of an incoming purchase. Use require statements to revert state when conditions are not met. Use super to concatenate validations.\n    * @param _beneficiary Address performing the token purchase\n    * @param _weiAmount Value in wei involved in the purchase\n    */\n    function _preValidatePurchase(address _beneficiary, uint256 _weiAmount) internal pure {\n        require(_beneficiary != address(0));\n        require(_weiAmount != 0);\n    }\n\n    /**\n    * @dev Override to extend the way in which ether is converted to tokens.\n    * @param _weiAmount Value in wei to be converted into tokens\n    * @return Number of tokens that can be purchased with the specified _weiAmount\n    */\n    function _getTokenAmount(uint256 _weiAmount) internal view returns (uint256) {\n        uint256 tokenAmount = pricingStrategy.calculateTokenAmount(_weiAmount, weiRaised, tokensSold, address(0), token.decimals());\n        return tokenAmount;\n    }\n}",
  "sourcePath": "/home/eule/Projects/monaco-market/ethereum/ico/contracts/SimplePreSale.sol",
  "compiler": {
    "name": "solc",
    "version": "0.8.0+commit.c7dfd78e.Emscripten.clang"
  },
  "schemaVersion": "3.4.1",
  "updatedAt": "2021-07-16T20:45:06.532Z",
  "devdoc": {
    "kind": "dev",
    "methods": {
      "buyTokens(address)": {
        "details": "low level token purchase ***DO NOT OVERRIDE***",
        "params": {
          "_beneficiary": "Address performing the token purchase"
        }
      },
      "isBreakingCap(uint256,uint256)": {
        "params": {
          "tokenAmount": "The amount of tokens we try to give to the investor in the current transaction",
          "tokensSoldTotal": "What would be our total sold tokens count after this transaction"
        },
        "returns": {
          "limitBroken": "is true if taking this investment would break our cap rules"
        }
      },
      "owner()": {
        "details": "Returns the address of the current owner."
      },
      "renounceOwnership()": {
        "details": "Leaves the contract without owner. It will not be possible to call `onlyOwner` functions anymore. Can only be called by the current owner. NOTE: Renouncing ownership will leave the contract without an owner, thereby removing any functionality that is only available to the owner."
      },
      "transferOwnership(address)": {
        "details": "Transfers ownership of the contract to a new account (`newOwner`). Can only be called by the current owner."
      }
    },
    "version": 1
  },
  "userdoc": {
    "kind": "user",
    "methods": {
      "earlyParticipantWhitelist(address)": {
        "notice": "Addresses that are allowed to invest even before ICO offical opens. For testing, for ICO partners, etc. "
      },
      "finalize()": {
        "notice": "Finalize a succcesful crowdsale. The owner can triggre a call the contract that provides post-crowdsale actions, like releasing the tokens."
      },
      "getState()": {
        "notice": "state machine management. We make it a function and do not assign the result to a variable, so there is no chance of the variable being stale."
      },
      "investedAmountOf(address)": {
        "notice": "How much ETH each address has invested to this crowdsale "
      },
      "isBreakingCap(uint256,uint256)": {
        "notice": "Check if the current invested breaks our cap rules. The child contract must define their own cap setting rules. We allow a lot of flexibility through different capping strategies (ETH, token count) Called from invest()."
      },
      "tokenAmountOf(address)": {
        "notice": "How much tokens this crowdsale has credited for each investor address "
      }
    },
    "version": 1
  }
}