{
  "contractName": "TestPriceOracle",
  "abi": [
    {
      "inputs": [],
      "name": "decimals",
      "outputs": [
        {
          "internalType": "uint8",
          "name": "",
          "type": "uint8"
        }
      ],
      "stateMutability": "pure",
      "type": "function"
    },
    {
      "inputs": [],
      "name": "description",
      "outputs": [
        {
          "internalType": "string",
          "name": "",
          "type": "string"
        }
      ],
      "stateMutability": "pure",
      "type": "function"
    },
    {
      "inputs": [],
      "name": "version",
      "outputs": [
        {
          "internalType": "uint256",
          "name": "",
          "type": "uint256"
        }
      ],
      "stateMutability": "pure",
      "type": "function"
    },
    {
      "inputs": [],
      "name": "latestRoundData",
      "outputs": [
        {
          "internalType": "uint80",
          "name": "roundId",
          "type": "uint80"
        },
        {
          "internalType": "int256",
          "name": "answer",
          "type": "int256"
        },
        {
          "internalType": "uint256",
          "name": "startedAt",
          "type": "uint256"
        },
        {
          "internalType": "uint256",
          "name": "updatedAt",
          "type": "uint256"
        },
        {
          "internalType": "uint80",
          "name": "answeredInRound",
          "type": "uint80"
        }
      ],
      "stateMutability": "pure",
      "type": "function"
    },
    {
      "inputs": [
        {
          "internalType": "uint80",
          "name": "_roundId",
          "type": "uint80"
        }
      ],
      "name": "getRoundData",
      "outputs": [
        {
          "internalType": "uint80",
          "name": "roundId",
          "type": "uint80"
        },
        {
          "internalType": "int256",
          "name": "answer",
          "type": "int256"
        },
        {
          "internalType": "uint256",
          "name": "startedAt",
          "type": "uint256"
        },
        {
          "internalType": "uint256",
          "name": "updatedAt",
          "type": "uint256"
        },
        {
          "internalType": "uint80",
          "name": "answeredInRound",
          "type": "uint80"
        }
      ],
      "stateMutability": "pure",
      "type": "function"
    }
  ],
  "bytecode": "0x608060405234801561001057600080fd5b5061047c806100206000396000f3fe608060405234801561001057600080fd5b50600436106100575760003560e01c8063313ce5671461005c57806354fd4d501461007a5780637284e416146100985780639a6fc8f5146100b6578063feaf968c146100ea575b600080fd5b61006461010c565b6040516100719190610309565b60405180910390f35b610082610115565b60405161008f919061029b565b60405180910390f35b6100a061011e565b6040516100ad9190610279565b60405180910390f35b6100d060048036038101906100cb91906101d7565b61015b565b6040516100e19594939291906102b6565b60405180910390f35b6100f2610195565b6040516101039594939291906102b6565b60405180910390f35b60006008905090565b60006001905090565b60606040518060400160405280601581526020017f4c6f63616c205465737420507269636520466565640000000000000000000000815250905090565b6000806000806000600e94506406ae8c8b839350634996026c9250634996026e915060018661018a9190610340565b905091939590929450565b6000806000806000600e94506406ae8c8b839350634996026c9250634996026e9150600190509091929394565b6000813590506101d18161042f565b92915050565b6000602082840312156101ed576101ec610419565b5b60006101fb848285016101c2565b91505092915050565b61020d81610380565b82525050565b600061021e82610324565b610228818561032f565b93506102388185602086016103b7565b6102418161041e565b840191505092915050565b6102558161038a565b82525050565b610264816103a1565b82525050565b61027381610394565b82525050565b600060208201905081810360008301526102938184610213565b905092915050565b60006020820190506102b0600083018461024c565b92915050565b600060a0820190506102cb600083018861025b565b6102d86020830187610204565b6102e5604083018661024c565b6102f2606083018561024c565b6102ff608083018461025b565b9695505050505050565b600060208201905061031e600083018461026a565b92915050565b600081519050919050565b600082825260208201905092915050565b600061034b826103a1565b9150610356836103a1565b92508269ffffffffffffffffffff03821115610375576103746103ea565b5b828201905092915050565b6000819050919050565b6000819050919050565b600060ff82169050919050565b600069ffffffffffffffffffff82169050919050565b60005b838110156103d55780820151818401526020810190506103ba565b838111156103e4576000848401525b50505050565b7f4e487b7100000000000000000000000000000000000000000000000000000000600052601160045260246000fd5b600080fd5b6000601f19601f8301169050919050565b610438816103a1565b811461044357600080fd5b5056fea264697066735822122023f20dadda3449a6a73682f46453646600f1df99bf00df2089d0f0869699084e64736f6c63430008060033",
  "immutableReferences": {},
  "source": "// SPDX-License-Identifier: UNLICENSED\npragma solidity ^0.8.6;\n\nimport \"@chainlink/contracts/src/v0.8/interfaces/AggregatorV3Interface.sol\";\n\ncontract TestPriceOracle is AggregatorV3Interface {\n\n    function decimals() override public pure returns (uint8)\n    {\n        return 8;\n    }\n\n    function description() override public pure returns (string memory)\n    {\n        return \"Local Test Price Feed\";\n    }\n\n    function version() override public pure returns (uint256)\n    {\n        return 1;\n    }\n        \n    function latestRoundData() override public pure returns (\n      uint80 roundId,\n      int256 answer,\n      uint256 startedAt,\n      uint256 updatedAt,\n      uint80 answeredInRound\n    ) {\n        roundId = 14;\n        answer = 28698250115; // 286.98250115 USD for 1 BNB\n        startedAt = 1234567788;\n        updatedAt = 1234567790;\n        answeredInRound = 1;\n    }\n\n    function getRoundData(uint80 _roundId) override public pure returns (\n      uint80 roundId,\n      int256 answer,\n      uint256 startedAt,\n      uint256 updatedAt,\n      uint80 answeredInRound\n    ) {\n        roundId = 14;\n        answer = 28698250115;\n        startedAt = 1234567788;\n        updatedAt = 1234567790;\n        answeredInRound = _roundId + 1;\n    }\n}",
  "sourcePath": "/share/contracts/TestPriceOracle.sol",
  "compiler": {
    "name": "solc",
    "version": "0.8.6+commit.11564f7e.Emscripten.clang"
  },
  "schemaVersion": "3.4.3",
  "updatedAt": "2021-10-17T13:56:56.198Z",
  "devdoc": {
    "kind": "dev",
    "methods": {},
    "version": 1
  },
  "userdoc": {
    "kind": "user",
    "methods": {},
    "version": 1
  }
}