{
  "contractName": "TestPriceOracle",
  "abi": [
    {
      "inputs": [],
      "name": "decimals",
      "outputs": [
        {
          "internalType": "uint8",
          "name": "",
          "type": "uint8"
        }
      ],
      "stateMutability": "pure",
      "type": "function",
      "constant": true
    },
    {
      "inputs": [],
      "name": "description",
      "outputs": [
        {
          "internalType": "string",
          "name": "",
          "type": "string"
        }
      ],
      "stateMutability": "pure",
      "type": "function",
      "constant": true
    },
    {
      "inputs": [],
      "name": "version",
      "outputs": [
        {
          "internalType": "uint256",
          "name": "",
          "type": "uint256"
        }
      ],
      "stateMutability": "pure",
      "type": "function",
      "constant": true
    },
    {
      "inputs": [],
      "name": "latestRoundData",
      "outputs": [
        {
          "internalType": "uint80",
          "name": "roundId",
          "type": "uint80"
        },
        {
          "internalType": "int256",
          "name": "answer",
          "type": "int256"
        },
        {
          "internalType": "uint256",
          "name": "startedAt",
          "type": "uint256"
        },
        {
          "internalType": "uint256",
          "name": "updatedAt",
          "type": "uint256"
        },
        {
          "internalType": "uint80",
          "name": "answeredInRound",
          "type": "uint80"
        }
      ],
      "stateMutability": "pure",
      "type": "function",
      "constant": true
    },
    {
      "inputs": [
        {
          "internalType": "uint80",
          "name": "_roundId",
          "type": "uint80"
        }
      ],
      "name": "getRoundData",
      "outputs": [
        {
          "internalType": "uint80",
          "name": "roundId",
          "type": "uint80"
        },
        {
          "internalType": "int256",
          "name": "answer",
          "type": "int256"
        },
        {
          "internalType": "uint256",
          "name": "startedAt",
          "type": "uint256"
        },
        {
          "internalType": "uint256",
          "name": "updatedAt",
          "type": "uint256"
        },
        {
          "internalType": "uint80",
          "name": "answeredInRound",
          "type": "uint80"
        }
      ],
      "stateMutability": "pure",
      "type": "function",
      "constant": true
    }
  ],
  "bytecode": "0x608060405234801561001057600080fd5b50610473806100206000396000f3fe608060405234801561001057600080fd5b50600436106100575760003560e01c8063313ce5671461005c57806354fd4d501461007a5780637284e416146100985780639a6fc8f5146100b6578063feaf968c146100ea575b600080fd5b61006461010c565b6040516100719190610305565b60405180910390f35b610082610115565b60405161008f9190610297565b60405180910390f35b6100a061011e565b6040516100ad9190610275565b60405180910390f35b6100d060048036038101906100cb91906101d7565b61015b565b6040516100e19594939291906102b2565b60405180910390f35b6100f2610195565b6040516101039594939291906102b2565b60405180910390f35b60006008905090565b60006001905090565b60606040518060400160405280601581526020017f4c6f63616c205465737420507269636520466565640000000000000000000000815250905090565b6000806000806000600e94506406ae8c8b839350634996026c9250634996026e915060018661018a919061033c565b905091939590929450565b6000806000806000600e94506406ae8c8b839350634996026c9250634996026e9150600190509091929394565b6000813590506101d181610426565b92915050565b6000602082840312156101e957600080fd5b60006101f7848285016101c2565b91505092915050565b6102098161037c565b82525050565b600061021a82610320565b610224818561032b565b93506102348185602086016103b3565b61023d81610415565b840191505092915050565b61025181610386565b82525050565b6102608161039d565b82525050565b61026f81610390565b82525050565b6000602082019050818103600083015261028f818461020f565b905092915050565b60006020820190506102ac6000830184610248565b92915050565b600060a0820190506102c76000830188610257565b6102d46020830187610200565b6102e16040830186610248565b6102ee6060830185610248565b6102fb6080830184610257565b9695505050505050565b600060208201905061031a6000830184610266565b92915050565b600081519050919050565b600082825260208201905092915050565b60006103478261039d565b91506103528361039d565b92508269ffffffffffffffffffff03821115610371576103706103e6565b5b828201905092915050565b6000819050919050565b6000819050919050565b600060ff82169050919050565b600069ffffffffffffffffffff82169050919050565b60005b838110156103d15780820151818401526020810190506103b6565b838111156103e0576000848401525b50505050565b7f4e487b7100000000000000000000000000000000000000000000000000000000600052601160045260246000fd5b6000601f19601f8301169050919050565b61042f8161039d565b811461043a57600080fd5b5056fea26469706673582212200bb966da8dbb9e63b98f81b02e57da026dada6fdddc65db9a08e4e6abb1672cc64736f6c63430008000033",
  "immutableReferences": {},
  "source": "// SPDX-License-Identifier: UNLICENSED\npragma solidity ^0.8.0;\n\nimport \"@chainlink/contracts/src/v0.8/interfaces/AggregatorV3Interface.sol\";\n\ncontract TestPriceOracle is AggregatorV3Interface {\n\n    function decimals() override public pure returns (uint8)\n    {\n        return 8;\n    }\n\n    function description() override public pure returns (string memory)\n    {\n        return \"Local Test Price Feed\";\n    }\n\n    function version() override public pure returns (uint256)\n    {\n        return 1;\n    }\n        \n    function latestRoundData() override public pure returns (\n      uint80 roundId,\n      int256 answer,\n      uint256 startedAt,\n      uint256 updatedAt,\n      uint80 answeredInRound\n    ) {\n        roundId = 14;\n        answer = 28698250115; // 286.98250115 USD for 1 BNB\n        startedAt = 1234567788;\n        updatedAt = 1234567790;\n        answeredInRound = 1;\n    }\n\n    function getRoundData(uint80 _roundId) override public pure returns (\n      uint80 roundId,\n      int256 answer,\n      uint256 startedAt,\n      uint256 updatedAt,\n      uint80 answeredInRound\n    ) {\n        roundId = 14;\n        answer = 28698250115;\n        startedAt = 1234567788;\n        updatedAt = 1234567790;\n        answeredInRound = _roundId + 1;\n    }\n}",
  "sourcePath": "/home/eule/Projects/ico-contracts/ethereum/ico/contracts/TestPriceOracle.sol",
  "compiler": {
    "name": "solc",
    "version": "0.8.0+commit.c7dfd78e.Emscripten.clang"
  },
  "schemaVersion": "3.4.1",
  "updatedAt": "2021-08-16T13:16:39.458Z",
  "networkType": "ethereum",
  "devdoc": {
    "kind": "dev",
    "methods": {},
    "version": 1
  },
  "userdoc": {
    "kind": "user",
    "methods": {},
    "version": 1
  }
}