{
  "contractName": "TimeLockedWalletFactory",
  "abi": [
    {
      "inputs": [],
      "stateMutability": "nonpayable",
      "type": "constructor"
    },
    {
      "anonymous": false,
      "inputs": [
        {
          "indexed": false,
          "internalType": "address",
          "name": "wallet",
          "type": "address"
        },
        {
          "indexed": false,
          "internalType": "address",
          "name": "from",
          "type": "address"
        },
        {
          "indexed": false,
          "internalType": "address",
          "name": "to",
          "type": "address"
        },
        {
          "indexed": false,
          "internalType": "uint256",
          "name": "createdAt",
          "type": "uint256"
        }
      ],
      "name": "Created",
      "type": "event"
    },
    {
      "anonymous": false,
      "inputs": [
        {
          "indexed": false,
          "internalType": "address",
          "name": "wallet",
          "type": "address"
        },
        {
          "indexed": false,
          "internalType": "address",
          "name": "from",
          "type": "address"
        },
        {
          "indexed": false,
          "internalType": "address",
          "name": "to",
          "type": "address"
        },
        {
          "indexed": false,
          "internalType": "uint256",
          "name": "createdAt",
          "type": "uint256"
        }
      ],
      "name": "CreatedMono",
      "type": "event"
    },
    {
      "inputs": [],
      "name": "owner",
      "outputs": [
        {
          "internalType": "address",
          "name": "",
          "type": "address"
        }
      ],
      "stateMutability": "view",
      "type": "function"
    },
    {
      "inputs": [
        {
          "internalType": "address",
          "name": "_user",
          "type": "address"
        }
      ],
      "name": "getWallets",
      "outputs": [
        {
          "internalType": "address[]",
          "name": "",
          "type": "address[]"
        }
      ],
      "stateMutability": "view",
      "type": "function"
    },
    {
      "inputs": [
        {
          "internalType": "address payable",
          "name": "_wallet",
          "type": "address"
        },
        {
          "internalType": "uint256",
          "name": "_unlockDate",
          "type": "uint256"
        }
      ],
      "name": "initializeTimeLockedWallet",
      "outputs": [],
      "stateMutability": "nonpayable",
      "type": "function"
    },
    {
      "inputs": [
        {
          "internalType": "address",
          "name": "_owner",
          "type": "address"
        },
        {
          "internalType": "uint256",
          "name": "_unlockDate",
          "type": "uint256"
        },
        {
          "internalType": "uint256",
          "name": "_unlockPeriod",
          "type": "uint256"
        },
        {
          "internalType": "uint256",
          "name": "_unlockPercentage",
          "type": "uint256"
        }
      ],
      "name": "newPeriodicTimeLockedWallet",
      "outputs": [
        {
          "internalType": "address",
          "name": "wallet",
          "type": "address"
        }
      ],
      "stateMutability": "nonpayable",
      "type": "function"
    },
    {
      "inputs": [
        {
          "internalType": "address",
          "name": "_tokenOwner",
          "type": "address"
        },
        {
          "internalType": "address",
          "name": "_icoContract",
          "type": "address"
        },
        {
          "internalType": "uint256",
          "name": "_unlockDate",
          "type": "uint256"
        },
        {
          "internalType": "uint256",
          "name": "_unlockPeriod",
          "type": "uint256"
        },
        {
          "internalType": "uint256",
          "name": "_unlockPercentage",
          "type": "uint256"
        }
      ],
      "name": "newPeriodicTimeLockedMonoWallet",
      "outputs": [
        {
          "internalType": "address",
          "name": "wallet",
          "type": "address"
        }
      ],
      "stateMutability": "nonpayable",
      "type": "function"
    }
  ],
  "bytecode": "0x608060405234801561001057600080fd5b50336000806101000a81548173ffffffffffffffffffffffffffffffffffffffff021916908373ffffffffffffffffffffffffffffffffffffffff160217905550612b8f806100606000396000f3fe60806040523480156200001157600080fd5b50600436106200005e5760003560e01c806314970c84146200006357806338d41d171462000099578063422c29a414620000b95780638da5cb5b14620000ef578063c63340db1462000111575b600080fd5b6200008160048036038101906200007b91906200081a565b62000147565b6040516200009091906200097b565b60405180910390f35b620000b76004803603810190620000b191906200074b565b62000381565b005b620000d76004803603810190620000d1919062000719565b6200048b565b604051620000e6919062000a8f565b60405180910390f35b620000f96200055a565b6040516200010891906200097b565b60405180910390f35b6200012f600480360381019062000129919062000792565b6200057e565b6040516200013e91906200097b565b60405180910390f35b60008060009054906101000a900473ffffffffffffffffffffffffffffffffffffffff1673ffffffffffffffffffffffffffffffffffffffff163373ffffffffffffffffffffffffffffffffffffffff1614620001db576040517f08c379a0000000000000000000000000000000000000000000000000000000008152600401620001d29062000ab3565b60405180910390fd5b6000858484604051620001ee90620006b8565b620001fc9392919062000a52565b604051809103906000f08015801562000219573d6000803e3d6000fd5b509050600085111562000296578073ffffffffffffffffffffffffffffffffffffffff1663fe4b84df866040518263ffffffff1660e01b815260040162000261919062000ad5565b600060405180830381600087803b1580156200027c57600080fd5b505af115801562000291573d6000803e3d6000fd5b505050505b809150600160008773ffffffffffffffffffffffffffffffffffffffff1673ffffffffffffffffffffffffffffffffffffffff168152602001908152602001600020829080600181540180825580915050600190039060005260206000200160009091909190916101000a81548173ffffffffffffffffffffffffffffffffffffffff021916908373ffffffffffffffffffffffffffffffffffffffff1602179055507f9f94c44dd7c05df7528cfb5aedb137fa0cee080fb3fb54cec59f157b4424b18a8233884260405162000370949392919062000998565b60405180910390a150949350505050565b60008054906101000a900473ffffffffffffffffffffffffffffffffffffffff1673ffffffffffffffffffffffffffffffffffffffff163373ffffffffffffffffffffffffffffffffffffffff161462000412576040517f08c379a0000000000000000000000000000000000000000000000000000000008152600401620004099062000ab3565b60405180910390fd5b60008290508073ffffffffffffffffffffffffffffffffffffffff1663fe4b84df836040518263ffffffff1660e01b815260040162000452919062000ad5565b600060405180830381600087803b1580156200046d57600080fd5b505af115801562000482573d6000803e3d6000fd5b50505050505050565b6060600160008373ffffffffffffffffffffffffffffffffffffffff1673ffffffffffffffffffffffffffffffffffffffff1681526020019081526020016000208054806020026020016040519081016040528092919081815260200182805480156200054e57602002820191906000526020600020905b8160009054906101000a900473ffffffffffffffffffffffffffffffffffffffff1673ffffffffffffffffffffffffffffffffffffffff168152602001906001019080831162000503575b50505050509050919050565b60008054906101000a900473ffffffffffffffffffffffffffffffffffffffff1681565b600080859050600033828787878c6040516200059a90620006c6565b620005ab96959493929190620009e5565b604051809103906000f080158015620005c8573d6000803e3d6000fd5b509050809250600160003373ffffffffffffffffffffffffffffffffffffffff1673ffffffffffffffffffffffffffffffffffffffff168152602001908152602001600020839080600181540180825580915050600190039060005260206000200160009091909190916101000a81548173ffffffffffffffffffffffffffffffffffffffff021916908373ffffffffffffffffffffffffffffffffffffffff1602179055507f7b7e3969279af3fda11f0fa5cc15a383e2f6b728c911e3b6fe065dc0f30d190883338942604051620006a5949392919062000998565b60405180910390a1505095945050505050565b61118e8062000c3383390190565b610d998062001dc183390190565b600081359050620006e58162000be4565b92915050565b600081359050620006fc8162000bfe565b92915050565b600081359050620007138162000c18565b92915050565b60006020828403121562000732576200073162000bb6565b5b60006200074284828501620006d4565b91505092915050565b6000806040838503121562000765576200076462000bb6565b5b60006200077585828601620006eb565b9250506020620007888582860162000702565b9150509250929050565b600080600080600060a08688031215620007b157620007b062000bb6565b5b6000620007c188828901620006d4565b9550506020620007d488828901620006d4565b9450506040620007e78882890162000702565b9350506060620007fa8882890162000702565b92505060806200080d8882890162000702565b9150509295509295909350565b6000806000806080858703121562000837576200083662000bb6565b5b60006200084787828801620006d4565b94505060206200085a8782880162000702565b93505060406200086d8782880162000702565b9250506060620008808782880162000702565b91505092959194509250565b60006200089a8383620008a6565b60208301905092915050565b620008b18162000b3c565b82525050565b620008c28162000b3c565b82525050565b6000620008d58262000b02565b620008e1818562000b1a565b9350620008ee8362000af2565b8060005b83811015620009255781516200090988826200088c565b9750620009168362000b0d565b925050600181019050620008f2565b5085935050505092915050565b6200093d8162000b8e565b82525050565b600062000952600a8362000b2b565b91506200095f8262000bbb565b602082019050919050565b620009758162000b84565b82525050565b6000602082019050620009926000830184620008b7565b92915050565b6000608082019050620009af6000830187620008b7565b620009be6020830186620008b7565b620009cd6040830185620008b7565b620009dc60608301846200096a565b95945050505050565b600060c082019050620009fc6000830189620008b7565b62000a0b602083018862000932565b62000a1a60408301876200096a565b62000a2960608301866200096a565b62000a3860808301856200096a565b62000a4760a0830184620008b7565b979650505050505050565b600060608201905062000a696000830186620008b7565b62000a7860208301856200096a565b62000a8760408301846200096a565b949350505050565b6000602082019050818103600083015262000aab8184620008c8565b905092915050565b6000602082019050818103600083015262000ace8162000943565b9050919050565b600060208201905062000aec60008301846200096a565b92915050565b6000819050602082019050919050565b600081519050919050565b6000602082019050919050565b600082825260208201905092915050565b600082825260208201905092915050565b600062000b498262000b64565b9050919050565b600062000b5d8262000b64565b9050919050565b600073ffffffffffffffffffffffffffffffffffffffff82169050919050565b6000819050919050565b600062000b9b8262000ba2565b9050919050565b600062000baf8262000b64565b9050919050565b600080fd5b7f4f6e6c79204f776e657200000000000000000000000000000000000000000000600082015250565b62000bef8162000b3c565b811462000bfb57600080fd5b50565b62000c098162000b50565b811462000c1557600080fd5b50565b62000c238162000b84565b811462000c2f57600080fd5b5056fe60806040523480156200001157600080fd5b506040516200118e3803806200118e83398181016040528101906200003791906200011f565b33600160006101000a81548173ffffffffffffffffffffffffffffffffffffffff021916908373ffffffffffffffffffffffffffffffffffffffff16021790555082600060016101000a81548173ffffffffffffffffffffffffffffffffffffffff021916908373ffffffffffffffffffffffffffffffffffffffff16021790555060008060006101000a81548160ff021916908315150217905550426003819055508160048190555080600581905550505050620001f2565b6000815190506200010281620001be565b92915050565b6000815190506200011981620001d8565b92915050565b6000806000606084860312156200013b576200013a620001b9565b5b60006200014b86828701620000f1565b93505060206200015e8682870162000108565b9250506040620001718682870162000108565b9150509250925092565b600062000188826200018f565b9050919050565b600073ffffffffffffffffffffffffffffffffffffffff82169050919050565b6000819050919050565b600080fd5b620001c9816200017b565b8114620001d557600080fd5b50565b620001e381620001af565b8114620001ef57600080fd5b50565b610f8c80620002026000396000f3fe608060405234801561001057600080fd5b50600436106100b45760003560e01c80638da5cb5b116100715780638da5cb5b1461016b578063bd7001ff14610189578063c884ef83146101b9578063cf09e0d0146101e9578063e3d670d714610207578063fe4b84df14610237576100b4565b806302d05d3f146100b957806306b091f9146100d7578063158ef93e146100f357806320d3a0b4146101115780633b3fba161461012f57806369ac57211461014d575b600080fd5b6100c1610253565b6040516100ce9190610aa7565b60405180910390f35b6100f160048036038101906100ec9190610927565b610279565b005b6100fb6104cf565b6040516101089190610b22565b60405180910390f35b6101196104e0565b6040516101269190610bbd565b60405180910390f35b6101376104e6565b6040516101449190610bbd565b60405180910390f35b6101556104ec565b6040516101629190610bbd565b60405180910390f35b6101736104f2565b6040516101809190610aa7565b60405180910390f35b6101a3600480360381019061019e91906108fa565b610518565b6040516101b09190610bbd565b60405180910390f35b6101d360048036038101906101ce91906108fa565b6106be565b6040516101e09190610bbd565b60405180910390f35b6101f1610707565b6040516101fe9190610bbd565b60405180910390f35b610221600480360381019061021c91906108fa565b61070d565b60405161022e9190610bbd565b60405180910390f35b610251600480360381019061024c9190610994565b6107a4565b005b600160009054906101000a900473ffffffffffffffffffffffffffffffffffffffff1681565b600060019054906101000a900473ffffffffffffffffffffffffffffffffffffffff1673ffffffffffffffffffffffffffffffffffffffff163373ffffffffffffffffffffffffffffffffffffffff1614610309576040517f08c379a000000000000000000000000000000000000000000000000000000000815260040161030090610b9d565b60405180910390fd5b600061031483610518565b905080821115610359576040517f08c379a000000000000000000000000000000000000000000000000000000000815260040161035090610b7d565b60405180910390fd5b81600760008573ffffffffffffffffffffffffffffffffffffffff1673ffffffffffffffffffffffffffffffffffffffff16815260200190815260200160002060008282546103a89190610be9565b9250508190555060008390508073ffffffffffffffffffffffffffffffffffffffff1663a9059cbb600060019054906101000a900473ffffffffffffffffffffffffffffffffffffffff16856040518363ffffffff1660e01b8152600401610411929190610af9565b602060405180830381600087803b15801561042b57600080fd5b505af115801561043f573d6000803e3d6000fd5b505050506040513d601f19601f820116820180604052508101906104639190610967565b61046c57600080fd5b7fa04c965e7d289704527a948915777d68bb4530fb4b08aa935fb958c0b7901ab984600060019054906101000a900473ffffffffffffffffffffffffffffffffffffffff16846040516104c193929190610ac2565b60405180910390a150505050565b60008054906101000a900460ff1681565b60045481565b60055481565b60025481565b600060019054906101000a900473ffffffffffffffffffffffffffffffffffffffff1681565b60008060009054906101000a900460ff1661053657600090506106b9565b6000600760008473ffffffffffffffffffffffffffffffffffffffff1673ffffffffffffffffffffffffffffffffffffffff16815260200190815260200160002054905060008390506000828273ffffffffffffffffffffffffffffffffffffffff166370a08231306040518263ffffffff1660e01b81526004016105bb9190610aa7565b60206040518083038186803b1580156105d357600080fd5b505afa1580156105e7573d6000803e3d6000fd5b505050506040513d601f19601f8201168201806040525081019061060b91906109c1565b6106159190610be9565b90506000600254426106279190610cca565b9050600081121561063f5760009450505050506106b9565b60006001600454836106519190610c3f565b61065b9190610be9565b9050600060646005548361066f9190610c70565b101561068857600554826106839190610c70565b61068b565b60645b9050856064858361069c9190610c70565b6106a69190610c3f565b6106b09190610d5e565b96505050505050505b919050565b6000600760008373ffffffffffffffffffffffffffffffffffffffff1673ffffffffffffffffffffffffffffffffffffffff168152602001908152602001600020549050919050565b60035481565b6000808290508073ffffffffffffffffffffffffffffffffffffffff166370a08231306040518263ffffffff1660e01b815260040161074c9190610aa7565b60206040518083038186803b15801561076457600080fd5b505afa158015610778573d6000803e3d6000fd5b505050506040513d601f19601f8201168201806040525081019061079c91906109c1565b915050919050565b600160009054906101000a900473ffffffffffffffffffffffffffffffffffffffff1673ffffffffffffffffffffffffffffffffffffffff163373ffffffffffffffffffffffffffffffffffffffff1614610834576040517f08c379a000000000000000000000000000000000000000000000000000000000815260040161082b90610b5d565b60405180910390fd5b60008054906101000a900460ff1615610882576040517f08c379a000000000000000000000000000000000000000000000000000000000815260040161087990610b3d565b60405180910390fd5b8060028190555060016000806101000a81548160ff02191690831515021790555050565b6000813590506108b581610f11565b92915050565b6000815190506108ca81610f28565b92915050565b6000813590506108df81610f3f565b92915050565b6000815190506108f481610f3f565b92915050565b6000602082840312156109105761090f610e42565b5b600061091e848285016108a6565b91505092915050565b6000806040838503121561093e5761093d610e42565b5b600061094c858286016108a6565b925050602061095d858286016108d0565b9150509250929050565b60006020828403121561097d5761097c610e42565b5b600061098b848285016108bb565b91505092915050565b6000602082840312156109aa576109a9610e42565b5b60006109b8848285016108d0565b91505092915050565b6000602082840312156109d7576109d6610e42565b5b60006109e5848285016108e5565b91505092915050565b6109f781610d92565b82525050565b610a0681610da4565b82525050565b6000610a19601383610bd8565b9150610a2482610e47565b602082019050919050565b6000610a3c600c83610bd8565b9150610a4782610e70565b602082019050919050565b6000610a5f602583610bd8565b9150610a6a82610e99565b604082019050919050565b6000610a82600a83610bd8565b9150610a8d82610ee8565b602082019050919050565b610aa181610dda565b82525050565b6000602082019050610abc60008301846109ee565b92915050565b6000606082019050610ad760008301866109ee565b610ae460208301856109ee565b610af16040830184610a98565b949350505050565b6000604082019050610b0e60008301856109ee565b610b1b6020830184610a98565b9392505050565b6000602082019050610b3760008301846109fd565b92915050565b60006020820190508181036000830152610b5681610a0c565b9050919050565b60006020820190508181036000830152610b7681610a2f565b9050919050565b60006020820190508181036000830152610b9681610a52565b9050919050565b60006020820190508181036000830152610bb681610a75565b9050919050565b6000602082019050610bd26000830184610a98565b92915050565b600082825260208201905092915050565b6000610bf482610dda565b9150610bff83610dda565b9250827fffffffffffffffffffffffffffffffffffffffffffffffffffffffffffffffff03821115610c3457610c33610de4565b5b828201905092915050565b6000610c4a82610dda565b9150610c5583610dda565b925082610c6557610c64610e13565b5b828204905092915050565b6000610c7b82610dda565b9150610c8683610dda565b9250817fffffffffffffffffffffffffffffffffffffffffffffffffffffffffffffffff0483118215151615610cbf57610cbe610de4565b5b828202905092915050565b6000610cd582610db0565b9150610ce083610db0565b9250827f800000000000000000000000000000000000000000000000000000000000000001821260008412151615610d1b57610d1a610de4565b5b827f7fffffffffffffffffffffffffffffffffffffffffffffffffffffffffffffff018213600084121615610d5357610d52610de4565b5b828203905092915050565b6000610d6982610dda565b9150610d7483610dda565b925082821015610d8757610d86610de4565b5b828203905092915050565b6000610d9d82610dba565b9050919050565b60008115159050919050565b6000819050919050565b600073ffffffffffffffffffffffffffffffffffffffff82169050919050565b6000819050919050565b7f4e487b7100000000000000000000000000000000000000000000000000000000600052601160045260246000fd5b7f4e487b7100000000000000000000000000000000000000000000000000000000600052601260045260246000fd5b600080fd5b7f416c726561647920496e697469616c697a656400000000000000000000000000600082015250565b7f4f6e6c792043726561746f720000000000000000000000000000000000000000600082015250565b7f4e6f7420656e6f7567687420756e6c6f636b656420746f6b656e73206176616960008201527f6c61626c65000000000000000000000000000000000000000000000000000000602082015250565b7f4f6e6c79204f776e657200000000000000000000000000000000000000000000600082015250565b610f1a81610d92565b8114610f2557600080fd5b50565b610f3181610da4565b8114610f3c57600080fd5b50565b610f4881610dda565b8114610f5357600080fd5b5056fea2646970667358221220663c4118ab170ae959eceb2700f6d7169b14efb30b2d2b2611302354f529b43f64736f6c6343000806003360806040523480156200001157600080fd5b5060405162000d9938038062000d99833981810160405281019062000037919062000166565b856000806101000a81548173ffffffffffffffffffffffffffffffffffffffff021916908373ffffffffffffffffffffffffffffffffffffffff16021790555084600660006101000a81548173ffffffffffffffffffffffffffffffffffffffff021916908373ffffffffffffffffffffffffffffffffffffffff160217905550836001819055504260028190555080600560006101000a81548173ffffffffffffffffffffffffffffffffffffffff021916908373ffffffffffffffffffffffffffffffffffffffff1602179055508260038190555081600481905550505050505050620002a7565b600081519050620001328162000259565b92915050565b600081519050620001498162000273565b92915050565b60008151905062000160816200028d565b92915050565b60008060008060008060c0878903121562000186576200018562000254565b5b60006200019689828a0162000121565b9650506020620001a989828a0162000138565b9550506040620001bc89828a016200014f565b9450506060620001cf89828a016200014f565b9350506080620001e289828a016200014f565b92505060a0620001f589828a0162000121565b9150509295509295509295565b60006200020f826200022a565b9050919050565b6000620002238262000202565b9050919050565b600073ffffffffffffffffffffffffffffffffffffffff82169050919050565b6000819050919050565b600080fd5b620002648162000202565b81146200027057600080fd5b50565b6200027e8162000216565b81146200028a57600080fd5b50565b62000298816200024a565b8114620002a457600080fd5b50565b610ae280620002b76000396000f3fe608060405234801561001057600080fd5b506004361061009e5760003560e01c806369ac57211161006657806369ac572114610137578063b69ef8a814610155578063c66e409514610173578063cf09e0d014610191578063e834a834146101af5761009e565b806302d05d3f146100a357806320d3a0b4146100c15780633b3fba16146100df57806349df728c146100fd57806363f5de7614610119575b600080fd5b6100ab6101cd565b6040516100b8919061075d565b60405180910390f35b6100c96101f1565b6040516100d691906107ca565b60405180910390f35b6100e76101f7565b6040516100f491906107ca565b60405180910390f35b610117600480360381019061011291906106a9565b6101fd565b005b61012161035e565b60405161012e91906107ca565b60405180910390f35b61013f6104f5565b60405161014c91906107ca565b60405180910390f35b61015d6104fb565b60405161016a91906107ca565b60405180910390f35b61017b6105f7565b60405161018891906107af565b60405180910390f35b61019961061d565b6040516101a691906107ca565b60405180910390f35b6101b7610623565b6040516101c491906107ca565b60405180910390f35b60008054906101000a900473ffffffffffffffffffffffffffffffffffffffff1681565b60035481565b60045481565b6000819050600061020c61035e565b905080600760003373ffffffffffffffffffffffffffffffffffffffff1673ffffffffffffffffffffffffffffffffffffffff168152602001908152602001600020600082825461025d91906107e5565b925050819055508173ffffffffffffffffffffffffffffffffffffffff166323b872dd600560009054906101000a900473ffffffffffffffffffffffffffffffffffffffff1633846040518463ffffffff1660e01b81526004016102c393929190610778565b602060405180830381600087803b1580156102dd57600080fd5b505af11580156102f1573d6000803e3d6000fd5b505050506040513d601f19601f8201168201806040525081019061031591906106d6565b61031e57600080fd5b7fa04c965e7d289704527a948915777d68bb4530fb4b08aa935fb958c0b7901ab983338360405161035193929190610778565b60405180910390a1505050565b600080600660009054906101000a900473ffffffffffffffffffffffffffffffffffffffff1673ffffffffffffffffffffffffffffffffffffffff166397b150ca336040518263ffffffff1660e01b81526004016103bc919061075d565b60206040518083038186803b1580156103d457600080fd5b505afa1580156103e8573d6000803e3d6000fd5b505050506040513d601f19601f8201168201806040525081019061040c9190610703565b90506000600760003373ffffffffffffffffffffffffffffffffffffffff1673ffffffffffffffffffffffffffffffffffffffff16815260200190815260200160002054905060006001544261046291906108c6565b9050600081121561047957600093505050506104f2565b600060016003548361048b919061083b565b61049591906107e5565b905060006064600454836104a9919061086c565b10156104c257600454826104bd919061086c565b6104c5565b60645b905083606486836104d6919061086c565b6104e0919061083b565b6104ea919061095a565b955050505050505b90565b60015481565b6000600760003373ffffffffffffffffffffffffffffffffffffffff1673ffffffffffffffffffffffffffffffffffffffff16815260200190815260200160002054600660009054906101000a900473ffffffffffffffffffffffffffffffffffffffff1673ffffffffffffffffffffffffffffffffffffffff166397b150ca336040518263ffffffff1660e01b8152600401610598919061075d565b60206040518083038186803b1580156105b057600080fd5b505afa1580156105c4573d6000803e3d6000fd5b505050506040513d601f19601f820116820180604052508101906105e89190610703565b6105f2919061095a565b905090565b600660009054906101000a900473ffffffffffffffffffffffffffffffffffffffff1681565b60025481565b6000600760003373ffffffffffffffffffffffffffffffffffffffff1673ffffffffffffffffffffffffffffffffffffffff16815260200190815260200160002054905090565b60008135905061067981610a67565b92915050565b60008151905061068e81610a7e565b92915050565b6000815190506106a381610a95565b92915050565b6000602082840312156106bf576106be610a62565b5b60006106cd8482850161066a565b91505092915050565b6000602082840312156106ec576106eb610a62565b5b60006106fa8482850161067f565b91505092915050565b60006020828403121561071957610718610a62565b5b600061072784828501610694565b91505092915050565b6107398161098e565b82525050565b610748816109e0565b82525050565b610757816109d6565b82525050565b60006020820190506107726000830184610730565b92915050565b600060608201905061078d6000830186610730565b61079a6020830185610730565b6107a7604083018461074e565b949350505050565b60006020820190506107c4600083018461073f565b92915050565b60006020820190506107df600083018461074e565b92915050565b60006107f0826109d6565b91506107fb836109d6565b9250827fffffffffffffffffffffffffffffffffffffffffffffffffffffffffffffffff038211156108305761082f610a04565b5b828201905092915050565b6000610846826109d6565b9150610851836109d6565b92508261086157610860610a33565b5b828204905092915050565b6000610877826109d6565b9150610882836109d6565b9250817fffffffffffffffffffffffffffffffffffffffffffffffffffffffffffffffff04831182151516156108bb576108ba610a04565b5b828202905092915050565b60006108d1826109ac565b91506108dc836109ac565b9250827f80000000000000000000000000000000000000000000000000000000000000000182126000841215161561091757610916610a04565b5b827f7fffffffffffffffffffffffffffffffffffffffffffffffffffffffffffffff01821360008412161561094f5761094e610a04565b5b828203905092915050565b6000610965826109d6565b9150610970836109d6565b92508282101561098357610982610a04565b5b828203905092915050565b6000610999826109b6565b9050919050565b60008115159050919050565b6000819050919050565b600073ffffffffffffffffffffffffffffffffffffffff82169050919050565b6000819050919050565b60006109eb826109f2565b9050919050565b60006109fd826109b6565b9050919050565b7f4e487b7100000000000000000000000000000000000000000000000000000000600052601160045260246000fd5b7f4e487b7100000000000000000000000000000000000000000000000000000000600052601260045260246000fd5b600080fd5b610a708161098e565b8114610a7b57600080fd5b50565b610a87816109a0565b8114610a9257600080fd5b50565b610a9e816109d6565b8114610aa957600080fd5b5056fea264697066735822122014c9cb0fa4f4d7f15a2970ff83c9c46a420e471417032f2aad4900ef745df53964736f6c63430008060033a2646970667358221220719b869fee58b47072198e35c4c91850d6f45bd30c69e58ab85a25fdb5a2b61264736f6c63430008060033",
  "immutableReferences": {},
  "source": "// SPDX-License-Identifier: UNLICENSED\npragma solidity ^0.8.6;\n\nimport \"./PeriodicTimeLockedWallet.sol\";\nimport \"./PeriodicTimeLockedMonoWallet.sol\";\n\ncontract TimeLockedWalletFactory {\n \n    address public owner;\n    mapping(address => address[]) wallets;\n\n    event Created(address wallet, address from, address to, uint256 createdAt);\n    event CreatedMono(address wallet, address from, address to, uint256 createdAt);\n\n    modifier onlyOwner {\n        require(msg.sender == owner, \"Only Owner\");\n        _;\n    }\n\n    constructor()\n    {\n        owner = msg.sender;\n    }\n\n    function getWallets(address _user) \n        public\n        view\n        returns(address[] memory)\n    {\n        return wallets[_user];\n    }\n\n    /**\n    * Initializes a time locked wallet that has been created by this factory.\n    *\n    * The owner of the factory can trigger a call on a wallet that is uninitialized and has been created by this factory.\n    * @param _wallet The unitialized TimeLockedWallet contract.\n    * @param _unlockDate The unlock date that is set to the wallet.\n    */\n    function initializeTimeLockedWallet(address payable _wallet, uint256 _unlockDate) public onlyOwner {\n        PeriodicTimeLockedWallet wallet = PeriodicTimeLockedWallet(_wallet);\n\n        wallet.initialize(_unlockDate);\n    }\n\n    function newPeriodicTimeLockedWallet(address _owner, uint256 _unlockDate, uint256 _unlockPeriod, uint _unlockPercentage)\n        public onlyOwner\n        returns(address wallet)\n    {\n        // Create new wallet.\n        PeriodicTimeLockedWallet tlwallet = new PeriodicTimeLockedWallet(_owner, _unlockPeriod, _unlockPercentage);\n        \n        if(_unlockDate > 0) {\n            tlwallet.initialize(_unlockDate);\n        }\n\n        wallet = address(tlwallet);\n\n        // Add wallet to owner's wallets.\n        wallets[_owner].push(wallet);\n\n        // Emit event.\n        emit Created(wallet, msg.sender, _owner, block.timestamp);\n    }\n\n    function newPeriodicTimeLockedMonoWallet(address _tokenOwner, address _icoContract, uint256 _unlockDate, uint256 _unlockPeriod, uint _unlockPercentage)\n        public\n        returns(address wallet)\n    {\n        ICollectCoinIco ico = ICollectCoinIco(_icoContract);\n\n        // Create new wallet.\n        PeriodicTimeLockedMonoWallet tlwallet = new PeriodicTimeLockedMonoWallet(msg.sender, ico, _unlockDate, _unlockPeriod, _unlockPercentage, _tokenOwner);\n        \n        wallet = address(tlwallet);\n\n        // Add wallet to sender's wallets.\n        wallets[msg.sender].push(wallet);\n\n        // Emit event.\n        emit CreatedMono(wallet, msg.sender, _icoContract, block.timestamp);\n    }    \n}",
  "sourcePath": "/share/contracts/TimeLockedWalletFactory.sol",
  "compiler": {
    "name": "solc",
    "version": "0.8.6+commit.11564f7e.Emscripten.clang"
  },
  "schemaVersion": "3.4.3",
  "updatedAt": "2021-10-15T12:30:14.855Z",
  "devdoc": {
    "kind": "dev",
    "methods": {
      "initializeTimeLockedWallet(address,uint256)": {
        "params": {
          "_unlockDate": "The unlock date that is set to the wallet.",
          "_wallet": "The unitialized TimeLockedWallet contract."
        }
      }
    },
    "version": 1
  },
  "userdoc": {
    "kind": "user",
    "methods": {
      "initializeTimeLockedWallet(address,uint256)": {
        "notice": "Initializes a time locked wallet that has been created by this factory. The owner of the factory can trigger a call on a wallet that is uninitialized and has been created by this factory."
      }
    },
    "version": 1
  }
}