{
  "contractName": "TimeLockedWallet",
  "abi": [
    {
      "inputs": [
        {
          "internalType": "address",
          "name": "_creator",
          "type": "address"
        },
        {
          "internalType": "address payable",
          "name": "_owner",
          "type": "address"
        },
        {
          "internalType": "uint256",
          "name": "_unlockDate",
          "type": "uint256"
        }
      ],
      "stateMutability": "nonpayable",
      "type": "constructor"
    },
    {
      "anonymous": false,
      "inputs": [
        {
          "indexed": false,
          "internalType": "address",
          "name": "tokenContract",
          "type": "address"
        },
        {
          "indexed": false,
          "internalType": "address",
          "name": "to",
          "type": "address"
        },
        {
          "indexed": false,
          "internalType": "uint256",
          "name": "amount",
          "type": "uint256"
        }
      ],
      "name": "WithdrewTokens",
      "type": "event"
    },
    {
      "inputs": [],
      "name": "createdAt",
      "outputs": [
        {
          "internalType": "uint256",
          "name": "",
          "type": "uint256"
        }
      ],
      "stateMutability": "view",
      "type": "function"
    },
    {
      "inputs": [],
      "name": "creator",
      "outputs": [
        {
          "internalType": "address",
          "name": "",
          "type": "address"
        }
      ],
      "stateMutability": "view",
      "type": "function"
    },
    {
      "inputs": [],
      "name": "owner",
      "outputs": [
        {
          "internalType": "address payable",
          "name": "",
          "type": "address"
        }
      ],
      "stateMutability": "view",
      "type": "function"
    },
    {
      "inputs": [],
      "name": "unlockDate",
      "outputs": [
        {
          "internalType": "uint256",
          "name": "",
          "type": "uint256"
        }
      ],
      "stateMutability": "view",
      "type": "function"
    },
    {
      "stateMutability": "payable",
      "type": "receive"
    },
    {
      "inputs": [
        {
          "internalType": "address",
          "name": "_tokenContract",
          "type": "address"
        }
      ],
      "name": "withdrawTokens",
      "outputs": [],
      "stateMutability": "nonpayable",
      "type": "function"
    }
  ],
  "bytecode": "0x608060405234801561001057600080fd5b5060405161081e38038061081e83398181016040528101906100329190610108565b826000806101000a81548173ffffffffffffffffffffffffffffffffffffffff021916908373ffffffffffffffffffffffffffffffffffffffff16021790555081600160006101000a81548173ffffffffffffffffffffffffffffffffffffffff021916908373ffffffffffffffffffffffffffffffffffffffff16021790555080600281905550426003819055505050506101ea565b6000815190506100d8816101a5565b92915050565b6000815190506100ed816101bc565b92915050565b600081519050610102816101d3565b92915050565b60008060006060848603121561011d57600080fd5b600061012b868287016100c9565b935050602061013c868287016100de565b925050604061014d868287016100f3565b9150509250925092565b60006101628261017b565b9050919050565b60006101748261017b565b9050919050565b600073ffffffffffffffffffffffffffffffffffffffff82169050919050565b6000819050919050565b6101ae81610157565b81146101b957600080fd5b50565b6101c581610169565b81146101d057600080fd5b50565b6101dc8161019b565b81146101e757600080fd5b50565b610625806101f96000396000f3fe60806040526004361061004e5760003560e01c806302d05d3f1461005d57806349df728c1461008857806369ac5721146100b15780638da5cb5b146100dc578063cf09e0d01461010757610058565b3661005857600080fd5b600080fd5b34801561006957600080fd5b50610072610132565b60405161007f9190610469565b60405180910390f35b34801561009457600080fd5b506100af60048036038101906100aa91906103b2565b610156565b005b3480156100bd57600080fd5b506100c6610341565b6040516100d391906104ff565b60405180910390f35b3480156100e857600080fd5b506100f1610347565b6040516100fe9190610484565b60405180910390f35b34801561011357600080fd5b5061011c61036d565b60405161012991906104ff565b60405180910390f35b60008054906101000a900473ffffffffffffffffffffffffffffffffffffffff1681565b600160009054906101000a900473ffffffffffffffffffffffffffffffffffffffff1673ffffffffffffffffffffffffffffffffffffffff163373ffffffffffffffffffffffffffffffffffffffff16146101b057600080fd5b6002544210156101bf57600080fd5b600081905060008173ffffffffffffffffffffffffffffffffffffffff166370a08231306040518263ffffffff1660e01b81526004016101ff9190610469565b60206040518083038186803b15801561021757600080fd5b505afa15801561022b573d6000803e3d6000fd5b505050506040513d601f19601f8201168201806040525081019061024f9190610404565b90508173ffffffffffffffffffffffffffffffffffffffff1663a9059cbb600160009054906101000a900473ffffffffffffffffffffffffffffffffffffffff16836040518363ffffffff1660e01b81526004016102ae92919061049f565b602060405180830381600087803b1580156102c857600080fd5b505af11580156102dc573d6000803e3d6000fd5b505050506040513d601f19601f8201168201806040525081019061030091906103db565b507fa04c965e7d289704527a948915777d68bb4530fb4b08aa935fb958c0b7901ab9833383604051610334939291906104c8565b60405180910390a1505050565b60025481565b600160009054906101000a900473ffffffffffffffffffffffffffffffffffffffff1681565b60035481565b600081359050610382816105aa565b92915050565b600081519050610397816105c1565b92915050565b6000815190506103ac816105d8565b92915050565b6000602082840312156103c457600080fd5b60006103d284828501610373565b91505092915050565b6000602082840312156103ed57600080fd5b60006103fb84828501610388565b91505092915050565b60006020828403121561041657600080fd5b60006104248482850161039d565b91505092915050565b61043681610574565b82525050565b6104458161052c565b82525050565b6104548161051a565b82525050565b6104638161056a565b82525050565b600060208201905061047e600083018461044b565b92915050565b6000602082019050610499600083018461043c565b92915050565b60006040820190506104b4600083018561042d565b6104c1602083018461045a565b9392505050565b60006060820190506104dd600083018661044b565b6104ea602083018561044b565b6104f7604083018461045a565b949350505050565b6000602082019050610514600083018461045a565b92915050565b60006105258261054a565b9050919050565b60006105378261054a565b9050919050565b60008115159050919050565b600073ffffffffffffffffffffffffffffffffffffffff82169050919050565b6000819050919050565b600061057f82610586565b9050919050565b600061059182610598565b9050919050565b60006105a38261054a565b9050919050565b6105b38161051a565b81146105be57600080fd5b50565b6105ca8161053e565b81146105d557600080fd5b50565b6105e18161056a565b81146105ec57600080fd5b5056fea26469706673582212207a954c1087092fdef816903192a3dd0502b672a2c22c4ffd2bfef0145e59aeb664736f6c63430008000033",
  "immutableReferences": {},
  "source": "// SPDX-License-Identifier: UNLICENSED\npragma solidity ^0.8.0;\n\nimport \"@openzeppelin/contracts/access/Ownable.sol\";\n\nimport \"./CollectCoin.sol\";\n\ncontract TimeLockedWallet\n{\n    address public creator;\n    address payable public owner;\n    uint256 public unlockDate;\n    uint256 public createdAt;\n\n    modifier onlyOwner {\n        require(msg.sender == owner);\n        _;\n    }\n\n    \n    event WithdrewTokens(address tokenContract, address to, uint256 amount);\n\n    constructor(address _creator, address payable _owner, uint256 _unlockDate)\n    {\n        creator = _creator;\n        owner = _owner;\n        unlockDate = _unlockDate;\n        createdAt = block.timestamp;\n    }\n\n    receive() external payable\n    {\n        // we do not accept any native coin on this wallet\n        revert();\n    }\n\n    // callable by owner only, after specified time, only for Tokens implementing ERC20\n    function withdrawTokens(address _tokenContract) onlyOwner public \n    {\n       require(block.timestamp >= unlockDate);\n\n       CollectCoin token = CollectCoin(_tokenContract);\n\n       //now send all the token balance\n       uint256 tokenBalance = token.balanceOf(address(this));\n       token.transfer(owner, tokenBalance);\n       emit WithdrewTokens(_tokenContract, msg.sender, tokenBalance);\n    }\n}",
  "sourcePath": "/home/eule/Projects/monaco-market/ethereum/ico/contracts/TimeLockedWallet.sol",
  "compiler": {
    "name": "solc",
    "version": "0.8.0+commit.c7dfd78e.Emscripten.clang"
  },
  "schemaVersion": "3.4.1",
  "updatedAt": "2021-06-25T06:09:22.647Z",
  "devdoc": {
    "kind": "dev",
    "methods": {},
    "version": 1
  },
  "userdoc": {
    "kind": "user",
    "methods": {},
    "version": 1
  }
}