{
  "contractName": "TimeLockedWallet",
  "abi": [
    {
      "inputs": [
        {
          "internalType": "address",
          "name": "_creator",
          "type": "address"
        },
        {
          "internalType": "address payable",
          "name": "_owner",
          "type": "address"
        },
        {
          "internalType": "uint256",
          "name": "_unlockDate",
          "type": "uint256"
        }
      ],
      "stateMutability": "nonpayable",
      "type": "constructor"
    },
    {
      "anonymous": false,
      "inputs": [
        {
          "indexed": false,
          "internalType": "address",
          "name": "tokenContract",
          "type": "address"
        },
        {
          "indexed": false,
          "internalType": "address",
          "name": "to",
          "type": "address"
        },
        {
          "indexed": false,
          "internalType": "uint256",
          "name": "amount",
          "type": "uint256"
        }
      ],
      "name": "WithdrewTokens",
      "type": "event"
    },
    {
      "inputs": [],
      "name": "createdAt",
      "outputs": [
        {
          "internalType": "uint256",
          "name": "",
          "type": "uint256"
        }
      ],
      "stateMutability": "view",
      "type": "function"
    },
    {
      "inputs": [],
      "name": "creator",
      "outputs": [
        {
          "internalType": "address",
          "name": "",
          "type": "address"
        }
      ],
      "stateMutability": "view",
      "type": "function"
    },
    {
      "inputs": [],
      "name": "owner",
      "outputs": [
        {
          "internalType": "address payable",
          "name": "",
          "type": "address"
        }
      ],
      "stateMutability": "view",
      "type": "function"
    },
    {
      "inputs": [],
      "name": "unlockDate",
      "outputs": [
        {
          "internalType": "uint256",
          "name": "",
          "type": "uint256"
        }
      ],
      "stateMutability": "view",
      "type": "function"
    },
    {
      "stateMutability": "payable",
      "type": "receive"
    },
    {
      "inputs": [
        {
          "internalType": "address",
          "name": "_tokenContract",
          "type": "address"
        }
      ],
      "name": "withdrawTokens",
      "outputs": [],
      "stateMutability": "nonpayable",
      "type": "function"
    }
  ],
  "bytecode": "0x608060405234801561001057600080fd5b5060405161083838038061083883398181016040528101906100329190610108565b826000806101000a81548173ffffffffffffffffffffffffffffffffffffffff021916908373ffffffffffffffffffffffffffffffffffffffff16021790555081600160006101000a81548173ffffffffffffffffffffffffffffffffffffffff021916908373ffffffffffffffffffffffffffffffffffffffff16021790555080600281905550426003819055505050506101f3565b6000815190506100d8816101ae565b92915050565b6000815190506100ed816101c5565b92915050565b600081519050610102816101dc565b92915050565b600080600060608486031215610121576101206101a9565b5b600061012f868287016100c9565b9350506020610140868287016100de565b9250506040610151868287016100f3565b9150509250925092565b60006101668261017f565b9050919050565b60006101788261017f565b9050919050565b600073ffffffffffffffffffffffffffffffffffffffff82169050919050565b6000819050919050565b600080fd5b6101b78161015b565b81146101c257600080fd5b50565b6101ce8161016d565b81146101d957600080fd5b50565b6101e58161019f565b81146101f057600080fd5b50565b610636806102026000396000f3fe60806040526004361061004e5760003560e01c806302d05d3f1461005d57806349df728c1461008857806369ac5721146100b15780638da5cb5b146100dc578063cf09e0d01461010757610058565b3661005857600080fd5b600080fd5b34801561006957600080fd5b50610072610132565b60405161007f9190610475565b60405180910390f35b34801561009457600080fd5b506100af60048036038101906100aa91906103b2565b610156565b005b3480156100bd57600080fd5b506100c6610341565b6040516100d3919061050b565b60405180910390f35b3480156100e857600080fd5b506100f1610347565b6040516100fe9190610490565b60405180910390f35b34801561011357600080fd5b5061011c61036d565b604051610129919061050b565b60405180910390f35b60008054906101000a900473ffffffffffffffffffffffffffffffffffffffff1681565b600160009054906101000a900473ffffffffffffffffffffffffffffffffffffffff1673ffffffffffffffffffffffffffffffffffffffff163373ffffffffffffffffffffffffffffffffffffffff16146101b057600080fd5b6002544210156101bf57600080fd5b600081905060008173ffffffffffffffffffffffffffffffffffffffff166370a08231306040518263ffffffff1660e01b81526004016101ff9190610475565b60206040518083038186803b15801561021757600080fd5b505afa15801561022b573d6000803e3d6000fd5b505050506040513d601f19601f8201168201806040525081019061024f919061040c565b90508173ffffffffffffffffffffffffffffffffffffffff1663a9059cbb600160009054906101000a900473ffffffffffffffffffffffffffffffffffffffff16836040518363ffffffff1660e01b81526004016102ae9291906104ab565b602060405180830381600087803b1580156102c857600080fd5b505af11580156102dc573d6000803e3d6000fd5b505050506040513d601f19601f8201168201806040525081019061030091906103df565b507fa04c965e7d289704527a948915777d68bb4530fb4b08aa935fb958c0b7901ab9833383604051610334939291906104d4565b60405180910390a1505050565b60025481565b600160009054906101000a900473ffffffffffffffffffffffffffffffffffffffff1681565b60035481565b600081359050610382816105bb565b92915050565b600081519050610397816105d2565b92915050565b6000815190506103ac816105e9565b92915050565b6000602082840312156103c8576103c76105b6565b5b60006103d684828501610373565b91505092915050565b6000602082840312156103f5576103f46105b6565b5b600061040384828501610388565b91505092915050565b600060208284031215610422576104216105b6565b5b60006104308482850161039d565b91505092915050565b61044281610580565b82525050565b61045181610538565b82525050565b61046081610526565b82525050565b61046f81610576565b82525050565b600060208201905061048a6000830184610457565b92915050565b60006020820190506104a56000830184610448565b92915050565b60006040820190506104c06000830185610439565b6104cd6020830184610466565b9392505050565b60006060820190506104e96000830186610457565b6104f66020830185610457565b6105036040830184610466565b949350505050565b60006020820190506105206000830184610466565b92915050565b600061053182610556565b9050919050565b600061054382610556565b9050919050565b60008115159050919050565b600073ffffffffffffffffffffffffffffffffffffffff82169050919050565b6000819050919050565b600061058b82610592565b9050919050565b600061059d826105a4565b9050919050565b60006105af82610556565b9050919050565b600080fd5b6105c481610526565b81146105cf57600080fd5b50565b6105db8161054a565b81146105e657600080fd5b50565b6105f281610576565b81146105fd57600080fd5b5056fea2646970667358221220100ea29c42e2ff2473c7ecf415fb3c80fbff9e321594a8982316692c1d8fa01564736f6c63430008060033",
  "immutableReferences": {},
  "source": "// SPDX-License-Identifier: UNLICENSED\npragma solidity ^0.8.0;\n\nimport \"@openzeppelin/contracts/access/Ownable.sol\";\n\nimport \"./CollectCoin.sol\";\n\ncontract TimeLockedWallet\n{\n    address public creator;\n    address payable public owner;\n    uint256 public unlockDate;\n    uint256 public createdAt;\n\n    modifier onlyOwner {\n        require(msg.sender == owner);\n        _;\n    }\n\n    \n    event WithdrewTokens(address tokenContract, address to, uint256 amount);\n\n    constructor(address _creator, address payable _owner, uint256 _unlockDate)\n    {\n        creator = _creator;\n        owner = _owner;\n        unlockDate = _unlockDate;\n        createdAt = block.timestamp;\n    }\n\n    receive() external payable\n    {\n        // we do not accept any native coin on this wallet\n        revert();\n    }\n\n    // callable by owner only, after specified time, only for Tokens implementing ERC20\n    function withdrawTokens(address _tokenContract) onlyOwner public \n    {\n       require(block.timestamp >= unlockDate);\n\n       CollectCoin token = CollectCoin(_tokenContract);\n\n       //now send all the token balance\n       uint256 tokenBalance = token.balanceOf(address(this));\n       token.transfer(owner, tokenBalance);\n       emit WithdrewTokens(_tokenContract, msg.sender, tokenBalance);\n    }\n}",
  "sourcePath": "/home/eule/Projects/ico-contracts/ethereum/ico/contracts/TimeLockedWallet.sol",
  "compiler": {
    "name": "solc",
    "version": "0.8.6+commit.11564f7e.Emscripten.clang"
  },
  "schemaVersion": "3.4.1",
  "updatedAt": "2021-10-11T21:55:08.570Z",
  "devdoc": {
    "kind": "dev",
    "methods": {},
    "version": 1
  },
  "userdoc": {
    "kind": "user",
    "methods": {},
    "version": 1
  }
}