{
  "contractName": "TimeLockedWalletFactory",
  "abi": [
    {
      "inputs": [],
      "stateMutability": "nonpayable",
      "type": "constructor"
    },
    {
      "anonymous": false,
      "inputs": [
        {
          "indexed": false,
          "internalType": "address",
          "name": "wallet",
          "type": "address"
        },
        {
          "indexed": false,
          "internalType": "address",
          "name": "from",
          "type": "address"
        },
        {
          "indexed": false,
          "internalType": "address",
          "name": "to",
          "type": "address"
        },
        {
          "indexed": false,
          "internalType": "uint256",
          "name": "createdAt",
          "type": "uint256"
        }
      ],
      "name": "Created",
      "type": "event"
    },
    {
      "anonymous": false,
      "inputs": [
        {
          "indexed": false,
          "internalType": "address",
          "name": "wallet",
          "type": "address"
        },
        {
          "indexed": false,
          "internalType": "address",
          "name": "from",
          "type": "address"
        },
        {
          "indexed": false,
          "internalType": "address",
          "name": "to",
          "type": "address"
        },
        {
          "indexed": false,
          "internalType": "uint256",
          "name": "createdAt",
          "type": "uint256"
        }
      ],
      "name": "CreatedMono",
      "type": "event"
    },
    {
      "inputs": [],
      "name": "owner",
      "outputs": [
        {
          "internalType": "address",
          "name": "",
          "type": "address"
        }
      ],
      "stateMutability": "view",
      "type": "function"
    },
    {
      "stateMutability": "payable",
      "type": "receive"
    },
    {
      "inputs": [
        {
          "internalType": "address",
          "name": "_user",
          "type": "address"
        }
      ],
      "name": "getWallets",
      "outputs": [
        {
          "internalType": "address[]",
          "name": "",
          "type": "address[]"
        }
      ],
      "stateMutability": "view",
      "type": "function"
    },
    {
      "inputs": [
        {
          "internalType": "address payable",
          "name": "_wallet",
          "type": "address"
        },
        {
          "internalType": "uint256",
          "name": "_unlockDate",
          "type": "uint256"
        }
      ],
      "name": "initializeTimeLockedWallet",
      "outputs": [],
      "stateMutability": "nonpayable",
      "type": "function"
    },
    {
      "inputs": [
        {
          "internalType": "address",
          "name": "_owner",
          "type": "address"
        },
        {
          "internalType": "uint256",
          "name": "_unlockDate",
          "type": "uint256"
        },
        {
          "internalType": "uint256",
          "name": "_unlockPeriod",
          "type": "uint256"
        },
        {
          "internalType": "uint256",
          "name": "_unlockPercentage",
          "type": "uint256"
        }
      ],
      "name": "newPeriodicTimeLockedWallet",
      "outputs": [
        {
          "internalType": "address",
          "name": "wallet",
          "type": "address"
        }
      ],
      "stateMutability": "nonpayable",
      "type": "function"
    },
    {
      "inputs": [
        {
          "internalType": "address",
          "name": "_tokenOwner",
          "type": "address"
        },
        {
          "internalType": "address",
          "name": "_icoContract",
          "type": "address"
        },
        {
          "internalType": "uint256",
          "name": "_unlockDate",
          "type": "uint256"
        },
        {
          "internalType": "uint256",
          "name": "_unlockPeriod",
          "type": "uint256"
        },
        {
          "internalType": "uint256",
          "name": "_unlockPercentage",
          "type": "uint256"
        }
      ],
      "name": "newPeriodicTimeLockedMonoWallet",
      "outputs": [
        {
          "internalType": "address",
          "name": "wallet",
          "type": "address"
        }
      ],
      "stateMutability": "nonpayable",
      "type": "function"
    }
  ],
  "bytecode": "0x608060405234801561001057600080fd5b50336000806101000a81548173ffffffffffffffffffffffffffffffffffffffff021916908373ffffffffffffffffffffffffffffffffffffffff160217905550612cf7806100606000396000f3fe608060405260043610620000555760003560e01c806314970c84146200006557806338d41d1714620000a9578063422c29a414620000d75780638da5cb5b146200011b578063c63340db146200014b5762000060565b366200006057600080fd5b600080fd5b3480156200007257600080fd5b506200009160048036038101906200008b919062000862565b6200018f565b604051620000a09190620009c3565b60405180910390f35b348015620000b657600080fd5b50620000d56004803603810190620000cf919062000793565b620003c9565b005b348015620000e457600080fd5b50620001036004803603810190620000fd919062000761565b620004d3565b60405162000112919062000ad7565b60405180910390f35b3480156200012857600080fd5b5062000133620005a2565b604051620001429190620009c3565b60405180910390f35b3480156200015857600080fd5b50620001776004803603810190620001719190620007da565b620005c6565b604051620001869190620009c3565b60405180910390f35b60008060009054906101000a900473ffffffffffffffffffffffffffffffffffffffff1673ffffffffffffffffffffffffffffffffffffffff163373ffffffffffffffffffffffffffffffffffffffff161462000223576040517f08c379a00000000000000000000000000000000000000000000000000000000081526004016200021a9062000afb565b60405180910390fd5b6000858484604051620002369062000700565b620002449392919062000a9a565b604051809103906000f08015801562000261573d6000803e3d6000fd5b5090506000851115620002de578073ffffffffffffffffffffffffffffffffffffffff1663fe4b84df866040518263ffffffff1660e01b8152600401620002a9919062000b1d565b600060405180830381600087803b158015620002c457600080fd5b505af1158015620002d9573d6000803e3d6000fd5b505050505b809150600160008773ffffffffffffffffffffffffffffffffffffffff1673ffffffffffffffffffffffffffffffffffffffff168152602001908152602001600020829080600181540180825580915050600190039060005260206000200160009091909190916101000a81548173ffffffffffffffffffffffffffffffffffffffff021916908373ffffffffffffffffffffffffffffffffffffffff1602179055507f9f94c44dd7c05df7528cfb5aedb137fa0cee080fb3fb54cec59f157b4424b18a82338842604051620003b89493929190620009e0565b60405180910390a150949350505050565b60008054906101000a900473ffffffffffffffffffffffffffffffffffffffff1673ffffffffffffffffffffffffffffffffffffffff163373ffffffffffffffffffffffffffffffffffffffff16146200045a576040517f08c379a0000000000000000000000000000000000000000000000000000000008152600401620004519062000afb565b60405180910390fd5b60008290508073ffffffffffffffffffffffffffffffffffffffff1663fe4b84df836040518263ffffffff1660e01b81526004016200049a919062000b1d565b600060405180830381600087803b158015620004b557600080fd5b505af1158015620004ca573d6000803e3d6000fd5b50505050505050565b6060600160008373ffffffffffffffffffffffffffffffffffffffff1673ffffffffffffffffffffffffffffffffffffffff1681526020019081526020016000208054806020026020016040519081016040528092919081815260200182805480156200059657602002820191906000526020600020905b8160009054906101000a900473ffffffffffffffffffffffffffffffffffffffff1673ffffffffffffffffffffffffffffffffffffffff16815260200190600101908083116200054b575b50505050509050919050565b60008054906101000a900473ffffffffffffffffffffffffffffffffffffffff1681565b600080859050600033828787878c604051620005e2906200070e565b620005f39695949392919062000a2d565b604051809103906000f08015801562000610573d6000803e3d6000fd5b509050809250600160003373ffffffffffffffffffffffffffffffffffffffff1673ffffffffffffffffffffffffffffffffffffffff168152602001908152602001600020839080600181540180825580915050600190039060005260206000200160009091909190916101000a81548173ffffffffffffffffffffffffffffffffffffffff021916908373ffffffffffffffffffffffffffffffffffffffff1602179055507f7b7e3969279af3fda11f0fa5cc15a383e2f6b728c911e3b6fe065dc0f30d190883338942604051620006ed9493929190620009e0565b60405180910390a1505095945050505050565b61122b8062000c7b83390190565b610e1c8062001ea683390190565b6000813590506200072d8162000c2c565b92915050565b600081359050620007448162000c46565b92915050565b6000813590506200075b8162000c60565b92915050565b6000602082840312156200077a576200077962000bfe565b5b60006200078a848285016200071c565b91505092915050565b60008060408385031215620007ad57620007ac62000bfe565b5b6000620007bd8582860162000733565b9250506020620007d0858286016200074a565b9150509250929050565b600080600080600060a08688031215620007f957620007f862000bfe565b5b600062000809888289016200071c565b95505060206200081c888289016200071c565b94505060406200082f888289016200074a565b935050606062000842888289016200074a565b925050608062000855888289016200074a565b9150509295509295909350565b600080600080608085870312156200087f576200087e62000bfe565b5b60006200088f878288016200071c565b9450506020620008a2878288016200074a565b9350506040620008b5878288016200074a565b9250506060620008c8878288016200074a565b91505092959194509250565b6000620008e28383620008ee565b60208301905092915050565b620008f98162000b84565b82525050565b6200090a8162000b84565b82525050565b60006200091d8262000b4a565b62000929818562000b62565b9350620009368362000b3a565b8060005b838110156200096d578151620009518882620008d4565b97506200095e8362000b55565b9250506001810190506200093a565b5085935050505092915050565b620009858162000bd6565b82525050565b60006200099a600a8362000b73565b9150620009a78262000c03565b602082019050919050565b620009bd8162000bcc565b82525050565b6000602082019050620009da6000830184620008ff565b92915050565b6000608082019050620009f76000830187620008ff565b62000a066020830186620008ff565b62000a156040830185620008ff565b62000a246060830184620009b2565b95945050505050565b600060c08201905062000a446000830189620008ff565b62000a5360208301886200097a565b62000a626040830187620009b2565b62000a716060830186620009b2565b62000a806080830185620009b2565b62000a8f60a0830184620008ff565b979650505050505050565b600060608201905062000ab16000830186620008ff565b62000ac06020830185620009b2565b62000acf6040830184620009b2565b949350505050565b6000602082019050818103600083015262000af3818462000910565b905092915050565b6000602082019050818103600083015262000b16816200098b565b9050919050565b600060208201905062000b346000830184620009b2565b92915050565b6000819050602082019050919050565b600081519050919050565b6000602082019050919050565b600082825260208201905092915050565b600082825260208201905092915050565b600062000b918262000bac565b9050919050565b600062000ba58262000bac565b9050919050565b600073ffffffffffffffffffffffffffffffffffffffff82169050919050565b6000819050919050565b600062000be38262000bea565b9050919050565b600062000bf78262000bac565b9050919050565b600080fd5b7f4f6e6c79204f776e657200000000000000000000000000000000000000000000600082015250565b62000c378162000b84565b811462000c4357600080fd5b50565b62000c518162000b98565b811462000c5d57600080fd5b50565b62000c6b8162000bcc565b811462000c7757600080fd5b5056fe60806040523480156200001157600080fd5b506040516200122b3803806200122b83398181016040528101906200003791906200011f565b33600160006101000a81548173ffffffffffffffffffffffffffffffffffffffff021916908373ffffffffffffffffffffffffffffffffffffffff16021790555082600060016101000a81548173ffffffffffffffffffffffffffffffffffffffff021916908373ffffffffffffffffffffffffffffffffffffffff16021790555060008060006101000a81548160ff021916908315150217905550426003819055508160048190555080600581905550505050620001f2565b6000815190506200010281620001be565b92915050565b6000815190506200011981620001d8565b92915050565b6000806000606084860312156200013b576200013a620001b9565b5b60006200014b86828701620000f1565b93505060206200015e8682870162000108565b9250506040620001718682870162000108565b9150509250925092565b600062000188826200018f565b9050919050565b600073ffffffffffffffffffffffffffffffffffffffff82169050919050565b6000819050919050565b600080fd5b620001c9816200017b565b8114620001d557600080fd5b50565b620001e381620001af565b8114620001ef57600080fd5b50565b61102980620002026000396000f3fe6080604052600436106100ab5760003560e01c80638da5cb5b116100645780638da5cb5b146101ba578063bd7001ff146101e5578063c884ef8314610222578063cf09e0d01461025f578063e3d670d71461028a578063fe4b84df146102c7576100b5565b806302d05d3f146100ba57806306b091f9146100e5578063158ef93e1461010e57806320d3a0b4146101395780633b3fba161461016457806369ac57211461018f576100b5565b366100b557600080fd5b600080fd5b3480156100c657600080fd5b506100cf6102f0565b6040516100dc9190610b44565b60405180910390f35b3480156100f157600080fd5b5061010c600480360381019061010791906109c4565b610316565b005b34801561011a57600080fd5b5061012361056c565b6040516101309190610bbf565b60405180910390f35b34801561014557600080fd5b5061014e61057d565b60405161015b9190610c5a565b60405180910390f35b34801561017057600080fd5b50610179610583565b6040516101869190610c5a565b60405180910390f35b34801561019b57600080fd5b506101a4610589565b6040516101b19190610c5a565b60405180910390f35b3480156101c657600080fd5b506101cf61058f565b6040516101dc9190610b44565b60405180910390f35b3480156101f157600080fd5b5061020c60048036038101906102079190610997565b6105b5565b6040516102199190610c5a565b60405180910390f35b34801561022e57600080fd5b5061024960048036038101906102449190610997565b61075b565b6040516102569190610c5a565b60405180910390f35b34801561026b57600080fd5b506102746107a4565b6040516102819190610c5a565b60405180910390f35b34801561029657600080fd5b506102b160048036038101906102ac9190610997565b6107aa565b6040516102be9190610c5a565b60405180910390f35b3480156102d357600080fd5b506102ee60048036038101906102e99190610a31565b610841565b005b600160009054906101000a900473ffffffffffffffffffffffffffffffffffffffff1681565b600060019054906101000a900473ffffffffffffffffffffffffffffffffffffffff1673ffffffffffffffffffffffffffffffffffffffff163373ffffffffffffffffffffffffffffffffffffffff16146103a6576040517f08c379a000000000000000000000000000000000000000000000000000000000815260040161039d90610c3a565b60405180910390fd5b60006103b1836105b5565b9050808211156103f6576040517f08c379a00000000000000000000000000000000000000000000000000000000081526004016103ed90610c1a565b60405180910390fd5b81600760008573ffffffffffffffffffffffffffffffffffffffff1673ffffffffffffffffffffffffffffffffffffffff16815260200190815260200160002060008282546104459190610c86565b9250508190555060008390508073ffffffffffffffffffffffffffffffffffffffff1663a9059cbb600060019054906101000a900473ffffffffffffffffffffffffffffffffffffffff16856040518363ffffffff1660e01b81526004016104ae929190610b96565b602060405180830381600087803b1580156104c857600080fd5b505af11580156104dc573d6000803e3d6000fd5b505050506040513d601f19601f820116820180604052508101906105009190610a04565b61050957600080fd5b7fa04c965e7d289704527a948915777d68bb4530fb4b08aa935fb958c0b7901ab984600060019054906101000a900473ffffffffffffffffffffffffffffffffffffffff168460405161055e93929190610b5f565b60405180910390a150505050565b60008054906101000a900460ff1681565b60045481565b60055481565b60025481565b600060019054906101000a900473ffffffffffffffffffffffffffffffffffffffff1681565b60008060009054906101000a900460ff166105d35760009050610756565b6000600760008473ffffffffffffffffffffffffffffffffffffffff1673ffffffffffffffffffffffffffffffffffffffff16815260200190815260200160002054905060008390506000828273ffffffffffffffffffffffffffffffffffffffff166370a08231306040518263ffffffff1660e01b81526004016106589190610b44565b60206040518083038186803b15801561067057600080fd5b505afa158015610684573d6000803e3d6000fd5b505050506040513d601f19601f820116820180604052508101906106a89190610a5e565b6106b29190610c86565b90506000600254426106c49190610d67565b905060008112156106dc576000945050505050610756565b60006001600454836106ee9190610cdc565b6106f89190610c86565b9050600060646005548361070c9190610d0d565b101561072557600554826107209190610d0d565b610728565b60645b905085606485836107399190610d0d565b6107439190610cdc565b61074d9190610dfb565b96505050505050505b919050565b6000600760008373ffffffffffffffffffffffffffffffffffffffff1673ffffffffffffffffffffffffffffffffffffffff168152602001908152602001600020549050919050565b60035481565b6000808290508073ffffffffffffffffffffffffffffffffffffffff166370a08231306040518263ffffffff1660e01b81526004016107e99190610b44565b60206040518083038186803b15801561080157600080fd5b505afa158015610815573d6000803e3d6000fd5b505050506040513d601f19601f820116820180604052508101906108399190610a5e565b915050919050565b600160009054906101000a900473ffffffffffffffffffffffffffffffffffffffff1673ffffffffffffffffffffffffffffffffffffffff163373ffffffffffffffffffffffffffffffffffffffff16146108d1576040517f08c379a00000000000000000000000000000000000000000000000000000000081526004016108c890610bfa565b60405180910390fd5b60008054906101000a900460ff161561091f576040517f08c379a000000000000000000000000000000000000000000000000000000000815260040161091690610bda565b60405180910390fd5b8060028190555060016000806101000a81548160ff02191690831515021790555050565b60008135905061095281610fae565b92915050565b60008151905061096781610fc5565b92915050565b60008135905061097c81610fdc565b92915050565b60008151905061099181610fdc565b92915050565b6000602082840312156109ad576109ac610edf565b5b60006109bb84828501610943565b91505092915050565b600080604083850312156109db576109da610edf565b5b60006109e985828601610943565b92505060206109fa8582860161096d565b9150509250929050565b600060208284031215610a1a57610a19610edf565b5b6000610a2884828501610958565b91505092915050565b600060208284031215610a4757610a46610edf565b5b6000610a558482850161096d565b91505092915050565b600060208284031215610a7457610a73610edf565b5b6000610a8284828501610982565b91505092915050565b610a9481610e2f565b82525050565b610aa381610e41565b82525050565b6000610ab6601383610c75565b9150610ac182610ee4565b602082019050919050565b6000610ad9600c83610c75565b9150610ae482610f0d565b602082019050919050565b6000610afc602583610c75565b9150610b0782610f36565b604082019050919050565b6000610b1f600a83610c75565b9150610b2a82610f85565b602082019050919050565b610b3e81610e77565b82525050565b6000602082019050610b596000830184610a8b565b92915050565b6000606082019050610b746000830186610a8b565b610b816020830185610a8b565b610b8e6040830184610b35565b949350505050565b6000604082019050610bab6000830185610a8b565b610bb86020830184610b35565b9392505050565b6000602082019050610bd46000830184610a9a565b92915050565b60006020820190508181036000830152610bf381610aa9565b9050919050565b60006020820190508181036000830152610c1381610acc565b9050919050565b60006020820190508181036000830152610c3381610aef565b9050919050565b60006020820190508181036000830152610c5381610b12565b9050919050565b6000602082019050610c6f6000830184610b35565b92915050565b600082825260208201905092915050565b6000610c9182610e77565b9150610c9c83610e77565b9250827fffffffffffffffffffffffffffffffffffffffffffffffffffffffffffffffff03821115610cd157610cd0610e81565b5b828201905092915050565b6000610ce782610e77565b9150610cf283610e77565b925082610d0257610d01610eb0565b5b828204905092915050565b6000610d1882610e77565b9150610d2383610e77565b9250817fffffffffffffffffffffffffffffffffffffffffffffffffffffffffffffffff0483118215151615610d5c57610d5b610e81565b5b828202905092915050565b6000610d7282610e4d565b9150610d7d83610e4d565b9250827f800000000000000000000000000000000000000000000000000000000000000001821260008412151615610db857610db7610e81565b5b827f7fffffffffffffffffffffffffffffffffffffffffffffffffffffffffffffff018213600084121615610df057610def610e81565b5b828203905092915050565b6000610e0682610e77565b9150610e1183610e77565b925082821015610e2457610e23610e81565b5b828203905092915050565b6000610e3a82610e57565b9050919050565b60008115159050919050565b6000819050919050565b600073ffffffffffffffffffffffffffffffffffffffff82169050919050565b6000819050919050565b7f4e487b7100000000000000000000000000000000000000000000000000000000600052601160045260246000fd5b7f4e487b7100000000000000000000000000000000000000000000000000000000600052601260045260246000fd5b600080fd5b7f416c726561647920496e697469616c697a656400000000000000000000000000600082015250565b7f4f6e6c792043726561746f720000000000000000000000000000000000000000600082015250565b7f4e6f7420656e6f7567687420756e6c6f636b656420746f6b656e73206176616960008201527f6c61626c65000000000000000000000000000000000000000000000000000000602082015250565b7f4f6e6c79204f776e657200000000000000000000000000000000000000000000600082015250565b610fb781610e2f565b8114610fc257600080fd5b50565b610fce81610e41565b8114610fd957600080fd5b50565b610fe581610e77565b8114610ff057600080fd5b5056fea26469706673582212206d80dccc4a29dfa62e0ff73c19b449386de6adf29a2ca2b5f79fe91ef1c5b8da64736f6c6343000806003360806040523480156200001157600080fd5b5060405162000e1c38038062000e1c833981810160405281019062000037919062000166565b856000806101000a81548173ffffffffffffffffffffffffffffffffffffffff021916908373ffffffffffffffffffffffffffffffffffffffff16021790555084600660006101000a81548173ffffffffffffffffffffffffffffffffffffffff021916908373ffffffffffffffffffffffffffffffffffffffff160217905550836001819055504260028190555080600560006101000a81548173ffffffffffffffffffffffffffffffffffffffff021916908373ffffffffffffffffffffffffffffffffffffffff1602179055508260038190555081600481905550505050505050620002a7565b600081519050620001328162000259565b92915050565b600081519050620001498162000273565b92915050565b60008151905062000160816200028d565b92915050565b60008060008060008060c0878903121562000186576200018562000254565b5b60006200019689828a0162000121565b9650506020620001a989828a0162000138565b9550506040620001bc89828a016200014f565b9450506060620001cf89828a016200014f565b9350506080620001e289828a016200014f565b92505060a0620001f589828a0162000121565b9150509295509295509295565b60006200020f826200022a565b9050919050565b6000620002238262000202565b9050919050565b600073ffffffffffffffffffffffffffffffffffffffff82169050919050565b6000819050919050565b600080fd5b620002648162000202565b81146200027057600080fd5b50565b6200027e8162000216565b81146200028a57600080fd5b50565b62000298816200024a565b8114620002a457600080fd5b50565b610b6580620002b76000396000f3fe6080604052600436106100955760003560e01c806369ac57211161005957806369ac572114610179578063b69ef8a8146101a4578063c66e4095146101cf578063cf09e0d0146101fa578063e834a834146102255761009f565b806302d05d3f146100a457806320d3a0b4146100cf5780633b3fba16146100fa57806349df728c1461012557806363f5de761461014e5761009f565b3661009f57600080fd5b600080fd5b3480156100b057600080fd5b506100b9610250565b6040516100c691906107e0565b60405180910390f35b3480156100db57600080fd5b506100e4610274565b6040516100f1919061084d565b60405180910390f35b34801561010657600080fd5b5061010f61027a565b60405161011c919061084d565b60405180910390f35b34801561013157600080fd5b5061014c6004803603810190610147919061072c565b610280565b005b34801561015a57600080fd5b506101636103e1565b604051610170919061084d565b60405180910390f35b34801561018557600080fd5b5061018e610578565b60405161019b919061084d565b60405180910390f35b3480156101b057600080fd5b506101b961057e565b6040516101c6919061084d565b60405180910390f35b3480156101db57600080fd5b506101e461067a565b6040516101f19190610832565b60405180910390f35b34801561020657600080fd5b5061020f6106a0565b60405161021c919061084d565b60405180910390f35b34801561023157600080fd5b5061023a6106a6565b604051610247919061084d565b60405180910390f35b60008054906101000a900473ffffffffffffffffffffffffffffffffffffffff1681565b60035481565b60045481565b6000819050600061028f6103e1565b905080600760003373ffffffffffffffffffffffffffffffffffffffff1673ffffffffffffffffffffffffffffffffffffffff16815260200190815260200160002060008282546102e09190610868565b925050819055508173ffffffffffffffffffffffffffffffffffffffff166323b872dd600560009054906101000a900473ffffffffffffffffffffffffffffffffffffffff1633846040518463ffffffff1660e01b8152600401610346939291906107fb565b602060405180830381600087803b15801561036057600080fd5b505af1158015610374573d6000803e3d6000fd5b505050506040513d601f19601f820116820180604052508101906103989190610759565b6103a157600080fd5b7fa04c965e7d289704527a948915777d68bb4530fb4b08aa935fb958c0b7901ab98333836040516103d4939291906107fb565b60405180910390a1505050565b600080600660009054906101000a900473ffffffffffffffffffffffffffffffffffffffff1673ffffffffffffffffffffffffffffffffffffffff166397b150ca336040518263ffffffff1660e01b815260040161043f91906107e0565b60206040518083038186803b15801561045757600080fd5b505afa15801561046b573d6000803e3d6000fd5b505050506040513d601f19601f8201168201806040525081019061048f9190610786565b90506000600760003373ffffffffffffffffffffffffffffffffffffffff1673ffffffffffffffffffffffffffffffffffffffff1681526020019081526020016000205490506000600154426104e59190610949565b905060008112156104fc5760009350505050610575565b600060016003548361050e91906108be565b6105189190610868565b9050600060646004548361052c91906108ef565b1015610545576004548261054091906108ef565b610548565b60645b9050836064868361055991906108ef565b61056391906108be565b61056d91906109dd565b955050505050505b90565b60015481565b6000600760003373ffffffffffffffffffffffffffffffffffffffff1673ffffffffffffffffffffffffffffffffffffffff16815260200190815260200160002054600660009054906101000a900473ffffffffffffffffffffffffffffffffffffffff1673ffffffffffffffffffffffffffffffffffffffff166397b150ca336040518263ffffffff1660e01b815260040161061b91906107e0565b60206040518083038186803b15801561063357600080fd5b505afa158015610647573d6000803e3d6000fd5b505050506040513d601f19601f8201168201806040525081019061066b9190610786565b61067591906109dd565b905090565b600660009054906101000a900473ffffffffffffffffffffffffffffffffffffffff1681565b60025481565b6000600760003373ffffffffffffffffffffffffffffffffffffffff1673ffffffffffffffffffffffffffffffffffffffff16815260200190815260200160002054905090565b6000813590506106fc81610aea565b92915050565b60008151905061071181610b01565b92915050565b60008151905061072681610b18565b92915050565b60006020828403121561074257610741610ae5565b5b6000610750848285016106ed565b91505092915050565b60006020828403121561076f5761076e610ae5565b5b600061077d84828501610702565b91505092915050565b60006020828403121561079c5761079b610ae5565b5b60006107aa84828501610717565b91505092915050565b6107bc81610a11565b82525050565b6107cb81610a63565b82525050565b6107da81610a59565b82525050565b60006020820190506107f560008301846107b3565b92915050565b600060608201905061081060008301866107b3565b61081d60208301856107b3565b61082a60408301846107d1565b949350505050565b600060208201905061084760008301846107c2565b92915050565b600060208201905061086260008301846107d1565b92915050565b600061087382610a59565b915061087e83610a59565b9250827fffffffffffffffffffffffffffffffffffffffffffffffffffffffffffffffff038211156108b3576108b2610a87565b5b828201905092915050565b60006108c982610a59565b91506108d483610a59565b9250826108e4576108e3610ab6565b5b828204905092915050565b60006108fa82610a59565b915061090583610a59565b9250817fffffffffffffffffffffffffffffffffffffffffffffffffffffffffffffffff048311821515161561093e5761093d610a87565b5b828202905092915050565b600061095482610a2f565b915061095f83610a2f565b9250827f80000000000000000000000000000000000000000000000000000000000000000182126000841215161561099a57610999610a87565b5b827f7fffffffffffffffffffffffffffffffffffffffffffffffffffffffffffffff0182136000841216156109d2576109d1610a87565b5b828203905092915050565b60006109e882610a59565b91506109f383610a59565b925082821015610a0657610a05610a87565b5b828203905092915050565b6000610a1c82610a39565b9050919050565b60008115159050919050565b6000819050919050565b600073ffffffffffffffffffffffffffffffffffffffff82169050919050565b6000819050919050565b6000610a6e82610a75565b9050919050565b6000610a8082610a39565b9050919050565b7f4e487b7100000000000000000000000000000000000000000000000000000000600052601160045260246000fd5b7f4e487b7100000000000000000000000000000000000000000000000000000000600052601260045260246000fd5b600080fd5b610af381610a11565b8114610afe57600080fd5b50565b610b0a81610a23565b8114610b1557600080fd5b50565b610b2181610a59565b8114610b2c57600080fd5b5056fea264697066735822122058b97c6040b9273676235589a4d803a1ef51fc6e3f1e5517ecb11c342500ec7864736f6c63430008060033a26469706673582212204ffcf08787dd3d7602475acabd88cab14931f14ac4e4fb5dd446e8332f47507164736f6c63430008060033",
  "immutableReferences": {},
  "source": "// SPDX-License-Identifier: UNLICENSED\npragma solidity ^0.8.6;\n\nimport \"./PeriodicTimeLockedWallet.sol\";\nimport \"./PeriodicTimeLockedMonoWallet.sol\";\n\ncontract TimeLockedWalletFactory {\n \n    address public owner;\n    mapping(address => address[]) wallets;\n\n    event Created(address wallet, address from, address to, uint256 createdAt);\n    event CreatedMono(address wallet, address from, address to, uint256 createdAt);\n\n    modifier onlyOwner {\n        require(msg.sender == owner, \"Only Owner\");\n        _;\n    }\n\n    constructor()\n    {\n        owner = msg.sender;\n    }\n\n    function getWallets(address _user) \n        public\n        view\n        returns(address[] memory)\n    {\n        return wallets[_user];\n    }\n\n    /**\n    * Initializes a time locked wallet that has been created by this factory.\n    *\n    * The owner of the factory can trigger a call on a wallet that is uninitialized and has been created by this factory.\n    * @param _wallet The unitialized TimeLockedWallet contract.\n    * @param _unlockDate The unlock date that is set to the wallet.\n    */\n    function initializeTimeLockedWallet(address payable _wallet, uint256 _unlockDate) public onlyOwner {\n        PeriodicTimeLockedWallet wallet = PeriodicTimeLockedWallet(_wallet);\n\n        wallet.initialize(_unlockDate);\n    }\n\n    function newPeriodicTimeLockedWallet(address _owner, uint256 _unlockDate, uint256 _unlockPeriod, uint _unlockPercentage)\n        public onlyOwner\n        returns(address wallet)\n    {\n        // Create new wallet.\n        PeriodicTimeLockedWallet tlwallet = new PeriodicTimeLockedWallet(_owner, _unlockPeriod, _unlockPercentage);\n        \n        if(_unlockDate > 0) {\n            tlwallet.initialize(_unlockDate);\n        }\n\n        wallet = address(tlwallet);\n\n        // Add wallet to owner's wallets.\n        wallets[_owner].push(wallet);\n\n        // Emit event.\n        emit Created(wallet, msg.sender, _owner, block.timestamp);\n    }\n\n    function newPeriodicTimeLockedMonoWallet(address _tokenOwner, address _icoContract, uint256 _unlockDate, uint256 _unlockPeriod, uint _unlockPercentage)\n        public\n        returns(address wallet)\n    {\n        ICollectCoinIco ico = ICollectCoinIco(_icoContract);\n\n        // Create new wallet.\n        PeriodicTimeLockedMonoWallet tlwallet = new PeriodicTimeLockedMonoWallet(msg.sender, ico, _unlockDate, _unlockPeriod, _unlockPercentage, _tokenOwner);\n        \n        wallet = address(tlwallet);\n\n        // Add wallet to sender's wallets.\n        wallets[msg.sender].push(wallet);\n\n        // Emit event.\n        emit CreatedMono(wallet, msg.sender, _icoContract, block.timestamp);\n    }\n\n    // Prevents accidental sending of ether to the factory\n    receive () payable external {\n        revert();\n    }\n\n    \n}",
  "sourcePath": "/home/eule/Projects/ico-contracts/ethereum/ico/contracts/TimeLockedWalletFactory.sol",
  "compiler": {
    "name": "solc",
    "version": "0.8.6+commit.11564f7e.Emscripten.clang"
  },
  "schemaVersion": "3.4.1",
  "updatedAt": "2021-10-15T09:48:05.014Z",
  "devdoc": {
    "kind": "dev",
    "methods": {
      "initializeTimeLockedWallet(address,uint256)": {
        "params": {
          "_unlockDate": "The unlock date that is set to the wallet.",
          "_wallet": "The unitialized TimeLockedWallet contract."
        }
      }
    },
    "version": 1
  },
  "userdoc": {
    "kind": "user",
    "methods": {
      "initializeTimeLockedWallet(address,uint256)": {
        "notice": "Initializes a time locked wallet that has been created by this factory. The owner of the factory can trigger a call on a wallet that is uninitialized and has been created by this factory."
      }
    },
    "version": 1
  }
}