{
  "contractName": "TimeLockedWalletFactory",
  "abi": [
    {
      "inputs": [],
      "stateMutability": "nonpayable",
      "type": "constructor"
    },
    {
      "anonymous": false,
      "inputs": [
        {
          "indexed": false,
          "internalType": "address",
          "name": "wallet",
          "type": "address"
        },
        {
          "indexed": false,
          "internalType": "address",
          "name": "from",
          "type": "address"
        },
        {
          "indexed": false,
          "internalType": "address",
          "name": "to",
          "type": "address"
        },
        {
          "indexed": false,
          "internalType": "uint256",
          "name": "createdAt",
          "type": "uint256"
        }
      ],
      "name": "Created",
      "type": "event"
    },
    {
      "anonymous": false,
      "inputs": [
        {
          "indexed": false,
          "internalType": "address",
          "name": "wallet",
          "type": "address"
        },
        {
          "indexed": false,
          "internalType": "address",
          "name": "from",
          "type": "address"
        },
        {
          "indexed": false,
          "internalType": "address",
          "name": "to",
          "type": "address"
        },
        {
          "indexed": false,
          "internalType": "uint256",
          "name": "createdAt",
          "type": "uint256"
        }
      ],
      "name": "CreatedMono",
      "type": "event"
    },
    {
      "inputs": [],
      "name": "owner",
      "outputs": [
        {
          "internalType": "address",
          "name": "",
          "type": "address"
        }
      ],
      "stateMutability": "view",
      "type": "function",
      "constant": true
    },
    {
      "stateMutability": "payable",
      "type": "receive",
      "payable": true
    },
    {
      "inputs": [
        {
          "internalType": "address",
          "name": "_user",
          "type": "address"
        }
      ],
      "name": "getWallets",
      "outputs": [
        {
          "internalType": "address[]",
          "name": "",
          "type": "address[]"
        }
      ],
      "stateMutability": "view",
      "type": "function",
      "constant": true
    },
    {
      "inputs": [
        {
          "internalType": "address",
          "name": "_owner",
          "type": "address"
        },
        {
          "internalType": "uint256",
          "name": "_lockDate",
          "type": "uint256"
        },
        {
          "internalType": "uint256",
          "name": "_unlockPeriod",
          "type": "uint256"
        },
        {
          "internalType": "uint256",
          "name": "_unlockPercentage",
          "type": "uint256"
        }
      ],
      "name": "newPeriodicTimeLockedWallet",
      "outputs": [
        {
          "internalType": "address",
          "name": "wallet",
          "type": "address"
        }
      ],
      "stateMutability": "nonpayable",
      "type": "function"
    },
    {
      "inputs": [
        {
          "internalType": "address",
          "name": "_tokenOwner",
          "type": "address"
        },
        {
          "internalType": "address",
          "name": "_icoContract",
          "type": "address"
        },
        {
          "internalType": "uint256",
          "name": "_lockDate",
          "type": "uint256"
        },
        {
          "internalType": "uint256",
          "name": "_unlockPeriod",
          "type": "uint256"
        },
        {
          "internalType": "uint256",
          "name": "_unlockPercentage",
          "type": "uint256"
        }
      ],
      "name": "newPeriodicTimeLockedMonoWallet",
      "outputs": [
        {
          "internalType": "address",
          "name": "wallet",
          "type": "address"
        }
      ],
      "stateMutability": "nonpayable",
      "type": "function"
    }
  ],
  "bytecode": "0x608060405234801561001057600080fd5b50336000806101000a81548173ffffffffffffffffffffffffffffffffffffffff021916908373ffffffffffffffffffffffffffffffffffffffff1602179055506125de806100606000396000f3fe608060405260043610620000495760003560e01c806314970c841462000059578063422c29a4146200009d5780638da5cb5b14620000e1578063c63340db14620001115762000054565b366200005457600080fd5b600080fd5b3480156200006657600080fd5b506200008560048036038101906200007f919062000648565b62000155565b604051620000949190620007a9565b60405180910390f35b348015620000aa57600080fd5b50620000c96004803603810190620000c391906200058e565b62000317565b604051620000d89190620008cd565b60405180910390f35b348015620000ee57600080fd5b50620000f9620003e6565b604051620001089190620007a9565b60405180910390f35b3480156200011e57600080fd5b506200013d6004803603810190620001379190620005c0565b6200040a565b6040516200014c9190620007a9565b60405180910390f35b60008060009054906101000a900473ffffffffffffffffffffffffffffffffffffffff1673ffffffffffffffffffffffffffffffffffffffff163373ffffffffffffffffffffffffffffffffffffffff1614620001e9576040517f08c379a0000000000000000000000000000000000000000000000000000000008152600401620001e090620008f1565b60405180910390fd5b600085858585604051620001fd9062000544565b6200020c949392919062000880565b604051809103906000f08015801562000229573d6000803e3d6000fd5b509050809150600160008773ffffffffffffffffffffffffffffffffffffffff1673ffffffffffffffffffffffffffffffffffffffff168152602001908152602001600020829080600181540180825580915050600190039060005260206000200160009091909190916101000a81548173ffffffffffffffffffffffffffffffffffffffff021916908373ffffffffffffffffffffffffffffffffffffffff1602179055507f9f94c44dd7c05df7528cfb5aedb137fa0cee080fb3fb54cec59f157b4424b18a82338842604051620003069493929190620007c6565b60405180910390a150949350505050565b6060600160008373ffffffffffffffffffffffffffffffffffffffff1673ffffffffffffffffffffffffffffffffffffffff168152602001908152602001600020805480602002602001604051908101604052809291908181526020018280548015620003da57602002820191906000526020600020905b8160009054906101000a900473ffffffffffffffffffffffffffffffffffffffff1673ffffffffffffffffffffffffffffffffffffffff16815260200190600101908083116200038f575b50505050509050919050565b60008054906101000a900473ffffffffffffffffffffffffffffffffffffffff1681565b600080859050600033828787878c604051620004269062000552565b620004379695949392919062000813565b604051809103906000f08015801562000454573d6000803e3d6000fd5b509050809250600160003373ffffffffffffffffffffffffffffffffffffffff1673ffffffffffffffffffffffffffffffffffffffff168152602001908152602001600020839080600181540180825580915050600190039060005260206000200160009091909190916101000a81548173ffffffffffffffffffffffffffffffffffffffff021916908373ffffffffffffffffffffffffffffffffffffffff1602179055507f7b7e3969279af3fda11f0fa5cc15a383e2f6b728c911e3b6fe065dc0f30d190883338942604051620005319493929190620007c6565b60405180910390a1505095945050505050565b610e238062000a2683390190565b610d60806200184983390190565b6000813590506200057181620009f1565b92915050565b600081359050620005888162000a0b565b92915050565b600060208284031215620005a757620005a6620009c3565b5b6000620005b78482850162000560565b91505092915050565b600080600080600060a08688031215620005df57620005de620009c3565b5b6000620005ef8882890162000560565b9550506020620006028882890162000560565b9450506040620006158882890162000577565b9350506060620006288882890162000577565b92505060806200063b8882890162000577565b9150509295509295909350565b60008060008060808587031215620006655762000664620009c3565b5b6000620006758782880162000560565b9450506020620006888782880162000577565b93505060406200069b8782880162000577565b9250506060620006ae8782880162000577565b91505092959194509250565b6000620006c88383620006d4565b60208301905092915050565b620006df816200095d565b82525050565b620006f0816200095d565b82525050565b6000620007038262000923565b6200070f81856200093b565b93506200071c8362000913565b8060005b8381101562000753578151620007378882620006ba565b975062000744836200092e565b92505060018101905062000720565b5085935050505092915050565b6200076b816200099b565b82525050565b600062000780600a836200094c565b91506200078d82620009c8565b602082019050919050565b620007a38162000991565b82525050565b6000602082019050620007c06000830184620006e5565b92915050565b6000608082019050620007dd6000830187620006e5565b620007ec6020830186620006e5565b620007fb6040830185620006e5565b6200080a606083018462000798565b95945050505050565b600060c0820190506200082a6000830189620006e5565b62000839602083018862000760565b62000848604083018762000798565b62000857606083018662000798565b62000866608083018562000798565b6200087560a0830184620006e5565b979650505050505050565b6000608082019050620008976000830187620006e5565b620008a6602083018662000798565b620008b5604083018562000798565b620008c4606083018462000798565b95945050505050565b60006020820190508181036000830152620008e98184620006f6565b905092915050565b600060208201905081810360008301526200090c8162000771565b9050919050565b6000819050602082019050919050565b600081519050919050565b6000602082019050919050565b600082825260208201905092915050565b600082825260208201905092915050565b60006200096a8262000971565b9050919050565b600073ffffffffffffffffffffffffffffffffffffffff82169050919050565b6000819050919050565b6000620009a882620009af565b9050919050565b6000620009bc8262000971565b9050919050565b600080fd5b7f4f6e6c79204f776e657200000000000000000000000000000000000000000000600082015250565b620009fc816200095d565b811462000a0857600080fd5b50565b62000a168162000991565b811462000a2257600080fd5b5056fe60806040523480156200001157600080fd5b5060405162000e2338038062000e238339818101604052810190620000379190620000cb565b836000806101000a81548173ffffffffffffffffffffffffffffffffffffffff021916908373ffffffffffffffffffffffffffffffffffffffff1602179055508260018190555042600281905550816003819055508060048190555050505050620001b4565b600081519050620000ae8162000180565b92915050565b600081519050620000c5816200019a565b92915050565b60008060008060808587031215620000e857620000e76200017b565b5b6000620000f8878288016200009d565b94505060206200010b87828801620000b4565b93505060406200011e87828801620000b4565b92505060606200013187828801620000b4565b91505092959194509250565b60006200014a8262000151565b9050919050565b600073ffffffffffffffffffffffffffffffffffffffff82169050919050565b6000819050919050565b600080fd5b6200018b816200013d565b81146200019757600080fd5b50565b620001a58162000171565b8114620001b157600080fd5b50565b610c5f80620001c46000396000f3fe60806040526004361061008a5760003560e01c80638da5cb5b116100595780638da5cb5b14610143578063bd7001ff1461016e578063c884ef83146101ab578063cf09e0d0146101e8578063e3d670d71461021357610094565b806306b091f91461009957806320d3a0b4146100c25780633b3fba16146100ed578063649ae9c61461011857610094565b3661009457600080fd5b600080fd5b3480156100a557600080fd5b506100c060048036038101906100bb91906107c7565b610250565b005b3480156100ce57600080fd5b506100d7610498565b6040516100e49190610980565b60405180910390f35b3480156100f957600080fd5b5061010261049e565b60405161010f9190610980565b60405180910390f35b34801561012457600080fd5b5061012d6104a4565b60405161013a9190610980565b60405180910390f35b34801561014f57600080fd5b506101586104aa565b60405161016591906108c5565b60405180910390f35b34801561017a57600080fd5b506101956004803603810190610190919061079a565b6104ce565b6040516101a29190610980565b60405180910390f35b3480156101b757600080fd5b506101d260048036038101906101cd919061079a565b610640565b6040516101df9190610980565b60405180910390f35b3480156101f457600080fd5b506101fd610689565b60405161020a9190610980565b60405180910390f35b34801561021f57600080fd5b5061023a6004803603810190610235919061079a565b61068f565b6040516102479190610980565b60405180910390f35b60008054906101000a900473ffffffffffffffffffffffffffffffffffffffff1673ffffffffffffffffffffffffffffffffffffffff163373ffffffffffffffffffffffffffffffffffffffff16146102de576040517f08c379a00000000000000000000000000000000000000000000000000000000081526004016102d590610960565b60405180910390fd5b60006102e9836104ce565b90508082111561032e576040517f08c379a000000000000000000000000000000000000000000000000000000000815260040161032590610940565b60405180910390fd5b81600660008573ffffffffffffffffffffffffffffffffffffffff1673ffffffffffffffffffffffffffffffffffffffff168152602001908152602001600020600082825461037d91906109ac565b9250508190555060008390508073ffffffffffffffffffffffffffffffffffffffff1663a9059cbb60008054906101000a900473ffffffffffffffffffffffffffffffffffffffff16856040518363ffffffff1660e01b81526004016103e4929190610917565b602060405180830381600087803b1580156103fe57600080fd5b505af1158015610412573d6000803e3d6000fd5b505050506040513d601f19601f820116820180604052508101906104369190610807565b507fa04c965e7d289704527a948915777d68bb4530fb4b08aa935fb958c0b7901ab98460008054906101000a900473ffffffffffffffffffffffffffffffffffffffff168460405161048a939291906108e0565b60405180910390a150505050565b60035481565b60045481565b60015481565b60008054906101000a900473ffffffffffffffffffffffffffffffffffffffff1681565b600080600660008473ffffffffffffffffffffffffffffffffffffffff1673ffffffffffffffffffffffffffffffffffffffff16815260200190815260200160002054905060008390506000828273ffffffffffffffffffffffffffffffffffffffff166370a08231306040518263ffffffff1660e01b815260040161055491906108c5565b60206040518083038186803b15801561056c57600080fd5b505afa158015610580573d6000803e3d6000fd5b505050506040513d601f19601f820116820180604052508101906105a49190610834565b6105ae91906109ac565b90506000600154426105c09190610a8d565b905060006001600354836105d49190610a02565b6105de91906109ac565b905060006064600454836105f29190610a33565b101561060b57600454826106069190610a33565b61060e565b60645b9050856064858361061f9190610a33565b6106299190610a02565b6106339190610a8d565b9650505050505050919050565b6000600660008373ffffffffffffffffffffffffffffffffffffffff1673ffffffffffffffffffffffffffffffffffffffff168152602001908152602001600020549050919050565b60025481565b6000808290508073ffffffffffffffffffffffffffffffffffffffff166370a0823160008054906101000a900473ffffffffffffffffffffffffffffffffffffffff166040518263ffffffff1660e01b81526004016106ee91906108c5565b60206040518083038186803b15801561070657600080fd5b505afa15801561071a573d6000803e3d6000fd5b505050506040513d601f19601f8201168201806040525081019061073e9190610834565b915050919050565b60008135905061075581610be4565b92915050565b60008151905061076a81610bfb565b92915050565b60008135905061077f81610c12565b92915050565b60008151905061079481610c12565b92915050565b6000602082840312156107b0576107af610b67565b5b60006107be84828501610746565b91505092915050565b600080604083850312156107de576107dd610b67565b5b60006107ec85828601610746565b92505060206107fd85828601610770565b9150509250929050565b60006020828403121561081d5761081c610b67565b5b600061082b8482850161075b565b91505092915050565b60006020828403121561084a57610849610b67565b5b600061085884828501610785565b91505092915050565b61086a81610ac1565b82525050565b600061087d60258361099b565b915061088882610b6c565b604082019050919050565b60006108a0600a8361099b565b91506108ab82610bbb565b602082019050919050565b6108bf81610aff565b82525050565b60006020820190506108da6000830184610861565b92915050565b60006060820190506108f56000830186610861565b6109026020830185610861565b61090f60408301846108b6565b949350505050565b600060408201905061092c6000830185610861565b61093960208301846108b6565b9392505050565b6000602082019050818103600083015261095981610870565b9050919050565b6000602082019050818103600083015261097981610893565b9050919050565b600060208201905061099560008301846108b6565b92915050565b600082825260208201905092915050565b60006109b782610aff565b91506109c283610aff565b9250827fffffffffffffffffffffffffffffffffffffffffffffffffffffffffffffffff038211156109f7576109f6610b09565b5b828201905092915050565b6000610a0d82610aff565b9150610a1883610aff565b925082610a2857610a27610b38565b5b828204905092915050565b6000610a3e82610aff565b9150610a4983610aff565b9250817fffffffffffffffffffffffffffffffffffffffffffffffffffffffffffffffff0483118215151615610a8257610a81610b09565b5b828202905092915050565b6000610a9882610aff565b9150610aa383610aff565b925082821015610ab657610ab5610b09565b5b828203905092915050565b6000610acc82610adf565b9050919050565b60008115159050919050565b600073ffffffffffffffffffffffffffffffffffffffff82169050919050565b6000819050919050565b7f4e487b7100000000000000000000000000000000000000000000000000000000600052601160045260246000fd5b7f4e487b7100000000000000000000000000000000000000000000000000000000600052601260045260246000fd5b600080fd5b7f4e6f7420656e6f7567687420756e6c6f636b656420746f6b656e73206176616960008201527f6c61626c65000000000000000000000000000000000000000000000000000000602082015250565b7f4f6e6c79204f776e657200000000000000000000000000000000000000000000600082015250565b610bed81610ac1565b8114610bf857600080fd5b50565b610c0481610ad3565b8114610c0f57600080fd5b50565b610c1b81610aff565b8114610c2657600080fd5b5056fea2646970667358221220702692c42049fd504175fdf30b8e00dbc97a32e7c195c2ba726c5b2871d6007a64736f6c6343000806003360806040523480156200001157600080fd5b5060405162000d6038038062000d60833981810160405281019062000037919062000166565b856000806101000a81548173ffffffffffffffffffffffffffffffffffffffff021916908373ffffffffffffffffffffffffffffffffffffffff16021790555084600660006101000a81548173ffffffffffffffffffffffffffffffffffffffff021916908373ffffffffffffffffffffffffffffffffffffffff160217905550836001819055504260028190555080600560006101000a81548173ffffffffffffffffffffffffffffffffffffffff021916908373ffffffffffffffffffffffffffffffffffffffff1602179055508260038190555081600481905550505050505050620002a7565b600081519050620001328162000259565b92915050565b600081519050620001498162000273565b92915050565b60008151905062000160816200028d565b92915050565b60008060008060008060c0878903121562000186576200018562000254565b5b60006200019689828a0162000121565b9650506020620001a989828a0162000138565b9550506040620001bc89828a016200014f565b9450506060620001cf89828a016200014f565b9350506080620001e289828a016200014f565b92505060a0620001f589828a0162000121565b9150509295509295509295565b60006200020f826200022a565b9050919050565b6000620002238262000202565b9050919050565b600073ffffffffffffffffffffffffffffffffffffffff82169050919050565b6000819050919050565b600080fd5b620002648162000202565b81146200027057600080fd5b50565b6200027e8162000216565b81146200028a57600080fd5b50565b62000298816200024a565b8114620002a457600080fd5b50565b610aa980620002b76000396000f3fe6080604052600436106100955760003560e01c8063649ae9c611610059578063649ae9c614610179578063b69ef8a8146101a4578063c66e4095146101cf578063cf09e0d0146101fa578063e834a834146102255761009f565b806302d05d3f146100a457806320d3a0b4146100cf5780633b3fba16146100fa57806349df728c1461012557806363f5de761461014e5761009f565b3661009f57600080fd5b600080fd5b3480156100b057600080fd5b506100b9610250565b6040516100c691906107c2565b60405180910390f35b3480156100db57600080fd5b506100e4610274565b6040516100f1919061082f565b60405180910390f35b34801561010657600080fd5b5061010f61027a565b60405161011c919061082f565b60405180910390f35b34801561013157600080fd5b5061014c6004803603810190610147919061070e565b610280565b005b34801561015a57600080fd5b506101636103d9565b604051610170919061082f565b60405180910390f35b34801561018557600080fd5b5061018e61055a565b60405161019b919061082f565b60405180910390f35b3480156101b057600080fd5b506101b9610560565b6040516101c6919061082f565b60405180910390f35b3480156101db57600080fd5b506101e461065c565b6040516101f19190610814565b60405180910390f35b34801561020657600080fd5b5061020f610682565b60405161021c919061082f565b60405180910390f35b34801561023157600080fd5b5061023a610688565b604051610247919061082f565b60405180910390f35b60008054906101000a900473ffffffffffffffffffffffffffffffffffffffff1681565b60035481565b60045481565b6000819050600061028f6103d9565b905080600760003373ffffffffffffffffffffffffffffffffffffffff1673ffffffffffffffffffffffffffffffffffffffff16815260200190815260200160002060008282546102e0919061084a565b925050819055508173ffffffffffffffffffffffffffffffffffffffff166323b872dd600560009054906101000a900473ffffffffffffffffffffffffffffffffffffffff1633846040518463ffffffff1660e01b8152600401610346939291906107dd565b602060405180830381600087803b15801561036057600080fd5b505af1158015610374573d6000803e3d6000fd5b505050506040513d601f19601f82011682018060405250810190610398919061073b565b507fa04c965e7d289704527a948915777d68bb4530fb4b08aa935fb958c0b7901ab98333836040516103cc939291906107dd565b60405180910390a1505050565b600080600660009054906101000a900473ffffffffffffffffffffffffffffffffffffffff1673ffffffffffffffffffffffffffffffffffffffff166397b150ca336040518263ffffffff1660e01b815260040161043791906107c2565b60206040518083038186803b15801561044f57600080fd5b505afa158015610463573d6000803e3d6000fd5b505050506040513d601f19601f820116820180604052508101906104879190610768565b90506000600760003373ffffffffffffffffffffffffffffffffffffffff1673ffffffffffffffffffffffffffffffffffffffff1681526020019081526020016000205490506000600154426104dd919061092b565b905060006001600354836104f191906108a0565b6104fb919061084a565b9050600060646004548361050f91906108d1565b1015610528576004548261052391906108d1565b61052b565b60645b9050836064868361053c91906108d1565b61054691906108a0565b610550919061092b565b9550505050505090565b60015481565b6000600760003373ffffffffffffffffffffffffffffffffffffffff1673ffffffffffffffffffffffffffffffffffffffff16815260200190815260200160002054600660009054906101000a900473ffffffffffffffffffffffffffffffffffffffff1673ffffffffffffffffffffffffffffffffffffffff166397b150ca336040518263ffffffff1660e01b81526004016105fd91906107c2565b60206040518083038186803b15801561061557600080fd5b505afa158015610629573d6000803e3d6000fd5b505050506040513d601f19601f8201168201806040525081019061064d9190610768565b610657919061092b565b905090565b600660009054906101000a900473ffffffffffffffffffffffffffffffffffffffff1681565b60025481565b6000600760003373ffffffffffffffffffffffffffffffffffffffff1673ffffffffffffffffffffffffffffffffffffffff16815260200190815260200160002054905090565b6000813590506106de81610a2e565b92915050565b6000815190506106f381610a45565b92915050565b60008151905061070881610a5c565b92915050565b60006020828403121561072457610723610a29565b5b6000610732848285016106cf565b91505092915050565b60006020828403121561075157610750610a29565b5b600061075f848285016106e4565b91505092915050565b60006020828403121561077e5761077d610a29565b5b600061078c848285016106f9565b91505092915050565b61079e8161095f565b82525050565b6107ad816109a7565b82525050565b6107bc8161099d565b82525050565b60006020820190506107d76000830184610795565b92915050565b60006060820190506107f26000830186610795565b6107ff6020830185610795565b61080c60408301846107b3565b949350505050565b600060208201905061082960008301846107a4565b92915050565b600060208201905061084460008301846107b3565b92915050565b60006108558261099d565b91506108608361099d565b9250827fffffffffffffffffffffffffffffffffffffffffffffffffffffffffffffffff03821115610895576108946109cb565b5b828201905092915050565b60006108ab8261099d565b91506108b68361099d565b9250826108c6576108c56109fa565b5b828204905092915050565b60006108dc8261099d565b91506108e78361099d565b9250817fffffffffffffffffffffffffffffffffffffffffffffffffffffffffffffffff04831182151516156109205761091f6109cb565b5b828202905092915050565b60006109368261099d565b91506109418361099d565b925082821015610954576109536109cb565b5b828203905092915050565b600061096a8261097d565b9050919050565b60008115159050919050565b600073ffffffffffffffffffffffffffffffffffffffff82169050919050565b6000819050919050565b60006109b2826109b9565b9050919050565b60006109c48261097d565b9050919050565b7f4e487b7100000000000000000000000000000000000000000000000000000000600052601160045260246000fd5b7f4e487b7100000000000000000000000000000000000000000000000000000000600052601260045260246000fd5b600080fd5b610a378161095f565b8114610a4257600080fd5b50565b610a4e81610971565b8114610a5957600080fd5b50565b610a658161099d565b8114610a7057600080fd5b5056fea2646970667358221220d32f482520747b8390fea44b82bcafb5d36bb5dbff846ca6918ee47060d8eec164736f6c63430008060033a2646970667358221220ff6dcf68ac51ab3776bec193ac4df59854441cafe69fbd3028cdaf39d3aa8b0764736f6c63430008060033",
  "immutableReferences": {},
  "source": "// SPDX-License-Identifier: UNLICENSED\npragma solidity ^0.8.6;\n\nimport \"./PeriodicTimeLockedWallet.sol\";\nimport \"./PeriodicTimeLockedMonoWallet.sol\";\n\ncontract TimeLockedWalletFactory {\n \n    address public owner;\n    mapping(address => address[]) wallets;\n\n    event Created(address wallet, address from, address to, uint256 createdAt);\n    event CreatedMono(address wallet, address from, address to, uint256 createdAt);\n\n    modifier onlyOwner {\n        require(msg.sender == owner, \"Only Owner\");\n        _;\n    }\n\n    constructor()\n    {\n        owner = msg.sender;\n    }\n\n    function getWallets(address _user) \n        public\n        view\n        returns(address[] memory)\n    {\n        return wallets[_user];\n    }\n\n    function newPeriodicTimeLockedWallet(address _owner, uint256 _lockDate, uint256 _unlockPeriod, uint _unlockPercentage)\n        public onlyOwner\n        returns(address wallet)\n    {\n        // Create new wallet.\n        PeriodicTimeLockedWallet tlwallet = new PeriodicTimeLockedWallet(_owner, _lockDate, _unlockPeriod, _unlockPercentage);\n        \n        wallet = address(tlwallet);\n\n        // Add wallet to owner's wallets.\n        wallets[_owner].push(wallet);\n\n        // Emit event.\n        emit Created(wallet, msg.sender, _owner, block.timestamp);\n    }\n\n    function newPeriodicTimeLockedMonoWallet(address _tokenOwner, address _icoContract, uint256 _lockDate, uint256 _unlockPeriod, uint _unlockPercentage)\n        public\n        returns(address wallet)\n    {\n        ICollectCoinIco ico = ICollectCoinIco(_icoContract);\n\n        // Create new wallet.\n        PeriodicTimeLockedMonoWallet tlwallet = new PeriodicTimeLockedMonoWallet(msg.sender, ico, _lockDate, _unlockPeriod, _unlockPercentage, _tokenOwner);\n        \n        wallet = address(tlwallet);\n\n        // Add wallet to sender's wallets.\n        wallets[msg.sender].push(wallet);\n\n        // Emit event.\n        emit CreatedMono(wallet, msg.sender, _icoContract, block.timestamp);\n    }\n\n    // Prevents accidental sending of ether to the factory\n    receive () payable external {\n        revert();\n    }\n\n    \n}",
  "sourcePath": "/home/eule/Projects/ico-contracts/ethereum/ico/contracts/TimeLockedWalletFactory.sol",
  "compiler": {
    "name": "solc",
    "version": "0.8.6+commit.11564f7e.Emscripten.clang"
  },
  "schemaVersion": "3.4.1",
  "updatedAt": "2021-10-12T14:02:00.685Z",
  "networkType": "ethereum",
  "devdoc": {
    "kind": "dev",
    "methods": {},
    "version": 1
  },
  "userdoc": {
    "kind": "user",
    "methods": {},
    "version": 1
  }
}