{
  "contractName": "TimeLockedWalletFactory",
  "abi": [
    {
      "anonymous": false,
      "inputs": [
        {
          "indexed": false,
          "internalType": "address",
          "name": "wallet",
          "type": "address"
        },
        {
          "indexed": false,
          "internalType": "address",
          "name": "from",
          "type": "address"
        },
        {
          "indexed": false,
          "internalType": "address",
          "name": "to",
          "type": "address"
        },
        {
          "indexed": false,
          "internalType": "uint256",
          "name": "createdAt",
          "type": "uint256"
        }
      ],
      "name": "Created",
      "type": "event"
    },
    {
      "anonymous": false,
      "inputs": [
        {
          "indexed": false,
          "internalType": "address",
          "name": "wallet",
          "type": "address"
        },
        {
          "indexed": false,
          "internalType": "address",
          "name": "from",
          "type": "address"
        },
        {
          "indexed": false,
          "internalType": "address",
          "name": "to",
          "type": "address"
        },
        {
          "indexed": false,
          "internalType": "uint256",
          "name": "createdAt",
          "type": "uint256"
        }
      ],
      "name": "CreatedMono",
      "type": "event"
    },
    {
      "stateMutability": "payable",
      "type": "receive"
    },
    {
      "inputs": [
        {
          "internalType": "address",
          "name": "_user",
          "type": "address"
        }
      ],
      "name": "getWallets",
      "outputs": [
        {
          "internalType": "address[]",
          "name": "",
          "type": "address[]"
        }
      ],
      "stateMutability": "view",
      "type": "function"
    },
    {
      "inputs": [
        {
          "internalType": "address",
          "name": "_tokenOwner",
          "type": "address"
        },
        {
          "internalType": "address",
          "name": "_icoContract",
          "type": "address"
        },
        {
          "internalType": "uint256",
          "name": "_lockDate",
          "type": "uint256"
        },
        {
          "internalType": "uint256",
          "name": "_unlockPeriod",
          "type": "uint256"
        },
        {
          "internalType": "uint256",
          "name": "_unlockPercentage",
          "type": "uint256"
        }
      ],
      "name": "newPeriodicTimeLockedMonoWallet",
      "outputs": [
        {
          "internalType": "address",
          "name": "wallet",
          "type": "address"
        }
      ],
      "stateMutability": "nonpayable",
      "type": "function"
    }
  ],
  "bytecode": "0x608060405234801561001057600080fd5b506113f7806100206000396000f3fe608060405260043610620000315760003560e01c8063422c29a41462000041578063c63340db1462000085576200003c565b366200003c57600080fd5b600080fd5b3480156200004e57600080fd5b506200006d60048036038101906200006791906200030c565b620000c9565b6040516200007c919062000565565b60405180910390f35b3480156200009257600080fd5b50620000b16004803603810190620000ab91906200033e565b62000197565b604051620000c091906200048e565b60405180910390f35b60606000808373ffffffffffffffffffffffffffffffffffffffff1673ffffffffffffffffffffffffffffffffffffffff1681526020019081526020016000208054806020026020016040519081016040528092919081815260200182805480156200018b57602002820191906000526020600020905b8160009054906101000a900473ffffffffffffffffffffffffffffffffffffffff1673ffffffffffffffffffffffffffffffffffffffff168152602001906001019080831162000140575b50505050509050919050565b600080859050600033828787878c604051620001b390620002d0565b620001c496959493929190620004f8565b604051809103906000f080158015620001e1573d6000803e3d6000fd5b5090508092506000803373ffffffffffffffffffffffffffffffffffffffff1673ffffffffffffffffffffffffffffffffffffffff168152602001908152602001600020839080600181540180825580915050600190039060005260206000200160009091909190916101000a81548173ffffffffffffffffffffffffffffffffffffffff021916908373ffffffffffffffffffffffffffffffffffffffff1602179055507f7b7e3969279af3fda11f0fa5cc15a383e2f6b728c911e3b6fe065dc0f30d190883338942604051620002bd9493929190620004ab565b60405180910390a1505095945050505050565b610d60806200066283390190565b600081359050620002ef816200062d565b92915050565b600081359050620003068162000647565b92915050565b60006020828403121562000325576200032462000628565b5b60006200033584828501620002de565b91505092915050565b600080600080600060a086880312156200035d576200035c62000628565b5b60006200036d88828901620002de565b95505060206200038088828901620002de565b94505060406200039388828901620002f5565b9350506060620003a688828901620002f5565b9250506080620003b988828901620002f5565b9150509295509295909350565b6000620003d48383620003e0565b60208301905092915050565b620003eb81620005c2565b82525050565b620003fc81620005c2565b82525050565b60006200040f8262000599565b6200041b8185620005b1565b9350620004288362000589565b8060005b838110156200045f578151620004438882620003c6565b97506200045083620005a4565b9250506001810190506200042c565b5085935050505092915050565b620004778162000600565b82525050565b6200048881620005f6565b82525050565b6000602082019050620004a56000830184620003f1565b92915050565b6000608082019050620004c26000830187620003f1565b620004d16020830186620003f1565b620004e06040830185620003f1565b620004ef60608301846200047d565b95945050505050565b600060c0820190506200050f6000830189620003f1565b6200051e60208301886200046c565b6200052d60408301876200047d565b6200053c60608301866200047d565b6200054b60808301856200047d565b6200055a60a0830184620003f1565b979650505050505050565b6000602082019050818103600083015262000581818462000402565b905092915050565b6000819050602082019050919050565b600081519050919050565b6000602082019050919050565b600082825260208201905092915050565b6000620005cf82620005d6565b9050919050565b600073ffffffffffffffffffffffffffffffffffffffff82169050919050565b6000819050919050565b60006200060d8262000614565b9050919050565b60006200062182620005d6565b9050919050565b600080fd5b6200063881620005c2565b81146200064457600080fd5b50565b6200065281620005f6565b81146200065e57600080fd5b5056fe60806040523480156200001157600080fd5b5060405162000d6038038062000d60833981810160405281019062000037919062000166565b856000806101000a81548173ffffffffffffffffffffffffffffffffffffffff021916908373ffffffffffffffffffffffffffffffffffffffff16021790555084600660006101000a81548173ffffffffffffffffffffffffffffffffffffffff021916908373ffffffffffffffffffffffffffffffffffffffff160217905550836001819055504260028190555080600560006101000a81548173ffffffffffffffffffffffffffffffffffffffff021916908373ffffffffffffffffffffffffffffffffffffffff1602179055508260038190555081600481905550505050505050620002a7565b600081519050620001328162000259565b92915050565b600081519050620001498162000273565b92915050565b60008151905062000160816200028d565b92915050565b60008060008060008060c0878903121562000186576200018562000254565b5b60006200019689828a0162000121565b9650506020620001a989828a0162000138565b9550506040620001bc89828a016200014f565b9450506060620001cf89828a016200014f565b9350506080620001e289828a016200014f565b92505060a0620001f589828a0162000121565b9150509295509295509295565b60006200020f826200022a565b9050919050565b6000620002238262000202565b9050919050565b600073ffffffffffffffffffffffffffffffffffffffff82169050919050565b6000819050919050565b600080fd5b620002648162000202565b81146200027057600080fd5b50565b6200027e8162000216565b81146200028a57600080fd5b50565b62000298816200024a565b8114620002a457600080fd5b50565b610aa980620002b76000396000f3fe6080604052600436106100955760003560e01c8063649ae9c611610059578063649ae9c614610179578063b69ef8a8146101a4578063c66e4095146101cf578063cf09e0d0146101fa578063e834a834146102255761009f565b806302d05d3f146100a457806320d3a0b4146100cf5780633b3fba16146100fa57806349df728c1461012557806363f5de761461014e5761009f565b3661009f57600080fd5b600080fd5b3480156100b057600080fd5b506100b9610250565b6040516100c691906107c2565b60405180910390f35b3480156100db57600080fd5b506100e4610274565b6040516100f1919061082f565b60405180910390f35b34801561010657600080fd5b5061010f61027a565b60405161011c919061082f565b60405180910390f35b34801561013157600080fd5b5061014c6004803603810190610147919061070e565b610280565b005b34801561015a57600080fd5b506101636103d9565b604051610170919061082f565b60405180910390f35b34801561018557600080fd5b5061018e61055a565b60405161019b919061082f565b60405180910390f35b3480156101b057600080fd5b506101b9610560565b6040516101c6919061082f565b60405180910390f35b3480156101db57600080fd5b506101e461065c565b6040516101f19190610814565b60405180910390f35b34801561020657600080fd5b5061020f610682565b60405161021c919061082f565b60405180910390f35b34801561023157600080fd5b5061023a610688565b604051610247919061082f565b60405180910390f35b60008054906101000a900473ffffffffffffffffffffffffffffffffffffffff1681565b60035481565b60045481565b6000819050600061028f6103d9565b905080600760003373ffffffffffffffffffffffffffffffffffffffff1673ffffffffffffffffffffffffffffffffffffffff16815260200190815260200160002060008282546102e0919061084a565b925050819055508173ffffffffffffffffffffffffffffffffffffffff166323b872dd600560009054906101000a900473ffffffffffffffffffffffffffffffffffffffff1633846040518463ffffffff1660e01b8152600401610346939291906107dd565b602060405180830381600087803b15801561036057600080fd5b505af1158015610374573d6000803e3d6000fd5b505050506040513d601f19601f82011682018060405250810190610398919061073b565b507fa04c965e7d289704527a948915777d68bb4530fb4b08aa935fb958c0b7901ab98333836040516103cc939291906107dd565b60405180910390a1505050565b600080600660009054906101000a900473ffffffffffffffffffffffffffffffffffffffff1673ffffffffffffffffffffffffffffffffffffffff166397b150ca336040518263ffffffff1660e01b815260040161043791906107c2565b60206040518083038186803b15801561044f57600080fd5b505afa158015610463573d6000803e3d6000fd5b505050506040513d601f19601f820116820180604052508101906104879190610768565b90506000600760003373ffffffffffffffffffffffffffffffffffffffff1673ffffffffffffffffffffffffffffffffffffffff1681526020019081526020016000205490506000600154426104dd919061092b565b905060006001600354836104f191906108a0565b6104fb919061084a565b9050600060646004548361050f91906108d1565b1015610528576004548261052391906108d1565b61052b565b60645b9050836064868361053c91906108d1565b61054691906108a0565b610550919061092b565b9550505050505090565b60015481565b6000600760003373ffffffffffffffffffffffffffffffffffffffff1673ffffffffffffffffffffffffffffffffffffffff16815260200190815260200160002054600660009054906101000a900473ffffffffffffffffffffffffffffffffffffffff1673ffffffffffffffffffffffffffffffffffffffff166397b150ca336040518263ffffffff1660e01b81526004016105fd91906107c2565b60206040518083038186803b15801561061557600080fd5b505afa158015610629573d6000803e3d6000fd5b505050506040513d601f19601f8201168201806040525081019061064d9190610768565b610657919061092b565b905090565b600660009054906101000a900473ffffffffffffffffffffffffffffffffffffffff1681565b60025481565b6000600760003373ffffffffffffffffffffffffffffffffffffffff1673ffffffffffffffffffffffffffffffffffffffff16815260200190815260200160002054905090565b6000813590506106de81610a2e565b92915050565b6000815190506106f381610a45565b92915050565b60008151905061070881610a5c565b92915050565b60006020828403121561072457610723610a29565b5b6000610732848285016106cf565b91505092915050565b60006020828403121561075157610750610a29565b5b600061075f848285016106e4565b91505092915050565b60006020828403121561077e5761077d610a29565b5b600061078c848285016106f9565b91505092915050565b61079e8161095f565b82525050565b6107ad816109a7565b82525050565b6107bc8161099d565b82525050565b60006020820190506107d76000830184610795565b92915050565b60006060820190506107f26000830186610795565b6107ff6020830185610795565b61080c60408301846107b3565b949350505050565b600060208201905061082960008301846107a4565b92915050565b600060208201905061084460008301846107b3565b92915050565b60006108558261099d565b91506108608361099d565b9250827fffffffffffffffffffffffffffffffffffffffffffffffffffffffffffffffff03821115610895576108946109cb565b5b828201905092915050565b60006108ab8261099d565b91506108b68361099d565b9250826108c6576108c56109fa565b5b828204905092915050565b60006108dc8261099d565b91506108e78361099d565b9250817fffffffffffffffffffffffffffffffffffffffffffffffffffffffffffffffff04831182151516156109205761091f6109cb565b5b828202905092915050565b60006109368261099d565b91506109418361099d565b925082821015610954576109536109cb565b5b828203905092915050565b600061096a8261097d565b9050919050565b60008115159050919050565b600073ffffffffffffffffffffffffffffffffffffffff82169050919050565b6000819050919050565b60006109b2826109b9565b9050919050565b60006109c48261097d565b9050919050565b7f4e487b7100000000000000000000000000000000000000000000000000000000600052601160045260246000fd5b7f4e487b7100000000000000000000000000000000000000000000000000000000600052601260045260246000fd5b600080fd5b610a378161095f565b8114610a4257600080fd5b50565b610a4e81610971565b8114610a5957600080fd5b50565b610a658161099d565b8114610a7057600080fd5b5056fea2646970667358221220c00a9e89f94e27d993fd20880b74edc0890650288420f8319f897ad23046386d64736f6c63430008060033a264697066735822122018109fe200ea93514fcc03fb21bc77e3083000de672321b2b029ac5a1cce187a64736f6c63430008060033",
  "immutableReferences": {},
  "source": "// SPDX-License-Identifier: UNLICENSED\npragma solidity ^0.8.6;\n\nimport \"./PeriodicTimeLockedMonoWallet.sol\";\n\ncontract TimeLockedWalletFactory {\n \n    mapping(address => address[]) wallets;\n\n    event Created(address wallet, address from, address to, uint256 createdAt);\n    event CreatedMono(address wallet, address from, address to, uint256 createdAt);\n\n    function getWallets(address _user) \n        public\n        view\n        returns(address[] memory)\n    {\n        return wallets[_user];\n    }  \n\n    function newPeriodicTimeLockedMonoWallet(address _tokenOwner, address _icoContract, uint256 _lockDate, uint256 _unlockPeriod, uint _unlockPercentage)\n        public\n        returns(address wallet)\n    {\n        ICollectCoinIco ico = ICollectCoinIco(_icoContract);\n\n        // Create new wallet.\n        PeriodicTimeLockedMonoWallet tlwallet = new PeriodicTimeLockedMonoWallet(msg.sender, ico, _lockDate, _unlockPeriod, _unlockPercentage, _tokenOwner);\n        \n        wallet = address(tlwallet);\n\n        // Add wallet to sender's wallets.\n        wallets[msg.sender].push(wallet);\n\n        // Emit event.\n        emit CreatedMono(wallet, msg.sender, _icoContract, block.timestamp);\n    }\n\n    // Prevents accidental sending of ether to the factory\n    receive () payable external {\n        revert();\n    }\n\n    \n}",
  "sourcePath": "/home/eule/Projects/ico-contracts/ethereum/ico/contracts/TimeLockedWalletFactory.sol",
  "compiler": {
    "name": "solc",
    "version": "0.8.6+commit.11564f7e.Emscripten.clang"
  },
  "schemaVersion": "3.4.1",
  "updatedAt": "2021-08-16T13:27:28.683Z",
  "devdoc": {
    "kind": "dev",
    "methods": {},
    "version": 1
  },
  "userdoc": {
    "kind": "user",
    "methods": {},
    "version": 1
  }
}