{
  "contractName": "TimeLockedWalletFactory",
  "abi": [
    {
      "anonymous": false,
      "inputs": [
        {
          "indexed": false,
          "internalType": "address",
          "name": "wallet",
          "type": "address"
        },
        {
          "indexed": false,
          "internalType": "address",
          "name": "from",
          "type": "address"
        },
        {
          "indexed": false,
          "internalType": "address",
          "name": "to",
          "type": "address"
        },
        {
          "indexed": false,
          "internalType": "uint256",
          "name": "createdAt",
          "type": "uint256"
        }
      ],
      "name": "Created",
      "type": "event"
    },
    {
      "anonymous": false,
      "inputs": [
        {
          "indexed": false,
          "internalType": "address",
          "name": "wallet",
          "type": "address"
        },
        {
          "indexed": false,
          "internalType": "address",
          "name": "from",
          "type": "address"
        },
        {
          "indexed": false,
          "internalType": "address",
          "name": "to",
          "type": "address"
        },
        {
          "indexed": false,
          "internalType": "uint256",
          "name": "createdAt",
          "type": "uint256"
        }
      ],
      "name": "CreatedMono",
      "type": "event"
    },
    {
      "stateMutability": "payable",
      "type": "receive"
    },
    {
      "inputs": [
        {
          "internalType": "address",
          "name": "_user",
          "type": "address"
        }
      ],
      "name": "getWallets",
      "outputs": [
        {
          "internalType": "address[]",
          "name": "",
          "type": "address[]"
        }
      ],
      "stateMutability": "view",
      "type": "function"
    },
    {
      "inputs": [
        {
          "internalType": "address",
          "name": "_owner",
          "type": "address"
        },
        {
          "internalType": "uint256",
          "name": "_unlockDate",
          "type": "uint256"
        }
      ],
      "name": "newTimeLockedWallet",
      "outputs": [
        {
          "internalType": "address",
          "name": "wallet",
          "type": "address"
        }
      ],
      "stateMutability": "nonpayable",
      "type": "function"
    },
    {
      "inputs": [
        {
          "internalType": "address",
          "name": "_owner",
          "type": "address"
        },
        {
          "internalType": "uint256",
          "name": "_lockDate",
          "type": "uint256"
        },
        {
          "internalType": "uint256",
          "name": "_unlockPeriod",
          "type": "uint256"
        },
        {
          "internalType": "uint256",
          "name": "_unlockPercentage",
          "type": "uint256"
        }
      ],
      "name": "newPeriodicTimeLockedWallet",
      "outputs": [
        {
          "internalType": "address",
          "name": "wallet",
          "type": "address"
        }
      ],
      "stateMutability": "nonpayable",
      "type": "function"
    },
    {
      "inputs": [
        {
          "internalType": "address",
          "name": "_tokenOwner",
          "type": "address"
        },
        {
          "internalType": "address",
          "name": "_icoContract",
          "type": "address"
        },
        {
          "internalType": "uint256",
          "name": "_lockDate",
          "type": "uint256"
        },
        {
          "internalType": "uint256",
          "name": "_unlockPeriod",
          "type": "uint256"
        },
        {
          "internalType": "uint256",
          "name": "_unlockPercentage",
          "type": "uint256"
        }
      ],
      "name": "newPeriodicTimeLockedMonoWallet",
      "outputs": [
        {
          "internalType": "address",
          "name": "wallet",
          "type": "address"
        }
      ],
      "stateMutability": "nonpayable",
      "type": "function"
    }
  ],
  "bytecode": "0x608060405234801561001057600080fd5b50612ff4806100206000396000f3fe608060405260043610620000495760003560e01c80630a9ef927146200005957806314970c84146200009d578063422c29a414620000e1578063c63340db14620001255762000054565b366200005457600080fd5b600080fd5b3480156200006657600080fd5b506200008560048036038101906200007f919062000882565b62000169565b60405162000094919062000a14565b60405180910390f35b348015620000aa57600080fd5b50620000c96004803603810190620000c39190620008c9565b62000367565b604051620000d8919062000a14565b60405180910390f35b348015620000ee57600080fd5b506200010d6004803603810190620001079190620007c8565b62000569565b6040516200011c919062000b75565b60405180910390f35b3480156200013257600080fd5b506200015160048036038101906200014b9190620007fa565b62000637565b60405162000160919062000a14565b60405180910390f35b6000803384846040516200017d9062000770565b6200018b9392919062000a31565b604051809103906000f080158015620001a8573d6000803e3d6000fd5b5090508091506000803373ffffffffffffffffffffffffffffffffffffffff1673ffffffffffffffffffffffffffffffffffffffff168152602001908152602001600020829080600181540180825580915050600190039060005260206000200160009091909190916101000a81548173ffffffffffffffffffffffffffffffffffffffff021916908373ffffffffffffffffffffffffffffffffffffffff1602179055508373ffffffffffffffffffffffffffffffffffffffff163373ffffffffffffffffffffffffffffffffffffffff161462000321576000808573ffffffffffffffffffffffffffffffffffffffff1673ffffffffffffffffffffffffffffffffffffffff168152602001908152602001600020829080600181540180825580915050600190039060005260206000200160009091909190916101000a81548173ffffffffffffffffffffffffffffffffffffffff021916908373ffffffffffffffffffffffffffffffffffffffff1602179055505b7f9f94c44dd7c05df7528cfb5aedb137fa0cee080fb3fb54cec59f157b4424b18a8233864260405162000358949392919062000a6e565b60405180910390a15092915050565b600080858585856040516200037c906200077e565b6200038b949392919062000b28565b604051809103906000f080158015620003a8573d6000803e3d6000fd5b5090508091506000803373ffffffffffffffffffffffffffffffffffffffff1673ffffffffffffffffffffffffffffffffffffffff168152602001908152602001600020829080600181540180825580915050600190039060005260206000200160009091909190916101000a81548173ffffffffffffffffffffffffffffffffffffffff021916908373ffffffffffffffffffffffffffffffffffffffff1602179055508573ffffffffffffffffffffffffffffffffffffffff163373ffffffffffffffffffffffffffffffffffffffff161462000521576000808773ffffffffffffffffffffffffffffffffffffffff1673ffffffffffffffffffffffffffffffffffffffff168152602001908152602001600020829080600181540180825580915050600190039060005260206000200160009091909190916101000a81548173ffffffffffffffffffffffffffffffffffffffff021916908373ffffffffffffffffffffffffffffffffffffffff1602179055505b7f9f94c44dd7c05df7528cfb5aedb137fa0cee080fb3fb54cec59f157b4424b18a8233884260405162000558949392919062000a6e565b60405180910390a150949350505050565b60606000808373ffffffffffffffffffffffffffffffffffffffff1673ffffffffffffffffffffffffffffffffffffffff1681526020019081526020016000208054806020026020016040519081016040528092919081815260200182805480156200062b57602002820191906000526020600020905b8160009054906101000a900473ffffffffffffffffffffffffffffffffffffffff1673ffffffffffffffffffffffffffffffffffffffff1681526020019060010190808311620005e0575b50505050509050919050565b600080859050600033828787878c60405162000653906200078c565b620006649695949392919062000abb565b604051809103906000f08015801562000681573d6000803e3d6000fd5b5090508092506000803373ffffffffffffffffffffffffffffffffffffffff1673ffffffffffffffffffffffffffffffffffffffff168152602001908152602001600020839080600181540180825580915050600190039060005260206000200160009091909190916101000a81548173ffffffffffffffffffffffffffffffffffffffff021916908373ffffffffffffffffffffffffffffffffffffffff1602179055507f7b7e3969279af3fda11f0fa5cc15a383e2f6b728c911e3b6fe065dc0f30d1908833389426040516200075d949392919062000a6e565b60405180910390a1505095945050505050565b6108388062000c8683390190565b610da180620014be83390190565b610d60806200225f83390190565b600081359050620007ab8162000c51565b92915050565b600081359050620007c28162000c6b565b92915050565b600060208284031215620007e157620007e062000c4c565b5b6000620007f1848285016200079a565b91505092915050565b600080600080600060a0868803121562000819576200081862000c4c565b5b600062000829888289016200079a565b95505060206200083c888289016200079a565b94505060406200084f88828901620007b1565b93505060606200086288828901620007b1565b92505060806200087588828901620007b1565b9150509295509295909350565b600080604083850312156200089c576200089b62000c4c565b5b6000620008ac858286016200079a565b9250506020620008bf85828601620007b1565b9150509250929050565b60008060008060808587031215620008e657620008e562000c4c565b5b6000620008f6878288016200079a565b94505060206200090987828801620007b1565b93505060406200091c87828801620007b1565b92505060606200092f87828801620007b1565b91505092959194509250565b600062000949838362000966565b60208301905092915050565b620009608162000be6565b82525050565b620009718162000bd2565b82525050565b620009828162000bd2565b82525050565b6000620009958262000ba9565b620009a1818562000bc1565b9350620009ae8362000b99565b8060005b83811015620009e5578151620009c988826200093b565b9750620009d68362000bb4565b925050600181019050620009b2565b5085935050505092915050565b620009fd8162000c24565b82525050565b62000a0e8162000c1a565b82525050565b600060208201905062000a2b600083018462000977565b92915050565b600060608201905062000a48600083018662000977565b62000a57602083018562000955565b62000a66604083018462000a03565b949350505050565b600060808201905062000a85600083018762000977565b62000a94602083018662000977565b62000aa3604083018562000977565b62000ab2606083018462000a03565b95945050505050565b600060c08201905062000ad2600083018962000977565b62000ae16020830188620009f2565b62000af0604083018762000a03565b62000aff606083018662000a03565b62000b0e608083018562000a03565b62000b1d60a083018462000977565b979650505050505050565b600060808201905062000b3f600083018762000977565b62000b4e602083018662000a03565b62000b5d604083018562000a03565b62000b6c606083018462000a03565b95945050505050565b6000602082019050818103600083015262000b91818462000988565b905092915050565b6000819050602082019050919050565b600081519050919050565b6000602082019050919050565b600082825260208201905092915050565b600062000bdf8262000bfa565b9050919050565b600062000bf38262000bfa565b9050919050565b600073ffffffffffffffffffffffffffffffffffffffff82169050919050565b6000819050919050565b600062000c318262000c38565b9050919050565b600062000c458262000bfa565b9050919050565b600080fd5b62000c5c8162000bd2565b811462000c6857600080fd5b50565b62000c768162000c1a565b811462000c8257600080fd5b5056fe608060405234801561001057600080fd5b5060405161083838038061083883398181016040528101906100329190610108565b826000806101000a81548173ffffffffffffffffffffffffffffffffffffffff021916908373ffffffffffffffffffffffffffffffffffffffff16021790555081600160006101000a81548173ffffffffffffffffffffffffffffffffffffffff021916908373ffffffffffffffffffffffffffffffffffffffff16021790555080600281905550426003819055505050506101f3565b6000815190506100d8816101ae565b92915050565b6000815190506100ed816101c5565b92915050565b600081519050610102816101dc565b92915050565b600080600060608486031215610121576101206101a9565b5b600061012f868287016100c9565b9350506020610140868287016100de565b9250506040610151868287016100f3565b9150509250925092565b60006101668261017f565b9050919050565b60006101788261017f565b9050919050565b600073ffffffffffffffffffffffffffffffffffffffff82169050919050565b6000819050919050565b600080fd5b6101b78161015b565b81146101c257600080fd5b50565b6101ce8161016d565b81146101d957600080fd5b50565b6101e58161019f565b81146101f057600080fd5b50565b610636806102026000396000f3fe60806040526004361061004e5760003560e01c806302d05d3f1461005d57806349df728c1461008857806369ac5721146100b15780638da5cb5b146100dc578063cf09e0d01461010757610058565b3661005857600080fd5b600080fd5b34801561006957600080fd5b50610072610132565b60405161007f9190610475565b60405180910390f35b34801561009457600080fd5b506100af60048036038101906100aa91906103b2565b610156565b005b3480156100bd57600080fd5b506100c6610341565b6040516100d3919061050b565b60405180910390f35b3480156100e857600080fd5b506100f1610347565b6040516100fe9190610490565b60405180910390f35b34801561011357600080fd5b5061011c61036d565b604051610129919061050b565b60405180910390f35b60008054906101000a900473ffffffffffffffffffffffffffffffffffffffff1681565b600160009054906101000a900473ffffffffffffffffffffffffffffffffffffffff1673ffffffffffffffffffffffffffffffffffffffff163373ffffffffffffffffffffffffffffffffffffffff16146101b057600080fd5b6002544210156101bf57600080fd5b600081905060008173ffffffffffffffffffffffffffffffffffffffff166370a08231306040518263ffffffff1660e01b81526004016101ff9190610475565b60206040518083038186803b15801561021757600080fd5b505afa15801561022b573d6000803e3d6000fd5b505050506040513d601f19601f8201168201806040525081019061024f919061040c565b90508173ffffffffffffffffffffffffffffffffffffffff1663a9059cbb600160009054906101000a900473ffffffffffffffffffffffffffffffffffffffff16836040518363ffffffff1660e01b81526004016102ae9291906104ab565b602060405180830381600087803b1580156102c857600080fd5b505af11580156102dc573d6000803e3d6000fd5b505050506040513d601f19601f8201168201806040525081019061030091906103df565b507fa04c965e7d289704527a948915777d68bb4530fb4b08aa935fb958c0b7901ab9833383604051610334939291906104d4565b60405180910390a1505050565b60025481565b600160009054906101000a900473ffffffffffffffffffffffffffffffffffffffff1681565b60035481565b600081359050610382816105bb565b92915050565b600081519050610397816105d2565b92915050565b6000815190506103ac816105e9565b92915050565b6000602082840312156103c8576103c76105b6565b5b60006103d684828501610373565b91505092915050565b6000602082840312156103f5576103f46105b6565b5b600061040384828501610388565b91505092915050565b600060208284031215610422576104216105b6565b5b60006104308482850161039d565b91505092915050565b61044281610580565b82525050565b61045181610538565b82525050565b61046081610526565b82525050565b61046f81610576565b82525050565b600060208201905061048a6000830184610457565b92915050565b60006020820190506104a56000830184610448565b92915050565b60006040820190506104c06000830185610439565b6104cd6020830184610466565b9392505050565b60006060820190506104e96000830186610457565b6104f66020830185610457565b6105036040830184610466565b949350505050565b60006020820190506105206000830184610466565b92915050565b600061053182610556565b9050919050565b600061054382610556565b9050919050565b60008115159050919050565b600073ffffffffffffffffffffffffffffffffffffffff82169050919050565b6000819050919050565b600061058b82610592565b9050919050565b600061059d826105a4565b9050919050565b60006105af82610556565b9050919050565b600080fd5b6105c481610526565b81146105cf57600080fd5b50565b6105db8161054a565b81146105e657600080fd5b50565b6105f281610576565b81146105fd57600080fd5b5056fea2646970667358221220100ea29c42e2ff2473c7ecf415fb3c80fbff9e321594a8982316692c1d8fa01564736f6c6343000806003360806040523480156200001157600080fd5b5060405162000da138038062000da18339818101604052810190620000379190620000cb565b836000806101000a81548173ffffffffffffffffffffffffffffffffffffffff021916908373ffffffffffffffffffffffffffffffffffffffff1602179055508260018190555042600281905550816003819055508060048190555050505050620001b4565b600081519050620000ae8162000180565b92915050565b600081519050620000c5816200019a565b92915050565b60008060008060808587031215620000e857620000e76200017b565b5b6000620000f8878288016200009d565b94505060206200010b87828801620000b4565b93505060406200011e87828801620000b4565b92505060606200013187828801620000b4565b91505092959194509250565b60006200014a8262000151565b9050919050565b600073ffffffffffffffffffffffffffffffffffffffff82169050919050565b6000819050919050565b600080fd5b6200018b816200013d565b81146200019757600080fd5b50565b620001a58162000171565b8114620001b157600080fd5b50565b610bdd80620001c46000396000f3fe60806040526004361061008a5760003560e01c80638da5cb5b116100595780638da5cb5b14610143578063bd7001ff1461016e578063c884ef83146101ab578063cf09e0d0146101e8578063e3d670d71461021357610094565b806306b091f91461009957806320d3a0b4146100c25780633b3fba16146100ed578063649ae9c61461011857610094565b3661009457600080fd5b600080fd5b3480156100a557600080fd5b506100c060048036038101906100bb91906107b1565b610250565b005b3480156100ce57600080fd5b506100d7610462565b6040516100e49190610927565b60405180910390f35b3480156100f957600080fd5b50610102610468565b60405161010f9190610927565b60405180910390f35b34801561012457600080fd5b5061012d61046e565b60405161013a9190610927565b60405180910390f35b34801561014f57600080fd5b50610158610474565b604051610165919061088c565b60405180910390f35b34801561017a57600080fd5b5061019560048036038101906101909190610784565b610498565b6040516101a29190610927565b60405180910390f35b3480156101b757600080fd5b506101d260048036038101906101cd9190610784565b61062a565b6040516101df9190610927565b60405180910390f35b3480156101f457600080fd5b506101fd610673565b60405161020a9190610927565b60405180910390f35b34801561021f57600080fd5b5061023a60048036038101906102359190610784565b610679565b6040516102479190610927565b60405180910390f35b60008054906101000a900473ffffffffffffffffffffffffffffffffffffffff1673ffffffffffffffffffffffffffffffffffffffff163373ffffffffffffffffffffffffffffffffffffffff16146102a857600080fd5b60006102b383610498565b9050808211156102f8576040517f08c379a00000000000000000000000000000000000000000000000000000000081526004016102ef90610907565b60405180910390fd5b81600660008573ffffffffffffffffffffffffffffffffffffffff1673ffffffffffffffffffffffffffffffffffffffff16815260200190815260200160002060008282546103479190610953565b9250508190555060008390508073ffffffffffffffffffffffffffffffffffffffff1663a9059cbb60008054906101000a900473ffffffffffffffffffffffffffffffffffffffff16856040518363ffffffff1660e01b81526004016103ae9291906108de565b602060405180830381600087803b1580156103c857600080fd5b505af11580156103dc573d6000803e3d6000fd5b505050506040513d601f19601f8201168201806040525081019061040091906107f1565b507fa04c965e7d289704527a948915777d68bb4530fb4b08aa935fb958c0b7901ab98460008054906101000a900473ffffffffffffffffffffffffffffffffffffffff1684604051610454939291906108a7565b60405180910390a150505050565b60035481565b60045481565b60015481565b60008054906101000a900473ffffffffffffffffffffffffffffffffffffffff1681565b600080600660008473ffffffffffffffffffffffffffffffffffffffff1673ffffffffffffffffffffffffffffffffffffffff16815260200190815260200160002054905060008390506000828273ffffffffffffffffffffffffffffffffffffffff166370a0823160008054906101000a900473ffffffffffffffffffffffffffffffffffffffff166040518263ffffffff1660e01b815260040161053e919061088c565b60206040518083038186803b15801561055657600080fd5b505afa15801561056a573d6000803e3d6000fd5b505050506040513d601f19601f8201168201806040525081019061058e919061081e565b6105989190610953565b90506000600154426105aa9190610a34565b905060006001600354836105be91906109a9565b6105c89190610953565b905060006064600454836105dc91906109da565b10156105f557600454826105f091906109da565b6105f8565b60645b9050856064858361060991906109da565b61061391906109a9565b61061d9190610a34565b9650505050505050919050565b6000600660008373ffffffffffffffffffffffffffffffffffffffff1673ffffffffffffffffffffffffffffffffffffffff168152602001908152602001600020549050919050565b60025481565b6000808290508073ffffffffffffffffffffffffffffffffffffffff166370a0823160008054906101000a900473ffffffffffffffffffffffffffffffffffffffff166040518263ffffffff1660e01b81526004016106d8919061088c565b60206040518083038186803b1580156106f057600080fd5b505afa158015610704573d6000803e3d6000fd5b505050506040513d601f19601f82011682018060405250810190610728919061081e565b915050919050565b60008135905061073f81610b62565b92915050565b60008151905061075481610b79565b92915050565b60008135905061076981610b90565b92915050565b60008151905061077e81610b90565b92915050565b60006020828403121561079a57610799610b0e565b5b60006107a884828501610730565b91505092915050565b600080604083850312156107c8576107c7610b0e565b5b60006107d685828601610730565b92505060206107e78582860161075a565b9150509250929050565b60006020828403121561080757610806610b0e565b5b600061081584828501610745565b91505092915050565b60006020828403121561083457610833610b0e565b5b60006108428482850161076f565b91505092915050565b61085481610a68565b82525050565b6000610867602583610942565b915061087282610b13565b604082019050919050565b61088681610aa6565b82525050565b60006020820190506108a1600083018461084b565b92915050565b60006060820190506108bc600083018661084b565b6108c9602083018561084b565b6108d6604083018461087d565b949350505050565b60006040820190506108f3600083018561084b565b610900602083018461087d565b9392505050565b600060208201905081810360008301526109208161085a565b9050919050565b600060208201905061093c600083018461087d565b92915050565b600082825260208201905092915050565b600061095e82610aa6565b915061096983610aa6565b9250827fffffffffffffffffffffffffffffffffffffffffffffffffffffffffffffffff0382111561099e5761099d610ab0565b5b828201905092915050565b60006109b482610aa6565b91506109bf83610aa6565b9250826109cf576109ce610adf565b5b828204905092915050565b60006109e582610aa6565b91506109f083610aa6565b9250817fffffffffffffffffffffffffffffffffffffffffffffffffffffffffffffffff0483118215151615610a2957610a28610ab0565b5b828202905092915050565b6000610a3f82610aa6565b9150610a4a83610aa6565b925082821015610a5d57610a5c610ab0565b5b828203905092915050565b6000610a7382610a86565b9050919050565b60008115159050919050565b600073ffffffffffffffffffffffffffffffffffffffff82169050919050565b6000819050919050565b7f4e487b7100000000000000000000000000000000000000000000000000000000600052601160045260246000fd5b7f4e487b7100000000000000000000000000000000000000000000000000000000600052601260045260246000fd5b600080fd5b7f4e6f7420656e6f7567687420756e6c6f636b656420746f6b656e73206176616960008201527f6c61626c65000000000000000000000000000000000000000000000000000000602082015250565b610b6b81610a68565b8114610b7657600080fd5b50565b610b8281610a7a565b8114610b8d57600080fd5b50565b610b9981610aa6565b8114610ba457600080fd5b5056fea2646970667358221220a888c52c66e989a7dd6cd399463a5dcd9787f78d7357f9cf4bda2f3af18437e864736f6c6343000806003360806040523480156200001157600080fd5b5060405162000d6038038062000d60833981810160405281019062000037919062000166565b856000806101000a81548173ffffffffffffffffffffffffffffffffffffffff021916908373ffffffffffffffffffffffffffffffffffffffff16021790555084600660006101000a81548173ffffffffffffffffffffffffffffffffffffffff021916908373ffffffffffffffffffffffffffffffffffffffff160217905550836001819055504260028190555080600560006101000a81548173ffffffffffffffffffffffffffffffffffffffff021916908373ffffffffffffffffffffffffffffffffffffffff1602179055508260038190555081600481905550505050505050620002a7565b600081519050620001328162000259565b92915050565b600081519050620001498162000273565b92915050565b60008151905062000160816200028d565b92915050565b60008060008060008060c0878903121562000186576200018562000254565b5b60006200019689828a0162000121565b9650506020620001a989828a0162000138565b9550506040620001bc89828a016200014f565b9450506060620001cf89828a016200014f565b9350506080620001e289828a016200014f565b92505060a0620001f589828a0162000121565b9150509295509295509295565b60006200020f826200022a565b9050919050565b6000620002238262000202565b9050919050565b600073ffffffffffffffffffffffffffffffffffffffff82169050919050565b6000819050919050565b600080fd5b620002648162000202565b81146200027057600080fd5b50565b6200027e8162000216565b81146200028a57600080fd5b50565b62000298816200024a565b8114620002a457600080fd5b50565b610aa980620002b76000396000f3fe6080604052600436106100955760003560e01c8063649ae9c611610059578063649ae9c614610179578063b69ef8a8146101a4578063c66e4095146101cf578063cf09e0d0146101fa578063e834a834146102255761009f565b806302d05d3f146100a457806320d3a0b4146100cf5780633b3fba16146100fa57806349df728c1461012557806363f5de761461014e5761009f565b3661009f57600080fd5b600080fd5b3480156100b057600080fd5b506100b9610250565b6040516100c691906107c2565b60405180910390f35b3480156100db57600080fd5b506100e4610274565b6040516100f1919061082f565b60405180910390f35b34801561010657600080fd5b5061010f61027a565b60405161011c919061082f565b60405180910390f35b34801561013157600080fd5b5061014c6004803603810190610147919061070e565b610280565b005b34801561015a57600080fd5b506101636103d9565b604051610170919061082f565b60405180910390f35b34801561018557600080fd5b5061018e61055a565b60405161019b919061082f565b60405180910390f35b3480156101b057600080fd5b506101b9610560565b6040516101c6919061082f565b60405180910390f35b3480156101db57600080fd5b506101e461065c565b6040516101f19190610814565b60405180910390f35b34801561020657600080fd5b5061020f610682565b60405161021c919061082f565b60405180910390f35b34801561023157600080fd5b5061023a610688565b604051610247919061082f565b60405180910390f35b60008054906101000a900473ffffffffffffffffffffffffffffffffffffffff1681565b60035481565b60045481565b6000819050600061028f6103d9565b905080600760003373ffffffffffffffffffffffffffffffffffffffff1673ffffffffffffffffffffffffffffffffffffffff16815260200190815260200160002060008282546102e0919061084a565b925050819055508173ffffffffffffffffffffffffffffffffffffffff166323b872dd600560009054906101000a900473ffffffffffffffffffffffffffffffffffffffff1633846040518463ffffffff1660e01b8152600401610346939291906107dd565b602060405180830381600087803b15801561036057600080fd5b505af1158015610374573d6000803e3d6000fd5b505050506040513d601f19601f82011682018060405250810190610398919061073b565b507fa04c965e7d289704527a948915777d68bb4530fb4b08aa935fb958c0b7901ab98333836040516103cc939291906107dd565b60405180910390a1505050565b600080600660009054906101000a900473ffffffffffffffffffffffffffffffffffffffff1673ffffffffffffffffffffffffffffffffffffffff166397b150ca336040518263ffffffff1660e01b815260040161043791906107c2565b60206040518083038186803b15801561044f57600080fd5b505afa158015610463573d6000803e3d6000fd5b505050506040513d601f19601f820116820180604052508101906104879190610768565b90506000600760003373ffffffffffffffffffffffffffffffffffffffff1673ffffffffffffffffffffffffffffffffffffffff1681526020019081526020016000205490506000600154426104dd919061092b565b905060006001600354836104f191906108a0565b6104fb919061084a565b9050600060646004548361050f91906108d1565b1015610528576004548261052391906108d1565b61052b565b60645b9050836064868361053c91906108d1565b61054691906108a0565b610550919061092b565b9550505050505090565b60015481565b6000600760003373ffffffffffffffffffffffffffffffffffffffff1673ffffffffffffffffffffffffffffffffffffffff16815260200190815260200160002054600660009054906101000a900473ffffffffffffffffffffffffffffffffffffffff1673ffffffffffffffffffffffffffffffffffffffff166397b150ca336040518263ffffffff1660e01b81526004016105fd91906107c2565b60206040518083038186803b15801561061557600080fd5b505afa158015610629573d6000803e3d6000fd5b505050506040513d601f19601f8201168201806040525081019061064d9190610768565b610657919061092b565b905090565b600660009054906101000a900473ffffffffffffffffffffffffffffffffffffffff1681565b60025481565b6000600760003373ffffffffffffffffffffffffffffffffffffffff1673ffffffffffffffffffffffffffffffffffffffff16815260200190815260200160002054905090565b6000813590506106de81610a2e565b92915050565b6000815190506106f381610a45565b92915050565b60008151905061070881610a5c565b92915050565b60006020828403121561072457610723610a29565b5b6000610732848285016106cf565b91505092915050565b60006020828403121561075157610750610a29565b5b600061075f848285016106e4565b91505092915050565b60006020828403121561077e5761077d610a29565b5b600061078c848285016106f9565b91505092915050565b61079e8161095f565b82525050565b6107ad816109a7565b82525050565b6107bc8161099d565b82525050565b60006020820190506107d76000830184610795565b92915050565b60006060820190506107f26000830186610795565b6107ff6020830185610795565b61080c60408301846107b3565b949350505050565b600060208201905061082960008301846107a4565b92915050565b600060208201905061084460008301846107b3565b92915050565b60006108558261099d565b91506108608361099d565b9250827fffffffffffffffffffffffffffffffffffffffffffffffffffffffffffffffff03821115610895576108946109cb565b5b828201905092915050565b60006108ab8261099d565b91506108b68361099d565b9250826108c6576108c56109fa565b5b828204905092915050565b60006108dc8261099d565b91506108e78361099d565b9250817fffffffffffffffffffffffffffffffffffffffffffffffffffffffffffffffff04831182151516156109205761091f6109cb565b5b828202905092915050565b60006109368261099d565b91506109418361099d565b925082821015610954576109536109cb565b5b828203905092915050565b600061096a8261097d565b9050919050565b60008115159050919050565b600073ffffffffffffffffffffffffffffffffffffffff82169050919050565b6000819050919050565b60006109b2826109b9565b9050919050565b60006109c48261097d565b9050919050565b7f4e487b7100000000000000000000000000000000000000000000000000000000600052601160045260246000fd5b7f4e487b7100000000000000000000000000000000000000000000000000000000600052601260045260246000fd5b600080fd5b610a378161095f565b8114610a4257600080fd5b50565b610a4e81610971565b8114610a5957600080fd5b50565b610a658161099d565b8114610a7057600080fd5b5056fea2646970667358221220186f912a8aaa855c05e9638da03dbcaae13b7b3e04278c55c9aa0569e5f5967864736f6c63430008060033a26469706673582212205c4635b9c4ebde64d99dcd02650ee9b075c4600daefe67f33d7b87f2865946a764736f6c63430008060033",
  "immutableReferences": {},
  "source": "// SPDX-License-Identifier: UNLICENSED\npragma solidity ^0.8.6;\n\nimport \"./TimeLockedWallet.sol\";\nimport \"./PeriodicTimeLockedWallet.sol\";\nimport \"./PeriodicTimeLockedMonoWallet.sol\";\n\ncontract TimeLockedWalletFactory {\n \n    mapping(address => address[]) wallets;\n\n    event Created(address wallet, address from, address to, uint256 createdAt);\n    event CreatedMono(address wallet, address from, address to, uint256 createdAt);\n\n    function getWallets(address _user) \n        public\n        view\n        returns(address[] memory)\n    {\n        return wallets[_user];\n    }\n\n    function newTimeLockedWallet(address _owner, uint256 _unlockDate)\n        public\n        returns(address wallet)\n    {\n        // Create new wallet.\n        TimeLockedWallet tlwallet = new TimeLockedWallet(msg.sender, payable(_owner), _unlockDate);\n        \n        wallet = address(tlwallet);\n\n        // Add wallet to sender's wallets.\n        wallets[msg.sender].push(wallet);\n\n        // If owner is the same as sender then add wallet to sender's wallets too.\n        if(msg.sender != _owner){\n            wallets[_owner].push(wallet);\n        }\n\n        // Emit event.\n        emit Created(wallet, msg.sender, _owner, block.timestamp);\n    }\n\n    function newPeriodicTimeLockedWallet(address _owner, uint256 _lockDate, uint256 _unlockPeriod, uint _unlockPercentage)\n        public\n        returns(address wallet)\n    {\n        // Create new wallet.\n        PeriodicTimeLockedWallet tlwallet = new PeriodicTimeLockedWallet(_owner, _lockDate, _unlockPeriod, _unlockPercentage);\n        \n        wallet = address(tlwallet);\n\n        // Add wallet to sender's wallets.\n        wallets[msg.sender].push(wallet);\n\n        // If owner is the same as sender then add wallet to sender's wallets too.\n        if(msg.sender != _owner){\n            wallets[_owner].push(wallet);\n        }\n\n        // Emit event.\n        emit Created(wallet, msg.sender, _owner, block.timestamp);\n    }\n\n    function newPeriodicTimeLockedMonoWallet(address _tokenOwner, address _icoContract, uint256 _lockDate, uint256 _unlockPeriod, uint _unlockPercentage)\n        public\n        returns(address wallet)\n    {\n        ICollectCoinIco ico = ICollectCoinIco(_icoContract);\n\n        // Create new wallet.\n        PeriodicTimeLockedMonoWallet tlwallet = new PeriodicTimeLockedMonoWallet(msg.sender, ico, _lockDate, _unlockPeriod, _unlockPercentage, _tokenOwner);\n        \n        wallet = address(tlwallet);\n\n        // Add wallet to sender's wallets.\n        wallets[msg.sender].push(wallet);\n\n        // Emit event.\n        emit CreatedMono(wallet, msg.sender, _icoContract, block.timestamp);\n    }\n\n    // Prevents accidental sending of ether to the factory\n    receive () payable external {\n        revert();\n    }\n\n    \n}",
  "sourcePath": "/home/eule/Projects/ico-contracts/ethereum/ico/contracts/TimeLockedWalletFactory.sol",
  "compiler": {
    "name": "solc",
    "version": "0.8.6+commit.11564f7e.Emscripten.clang"
  },
  "schemaVersion": "3.4.1",
  "updatedAt": "2021-10-11T21:57:49.857Z",
  "devdoc": {
    "kind": "dev",
    "methods": {},
    "version": 1
  },
  "userdoc": {
    "kind": "user",
    "methods": {},
    "version": 1
  }
}