{
  "contractName": "TimeLockedWalletFactory",
  "abi": [
    {
      "anonymous": false,
      "inputs": [
        {
          "indexed": false,
          "internalType": "address",
          "name": "wallet",
          "type": "address"
        },
        {
          "indexed": false,
          "internalType": "address",
          "name": "from",
          "type": "address"
        },
        {
          "indexed": false,
          "internalType": "address",
          "name": "to",
          "type": "address"
        },
        {
          "indexed": false,
          "internalType": "uint256",
          "name": "createdAt",
          "type": "uint256"
        }
      ],
      "name": "Created",
      "type": "event"
    },
    {
      "anonymous": false,
      "inputs": [
        {
          "indexed": false,
          "internalType": "address",
          "name": "wallet",
          "type": "address"
        },
        {
          "indexed": false,
          "internalType": "address",
          "name": "from",
          "type": "address"
        },
        {
          "indexed": false,
          "internalType": "address",
          "name": "to",
          "type": "address"
        },
        {
          "indexed": false,
          "internalType": "uint256",
          "name": "createdAt",
          "type": "uint256"
        }
      ],
      "name": "CreatedMono",
      "type": "event"
    },
    {
      "stateMutability": "payable",
      "type": "receive",
      "payable": true
    },
    {
      "inputs": [
        {
          "internalType": "address",
          "name": "_user",
          "type": "address"
        }
      ],
      "name": "getWallets",
      "outputs": [
        {
          "internalType": "address[]",
          "name": "",
          "type": "address[]"
        }
      ],
      "stateMutability": "view",
      "type": "function",
      "constant": true
    },
    {
      "inputs": [
        {
          "internalType": "address",
          "name": "_tokenOwner",
          "type": "address"
        },
        {
          "internalType": "address",
          "name": "_icoContract",
          "type": "address"
        },
        {
          "internalType": "uint256",
          "name": "_lockDate",
          "type": "uint256"
        },
        {
          "internalType": "uint256",
          "name": "_unlockPeriod",
          "type": "uint256"
        },
        {
          "internalType": "uint256",
          "name": "_unlockPercentage",
          "type": "uint256"
        }
      ],
      "name": "newPeriodicTimeLockedMonoWallet",
      "outputs": [
        {
          "internalType": "address",
          "name": "wallet",
          "type": "address"
        }
      ],
      "stateMutability": "nonpayable",
      "type": "function"
    }
  ],
  "bytecode": "0x608060405234801561001057600080fd5b506113ca806100206000396000f3fe608060405260043610620000315760003560e01c8063422c29a41462000041578063c63340db1462000085576200003c565b366200003c57600080fd5b600080fd5b3480156200004e57600080fd5b506200006d60048036038101906200006791906200030c565b620000c9565b6040516200007c919062000559565b60405180910390f35b3480156200009257600080fd5b50620000b16004803603810190620000ab919062000338565b62000197565b604051620000c0919062000482565b60405180910390f35b60606000808373ffffffffffffffffffffffffffffffffffffffff1673ffffffffffffffffffffffffffffffffffffffff1681526020019081526020016000208054806020026020016040519081016040528092919081815260200182805480156200018b57602002820191906000526020600020905b8160009054906101000a900473ffffffffffffffffffffffffffffffffffffffff1673ffffffffffffffffffffffffffffffffffffffff168152602001906001019080831162000140575b50505050509050919050565b600080859050600033828787878c604051620001b390620002d0565b620001c496959493929190620004ec565b604051809103906000f080158015620001e1573d6000803e3d6000fd5b5090508092506000803373ffffffffffffffffffffffffffffffffffffffff1673ffffffffffffffffffffffffffffffffffffffff168152602001908152602001600020839080600181540180825580915050600190039060005260206000200160009091909190916101000a81548173ffffffffffffffffffffffffffffffffffffffff021916908373ffffffffffffffffffffffffffffffffffffffff1602179055507f7b7e3969279af3fda11f0fa5cc15a383e2f6b728c911e3b6fe065dc0f30d190883338942604051620002bd94939291906200049f565b60405180910390a1505095945050505050565b610d44806200065183390190565b600081359050620002ef816200061c565b92915050565b600081359050620003068162000636565b92915050565b6000602082840312156200031f57600080fd5b60006200032f84828501620002de565b91505092915050565b600080600080600060a086880312156200035157600080fd5b60006200036188828901620002de565b95505060206200037488828901620002de565b94505060406200038788828901620002f5565b93505060606200039a88828901620002f5565b9250506080620003ad88828901620002f5565b9150509295509295909350565b6000620003c88383620003d4565b60208301905092915050565b620003df81620005b6565b82525050565b620003f081620005b6565b82525050565b600062000403826200058d565b6200040f8185620005a5565b93506200041c836200057d565b8060005b8381101562000453578151620004378882620003ba565b9750620004448362000598565b92505060018101905062000420565b5085935050505092915050565b6200046b81620005f4565b82525050565b6200047c81620005ea565b82525050565b6000602082019050620004996000830184620003e5565b92915050565b6000608082019050620004b66000830187620003e5565b620004c56020830186620003e5565b620004d46040830185620003e5565b620004e3606083018462000471565b95945050505050565b600060c082019050620005036000830189620003e5565b62000512602083018862000460565b62000521604083018762000471565b62000530606083018662000471565b6200053f608083018562000471565b6200054e60a0830184620003e5565b979650505050505050565b60006020820190508181036000830152620005758184620003f6565b905092915050565b6000819050602082019050919050565b600081519050919050565b6000602082019050919050565b600082825260208201905092915050565b6000620005c382620005ca565b9050919050565b600073ffffffffffffffffffffffffffffffffffffffff82169050919050565b6000819050919050565b6000620006018262000608565b9050919050565b60006200061582620005ca565b9050919050565b6200062781620005b6565b81146200063357600080fd5b50565b6200064181620005ea565b81146200064d57600080fd5b5056fe60806040523480156200001157600080fd5b5060405162000d4438038062000d44833981810160405281019062000037919062000166565b856000806101000a81548173ffffffffffffffffffffffffffffffffffffffff021916908373ffffffffffffffffffffffffffffffffffffffff16021790555084600660006101000a81548173ffffffffffffffffffffffffffffffffffffffff021916908373ffffffffffffffffffffffffffffffffffffffff160217905550836001819055504260028190555080600560006101000a81548173ffffffffffffffffffffffffffffffffffffffff021916908373ffffffffffffffffffffffffffffffffffffffff16021790555082600381905550816004819055505050505050506200029c565b60008151905062000132816200024e565b92915050565b600081519050620001498162000268565b92915050565b600081519050620001608162000282565b92915050565b60008060008060008060c087890312156200018057600080fd5b60006200019089828a0162000121565b9650506020620001a389828a0162000138565b9550506040620001b689828a016200014f565b9450506060620001c989828a016200014f565b9350506080620001dc89828a016200014f565b92505060a0620001ef89828a0162000121565b9150509295509295509295565b6000620002098262000224565b9050919050565b60006200021d82620001fc565b9050919050565b600073ffffffffffffffffffffffffffffffffffffffff82169050919050565b6000819050919050565b6200025981620001fc565b81146200026557600080fd5b50565b620002738162000210565b81146200027f57600080fd5b50565b6200028d8162000244565b81146200029957600080fd5b50565b610a9880620002ac6000396000f3fe6080604052600436106100955760003560e01c8063649ae9c611610059578063649ae9c614610179578063b69ef8a8146101a4578063c66e4095146101cf578063cf09e0d0146101fa578063e834a834146102255761009f565b806302d05d3f146100a457806320d3a0b4146100cf5780633b3fba16146100fa57806349df728c1461012557806363f5de761461014e5761009f565b3661009f57600080fd5b600080fd5b3480156100b057600080fd5b506100b9610250565b6040516100c691906107b6565b60405180910390f35b3480156100db57600080fd5b506100e4610274565b6040516100f19190610823565b60405180910390f35b34801561010657600080fd5b5061010f61027a565b60405161011c9190610823565b60405180910390f35b34801561013157600080fd5b5061014c6004803603810190610147919061070e565b610280565b005b34801561015a57600080fd5b506101636103d9565b6040516101709190610823565b60405180910390f35b34801561018557600080fd5b5061018e61055a565b60405161019b9190610823565b60405180910390f35b3480156101b057600080fd5b506101b9610560565b6040516101c69190610823565b60405180910390f35b3480156101db57600080fd5b506101e461065c565b6040516101f19190610808565b60405180910390f35b34801561020657600080fd5b5061020f610682565b60405161021c9190610823565b60405180910390f35b34801561023157600080fd5b5061023a610688565b6040516102479190610823565b60405180910390f35b60008054906101000a900473ffffffffffffffffffffffffffffffffffffffff1681565b60035481565b60045481565b6000819050600061028f6103d9565b905080600760003373ffffffffffffffffffffffffffffffffffffffff1673ffffffffffffffffffffffffffffffffffffffff16815260200190815260200160002060008282546102e0919061083e565b925050819055508173ffffffffffffffffffffffffffffffffffffffff166323b872dd600560009054906101000a900473ffffffffffffffffffffffffffffffffffffffff1633846040518463ffffffff1660e01b8152600401610346939291906107d1565b602060405180830381600087803b15801561036057600080fd5b505af1158015610374573d6000803e3d6000fd5b505050506040513d601f19601f820116820180604052508101906103989190610737565b507fa04c965e7d289704527a948915777d68bb4530fb4b08aa935fb958c0b7901ab98333836040516103cc939291906107d1565b60405180910390a1505050565b600080600660009054906101000a900473ffffffffffffffffffffffffffffffffffffffff1673ffffffffffffffffffffffffffffffffffffffff166397b150ca336040518263ffffffff1660e01b815260040161043791906107b6565b60206040518083038186803b15801561044f57600080fd5b505afa158015610463573d6000803e3d6000fd5b505050506040513d601f19601f820116820180604052508101906104879190610760565b90506000600760003373ffffffffffffffffffffffffffffffffffffffff1673ffffffffffffffffffffffffffffffffffffffff1681526020019081526020016000205490506000600154426104dd919061091f565b905060006001600354836104f19190610894565b6104fb919061083e565b9050600060646004548361050f91906108c5565b1015610528576004548261052391906108c5565b61052b565b60645b9050836064868361053c91906108c5565b6105469190610894565b610550919061091f565b9550505050505090565b60015481565b6000600760003373ffffffffffffffffffffffffffffffffffffffff1673ffffffffffffffffffffffffffffffffffffffff16815260200190815260200160002054600660009054906101000a900473ffffffffffffffffffffffffffffffffffffffff1673ffffffffffffffffffffffffffffffffffffffff166397b150ca336040518263ffffffff1660e01b81526004016105fd91906107b6565b60206040518083038186803b15801561061557600080fd5b505afa158015610629573d6000803e3d6000fd5b505050506040513d601f19601f8201168201806040525081019061064d9190610760565b610657919061091f565b905090565b600660009054906101000a900473ffffffffffffffffffffffffffffffffffffffff1681565b60025481565b6000600760003373ffffffffffffffffffffffffffffffffffffffff1673ffffffffffffffffffffffffffffffffffffffff16815260200190815260200160002054905090565b6000813590506106de81610a1d565b92915050565b6000815190506106f381610a34565b92915050565b60008151905061070881610a4b565b92915050565b60006020828403121561072057600080fd5b600061072e848285016106cf565b91505092915050565b60006020828403121561074957600080fd5b6000610757848285016106e4565b91505092915050565b60006020828403121561077257600080fd5b6000610780848285016106f9565b91505092915050565b61079281610953565b82525050565b6107a18161099b565b82525050565b6107b081610991565b82525050565b60006020820190506107cb6000830184610789565b92915050565b60006060820190506107e66000830186610789565b6107f36020830185610789565b61080060408301846107a7565b949350505050565b600060208201905061081d6000830184610798565b92915050565b600060208201905061083860008301846107a7565b92915050565b600061084982610991565b915061085483610991565b9250827fffffffffffffffffffffffffffffffffffffffffffffffffffffffffffffffff03821115610889576108886109bf565b5b828201905092915050565b600061089f82610991565b91506108aa83610991565b9250826108ba576108b96109ee565b5b828204905092915050565b60006108d082610991565b91506108db83610991565b9250817fffffffffffffffffffffffffffffffffffffffffffffffffffffffffffffffff0483118215151615610914576109136109bf565b5b828202905092915050565b600061092a82610991565b915061093583610991565b925082821015610948576109476109bf565b5b828203905092915050565b600061095e82610971565b9050919050565b60008115159050919050565b600073ffffffffffffffffffffffffffffffffffffffff82169050919050565b6000819050919050565b60006109a6826109ad565b9050919050565b60006109b882610971565b9050919050565b7f4e487b7100000000000000000000000000000000000000000000000000000000600052601160045260246000fd5b7f4e487b7100000000000000000000000000000000000000000000000000000000600052601260045260246000fd5b610a2681610953565b8114610a3157600080fd5b50565b610a3d81610965565b8114610a4857600080fd5b50565b610a5481610991565b8114610a5f57600080fd5b5056fea264697066735822122028ba725551f99738003f6d675e9a94a61258cd26a41d07c292061c811a9ad1ad64736f6c63430008000033a2646970667358221220691730446ee34fa962e7de20bdb9fdb9210f5f3b740ef1c4dcfbc6fb8ffdcd0f64736f6c63430008000033",
  "immutableReferences": {},
  "source": "// SPDX-License-Identifier: UNLICENSED\npragma solidity ^0.8.0;\n\nimport \"./PeriodicTimeLockedMonoWallet.sol\";\n\ncontract TimeLockedWalletFactory {\n \n    mapping(address => address[]) wallets;\n\n    event Created(address wallet, address from, address to, uint256 createdAt);\n    event CreatedMono(address wallet, address from, address to, uint256 createdAt);\n\n    function getWallets(address _user) \n        public\n        view\n        returns(address[] memory)\n    {\n        return wallets[_user];\n    }  \n\n    function newPeriodicTimeLockedMonoWallet(address _tokenOwner, address _icoContract, uint256 _lockDate, uint256 _unlockPeriod, uint _unlockPercentage)\n        public\n        returns(address wallet)\n    {\n        ICollectCoinIco ico = ICollectCoinIco(_icoContract);\n\n        // Create new wallet.\n        PeriodicTimeLockedMonoWallet tlwallet = new PeriodicTimeLockedMonoWallet(msg.sender, ico, _lockDate, _unlockPeriod, _unlockPercentage, _tokenOwner);\n        \n        wallet = address(tlwallet);\n\n        // Add wallet to sender's wallets.\n        wallets[msg.sender].push(wallet);\n\n        // Emit event.\n        emit CreatedMono(wallet, msg.sender, _icoContract, block.timestamp);\n    }\n\n    // Prevents accidental sending of ether to the factory\n    receive () payable external {\n        revert();\n    }\n\n    \n}",
  "sourcePath": "/home/eule/Projects/ico-contracts/ethereum/ico/contracts/TimeLockedWalletFactory.sol",
  "compiler": {
    "name": "solc",
    "version": "0.8.0+commit.c7dfd78e.Emscripten.clang"
  },
  "schemaVersion": "3.4.1",
  "updatedAt": "2021-08-16T13:16:52.225Z",
  "networkType": "ethereum",
  "devdoc": {
    "kind": "dev",
    "methods": {},
    "version": 1
  },
  "userdoc": {
    "kind": "user",
    "methods": {},
    "version": 1
  }
}